{
	"contracts/Tweet get total of like.sol": {
		"Twitter": {
			"abi": [
				{
					"inputs": [],
					"stateMutability": "nonpayable",
					"type": "constructor"
				},
				{
					"anonymous": false,
					"inputs": [
						{
							"indexed": false,
							"internalType": "uint256",
							"name": "id",
							"type": "uint256"
						},
						{
							"indexed": false,
							"internalType": "address",
							"name": "author",
							"type": "address"
						},
						{
							"indexed": false,
							"internalType": "string",
							"name": "content",
							"type": "string"
						},
						{
							"indexed": false,
							"internalType": "uint256",
							"name": "timestamp",
							"type": "uint256"
						}
					],
					"name": "TweetCreated",
					"type": "event"
				},
				{
					"anonymous": false,
					"inputs": [
						{
							"indexed": false,
							"internalType": "address",
							"name": "liker",
							"type": "address"
						},
						{
							"indexed": false,
							"internalType": "address",
							"name": "tweetAuthor",
							"type": "address"
						},
						{
							"indexed": false,
							"internalType": "uint256",
							"name": "tweetId",
							"type": "uint256"
						},
						{
							"indexed": false,
							"internalType": "uint256",
							"name": "newLikeCount",
							"type": "uint256"
						}
					],
					"name": "TweetLiked",
					"type": "event"
				},
				{
					"anonymous": false,
					"inputs": [
						{
							"indexed": false,
							"internalType": "address",
							"name": "unliker",
							"type": "address"
						},
						{
							"indexed": false,
							"internalType": "address",
							"name": "tweetAuthor",
							"type": "address"
						},
						{
							"indexed": false,
							"internalType": "uint256",
							"name": "tweetId",
							"type": "uint256"
						},
						{
							"indexed": false,
							"internalType": "uint256",
							"name": "newLikeCount",
							"type": "uint256"
						}
					],
					"name": "TweetUnliked",
					"type": "event"
				},
				{
					"inputs": [],
					"name": "MAX_TWEET_LENGTH",
					"outputs": [
						{
							"internalType": "uint16",
							"name": "",
							"type": "uint16"
						}
					],
					"stateMutability": "view",
					"type": "function"
				},
				{
					"inputs": [
						{
							"internalType": "uint16",
							"name": "newTweetLength",
							"type": "uint16"
						}
					],
					"name": "changeTweetLength",
					"outputs": [],
					"stateMutability": "nonpayable",
					"type": "function"
				},
				{
					"inputs": [
						{
							"internalType": "string",
							"name": "_tweet",
							"type": "string"
						}
					],
					"name": "createTweet",
					"outputs": [],
					"stateMutability": "nonpayable",
					"type": "function"
				},
				{
					"inputs": [
						{
							"internalType": "address",
							"name": "_owner",
							"type": "address"
						}
					],
					"name": "getAllTweets",
					"outputs": [
						{
							"components": [
								{
									"internalType": "uint256",
									"name": "id",
									"type": "uint256"
								},
								{
									"internalType": "address",
									"name": "author",
									"type": "address"
								},
								{
									"internalType": "string",
									"name": "content",
									"type": "string"
								},
								{
									"internalType": "uint256",
									"name": "timestamp",
									"type": "uint256"
								},
								{
									"internalType": "uint256",
									"name": "likes",
									"type": "uint256"
								}
							],
							"internalType": "struct Twitter.Tweet[]",
							"name": "",
							"type": "tuple[]"
						}
					],
					"stateMutability": "view",
					"type": "function"
				},
				{
					"inputs": [
						{
							"internalType": "uint256",
							"name": "_i",
							"type": "uint256"
						}
					],
					"name": "getTweet",
					"outputs": [
						{
							"components": [
								{
									"internalType": "uint256",
									"name": "id",
									"type": "uint256"
								},
								{
									"internalType": "address",
									"name": "author",
									"type": "address"
								},
								{
									"internalType": "string",
									"name": "content",
									"type": "string"
								},
								{
									"internalType": "uint256",
									"name": "timestamp",
									"type": "uint256"
								},
								{
									"internalType": "uint256",
									"name": "likes",
									"type": "uint256"
								}
							],
							"internalType": "struct Twitter.Tweet",
							"name": "",
							"type": "tuple"
						}
					],
					"stateMutability": "view",
					"type": "function"
				},
				{
					"inputs": [
						{
							"internalType": "address",
							"name": "_author",
							"type": "address"
						}
					],
					"name": "gettotallikes",
					"outputs": [
						{
							"internalType": "uint256",
							"name": "",
							"type": "uint256"
						}
					],
					"stateMutability": "view",
					"type": "function"
				},
				{
					"inputs": [
						{
							"internalType": "address",
							"name": "author",
							"type": "address"
						},
						{
							"internalType": "uint256",
							"name": "id",
							"type": "uint256"
						}
					],
					"name": "likeTweet",
					"outputs": [],
					"stateMutability": "nonpayable",
					"type": "function"
				},
				{
					"inputs": [],
					"name": "owner",
					"outputs": [
						{
							"internalType": "address",
							"name": "",
							"type": "address"
						}
					],
					"stateMutability": "view",
					"type": "function"
				},
				{
					"inputs": [
						{
							"internalType": "address",
							"name": "",
							"type": "address"
						},
						{
							"internalType": "uint256",
							"name": "",
							"type": "uint256"
						}
					],
					"name": "tweets",
					"outputs": [
						{
							"internalType": "uint256",
							"name": "id",
							"type": "uint256"
						},
						{
							"internalType": "address",
							"name": "author",
							"type": "address"
						},
						{
							"internalType": "string",
							"name": "content",
							"type": "string"
						},
						{
							"internalType": "uint256",
							"name": "timestamp",
							"type": "uint256"
						},
						{
							"internalType": "uint256",
							"name": "likes",
							"type": "uint256"
						}
					],
					"stateMutability": "view",
					"type": "function"
				},
				{
					"inputs": [
						{
							"internalType": "address",
							"name": "author",
							"type": "address"
						},
						{
							"internalType": "uint256",
							"name": "id",
							"type": "uint256"
						}
					],
					"name": "unlikeTweet",
					"outputs": [],
					"stateMutability": "nonpayable",
					"type": "function"
				}
			],
			"devdoc": {
				"kind": "dev",
				"methods": {},
				"version": 1
			},
			"evm": {
				"assembly": "    /* \"contracts/Tweet get total of like.sol\":278:2928  contract Twitter {... */\n  mstore(0x40, 0x80)\n    /* \"contracts/Tweet get total of like.sol\":337:340  280 */\n  0x0118\n    /* \"contracts/Tweet get total of like.sol\":304:340  uint16 public MAX_TWEET_LENGTH = 280 */\n  0x00\n  dup1\n  0x0100\n  exp\n  dup2\n  sload\n  dup2\n  0xffff\n  mul\n  not\n  and\n  swap1\n  dup4\n  0xffff\n  and\n  mul\n  or\n  swap1\n  sstore\n  pop\n    /* \"contracts/Tweet get total of like.sol\":893:944  constructor() {... */\n  callvalue\n  dup1\n  iszero\n  tag_1\n  jumpi\n  0x00\n  dup1\n  revert\ntag_1:\n  pop\n    /* \"contracts/Tweet get total of like.sol\":926:936  msg.sender */\n  caller\n    /* \"contracts/Tweet get total of like.sol\":918:923  owner */\n  0x02\n  0x00\n    /* \"contracts/Tweet get total of like.sol\":918:936  owner = msg.sender */\n  0x0100\n  exp\n  dup2\n  sload\n  dup2\n  0xffffffffffffffffffffffffffffffffffffffff\n  mul\n  not\n  and\n  swap1\n  dup4\n  0xffffffffffffffffffffffffffffffffffffffff\n  and\n  mul\n  or\n  swap1\n  sstore\n  pop\n    /* \"contracts/Tweet get total of like.sol\":278:2928  contract Twitter {... */\n  dataSize(sub_0)\n  dup1\n  dataOffset(sub_0)\n  0x00\n  codecopy\n  0x00\n  return\nstop\n\nsub_0: assembly {\n        /* \"contracts/Tweet get total of like.sol\":278:2928  contract Twitter {... */\n      mstore(0x40, 0x80)\n      callvalue\n      dup1\n      iszero\n      tag_1\n      jumpi\n      0x00\n      dup1\n      revert\n    tag_1:\n      pop\n      jumpi(tag_2, lt(calldatasize, 0x04))\n      shr(0xe0, calldataload(0x00))\n      dup1\n      0x63378216\n      gt\n      tag_13\n      jumpi\n      dup1\n      0x63378216\n      eq\n      tag_8\n      jumpi\n      dup1\n      0x6eb10797\n      eq\n      tag_9\n      jumpi\n      dup1\n      0x7c9cd2bc\n      eq\n      tag_10\n      jumpi\n      dup1\n      0x8da5cb5b\n      eq\n      tag_11\n      jumpi\n      dup1\n      0xc3ad5ecb\n      eq\n      tag_12\n      jumpi\n      jump(tag_2)\n    tag_13:\n      dup1\n      0x05a1b4a9\n      eq\n      tag_3\n      jumpi\n      dup1\n      0x0b76c1c9\n      eq\n      tag_4\n      jumpi\n      dup1\n      0x12e7ee1c\n      eq\n      tag_5\n      jumpi\n      dup1\n      0x3d9b569f\n      eq\n      tag_6\n      jumpi\n      dup1\n      0x58bfa4ab\n      eq\n      tag_7\n      jumpi\n    tag_2:\n      0x00\n      dup1\n      revert\n        /* \"contracts/Tweet get total of like.sol\":499:541  mapping(address => Tweet[] ) public tweets */\n    tag_3:\n      tag_14\n      0x04\n      dup1\n      calldatasize\n      sub\n      dup2\n      add\n      swap1\n      tag_15\n      swap2\n      swap1\n      tag_16\n      jump\t// in\n    tag_15:\n      tag_17\n      jump\t// in\n    tag_14:\n      mload(0x40)\n      tag_18\n      swap6\n      swap5\n      swap4\n      swap3\n      swap2\n      swap1\n      tag_19\n      jump\t// in\n    tag_18:\n      mload(0x40)\n      dup1\n      swap2\n      sub\n      swap1\n      return\n        /* \"contracts/Tweet get total of like.sol\":1193:1475  function gettotallikes(address _author) external view returns (uint){... */\n    tag_4:\n      tag_20\n      0x04\n      dup1\n      calldatasize\n      sub\n      dup2\n      add\n      swap1\n      tag_21\n      swap2\n      swap1\n      tag_22\n      jump\t// in\n    tag_21:\n      tag_23\n      jump\t// in\n    tag_20:\n      mload(0x40)\n      tag_24\n      swap2\n      swap1\n      tag_25\n      jump\t// in\n    tag_24:\n      mload(0x40)\n      dup1\n      swap2\n      sub\n      swap1\n      return\n        /* \"contracts/Tweet get total of like.sol\":2808:2923  function getAllTweets(address _owner) public view returns (Tweet[] memory ){... */\n    tag_5:\n      tag_26\n      0x04\n      dup1\n      calldatasize\n      sub\n      dup2\n      add\n      swap1\n      tag_27\n      swap2\n      swap1\n      tag_22\n      jump\t// in\n    tag_27:\n      tag_28\n      jump\t// in\n    tag_26:\n      mload(0x40)\n      tag_29\n      swap2\n      swap1\n      tag_30\n      jump\t// in\n    tag_29:\n      mload(0x40)\n      dup1\n      swap2\n      sub\n      swap1\n      return\n        /* \"contracts/Tweet get total of like.sol\":2346:2681  function unlikeTweet(address author, uint256 id) external {... */\n    tag_6:\n      tag_31\n      0x04\n      dup1\n      calldatasize\n      sub\n      dup2\n      add\n      swap1\n      tag_32\n      swap2\n      swap1\n      tag_16\n      jump\t// in\n    tag_32:\n      tag_33\n      jump\t// in\n    tag_31:\n      stop\n        /* \"contracts/Tweet get total of like.sol\":1066:1185  function changeTweetLength(uint16 newTweetLength) public onlyOwner {... */\n    tag_7:\n      tag_34\n      0x04\n      dup1\n      calldatasize\n      sub\n      dup2\n      add\n      swap1\n      tag_35\n      swap2\n      swap1\n      tag_36\n      jump\t// in\n    tag_35:\n      tag_37\n      jump\t// in\n    tag_34:\n      stop\n        /* \"contracts/Tweet get total of like.sol\":2046:2338  function likeTweet(address author, uint256 id) external {  ... */\n    tag_8:\n      tag_38\n      0x04\n      dup1\n      calldatasize\n      sub\n      dup2\n      add\n      swap1\n      tag_39\n      swap2\n      swap1\n      tag_16\n      jump\t// in\n    tag_39:\n      tag_40\n      jump\t// in\n    tag_38:\n      stop\n        /* \"contracts/Tweet get total of like.sol\":304:340  uint16 public MAX_TWEET_LENGTH = 280 */\n    tag_9:\n      tag_41\n      tag_42\n      jump\t// in\n    tag_41:\n      mload(0x40)\n      tag_43\n      swap2\n      swap1\n      tag_44\n      jump\t// in\n    tag_43:\n      mload(0x40)\n      dup1\n      swap2\n      sub\n      swap1\n      return\n        /* \"contracts/Tweet get total of like.sol\":1483:2038  function createTweet(string memory _tweet) public {... */\n    tag_10:\n      tag_45\n      0x04\n      dup1\n      calldatasize\n      sub\n      dup2\n      add\n      swap1\n      tag_46\n      swap2\n      swap1\n      tag_47\n      jump\t// in\n    tag_46:\n      tag_48\n      jump\t// in\n    tag_45:\n      stop\n        /* \"contracts/Tweet get total of like.sol\":548:568  address public owner */\n    tag_11:\n      tag_49\n      tag_50\n      jump\t// in\n    tag_49:\n      mload(0x40)\n      tag_51\n      swap2\n      swap1\n      tag_52\n      jump\t// in\n    tag_51:\n      mload(0x40)\n      dup1\n      swap2\n      sub\n      swap1\n      return\n        /* \"contracts/Tweet get total of like.sol\":2689:2800  function getTweet( uint _i) public view returns (Tweet memory) {... */\n    tag_12:\n      tag_53\n      0x04\n      dup1\n      calldatasize\n      sub\n      dup2\n      add\n      swap1\n      tag_54\n      swap2\n      swap1\n      tag_55\n      jump\t// in\n    tag_54:\n      tag_56\n      jump\t// in\n    tag_53:\n      mload(0x40)\n      tag_57\n      swap2\n      swap1\n      tag_58\n      jump\t// in\n    tag_57:\n      mload(0x40)\n      dup1\n      swap2\n      sub\n      swap1\n      return\n        /* \"contracts/Tweet get total of like.sol\":499:541  mapping(address => Tweet[] ) public tweets */\n    tag_17:\n      mstore(0x20, 0x01)\n      dup2\n      0x00\n      mstore\n      keccak256(0x00, 0x40)\n      dup2\n      dup2\n      sload\n      dup2\n      lt\n      tag_59\n      jumpi\n      0x00\n      dup1\n      revert\n    tag_59:\n      swap1\n      0x00\n      mstore\n      keccak256(0x00, 0x20)\n      swap1\n      0x05\n      mul\n      add\n      0x00\n      swap2\n      pop\n      swap2\n      pop\n      pop\n      dup1\n      0x00\n      add\n      sload\n      swap1\n      dup1\n      0x01\n      add\n      0x00\n      swap1\n      sload\n      swap1\n      0x0100\n      exp\n      swap1\n      div\n      0xffffffffffffffffffffffffffffffffffffffff\n      and\n      swap1\n      dup1\n      0x02\n      add\n      dup1\n      sload\n      tag_61\n      swap1\n      tag_62\n      jump\t// in\n    tag_61:\n      dup1\n      0x1f\n      add\n      0x20\n      dup1\n      swap2\n      div\n      mul\n      0x20\n      add\n      mload(0x40)\n      swap1\n      dup2\n      add\n      0x40\n      mstore\n      dup1\n      swap3\n      swap2\n      swap1\n      dup2\n      dup2\n      mstore\n      0x20\n      add\n      dup3\n      dup1\n      sload\n      tag_63\n      swap1\n      tag_62\n      jump\t// in\n    tag_63:\n      dup1\n      iszero\n      tag_64\n      jumpi\n      dup1\n      0x1f\n      lt\n      tag_65\n      jumpi\n      0x0100\n      dup1\n      dup4\n      sload\n      div\n      mul\n      dup4\n      mstore\n      swap2\n      0x20\n      add\n      swap2\n      jump(tag_64)\n    tag_65:\n      dup3\n      add\n      swap2\n      swap1\n      0x00\n      mstore\n      keccak256(0x00, 0x20)\n      swap1\n    tag_66:\n      dup2\n      sload\n      dup2\n      mstore\n      swap1\n      0x01\n      add\n      swap1\n      0x20\n      add\n      dup1\n      dup4\n      gt\n      tag_66\n      jumpi\n      dup3\n      swap1\n      sub\n      0x1f\n      and\n      dup3\n      add\n      swap2\n    tag_64:\n      pop\n      pop\n      pop\n      pop\n      pop\n      swap1\n      dup1\n      0x03\n      add\n      sload\n      swap1\n      dup1\n      0x04\n      add\n      sload\n      swap1\n      pop\n      dup6\n      jump\t// out\n        /* \"contracts/Tweet get total of like.sol\":1193:1475  function gettotallikes(address _author) external view returns (uint){... */\n    tag_23:\n        /* \"contracts/Tweet get total of like.sol\":1256:1260  uint */\n      0x00\n        /* \"contracts/Tweet get total of like.sol\":1272:1287  uint totallikes */\n      dup1\n        /* \"contracts/Tweet get total of like.sol\":1305:1311  uint i */\n      0x00\n        /* \"contracts/Tweet get total of like.sol\":1300:1438  for (uint i=0; i < tweets[_author].length ; i++) ... */\n    tag_68:\n        /* \"contracts/Tweet get total of like.sol\":1319:1325  tweets */\n      0x01\n        /* \"contracts/Tweet get total of like.sol\":1319:1334  tweets[_author] */\n      0x00\n        /* \"contracts/Tweet get total of like.sol\":1326:1333  _author */\n      dup6\n        /* \"contracts/Tweet get total of like.sol\":1319:1334  tweets[_author] */\n      0xffffffffffffffffffffffffffffffffffffffff\n      and\n      0xffffffffffffffffffffffffffffffffffffffff\n      and\n      dup2\n      mstore\n      0x20\n      add\n      swap1\n      dup2\n      mstore\n      0x20\n      add\n      0x00\n      keccak256\n        /* \"contracts/Tweet get total of like.sol\":1319:1341  tweets[_author].length */\n      dup1\n      sload\n      swap1\n      pop\n        /* \"contracts/Tweet get total of like.sol\":1315:1316  i */\n      dup2\n        /* \"contracts/Tweet get total of like.sol\":1315:1341  i < tweets[_author].length */\n      lt\n        /* \"contracts/Tweet get total of like.sol\":1300:1438  for (uint i=0; i < tweets[_author].length ; i++) ... */\n      iszero\n      tag_69\n      jumpi\n        /* \"contracts/Tweet get total of like.sol\":1388:1394  tweets */\n      0x01\n        /* \"contracts/Tweet get total of like.sol\":1388:1403  tweets[_author] */\n      0x00\n        /* \"contracts/Tweet get total of like.sol\":1395:1402  _author */\n      dup6\n        /* \"contracts/Tweet get total of like.sol\":1388:1403  tweets[_author] */\n      0xffffffffffffffffffffffffffffffffffffffff\n      and\n      0xffffffffffffffffffffffffffffffffffffffff\n      and\n      dup2\n      mstore\n      0x20\n      add\n      swap1\n      dup2\n      mstore\n      0x20\n      add\n      0x00\n      keccak256\n        /* \"contracts/Tweet get total of like.sol\":1404:1405  i */\n      dup2\n        /* \"contracts/Tweet get total of like.sol\":1388:1406  tweets[_author][i] */\n      dup2\n      sload\n      dup2\n      lt\n      tag_71\n      jumpi\n      tag_72\n      tag_73\n      jump\t// in\n    tag_72:\n    tag_71:\n      swap1\n      0x00\n      mstore\n      keccak256(0x00, 0x20)\n      swap1\n      0x05\n      mul\n      add\n        /* \"contracts/Tweet get total of like.sol\":1388:1412  tweets[_author][i].likes */\n      0x04\n      add\n      sload\n        /* \"contracts/Tweet get total of like.sol\":1374:1412  totallikes += tweets[_author][i].likes */\n      dup3\n      tag_75\n      swap2\n      swap1\n      tag_76\n      jump\t// in\n    tag_75:\n      swap2\n      pop\n        /* \"contracts/Tweet get total of like.sol\":1344:1347  i++ */\n      dup1\n      dup1\n      0x01\n      add\n      swap2\n      pop\n      pop\n        /* \"contracts/Tweet get total of like.sol\":1300:1438  for (uint i=0; i < tweets[_author].length ; i++) ... */\n      jump(tag_68)\n    tag_69:\n      pop\n        /* \"contracts/Tweet get total of like.sol\":1455:1465  totallikes */\n      dup1\n        /* \"contracts/Tweet get total of like.sol\":1448:1465  return totallikes */\n      swap2\n      pop\n      pop\n        /* \"contracts/Tweet get total of like.sol\":1193:1475  function gettotallikes(address _author) external view returns (uint){... */\n      swap2\n      swap1\n      pop\n      jump\t// out\n        /* \"contracts/Tweet get total of like.sol\":2808:2923  function getAllTweets(address _owner) public view returns (Tweet[] memory ){... */\n    tag_28:\n        /* \"contracts/Tweet get total of like.sol\":2867:2881  Tweet[] memory */\n      0x60\n        /* \"contracts/Tweet get total of like.sol\":2901:2907  tweets */\n      0x01\n        /* \"contracts/Tweet get total of like.sol\":2901:2915  tweets[_owner] */\n      0x00\n        /* \"contracts/Tweet get total of like.sol\":2908:2914  _owner */\n      dup4\n        /* \"contracts/Tweet get total of like.sol\":2901:2915  tweets[_owner] */\n      0xffffffffffffffffffffffffffffffffffffffff\n      and\n      0xffffffffffffffffffffffffffffffffffffffff\n      and\n      dup2\n      mstore\n      0x20\n      add\n      swap1\n      dup2\n      mstore\n      0x20\n      add\n      0x00\n      keccak256\n        /* \"contracts/Tweet get total of like.sol\":2894:2915  return tweets[_owner] */\n      dup1\n      sload\n      dup1\n      0x20\n      mul\n      0x20\n      add\n      mload(0x40)\n      swap1\n      dup2\n      add\n      0x40\n      mstore\n      dup1\n      swap3\n      swap2\n      swap1\n      dup2\n      dup2\n      mstore\n      0x20\n      add\n      0x00\n      swap1\n    tag_78:\n      dup3\n      dup3\n      lt\n      iszero\n      tag_79\n      jumpi\n      dup4\n      dup3\n      swap1\n      0x00\n      mstore\n      keccak256(0x00, 0x20)\n      swap1\n      0x05\n      mul\n      add\n      mload(0x40)\n      dup1\n      0xa0\n      add\n      0x40\n      mstore\n      swap1\n      dup2\n      0x00\n      dup3\n      add\n      sload\n      dup2\n      mstore\n      0x20\n      add\n      0x01\n      dup3\n      add\n      0x00\n      swap1\n      sload\n      swap1\n      0x0100\n      exp\n      swap1\n      div\n      0xffffffffffffffffffffffffffffffffffffffff\n      and\n      0xffffffffffffffffffffffffffffffffffffffff\n      and\n      0xffffffffffffffffffffffffffffffffffffffff\n      and\n      dup2\n      mstore\n      0x20\n      add\n      0x02\n      dup3\n      add\n      dup1\n      sload\n      tag_81\n      swap1\n      tag_62\n      jump\t// in\n    tag_81:\n      dup1\n      0x1f\n      add\n      0x20\n      dup1\n      swap2\n      div\n      mul\n      0x20\n      add\n      mload(0x40)\n      swap1\n      dup2\n      add\n      0x40\n      mstore\n      dup1\n      swap3\n      swap2\n      swap1\n      dup2\n      dup2\n      mstore\n      0x20\n      add\n      dup3\n      dup1\n      sload\n      tag_82\n      swap1\n      tag_62\n      jump\t// in\n    tag_82:\n      dup1\n      iszero\n      tag_83\n      jumpi\n      dup1\n      0x1f\n      lt\n      tag_84\n      jumpi\n      0x0100\n      dup1\n      dup4\n      sload\n      div\n      mul\n      dup4\n      mstore\n      swap2\n      0x20\n      add\n      swap2\n      jump(tag_83)\n    tag_84:\n      dup3\n      add\n      swap2\n      swap1\n      0x00\n      mstore\n      keccak256(0x00, 0x20)\n      swap1\n    tag_85:\n      dup2\n      sload\n      dup2\n      mstore\n      swap1\n      0x01\n      add\n      swap1\n      0x20\n      add\n      dup1\n      dup4\n      gt\n      tag_85\n      jumpi\n      dup3\n      swap1\n      sub\n      0x1f\n      and\n      dup3\n      add\n      swap2\n    tag_83:\n      pop\n      pop\n      pop\n      pop\n      pop\n      dup2\n      mstore\n      0x20\n      add\n      0x03\n      dup3\n      add\n      sload\n      dup2\n      mstore\n      0x20\n      add\n      0x04\n      dup3\n      add\n      sload\n      dup2\n      mstore\n      pop\n      pop\n      dup2\n      mstore\n      0x20\n      add\n      swap1\n      0x01\n      add\n      swap1\n      jump(tag_78)\n    tag_79:\n      pop\n      pop\n      pop\n      pop\n      swap1\n      pop\n        /* \"contracts/Tweet get total of like.sol\":2808:2923  function getAllTweets(address _owner) public view returns (Tweet[] memory ){... */\n      swap2\n      swap1\n      pop\n      jump\t// out\n        /* \"contracts/Tweet get total of like.sol\":2346:2681  function unlikeTweet(address author, uint256 id) external {... */\n    tag_33:\n        /* \"contracts/Tweet get total of like.sol\":2448:2450  id */\n      dup1\n        /* \"contracts/Tweet get total of like.sol\":2423:2429  tweets */\n      0x01\n        /* \"contracts/Tweet get total of like.sol\":2423:2437  tweets[author] */\n      0x00\n        /* \"contracts/Tweet get total of like.sol\":2430:2436  author */\n      dup5\n        /* \"contracts/Tweet get total of like.sol\":2423:2437  tweets[author] */\n      0xffffffffffffffffffffffffffffffffffffffff\n      and\n      0xffffffffffffffffffffffffffffffffffffffff\n      and\n      dup2\n      mstore\n      0x20\n      add\n      swap1\n      dup2\n      mstore\n      0x20\n      add\n      0x00\n      keccak256\n        /* \"contracts/Tweet get total of like.sol\":2438:2440  id */\n      dup3\n        /* \"contracts/Tweet get total of like.sol\":2423:2441  tweets[author][id] */\n      dup2\n      sload\n      dup2\n      lt\n      tag_87\n      jumpi\n      tag_88\n      tag_73\n      jump\t// in\n    tag_88:\n    tag_87:\n      swap1\n      0x00\n      mstore\n      keccak256(0x00, 0x20)\n      swap1\n      0x05\n      mul\n      add\n        /* \"contracts/Tweet get total of like.sol\":2423:2444  tweets[author][id].id */\n      0x00\n      add\n      sload\n        /* \"contracts/Tweet get total of like.sol\":2423:2450  tweets[author][id].id == id */\n      eq\n        /* \"contracts/Tweet get total of like.sol\":2415:2475  require(tweets[author][id].id == id, \"TWEET DOES NOT EXIST\") */\n      tag_90\n      jumpi\n      mload(0x40)\n      0x08c379a000000000000000000000000000000000000000000000000000000000\n      dup2\n      mstore\n      0x04\n      add\n      tag_91\n      swap1\n      tag_92\n      jump\t// in\n    tag_91:\n      mload(0x40)\n      dup1\n      swap2\n      sub\n      swap1\n      revert\n    tag_90:\n        /* \"contracts/Tweet get total of like.sol\":2521:2522  0 */\n      0x00\n        /* \"contracts/Tweet get total of like.sol\":2494:2500  tweets */\n      0x01\n        /* \"contracts/Tweet get total of like.sol\":2494:2508  tweets[author] */\n      0x00\n        /* \"contracts/Tweet get total of like.sol\":2501:2507  author */\n      dup5\n        /* \"contracts/Tweet get total of like.sol\":2494:2508  tweets[author] */\n      0xffffffffffffffffffffffffffffffffffffffff\n      and\n      0xffffffffffffffffffffffffffffffffffffffff\n      and\n      dup2\n      mstore\n      0x20\n      add\n      swap1\n      dup2\n      mstore\n      0x20\n      add\n      0x00\n      keccak256\n        /* \"contracts/Tweet get total of like.sol\":2509:2511  id */\n      dup3\n        /* \"contracts/Tweet get total of like.sol\":2494:2512  tweets[author][id] */\n      dup2\n      sload\n      dup2\n      lt\n      tag_93\n      jumpi\n      tag_94\n      tag_73\n      jump\t// in\n    tag_94:\n    tag_93:\n      swap1\n      0x00\n      mstore\n      keccak256(0x00, 0x20)\n      swap1\n      0x05\n      mul\n      add\n        /* \"contracts/Tweet get total of like.sol\":2494:2518  tweets[author][id].likes */\n      0x04\n      add\n      sload\n        /* \"contracts/Tweet get total of like.sol\":2494:2522  tweets[author][id].likes > 0 */\n      gt\n        /* \"contracts/Tweet get total of like.sol\":2486:2545  require(tweets[author][id].likes > 0, \"TWEET HAS NO LIKES\") */\n      tag_96\n      jumpi\n      mload(0x40)\n      0x08c379a000000000000000000000000000000000000000000000000000000000\n      dup2\n      mstore\n      0x04\n      add\n      tag_97\n      swap1\n      tag_98\n      jump\t// in\n    tag_97:\n      mload(0x40)\n      dup1\n      swap2\n      sub\n      swap1\n      revert\n    tag_96:\n        /* \"contracts/Tweet get total of like.sol\":2566:2572  tweets */\n      0x01\n        /* \"contracts/Tweet get total of like.sol\":2566:2580  tweets[author] */\n      0x00\n        /* \"contracts/Tweet get total of like.sol\":2573:2579  author */\n      dup4\n        /* \"contracts/Tweet get total of like.sol\":2566:2580  tweets[author] */\n      0xffffffffffffffffffffffffffffffffffffffff\n      and\n      0xffffffffffffffffffffffffffffffffffffffff\n      and\n      dup2\n      mstore\n      0x20\n      add\n      swap1\n      dup2\n      mstore\n      0x20\n      add\n      0x00\n      keccak256\n        /* \"contracts/Tweet get total of like.sol\":2581:2583  id */\n      dup2\n        /* \"contracts/Tweet get total of like.sol\":2566:2584  tweets[author][id] */\n      dup2\n      sload\n      dup2\n      lt\n      tag_99\n      jumpi\n      tag_100\n      tag_73\n      jump\t// in\n    tag_100:\n    tag_99:\n      swap1\n      0x00\n      mstore\n      keccak256(0x00, 0x20)\n      swap1\n      0x05\n      mul\n      add\n        /* \"contracts/Tweet get total of like.sol\":2566:2590  tweets[author][id].likes */\n      0x04\n      add\n      0x00\n        /* \"contracts/Tweet get total of like.sol\":2566:2592  tweets[author][id].likes-- */\n      dup2\n      sload\n      dup1\n      swap3\n      swap2\n      swap1\n      tag_102\n      swap1\n      tag_103\n      jump\t// in\n    tag_102:\n      swap2\n      swap1\n      pop\n      sstore\n      pop\n        /* \"contracts/Tweet get total of like.sol\":2610:2673  TweetUnliked(msg.sender, author, id, tweets[author][id].likes ) */\n      0x762c2616349603ac16eba0de8e6141b79129a07ab63bd99e0a80b3a471716943\n        /* \"contracts/Tweet get total of like.sol\":2623:2633  msg.sender */\n      caller\n        /* \"contracts/Tweet get total of like.sol\":2635:2641  author */\n      dup4\n        /* \"contracts/Tweet get total of like.sol\":2643:2645  id */\n      dup4\n        /* \"contracts/Tweet get total of like.sol\":2647:2653  tweets */\n      0x01\n        /* \"contracts/Tweet get total of like.sol\":2647:2661  tweets[author] */\n      0x00\n        /* \"contracts/Tweet get total of like.sol\":2654:2660  author */\n      dup8\n        /* \"contracts/Tweet get total of like.sol\":2647:2661  tweets[author] */\n      0xffffffffffffffffffffffffffffffffffffffff\n      and\n      0xffffffffffffffffffffffffffffffffffffffff\n      and\n      dup2\n      mstore\n      0x20\n      add\n      swap1\n      dup2\n      mstore\n      0x20\n      add\n      0x00\n      keccak256\n        /* \"contracts/Tweet get total of like.sol\":2662:2664  id */\n      dup6\n        /* \"contracts/Tweet get total of like.sol\":2647:2665  tweets[author][id] */\n      dup2\n      sload\n      dup2\n      lt\n      tag_104\n      jumpi\n      tag_105\n      tag_73\n      jump\t// in\n    tag_105:\n    tag_104:\n      swap1\n      0x00\n      mstore\n      keccak256(0x00, 0x20)\n      swap1\n      0x05\n      mul\n      add\n        /* \"contracts/Tweet get total of like.sol\":2647:2671  tweets[author][id].likes */\n      0x04\n      add\n      sload\n        /* \"contracts/Tweet get total of like.sol\":2610:2673  TweetUnliked(msg.sender, author, id, tweets[author][id].likes ) */\n      mload(0x40)\n      tag_107\n      swap5\n      swap4\n      swap3\n      swap2\n      swap1\n      tag_108\n      jump\t// in\n    tag_107:\n      mload(0x40)\n      dup1\n      swap2\n      sub\n      swap1\n      log1\n        /* \"contracts/Tweet get total of like.sol\":2346:2681  function unlikeTweet(address author, uint256 id) external {... */\n      pop\n      pop\n      jump\t// out\n        /* \"contracts/Tweet get total of like.sol\":1066:1185  function changeTweetLength(uint16 newTweetLength) public onlyOwner {... */\n    tag_37:\n        /* \"contracts/Tweet get total of like.sol\":1006:1011  owner */\n      0x02\n      0x00\n      swap1\n      sload\n      swap1\n      0x0100\n      exp\n      swap1\n      div\n      0xffffffffffffffffffffffffffffffffffffffff\n      and\n        /* \"contracts/Tweet get total of like.sol\":992:1011  msg.sender == owner */\n      0xffffffffffffffffffffffffffffffffffffffff\n      and\n        /* \"contracts/Tweet get total of like.sol\":992:1002  msg.sender */\n      caller\n        /* \"contracts/Tweet get total of like.sol\":992:1011  msg.sender == owner */\n      0xffffffffffffffffffffffffffffffffffffffff\n      and\n      eq\n        /* \"contracts/Tweet get total of like.sol\":984:1038  require(msg.sender == owner, \"YOU ARE NOT THE OWNER!\") */\n      tag_110\n      jumpi\n      mload(0x40)\n      0x08c379a000000000000000000000000000000000000000000000000000000000\n      dup2\n      mstore\n      0x04\n      add\n      tag_111\n      swap1\n      tag_112\n      jump\t// in\n    tag_111:\n      mload(0x40)\n      dup1\n      swap2\n      sub\n      swap1\n      revert\n    tag_110:\n        /* \"contracts/Tweet get total of like.sol\":1163:1177  newTweetLength */\n      dup1\n        /* \"contracts/Tweet get total of like.sol\":1144:1160  MAX_TWEET_LENGTH */\n      0x00\n      dup1\n        /* \"contracts/Tweet get total of like.sol\":1144:1177  MAX_TWEET_LENGTH = newTweetLength */\n      0x0100\n      exp\n      dup2\n      sload\n      dup2\n      0xffff\n      mul\n      not\n      and\n      swap1\n      dup4\n      0xffff\n      and\n      mul\n      or\n      swap1\n      sstore\n      pop\n        /* \"contracts/Tweet get total of like.sol\":1066:1185  function changeTweetLength(uint16 newTweetLength) public onlyOwner {... */\n      pop\n      jump\t// out\n        /* \"contracts/Tweet get total of like.sol\":2046:2338  function likeTweet(address author, uint256 id) external {  ... */\n    tag_40:\n        /* \"contracts/Tweet get total of like.sol\":2148:2150  id */\n      dup1\n        /* \"contracts/Tweet get total of like.sol\":2123:2129  tweets */\n      0x01\n        /* \"contracts/Tweet get total of like.sol\":2123:2137  tweets[author] */\n      0x00\n        /* \"contracts/Tweet get total of like.sol\":2130:2136  author */\n      dup5\n        /* \"contracts/Tweet get total of like.sol\":2123:2137  tweets[author] */\n      0xffffffffffffffffffffffffffffffffffffffff\n      and\n      0xffffffffffffffffffffffffffffffffffffffff\n      and\n      dup2\n      mstore\n      0x20\n      add\n      swap1\n      dup2\n      mstore\n      0x20\n      add\n      0x00\n      keccak256\n        /* \"contracts/Tweet get total of like.sol\":2138:2140  id */\n      dup3\n        /* \"contracts/Tweet get total of like.sol\":2123:2141  tweets[author][id] */\n      dup2\n      sload\n      dup2\n      lt\n      tag_115\n      jumpi\n      tag_116\n      tag_73\n      jump\t// in\n    tag_116:\n    tag_115:\n      swap1\n      0x00\n      mstore\n      keccak256(0x00, 0x20)\n      swap1\n      0x05\n      mul\n      add\n        /* \"contracts/Tweet get total of like.sol\":2123:2144  tweets[author][id].id */\n      0x00\n      add\n      sload\n        /* \"contracts/Tweet get total of like.sol\":2123:2150  tweets[author][id].id == id */\n      eq\n        /* \"contracts/Tweet get total of like.sol\":2115:2175  require(tweets[author][id].id == id, \"TWEET DOES NOT EXIST\") */\n      tag_118\n      jumpi\n      mload(0x40)\n      0x08c379a000000000000000000000000000000000000000000000000000000000\n      dup2\n      mstore\n      0x04\n      add\n      tag_119\n      swap1\n      tag_92\n      jump\t// in\n    tag_119:\n      mload(0x40)\n      dup1\n      swap2\n      sub\n      swap1\n      revert\n    tag_118:\n        /* \"contracts/Tweet get total of like.sol\":2188:2194  tweets */\n      0x01\n        /* \"contracts/Tweet get total of like.sol\":2188:2202  tweets[author] */\n      0x00\n        /* \"contracts/Tweet get total of like.sol\":2195:2201  author */\n      dup4\n        /* \"contracts/Tweet get total of like.sol\":2188:2202  tweets[author] */\n      0xffffffffffffffffffffffffffffffffffffffff\n      and\n      0xffffffffffffffffffffffffffffffffffffffff\n      and\n      dup2\n      mstore\n      0x20\n      add\n      swap1\n      dup2\n      mstore\n      0x20\n      add\n      0x00\n      keccak256\n        /* \"contracts/Tweet get total of like.sol\":2203:2205  id */\n      dup2\n        /* \"contracts/Tweet get total of like.sol\":2188:2206  tweets[author][id] */\n      dup2\n      sload\n      dup2\n      lt\n      tag_120\n      jumpi\n      tag_121\n      tag_73\n      jump\t// in\n    tag_121:\n    tag_120:\n      swap1\n      0x00\n      mstore\n      keccak256(0x00, 0x20)\n      swap1\n      0x05\n      mul\n      add\n        /* \"contracts/Tweet get total of like.sol\":2188:2212  tweets[author][id].likes */\n      0x04\n      add\n      0x00\n        /* \"contracts/Tweet get total of like.sol\":2188:2214  tweets[author][id].likes++ */\n      dup2\n      sload\n      dup1\n      swap3\n      swap2\n      swap1\n      tag_123\n      swap1\n      tag_124\n      jump\t// in\n    tag_123:\n      swap2\n      swap1\n      pop\n      sstore\n      pop\n        /* \"contracts/Tweet get total of like.sol\":2270:2330  TweetLiked(msg.sender, author, id, tweets[author][id].likes) */\n      0xe8a76fc0f16d11a00d1e93b689b63d76cf60af914dd3d915375dc41d01a0c3c8\n        /* \"contracts/Tweet get total of like.sol\":2281:2291  msg.sender */\n      caller\n        /* \"contracts/Tweet get total of like.sol\":2293:2299  author */\n      dup4\n        /* \"contracts/Tweet get total of like.sol\":2301:2303  id */\n      dup4\n        /* \"contracts/Tweet get total of like.sol\":2305:2311  tweets */\n      0x01\n        /* \"contracts/Tweet get total of like.sol\":2305:2319  tweets[author] */\n      0x00\n        /* \"contracts/Tweet get total of like.sol\":2312:2318  author */\n      dup8\n        /* \"contracts/Tweet get total of like.sol\":2305:2319  tweets[author] */\n      0xffffffffffffffffffffffffffffffffffffffff\n      and\n      0xffffffffffffffffffffffffffffffffffffffff\n      and\n      dup2\n      mstore\n      0x20\n      add\n      swap1\n      dup2\n      mstore\n      0x20\n      add\n      0x00\n      keccak256\n        /* \"contracts/Tweet get total of like.sol\":2320:2322  id */\n      dup6\n        /* \"contracts/Tweet get total of like.sol\":2305:2323  tweets[author][id] */\n      dup2\n      sload\n      dup2\n      lt\n      tag_125\n      jumpi\n      tag_126\n      tag_73\n      jump\t// in\n    tag_126:\n    tag_125:\n      swap1\n      0x00\n      mstore\n      keccak256(0x00, 0x20)\n      swap1\n      0x05\n      mul\n      add\n        /* \"contracts/Tweet get total of like.sol\":2305:2329  tweets[author][id].likes */\n      0x04\n      add\n      sload\n        /* \"contracts/Tweet get total of like.sol\":2270:2330  TweetLiked(msg.sender, author, id, tweets[author][id].likes) */\n      mload(0x40)\n      tag_128\n      swap5\n      swap4\n      swap3\n      swap2\n      swap1\n      tag_108\n      jump\t// in\n    tag_128:\n      mload(0x40)\n      dup1\n      swap2\n      sub\n      swap1\n      log1\n        /* \"contracts/Tweet get total of like.sol\":2046:2338  function likeTweet(address author, uint256 id) external {  ... */\n      pop\n      pop\n      jump\t// out\n        /* \"contracts/Tweet get total of like.sol\":304:340  uint16 public MAX_TWEET_LENGTH = 280 */\n    tag_42:\n      0x00\n      dup1\n      sload\n      swap1\n      0x0100\n      exp\n      swap1\n      div\n      0xffff\n      and\n      dup2\n      jump\t// out\n        /* \"contracts/Tweet get total of like.sol\":1483:2038  function createTweet(string memory _tweet) public {... */\n    tag_48:\n        /* \"contracts/Tweet get total of like.sol\":1576:1592  MAX_TWEET_LENGTH */\n      0x00\n      dup1\n      sload\n      swap1\n      0x0100\n      exp\n      swap1\n      div\n      0xffff\n      and\n        /* \"contracts/Tweet get total of like.sol\":1552:1592  bytes(_tweet).length <= MAX_TWEET_LENGTH */\n      0xffff\n      and\n        /* \"contracts/Tweet get total of like.sol\":1558:1564  _tweet */\n      dup2\n        /* \"contracts/Tweet get total of like.sol\":1552:1572  bytes(_tweet).length */\n      mload\n        /* \"contracts/Tweet get total of like.sol\":1552:1592  bytes(_tweet).length <= MAX_TWEET_LENGTH */\n      gt\n      iszero\n        /* \"contracts/Tweet get total of like.sol\":1544:1620  require(bytes(_tweet).length <= MAX_TWEET_LENGTH, \"Tweet is too long bro!\" ) */\n      tag_130\n      jumpi\n      mload(0x40)\n      0x08c379a000000000000000000000000000000000000000000000000000000000\n      dup2\n      mstore\n      0x04\n      add\n      tag_131\n      swap1\n      tag_132\n      jump\t// in\n    tag_131:\n      mload(0x40)\n      dup1\n      swap2\n      sub\n      swap1\n      revert\n    tag_130:\n        /* \"contracts/Tweet get total of like.sol\":1633:1654  Tweet memory newTweet */\n      0x00\n        /* \"contracts/Tweet get total of like.sol\":1657:1846  Tweet({... */\n      mload(0x40)\n      dup1\n      0xa0\n      add\n      0x40\n      mstore\n      dup1\n        /* \"contracts/Tweet get total of like.sol\":1682:1688  tweets */\n      0x01\n        /* \"contracts/Tweet get total of like.sol\":1682:1700  tweets[msg.sender] */\n      0x00\n        /* \"contracts/Tweet get total of like.sol\":1689:1699  msg.sender */\n      caller\n        /* \"contracts/Tweet get total of like.sol\":1682:1700  tweets[msg.sender] */\n      0xffffffffffffffffffffffffffffffffffffffff\n      and\n      0xffffffffffffffffffffffffffffffffffffffff\n      and\n      dup2\n      mstore\n      0x20\n      add\n      swap1\n      dup2\n      mstore\n      0x20\n      add\n      0x00\n      keccak256\n        /* \"contracts/Tweet get total of like.sol\":1682:1707  tweets[msg.sender].length */\n      dup1\n      sload\n      swap1\n      pop\n        /* \"contracts/Tweet get total of like.sol\":1657:1846  Tweet({... */\n      dup2\n      mstore\n      0x20\n      add\n        /* \"contracts/Tweet get total of like.sol\":1730:1740  msg.sender */\n      caller\n        /* \"contracts/Tweet get total of like.sol\":1657:1846  Tweet({... */\n      0xffffffffffffffffffffffffffffffffffffffff\n      and\n      dup2\n      mstore\n      0x20\n      add\n        /* \"contracts/Tweet get total of like.sol\":1764:1770  _tweet */\n      dup4\n        /* \"contracts/Tweet get total of like.sol\":1657:1846  Tweet({... */\n      dup2\n      mstore\n      0x20\n      add\n        /* \"contracts/Tweet get total of like.sol\":1796:1811  block.timestamp */\n      timestamp\n        /* \"contracts/Tweet get total of like.sol\":1657:1846  Tweet({... */\n      dup2\n      mstore\n      0x20\n      add\n        /* \"contracts/Tweet get total of like.sol\":1833:1834  0 */\n      0x00\n        /* \"contracts/Tweet get total of like.sol\":1657:1846  Tweet({... */\n      dup2\n      mstore\n      pop\n        /* \"contracts/Tweet get total of like.sol\":1633:1846  Tweet memory newTweet = Tweet({... */\n      swap1\n      pop\n        /* \"contracts/Tweet get total of like.sol\":1859:1865  tweets */\n      0x01\n        /* \"contracts/Tweet get total of like.sol\":1859:1877  tweets[msg.sender] */\n      0x00\n        /* \"contracts/Tweet get total of like.sol\":1866:1876  msg.sender */\n      caller\n        /* \"contracts/Tweet get total of like.sol\":1859:1877  tweets[msg.sender] */\n      0xffffffffffffffffffffffffffffffffffffffff\n      and\n      0xffffffffffffffffffffffffffffffffffffffff\n      and\n      dup2\n      mstore\n      0x20\n      add\n      swap1\n      dup2\n      mstore\n      0x20\n      add\n      0x00\n      keccak256\n        /* \"contracts/Tweet get total of like.sol\":1883:1891  newTweet */\n      dup2\n        /* \"contracts/Tweet get total of like.sol\":1859:1892  tweets[msg.sender].push(newTweet) */\n      swap1\n      dup1\n      0x01\n      dup2\n      sload\n      add\n      dup1\n      dup3\n      sstore\n      dup1\n      swap2\n      pop\n      pop\n      0x01\n      swap1\n      sub\n      swap1\n      0x00\n      mstore\n      keccak256(0x00, 0x20)\n      swap1\n      0x05\n      mul\n      add\n      0x00\n      swap1\n      swap2\n      swap1\n      swap2\n      swap1\n      swap2\n      pop\n      0x00\n      dup3\n      add\n      mload\n      dup2\n      0x00\n      add\n      sstore\n      0x20\n      dup3\n      add\n      mload\n      dup2\n      0x01\n      add\n      exp(0x0100, 0x00)\n      dup2\n      sload\n      dup2\n      0xffffffffffffffffffffffffffffffffffffffff\n      mul\n      not\n      and\n      swap1\n      dup4\n      0xffffffffffffffffffffffffffffffffffffffff\n      and\n      mul\n      or\n      swap1\n      sstore\n      pop\n      0x40\n      dup3\n      add\n      mload\n      dup2\n      0x02\n      add\n      swap1\n      dup2\n      tag_134\n      swap2\n      swap1\n      tag_135\n      jump\t// in\n    tag_134:\n      pop\n      0x60\n      dup3\n      add\n      mload\n      dup2\n      0x03\n      add\n      sstore\n      0x80\n      dup3\n      add\n      mload\n      dup2\n      0x04\n      add\n      sstore\n      pop\n      pop\n        /* \"contracts/Tweet get total of like.sol\":1950:2030  TweetCreated(newTweet.id, newTweet.author, newTweet.content, newTweet.timestamp) */\n      0x16fd3c13e9d46923e0a8bce11c7b473ec508a72e6c96cd2404b29ce972afc29e\n        /* \"contracts/Tweet get total of like.sol\":1963:1971  newTweet */\n      dup2\n        /* \"contracts/Tweet get total of like.sol\":1963:1974  newTweet.id */\n      0x00\n      add\n      mload\n        /* \"contracts/Tweet get total of like.sol\":1976:1984  newTweet */\n      dup3\n        /* \"contracts/Tweet get total of like.sol\":1976:1991  newTweet.author */\n      0x20\n      add\n      mload\n        /* \"contracts/Tweet get total of like.sol\":1993:2001  newTweet */\n      dup4\n        /* \"contracts/Tweet get total of like.sol\":1993:2009  newTweet.content */\n      0x40\n      add\n      mload\n        /* \"contracts/Tweet get total of like.sol\":2011:2019  newTweet */\n      dup5\n        /* \"contracts/Tweet get total of like.sol\":2011:2029  newTweet.timestamp */\n      0x60\n      add\n      mload\n        /* \"contracts/Tweet get total of like.sol\":1950:2030  TweetCreated(newTweet.id, newTweet.author, newTweet.content, newTweet.timestamp) */\n      mload(0x40)\n      tag_136\n      swap5\n      swap4\n      swap3\n      swap2\n      swap1\n      tag_137\n      jump\t// in\n    tag_136:\n      mload(0x40)\n      dup1\n      swap2\n      sub\n      swap1\n      log1\n        /* \"contracts/Tweet get total of like.sol\":1533:2038  {... */\n      pop\n        /* \"contracts/Tweet get total of like.sol\":1483:2038  function createTweet(string memory _tweet) public {... */\n      pop\n      jump\t// out\n        /* \"contracts/Tweet get total of like.sol\":548:568  address public owner */\n    tag_50:\n      0x02\n      0x00\n      swap1\n      sload\n      swap1\n      0x0100\n      exp\n      swap1\n      div\n      0xffffffffffffffffffffffffffffffffffffffff\n      and\n      dup2\n      jump\t// out\n        /* \"contracts/Tweet get total of like.sol\":2689:2800  function getTweet( uint _i) public view returns (Tweet memory) {... */\n    tag_56:\n        /* \"contracts/Tweet get total of like.sol\":2738:2750  Tweet memory */\n      tag_138\n      tag_139\n      jump\t// in\n    tag_138:\n        /* \"contracts/Tweet get total of like.sol\":2770:2776  tweets */\n      0x01\n        /* \"contracts/Tweet get total of like.sol\":2770:2788  tweets[msg.sender] */\n      0x00\n        /* \"contracts/Tweet get total of like.sol\":2777:2787  msg.sender */\n      caller\n        /* \"contracts/Tweet get total of like.sol\":2770:2788  tweets[msg.sender] */\n      0xffffffffffffffffffffffffffffffffffffffff\n      and\n      0xffffffffffffffffffffffffffffffffffffffff\n      and\n      dup2\n      mstore\n      0x20\n      add\n      swap1\n      dup2\n      mstore\n      0x20\n      add\n      0x00\n      keccak256\n        /* \"contracts/Tweet get total of like.sol\":2789:2791  _i */\n      dup3\n        /* \"contracts/Tweet get total of like.sol\":2770:2792  tweets[msg.sender][_i] */\n      dup2\n      sload\n      dup2\n      lt\n      tag_141\n      jumpi\n      tag_142\n      tag_73\n      jump\t// in\n    tag_142:\n    tag_141:\n      swap1\n      0x00\n      mstore\n      keccak256(0x00, 0x20)\n      swap1\n      0x05\n      mul\n      add\n        /* \"contracts/Tweet get total of like.sol\":2763:2792  return tweets[msg.sender][_i] */\n      mload(0x40)\n      dup1\n      0xa0\n      add\n      0x40\n      mstore\n      swap1\n      dup2\n      0x00\n      dup3\n      add\n      sload\n      dup2\n      mstore\n      0x20\n      add\n      0x01\n      dup3\n      add\n      0x00\n      swap1\n      sload\n      swap1\n      0x0100\n      exp\n      swap1\n      div\n      0xffffffffffffffffffffffffffffffffffffffff\n      and\n      0xffffffffffffffffffffffffffffffffffffffff\n      and\n      0xffffffffffffffffffffffffffffffffffffffff\n      and\n      dup2\n      mstore\n      0x20\n      add\n      0x02\n      dup3\n      add\n      dup1\n      sload\n      tag_144\n      swap1\n      tag_62\n      jump\t// in\n    tag_144:\n      dup1\n      0x1f\n      add\n      0x20\n      dup1\n      swap2\n      div\n      mul\n      0x20\n      add\n      mload(0x40)\n      swap1\n      dup2\n      add\n      0x40\n      mstore\n      dup1\n      swap3\n      swap2\n      swap1\n      dup2\n      dup2\n      mstore\n      0x20\n      add\n      dup3\n      dup1\n      sload\n      tag_145\n      swap1\n      tag_62\n      jump\t// in\n    tag_145:\n      dup1\n      iszero\n      tag_146\n      jumpi\n      dup1\n      0x1f\n      lt\n      tag_147\n      jumpi\n      0x0100\n      dup1\n      dup4\n      sload\n      div\n      mul\n      dup4\n      mstore\n      swap2\n      0x20\n      add\n      swap2\n      jump(tag_146)\n    tag_147:\n      dup3\n      add\n      swap2\n      swap1\n      0x00\n      mstore\n      keccak256(0x00, 0x20)\n      swap1\n    tag_148:\n      dup2\n      sload\n      dup2\n      mstore\n      swap1\n      0x01\n      add\n      swap1\n      0x20\n      add\n      dup1\n      dup4\n      gt\n      tag_148\n      jumpi\n      dup3\n      swap1\n      sub\n      0x1f\n      and\n      dup3\n      add\n      swap2\n    tag_146:\n      pop\n      pop\n      pop\n      pop\n      pop\n      dup2\n      mstore\n      0x20\n      add\n      0x03\n      dup3\n      add\n      sload\n      dup2\n      mstore\n      0x20\n      add\n      0x04\n      dup3\n      add\n      sload\n      dup2\n      mstore\n      pop\n      pop\n      swap1\n      pop\n        /* \"contracts/Tweet get total of like.sol\":2689:2800  function getTweet( uint _i) public view returns (Tweet memory) {... */\n      swap2\n      swap1\n      pop\n      jump\t// out\n    tag_139:\n      mload(0x40)\n      dup1\n      0xa0\n      add\n      0x40\n      mstore\n      dup1\n      0x00\n      dup2\n      mstore\n      0x20\n      add\n      and(0xffffffffffffffffffffffffffffffffffffffff, 0x00)\n      dup2\n      mstore\n      0x20\n      add\n      0x60\n      dup2\n      mstore\n      0x20\n      add\n      0x00\n      dup2\n      mstore\n      0x20\n      add\n      0x00\n      dup2\n      mstore\n      pop\n      swap1\n      jump\t// out\n        /* \"#utility.yul\":7:82   */\n    tag_149:\n        /* \"#utility.yul\":40:46   */\n      0x00\n        /* \"#utility.yul\":73:75   */\n      0x40\n        /* \"#utility.yul\":67:76   */\n      mload\n        /* \"#utility.yul\":57:76   */\n      swap1\n      pop\n        /* \"#utility.yul\":7:82   */\n      swap1\n      jump\t// out\n        /* \"#utility.yul\":88:205   */\n    tag_150:\n        /* \"#utility.yul\":197:198   */\n      0x00\n        /* \"#utility.yul\":194:195   */\n      dup1\n        /* \"#utility.yul\":187:199   */\n      revert\n        /* \"#utility.yul\":211:328   */\n    tag_151:\n        /* \"#utility.yul\":320:321   */\n      0x00\n        /* \"#utility.yul\":317:318   */\n      dup1\n        /* \"#utility.yul\":310:322   */\n      revert\n        /* \"#utility.yul\":334:460   */\n    tag_152:\n        /* \"#utility.yul\":371:378   */\n      0x00\n        /* \"#utility.yul\":411:453   */\n      0xffffffffffffffffffffffffffffffffffffffff\n        /* \"#utility.yul\":404:409   */\n      dup3\n        /* \"#utility.yul\":400:454   */\n      and\n        /* \"#utility.yul\":389:454   */\n      swap1\n      pop\n        /* \"#utility.yul\":334:460   */\n      swap2\n      swap1\n      pop\n      jump\t// out\n        /* \"#utility.yul\":466:562   */\n    tag_153:\n        /* \"#utility.yul\":503:510   */\n      0x00\n        /* \"#utility.yul\":532:556   */\n      tag_222\n        /* \"#utility.yul\":550:555   */\n      dup3\n        /* \"#utility.yul\":532:556   */\n      tag_152\n      jump\t// in\n    tag_222:\n        /* \"#utility.yul\":521:556   */\n      swap1\n      pop\n        /* \"#utility.yul\":466:562   */\n      swap2\n      swap1\n      pop\n      jump\t// out\n        /* \"#utility.yul\":568:690   */\n    tag_154:\n        /* \"#utility.yul\":641:665   */\n      tag_224\n        /* \"#utility.yul\":659:664   */\n      dup2\n        /* \"#utility.yul\":641:665   */\n      tag_153\n      jump\t// in\n    tag_224:\n        /* \"#utility.yul\":634:639   */\n      dup2\n        /* \"#utility.yul\":631:666   */\n      eq\n        /* \"#utility.yul\":621:684   */\n      tag_225\n      jumpi\n        /* \"#utility.yul\":680:681   */\n      0x00\n        /* \"#utility.yul\":677:678   */\n      dup1\n        /* \"#utility.yul\":670:682   */\n      revert\n        /* \"#utility.yul\":621:684   */\n    tag_225:\n        /* \"#utility.yul\":568:690   */\n      pop\n      jump\t// out\n        /* \"#utility.yul\":696:835   */\n    tag_155:\n        /* \"#utility.yul\":742:747   */\n      0x00\n        /* \"#utility.yul\":780:786   */\n      dup2\n        /* \"#utility.yul\":767:787   */\n      calldataload\n        /* \"#utility.yul\":758:787   */\n      swap1\n      pop\n        /* \"#utility.yul\":796:829   */\n      tag_227\n        /* \"#utility.yul\":823:828   */\n      dup2\n        /* \"#utility.yul\":796:829   */\n      tag_154\n      jump\t// in\n    tag_227:\n        /* \"#utility.yul\":696:835   */\n      swap3\n      swap2\n      pop\n      pop\n      jump\t// out\n        /* \"#utility.yul\":841:918   */\n    tag_156:\n        /* \"#utility.yul\":878:885   */\n      0x00\n        /* \"#utility.yul\":907:912   */\n      dup2\n        /* \"#utility.yul\":896:912   */\n      swap1\n      pop\n        /* \"#utility.yul\":841:918   */\n      swap2\n      swap1\n      pop\n      jump\t// out\n        /* \"#utility.yul\":924:1046   */\n    tag_157:\n        /* \"#utility.yul\":997:1021   */\n      tag_230\n        /* \"#utility.yul\":1015:1020   */\n      dup2\n        /* \"#utility.yul\":997:1021   */\n      tag_156\n      jump\t// in\n    tag_230:\n        /* \"#utility.yul\":990:995   */\n      dup2\n        /* \"#utility.yul\":987:1022   */\n      eq\n        /* \"#utility.yul\":977:1040   */\n      tag_231\n      jumpi\n        /* \"#utility.yul\":1036:1037   */\n      0x00\n        /* \"#utility.yul\":1033:1034   */\n      dup1\n        /* \"#utility.yul\":1026:1038   */\n      revert\n        /* \"#utility.yul\":977:1040   */\n    tag_231:\n        /* \"#utility.yul\":924:1046   */\n      pop\n      jump\t// out\n        /* \"#utility.yul\":1052:1191   */\n    tag_158:\n        /* \"#utility.yul\":1098:1103   */\n      0x00\n        /* \"#utility.yul\":1136:1142   */\n      dup2\n        /* \"#utility.yul\":1123:1143   */\n      calldataload\n        /* \"#utility.yul\":1114:1143   */\n      swap1\n      pop\n        /* \"#utility.yul\":1152:1185   */\n      tag_233\n        /* \"#utility.yul\":1179:1184   */\n      dup2\n        /* \"#utility.yul\":1152:1185   */\n      tag_157\n      jump\t// in\n    tag_233:\n        /* \"#utility.yul\":1052:1191   */\n      swap3\n      swap2\n      pop\n      pop\n      jump\t// out\n        /* \"#utility.yul\":1197:1671   */\n    tag_16:\n        /* \"#utility.yul\":1265:1271   */\n      0x00\n        /* \"#utility.yul\":1273:1279   */\n      dup1\n        /* \"#utility.yul\":1322:1324   */\n      0x40\n        /* \"#utility.yul\":1310:1319   */\n      dup4\n        /* \"#utility.yul\":1301:1308   */\n      dup6\n        /* \"#utility.yul\":1297:1320   */\n      sub\n        /* \"#utility.yul\":1293:1325   */\n      slt\n        /* \"#utility.yul\":1290:1409   */\n      iszero\n      tag_235\n      jumpi\n        /* \"#utility.yul\":1328:1407   */\n      tag_236\n      tag_150\n      jump\t// in\n    tag_236:\n        /* \"#utility.yul\":1290:1409   */\n    tag_235:\n        /* \"#utility.yul\":1448:1449   */\n      0x00\n        /* \"#utility.yul\":1473:1526   */\n      tag_237\n        /* \"#utility.yul\":1518:1525   */\n      dup6\n        /* \"#utility.yul\":1509:1515   */\n      dup3\n        /* \"#utility.yul\":1498:1507   */\n      dup7\n        /* \"#utility.yul\":1494:1516   */\n      add\n        /* \"#utility.yul\":1473:1526   */\n      tag_155\n      jump\t// in\n    tag_237:\n        /* \"#utility.yul\":1463:1526   */\n      swap3\n      pop\n        /* \"#utility.yul\":1419:1536   */\n      pop\n        /* \"#utility.yul\":1575:1577   */\n      0x20\n        /* \"#utility.yul\":1601:1654   */\n      tag_238\n        /* \"#utility.yul\":1646:1653   */\n      dup6\n        /* \"#utility.yul\":1637:1643   */\n      dup3\n        /* \"#utility.yul\":1626:1635   */\n      dup7\n        /* \"#utility.yul\":1622:1644   */\n      add\n        /* \"#utility.yul\":1601:1654   */\n      tag_158\n      jump\t// in\n    tag_238:\n        /* \"#utility.yul\":1591:1654   */\n      swap2\n      pop\n        /* \"#utility.yul\":1546:1664   */\n      pop\n        /* \"#utility.yul\":1197:1671   */\n      swap3\n      pop\n      swap3\n      swap1\n      pop\n      jump\t// out\n        /* \"#utility.yul\":1677:1795   */\n    tag_159:\n        /* \"#utility.yul\":1764:1788   */\n      tag_240\n        /* \"#utility.yul\":1782:1787   */\n      dup2\n        /* \"#utility.yul\":1764:1788   */\n      tag_156\n      jump\t// in\n    tag_240:\n        /* \"#utility.yul\":1759:1762   */\n      dup3\n        /* \"#utility.yul\":1752:1789   */\n      mstore\n        /* \"#utility.yul\":1677:1795   */\n      pop\n      pop\n      jump\t// out\n        /* \"#utility.yul\":1801:1919   */\n    tag_160:\n        /* \"#utility.yul\":1888:1912   */\n      tag_242\n        /* \"#utility.yul\":1906:1911   */\n      dup2\n        /* \"#utility.yul\":1888:1912   */\n      tag_153\n      jump\t// in\n    tag_242:\n        /* \"#utility.yul\":1883:1886   */\n      dup3\n        /* \"#utility.yul\":1876:1913   */\n      mstore\n        /* \"#utility.yul\":1801:1919   */\n      pop\n      pop\n      jump\t// out\n        /* \"#utility.yul\":1925:2024   */\n    tag_161:\n        /* \"#utility.yul\":1977:1983   */\n      0x00\n        /* \"#utility.yul\":2011:2016   */\n      dup2\n        /* \"#utility.yul\":2005:2017   */\n      mload\n        /* \"#utility.yul\":1995:2017   */\n      swap1\n      pop\n        /* \"#utility.yul\":1925:2024   */\n      swap2\n      swap1\n      pop\n      jump\t// out\n        /* \"#utility.yul\":2030:2199   */\n    tag_162:\n        /* \"#utility.yul\":2114:2125   */\n      0x00\n        /* \"#utility.yul\":2148:2154   */\n      dup3\n        /* \"#utility.yul\":2143:2146   */\n      dup3\n        /* \"#utility.yul\":2136:2155   */\n      mstore\n        /* \"#utility.yul\":2188:2192   */\n      0x20\n        /* \"#utility.yul\":2183:2186   */\n      dup3\n        /* \"#utility.yul\":2179:2193   */\n      add\n        /* \"#utility.yul\":2164:2193   */\n      swap1\n      pop\n        /* \"#utility.yul\":2030:2199   */\n      swap3\n      swap2\n      pop\n      pop\n      jump\t// out\n        /* \"#utility.yul\":2205:2344   */\n    tag_163:\n        /* \"#utility.yul\":2294:2300   */\n      dup3\n        /* \"#utility.yul\":2289:2292   */\n      dup2\n        /* \"#utility.yul\":2284:2287   */\n      dup4\n        /* \"#utility.yul\":2278:2301   */\n      mcopy\n        /* \"#utility.yul\":2335:2336   */\n      0x00\n        /* \"#utility.yul\":2326:2332   */\n      dup4\n        /* \"#utility.yul\":2321:2324   */\n      dup4\n        /* \"#utility.yul\":2317:2333   */\n      add\n        /* \"#utility.yul\":2310:2337   */\n      mstore\n        /* \"#utility.yul\":2205:2344   */\n      pop\n      pop\n      pop\n      jump\t// out\n        /* \"#utility.yul\":2350:2452   */\n    tag_164:\n        /* \"#utility.yul\":2391:2397   */\n      0x00\n        /* \"#utility.yul\":2442:2444   */\n      0x1f\n        /* \"#utility.yul\":2438:2445   */\n      not\n        /* \"#utility.yul\":2433:2435   */\n      0x1f\n        /* \"#utility.yul\":2426:2431   */\n      dup4\n        /* \"#utility.yul\":2422:2436   */\n      add\n        /* \"#utility.yul\":2418:2446   */\n      and\n        /* \"#utility.yul\":2408:2446   */\n      swap1\n      pop\n        /* \"#utility.yul\":2350:2452   */\n      swap2\n      swap1\n      pop\n      jump\t// out\n        /* \"#utility.yul\":2458:2835   */\n    tag_165:\n        /* \"#utility.yul\":2546:2549   */\n      0x00\n        /* \"#utility.yul\":2574:2613   */\n      tag_248\n        /* \"#utility.yul\":2607:2612   */\n      dup3\n        /* \"#utility.yul\":2574:2613   */\n      tag_161\n      jump\t// in\n    tag_248:\n        /* \"#utility.yul\":2629:2700   */\n      tag_249\n        /* \"#utility.yul\":2693:2699   */\n      dup2\n        /* \"#utility.yul\":2688:2691   */\n      dup6\n        /* \"#utility.yul\":2629:2700   */\n      tag_162\n      jump\t// in\n    tag_249:\n        /* \"#utility.yul\":2622:2700   */\n      swap4\n      pop\n        /* \"#utility.yul\":2709:2774   */\n      tag_250\n        /* \"#utility.yul\":2767:2773   */\n      dup2\n        /* \"#utility.yul\":2762:2765   */\n      dup6\n        /* \"#utility.yul\":2755:2759   */\n      0x20\n        /* \"#utility.yul\":2748:2753   */\n      dup7\n        /* \"#utility.yul\":2744:2760   */\n      add\n        /* \"#utility.yul\":2709:2774   */\n      tag_163\n      jump\t// in\n    tag_250:\n        /* \"#utility.yul\":2799:2828   */\n      tag_251\n        /* \"#utility.yul\":2821:2827   */\n      dup2\n        /* \"#utility.yul\":2799:2828   */\n      tag_164\n      jump\t// in\n    tag_251:\n        /* \"#utility.yul\":2794:2797   */\n      dup5\n        /* \"#utility.yul\":2790:2829   */\n      add\n        /* \"#utility.yul\":2783:2829   */\n      swap2\n      pop\n        /* \"#utility.yul\":2550:2835   */\n      pop\n        /* \"#utility.yul\":2458:2835   */\n      swap3\n      swap2\n      pop\n      pop\n      jump\t// out\n        /* \"#utility.yul\":2841:3596   */\n    tag_19:\n        /* \"#utility.yul\":3066:3070   */\n      0x00\n        /* \"#utility.yul\":3104:3107   */\n      0xa0\n        /* \"#utility.yul\":3093:3102   */\n      dup3\n        /* \"#utility.yul\":3089:3108   */\n      add\n        /* \"#utility.yul\":3081:3108   */\n      swap1\n      pop\n        /* \"#utility.yul\":3118:3189   */\n      tag_253\n        /* \"#utility.yul\":3186:3187   */\n      0x00\n        /* \"#utility.yul\":3175:3184   */\n      dup4\n        /* \"#utility.yul\":3171:3188   */\n      add\n        /* \"#utility.yul\":3162:3168   */\n      dup9\n        /* \"#utility.yul\":3118:3189   */\n      tag_159\n      jump\t// in\n    tag_253:\n        /* \"#utility.yul\":3199:3271   */\n      tag_254\n        /* \"#utility.yul\":3267:3269   */\n      0x20\n        /* \"#utility.yul\":3256:3265   */\n      dup4\n        /* \"#utility.yul\":3252:3270   */\n      add\n        /* \"#utility.yul\":3243:3249   */\n      dup8\n        /* \"#utility.yul\":3199:3271   */\n      tag_160\n      jump\t// in\n    tag_254:\n        /* \"#utility.yul\":3318:3327   */\n      dup2\n        /* \"#utility.yul\":3312:3316   */\n      dup2\n        /* \"#utility.yul\":3308:3328   */\n      sub\n        /* \"#utility.yul\":3303:3305   */\n      0x40\n        /* \"#utility.yul\":3292:3301   */\n      dup4\n        /* \"#utility.yul\":3288:3306   */\n      add\n        /* \"#utility.yul\":3281:3329   */\n      mstore\n        /* \"#utility.yul\":3346:3424   */\n      tag_255\n        /* \"#utility.yul\":3419:3423   */\n      dup2\n        /* \"#utility.yul\":3410:3416   */\n      dup7\n        /* \"#utility.yul\":3346:3424   */\n      tag_165\n      jump\t// in\n    tag_255:\n        /* \"#utility.yul\":3338:3424   */\n      swap1\n      pop\n        /* \"#utility.yul\":3434:3506   */\n      tag_256\n        /* \"#utility.yul\":3502:3504   */\n      0x60\n        /* \"#utility.yul\":3491:3500   */\n      dup4\n        /* \"#utility.yul\":3487:3505   */\n      add\n        /* \"#utility.yul\":3478:3484   */\n      dup6\n        /* \"#utility.yul\":3434:3506   */\n      tag_159\n      jump\t// in\n    tag_256:\n        /* \"#utility.yul\":3516:3589   */\n      tag_257\n        /* \"#utility.yul\":3584:3587   */\n      0x80\n        /* \"#utility.yul\":3573:3582   */\n      dup4\n        /* \"#utility.yul\":3569:3588   */\n      add\n        /* \"#utility.yul\":3560:3566   */\n      dup5\n        /* \"#utility.yul\":3516:3589   */\n      tag_159\n      jump\t// in\n    tag_257:\n        /* \"#utility.yul\":2841:3596   */\n      swap7\n      swap6\n      pop\n      pop\n      pop\n      pop\n      pop\n      pop\n      jump\t// out\n        /* \"#utility.yul\":3602:3931   */\n    tag_22:\n        /* \"#utility.yul\":3661:3667   */\n      0x00\n        /* \"#utility.yul\":3710:3712   */\n      0x20\n        /* \"#utility.yul\":3698:3707   */\n      dup3\n        /* \"#utility.yul\":3689:3696   */\n      dup5\n        /* \"#utility.yul\":3685:3708   */\n      sub\n        /* \"#utility.yul\":3681:3713   */\n      slt\n        /* \"#utility.yul\":3678:3797   */\n      iszero\n      tag_259\n      jumpi\n        /* \"#utility.yul\":3716:3795   */\n      tag_260\n      tag_150\n      jump\t// in\n    tag_260:\n        /* \"#utility.yul\":3678:3797   */\n    tag_259:\n        /* \"#utility.yul\":3836:3837   */\n      0x00\n        /* \"#utility.yul\":3861:3914   */\n      tag_261\n        /* \"#utility.yul\":3906:3913   */\n      dup5\n        /* \"#utility.yul\":3897:3903   */\n      dup3\n        /* \"#utility.yul\":3886:3895   */\n      dup6\n        /* \"#utility.yul\":3882:3904   */\n      add\n        /* \"#utility.yul\":3861:3914   */\n      tag_155\n      jump\t// in\n    tag_261:\n        /* \"#utility.yul\":3851:3914   */\n      swap2\n      pop\n        /* \"#utility.yul\":3807:3924   */\n      pop\n        /* \"#utility.yul\":3602:3931   */\n      swap3\n      swap2\n      pop\n      pop\n      jump\t// out\n        /* \"#utility.yul\":3937:4159   */\n    tag_25:\n        /* \"#utility.yul\":4030:4034   */\n      0x00\n        /* \"#utility.yul\":4068:4070   */\n      0x20\n        /* \"#utility.yul\":4057:4066   */\n      dup3\n        /* \"#utility.yul\":4053:4071   */\n      add\n        /* \"#utility.yul\":4045:4071   */\n      swap1\n      pop\n        /* \"#utility.yul\":4081:4152   */\n      tag_263\n        /* \"#utility.yul\":4149:4150   */\n      0x00\n        /* \"#utility.yul\":4138:4147   */\n      dup4\n        /* \"#utility.yul\":4134:4151   */\n      add\n        /* \"#utility.yul\":4125:4131   */\n      dup5\n        /* \"#utility.yul\":4081:4152   */\n      tag_159\n      jump\t// in\n    tag_263:\n        /* \"#utility.yul\":3937:4159   */\n      swap3\n      swap2\n      pop\n      pop\n      jump\t// out\n        /* \"#utility.yul\":4165:4300   */\n    tag_166:\n        /* \"#utility.yul\":4253:4259   */\n      0x00\n        /* \"#utility.yul\":4287:4292   */\n      dup2\n        /* \"#utility.yul\":4281:4293   */\n      mload\n        /* \"#utility.yul\":4271:4293   */\n      swap1\n      pop\n        /* \"#utility.yul\":4165:4300   */\n      swap2\n      swap1\n      pop\n      jump\t// out\n        /* \"#utility.yul\":4306:4511   */\n    tag_167:\n        /* \"#utility.yul\":4426:4437   */\n      0x00\n        /* \"#utility.yul\":4460:4466   */\n      dup3\n        /* \"#utility.yul\":4455:4458   */\n      dup3\n        /* \"#utility.yul\":4448:4467   */\n      mstore\n        /* \"#utility.yul\":4500:4504   */\n      0x20\n        /* \"#utility.yul\":4495:4498   */\n      dup3\n        /* \"#utility.yul\":4491:4505   */\n      add\n        /* \"#utility.yul\":4476:4505   */\n      swap1\n      pop\n        /* \"#utility.yul\":4306:4511   */\n      swap3\n      swap2\n      pop\n      pop\n      jump\t// out\n        /* \"#utility.yul\":4517:4670   */\n    tag_168:\n        /* \"#utility.yul\":4605:4609   */\n      0x00\n        /* \"#utility.yul\":4628:4631   */\n      dup2\n        /* \"#utility.yul\":4620:4631   */\n      swap1\n      pop\n        /* \"#utility.yul\":4658:4662   */\n      0x20\n        /* \"#utility.yul\":4653:4656   */\n      dup3\n        /* \"#utility.yul\":4649:4663   */\n      add\n        /* \"#utility.yul\":4641:4663   */\n      swap1\n      pop\n        /* \"#utility.yul\":4517:4670   */\n      swap2\n      swap1\n      pop\n      jump\t// out\n        /* \"#utility.yul\":4676:4784   */\n    tag_169:\n        /* \"#utility.yul\":4753:4777   */\n      tag_268\n        /* \"#utility.yul\":4771:4776   */\n      dup2\n        /* \"#utility.yul\":4753:4777   */\n      tag_156\n      jump\t// in\n    tag_268:\n        /* \"#utility.yul\":4748:4751   */\n      dup3\n        /* \"#utility.yul\":4741:4778   */\n      mstore\n        /* \"#utility.yul\":4676:4784   */\n      pop\n      pop\n      jump\t// out\n        /* \"#utility.yul\":4790:4898   */\n    tag_170:\n        /* \"#utility.yul\":4867:4891   */\n      tag_270\n        /* \"#utility.yul\":4885:4890   */\n      dup2\n        /* \"#utility.yul\":4867:4891   */\n      tag_153\n      jump\t// in\n    tag_270:\n        /* \"#utility.yul\":4862:4865   */\n      dup3\n        /* \"#utility.yul\":4855:4892   */\n      mstore\n        /* \"#utility.yul\":4790:4898   */\n      pop\n      pop\n      jump\t// out\n        /* \"#utility.yul\":4904:5063   */\n    tag_171:\n        /* \"#utility.yul\":4978:4989   */\n      0x00\n        /* \"#utility.yul\":5012:5018   */\n      dup3\n        /* \"#utility.yul\":5007:5010   */\n      dup3\n        /* \"#utility.yul\":5000:5019   */\n      mstore\n        /* \"#utility.yul\":5052:5056   */\n      0x20\n        /* \"#utility.yul\":5047:5050   */\n      dup3\n        /* \"#utility.yul\":5043:5057   */\n      add\n        /* \"#utility.yul\":5028:5057   */\n      swap1\n      pop\n        /* \"#utility.yul\":4904:5063   */\n      swap3\n      swap2\n      pop\n      pop\n      jump\t// out\n        /* \"#utility.yul\":5069:5426   */\n    tag_172:\n        /* \"#utility.yul\":5147:5150   */\n      0x00\n        /* \"#utility.yul\":5175:5214   */\n      tag_273\n        /* \"#utility.yul\":5208:5213   */\n      dup3\n        /* \"#utility.yul\":5175:5214   */\n      tag_161\n      jump\t// in\n    tag_273:\n        /* \"#utility.yul\":5230:5291   */\n      tag_274\n        /* \"#utility.yul\":5284:5290   */\n      dup2\n        /* \"#utility.yul\":5279:5282   */\n      dup6\n        /* \"#utility.yul\":5230:5291   */\n      tag_171\n      jump\t// in\n    tag_274:\n        /* \"#utility.yul\":5223:5291   */\n      swap4\n      pop\n        /* \"#utility.yul\":5300:5365   */\n      tag_275\n        /* \"#utility.yul\":5358:5364   */\n      dup2\n        /* \"#utility.yul\":5353:5356   */\n      dup6\n        /* \"#utility.yul\":5346:5350   */\n      0x20\n        /* \"#utility.yul\":5339:5344   */\n      dup7\n        /* \"#utility.yul\":5335:5351   */\n      add\n        /* \"#utility.yul\":5300:5365   */\n      tag_163\n      jump\t// in\n    tag_275:\n        /* \"#utility.yul\":5390:5419   */\n      tag_276\n        /* \"#utility.yul\":5412:5418   */\n      dup2\n        /* \"#utility.yul\":5390:5419   */\n      tag_164\n      jump\t// in\n    tag_276:\n        /* \"#utility.yul\":5385:5388   */\n      dup5\n        /* \"#utility.yul\":5381:5420   */\n      add\n        /* \"#utility.yul\":5374:5420   */\n      swap2\n      pop\n        /* \"#utility.yul\":5151:5426   */\n      pop\n        /* \"#utility.yul\":5069:5426   */\n      swap3\n      swap2\n      pop\n      pop\n      jump\t// out\n        /* \"#utility.yul\":5484:6603   */\n    tag_173:\n        /* \"#utility.yul\":5585:5588   */\n      0x00\n        /* \"#utility.yul\":5621:5625   */\n      0xa0\n        /* \"#utility.yul\":5616:5619   */\n      dup4\n        /* \"#utility.yul\":5612:5626   */\n      add\n        /* \"#utility.yul\":5706:5710   */\n      0x00\n        /* \"#utility.yul\":5699:5704   */\n      dup4\n        /* \"#utility.yul\":5695:5711   */\n      add\n        /* \"#utility.yul\":5689:5712   */\n      mload\n        /* \"#utility.yul\":5725:5788   */\n      tag_278\n        /* \"#utility.yul\":5782:5786   */\n      0x00\n        /* \"#utility.yul\":5777:5780   */\n      dup7\n        /* \"#utility.yul\":5773:5787   */\n      add\n        /* \"#utility.yul\":5759:5771   */\n      dup3\n        /* \"#utility.yul\":5725:5788   */\n      tag_169\n      jump\t// in\n    tag_278:\n        /* \"#utility.yul\":5636:5798   */\n      pop\n        /* \"#utility.yul\":5882:5886   */\n      0x20\n        /* \"#utility.yul\":5875:5880   */\n      dup4\n        /* \"#utility.yul\":5871:5887   */\n      add\n        /* \"#utility.yul\":5865:5888   */\n      mload\n        /* \"#utility.yul\":5901:5964   */\n      tag_279\n        /* \"#utility.yul\":5958:5962   */\n      0x20\n        /* \"#utility.yul\":5953:5956   */\n      dup7\n        /* \"#utility.yul\":5949:5963   */\n      add\n        /* \"#utility.yul\":5935:5947   */\n      dup3\n        /* \"#utility.yul\":5901:5964   */\n      tag_170\n      jump\t// in\n    tag_279:\n        /* \"#utility.yul\":5808:5974   */\n      pop\n        /* \"#utility.yul\":6059:6063   */\n      0x40\n        /* \"#utility.yul\":6052:6057   */\n      dup4\n        /* \"#utility.yul\":6048:6064   */\n      add\n        /* \"#utility.yul\":6042:6065   */\n      mload\n        /* \"#utility.yul\":6112:6115   */\n      dup5\n        /* \"#utility.yul\":6106:6110   */\n      dup3\n        /* \"#utility.yul\":6102:6116   */\n      sub\n        /* \"#utility.yul\":6095:6099   */\n      0x40\n        /* \"#utility.yul\":6090:6093   */\n      dup7\n        /* \"#utility.yul\":6086:6100   */\n      add\n        /* \"#utility.yul\":6079:6117   */\n      mstore\n        /* \"#utility.yul\":6138:6211   */\n      tag_280\n        /* \"#utility.yul\":6206:6210   */\n      dup3\n        /* \"#utility.yul\":6192:6204   */\n      dup3\n        /* \"#utility.yul\":6138:6211   */\n      tag_172\n      jump\t// in\n    tag_280:\n        /* \"#utility.yul\":6130:6211   */\n      swap2\n      pop\n        /* \"#utility.yul\":5984:6222   */\n      pop\n        /* \"#utility.yul\":6309:6313   */\n      0x60\n        /* \"#utility.yul\":6302:6307   */\n      dup4\n        /* \"#utility.yul\":6298:6314   */\n      add\n        /* \"#utility.yul\":6292:6315   */\n      mload\n        /* \"#utility.yul\":6328:6391   */\n      tag_281\n        /* \"#utility.yul\":6385:6389   */\n      0x60\n        /* \"#utility.yul\":6380:6383   */\n      dup7\n        /* \"#utility.yul\":6376:6390   */\n      add\n        /* \"#utility.yul\":6362:6374   */\n      dup3\n        /* \"#utility.yul\":6328:6391   */\n      tag_169\n      jump\t// in\n    tag_281:\n        /* \"#utility.yul\":6232:6401   */\n      pop\n        /* \"#utility.yul\":6484:6488   */\n      0x80\n        /* \"#utility.yul\":6477:6482   */\n      dup4\n        /* \"#utility.yul\":6473:6489   */\n      add\n        /* \"#utility.yul\":6467:6490   */\n      mload\n        /* \"#utility.yul\":6503:6566   */\n      tag_282\n        /* \"#utility.yul\":6560:6564   */\n      0x80\n        /* \"#utility.yul\":6555:6558   */\n      dup7\n        /* \"#utility.yul\":6551:6565   */\n      add\n        /* \"#utility.yul\":6537:6549   */\n      dup3\n        /* \"#utility.yul\":6503:6566   */\n      tag_169\n      jump\t// in\n    tag_282:\n        /* \"#utility.yul\":6411:6576   */\n      pop\n        /* \"#utility.yul\":6593:6597   */\n      dup1\n        /* \"#utility.yul\":6586:6597   */\n      swap2\n      pop\n        /* \"#utility.yul\":5590:6603   */\n      pop\n        /* \"#utility.yul\":5484:6603   */\n      swap3\n      swap2\n      pop\n      pop\n      jump\t// out\n        /* \"#utility.yul\":6609:6849   */\n    tag_174:\n        /* \"#utility.yul\":6720:6730   */\n      0x00\n        /* \"#utility.yul\":6755:6843   */\n      tag_284\n        /* \"#utility.yul\":6839:6842   */\n      dup4\n        /* \"#utility.yul\":6831:6837   */\n      dup4\n        /* \"#utility.yul\":6755:6843   */\n      tag_173\n      jump\t// in\n    tag_284:\n        /* \"#utility.yul\":6741:6843   */\n      swap1\n      pop\n        /* \"#utility.yul\":6609:6849   */\n      swap3\n      swap2\n      pop\n      pop\n      jump\t// out\n        /* \"#utility.yul\":6855:6989   */\n    tag_175:\n        /* \"#utility.yul\":6946:6950   */\n      0x00\n        /* \"#utility.yul\":6978:6982   */\n      0x20\n        /* \"#utility.yul\":6973:6976   */\n      dup3\n        /* \"#utility.yul\":6969:6983   */\n      add\n        /* \"#utility.yul\":6961:6983   */\n      swap1\n      pop\n        /* \"#utility.yul\":6855:6989   */\n      swap2\n      swap1\n      pop\n      jump\t// out\n        /* \"#utility.yul\":7051:8130   */\n    tag_176:\n        /* \"#utility.yul\":7212:7215   */\n      0x00\n        /* \"#utility.yul\":7241:7316   */\n      tag_287\n        /* \"#utility.yul\":7310:7315   */\n      dup3\n        /* \"#utility.yul\":7241:7316   */\n      tag_166\n      jump\t// in\n    tag_287:\n        /* \"#utility.yul\":7332:7439   */\n      tag_288\n        /* \"#utility.yul\":7432:7438   */\n      dup2\n        /* \"#utility.yul\":7427:7430   */\n      dup6\n        /* \"#utility.yul\":7332:7439   */\n      tag_167\n      jump\t// in\n    tag_288:\n        /* \"#utility.yul\":7325:7439   */\n      swap4\n      pop\n        /* \"#utility.yul\":7465:7468   */\n      dup4\n        /* \"#utility.yul\":7510:7514   */\n      0x20\n        /* \"#utility.yul\":7502:7508   */\n      dup3\n        /* \"#utility.yul\":7498:7515   */\n      mul\n        /* \"#utility.yul\":7493:7496   */\n      dup6\n        /* \"#utility.yul\":7489:7516   */\n      add\n        /* \"#utility.yul\":7540:7617   */\n      tag_289\n        /* \"#utility.yul\":7611:7616   */\n      dup6\n        /* \"#utility.yul\":7540:7617   */\n      tag_168\n      jump\t// in\n    tag_289:\n        /* \"#utility.yul\":7640:7647   */\n      dup1\n        /* \"#utility.yul\":7671:7672   */\n      0x00\n        /* \"#utility.yul\":7656:8085   */\n    tag_290:\n        /* \"#utility.yul\":7681:7687   */\n      dup6\n        /* \"#utility.yul\":7678:7679   */\n      dup2\n        /* \"#utility.yul\":7675:7688   */\n      lt\n        /* \"#utility.yul\":7656:8085   */\n      iszero\n      tag_292\n      jumpi\n        /* \"#utility.yul\":7752:7761   */\n      dup5\n        /* \"#utility.yul\":7746:7750   */\n      dup5\n        /* \"#utility.yul\":7742:7762   */\n      sub\n        /* \"#utility.yul\":7737:7740   */\n      dup10\n        /* \"#utility.yul\":7730:7763   */\n      mstore\n        /* \"#utility.yul\":7803:7809   */\n      dup2\n        /* \"#utility.yul\":7797:7810   */\n      mload\n        /* \"#utility.yul\":7831:7937   */\n      tag_293\n        /* \"#utility.yul\":7932:7936   */\n      dup6\n        /* \"#utility.yul\":7917:7930   */\n      dup3\n        /* \"#utility.yul\":7831:7937   */\n      tag_174\n      jump\t// in\n    tag_293:\n        /* \"#utility.yul\":7823:7937   */\n      swap5\n      pop\n        /* \"#utility.yul\":7960:8041   */\n      tag_294\n        /* \"#utility.yul\":8034:8040   */\n      dup4\n        /* \"#utility.yul\":7960:8041   */\n      tag_175\n      jump\t// in\n    tag_294:\n        /* \"#utility.yul\":7950:8041   */\n      swap3\n      pop\n        /* \"#utility.yul\":8070:8074   */\n      0x20\n        /* \"#utility.yul\":8065:8068   */\n      dup11\n        /* \"#utility.yul\":8061:8075   */\n      add\n        /* \"#utility.yul\":8054:8075   */\n      swap10\n      pop\n        /* \"#utility.yul\":7716:8085   */\n      pop\n        /* \"#utility.yul\":7703:7704   */\n      0x01\n        /* \"#utility.yul\":7700:7701   */\n      dup2\n        /* \"#utility.yul\":7696:7705   */\n      add\n        /* \"#utility.yul\":7691:7705   */\n      swap1\n      pop\n        /* \"#utility.yul\":7656:8085   */\n      jump(tag_290)\n    tag_292:\n        /* \"#utility.yul\":7660:7674   */\n      pop\n        /* \"#utility.yul\":8101:8105   */\n      dup3\n        /* \"#utility.yul\":8094:8105   */\n      swap8\n      pop\n        /* \"#utility.yul\":8121:8124   */\n      dup8\n        /* \"#utility.yul\":8114:8124   */\n      swap6\n      pop\n        /* \"#utility.yul\":7217:8130   */\n      pop\n      pop\n      pop\n      pop\n      pop\n        /* \"#utility.yul\":7051:8130   */\n      swap3\n      swap2\n      pop\n      pop\n      jump\t// out\n        /* \"#utility.yul\":8136:8593   */\n    tag_30:\n        /* \"#utility.yul\":8321:8325   */\n      0x00\n        /* \"#utility.yul\":8359:8361   */\n      0x20\n        /* \"#utility.yul\":8348:8357   */\n      dup3\n        /* \"#utility.yul\":8344:8362   */\n      add\n        /* \"#utility.yul\":8336:8362   */\n      swap1\n      pop\n        /* \"#utility.yul\":8408:8417   */\n      dup2\n        /* \"#utility.yul\":8402:8406   */\n      dup2\n        /* \"#utility.yul\":8398:8418   */\n      sub\n        /* \"#utility.yul\":8394:8395   */\n      0x00\n        /* \"#utility.yul\":8383:8392   */\n      dup4\n        /* \"#utility.yul\":8379:8396   */\n      add\n        /* \"#utility.yul\":8372:8419   */\n      mstore\n        /* \"#utility.yul\":8436:8586   */\n      tag_296\n        /* \"#utility.yul\":8581:8585   */\n      dup2\n        /* \"#utility.yul\":8572:8578   */\n      dup5\n        /* \"#utility.yul\":8436:8586   */\n      tag_176\n      jump\t// in\n    tag_296:\n        /* \"#utility.yul\":8428:8586   */\n      swap1\n      pop\n        /* \"#utility.yul\":8136:8593   */\n      swap3\n      swap2\n      pop\n      pop\n      jump\t// out\n        /* \"#utility.yul\":8599:8688   */\n    tag_177:\n        /* \"#utility.yul\":8635:8642   */\n      0x00\n        /* \"#utility.yul\":8675:8681   */\n      0xffff\n        /* \"#utility.yul\":8668:8673   */\n      dup3\n        /* \"#utility.yul\":8664:8682   */\n      and\n        /* \"#utility.yul\":8653:8682   */\n      swap1\n      pop\n        /* \"#utility.yul\":8599:8688   */\n      swap2\n      swap1\n      pop\n      jump\t// out\n        /* \"#utility.yul\":8694:8814   */\n    tag_178:\n        /* \"#utility.yul\":8766:8789   */\n      tag_299\n        /* \"#utility.yul\":8783:8788   */\n      dup2\n        /* \"#utility.yul\":8766:8789   */\n      tag_177\n      jump\t// in\n    tag_299:\n        /* \"#utility.yul\":8759:8764   */\n      dup2\n        /* \"#utility.yul\":8756:8790   */\n      eq\n        /* \"#utility.yul\":8746:8808   */\n      tag_300\n      jumpi\n        /* \"#utility.yul\":8804:8805   */\n      0x00\n        /* \"#utility.yul\":8801:8802   */\n      dup1\n        /* \"#utility.yul\":8794:8806   */\n      revert\n        /* \"#utility.yul\":8746:8808   */\n    tag_300:\n        /* \"#utility.yul\":8694:8814   */\n      pop\n      jump\t// out\n        /* \"#utility.yul\":8820:8957   */\n    tag_179:\n        /* \"#utility.yul\":8865:8870   */\n      0x00\n        /* \"#utility.yul\":8903:8909   */\n      dup2\n        /* \"#utility.yul\":8890:8910   */\n      calldataload\n        /* \"#utility.yul\":8881:8910   */\n      swap1\n      pop\n        /* \"#utility.yul\":8919:8951   */\n      tag_302\n        /* \"#utility.yul\":8945:8950   */\n      dup2\n        /* \"#utility.yul\":8919:8951   */\n      tag_178\n      jump\t// in\n    tag_302:\n        /* \"#utility.yul\":8820:8957   */\n      swap3\n      swap2\n      pop\n      pop\n      jump\t// out\n        /* \"#utility.yul\":8963:9290   */\n    tag_36:\n        /* \"#utility.yul\":9021:9027   */\n      0x00\n        /* \"#utility.yul\":9070:9072   */\n      0x20\n        /* \"#utility.yul\":9058:9067   */\n      dup3\n        /* \"#utility.yul\":9049:9056   */\n      dup5\n        /* \"#utility.yul\":9045:9068   */\n      sub\n        /* \"#utility.yul\":9041:9073   */\n      slt\n        /* \"#utility.yul\":9038:9157   */\n      iszero\n      tag_304\n      jumpi\n        /* \"#utility.yul\":9076:9155   */\n      tag_305\n      tag_150\n      jump\t// in\n    tag_305:\n        /* \"#utility.yul\":9038:9157   */\n    tag_304:\n        /* \"#utility.yul\":9196:9197   */\n      0x00\n        /* \"#utility.yul\":9221:9273   */\n      tag_306\n        /* \"#utility.yul\":9265:9272   */\n      dup5\n        /* \"#utility.yul\":9256:9262   */\n      dup3\n        /* \"#utility.yul\":9245:9254   */\n      dup6\n        /* \"#utility.yul\":9241:9263   */\n      add\n        /* \"#utility.yul\":9221:9273   */\n      tag_179\n      jump\t// in\n    tag_306:\n        /* \"#utility.yul\":9211:9273   */\n      swap2\n      pop\n        /* \"#utility.yul\":9167:9283   */\n      pop\n        /* \"#utility.yul\":8963:9290   */\n      swap3\n      swap2\n      pop\n      pop\n      jump\t// out\n        /* \"#utility.yul\":9296:9411   */\n    tag_180:\n        /* \"#utility.yul\":9381:9404   */\n      tag_308\n        /* \"#utility.yul\":9398:9403   */\n      dup2\n        /* \"#utility.yul\":9381:9404   */\n      tag_177\n      jump\t// in\n    tag_308:\n        /* \"#utility.yul\":9376:9379   */\n      dup3\n        /* \"#utility.yul\":9369:9405   */\n      mstore\n        /* \"#utility.yul\":9296:9411   */\n      pop\n      pop\n      jump\t// out\n        /* \"#utility.yul\":9417:9635   */\n    tag_44:\n        /* \"#utility.yul\":9508:9512   */\n      0x00\n        /* \"#utility.yul\":9546:9548   */\n      0x20\n        /* \"#utility.yul\":9535:9544   */\n      dup3\n        /* \"#utility.yul\":9531:9549   */\n      add\n        /* \"#utility.yul\":9523:9549   */\n      swap1\n      pop\n        /* \"#utility.yul\":9559:9628   */\n      tag_310\n        /* \"#utility.yul\":9625:9626   */\n      0x00\n        /* \"#utility.yul\":9614:9623   */\n      dup4\n        /* \"#utility.yul\":9610:9627   */\n      add\n        /* \"#utility.yul\":9601:9607   */\n      dup5\n        /* \"#utility.yul\":9559:9628   */\n      tag_180\n      jump\t// in\n    tag_310:\n        /* \"#utility.yul\":9417:9635   */\n      swap3\n      swap2\n      pop\n      pop\n      jump\t// out\n        /* \"#utility.yul\":9641:9758   */\n    tag_181:\n        /* \"#utility.yul\":9750:9751   */\n      0x00\n        /* \"#utility.yul\":9747:9748   */\n      dup1\n        /* \"#utility.yul\":9740:9752   */\n      revert\n        /* \"#utility.yul\":9764:9881   */\n    tag_182:\n        /* \"#utility.yul\":9873:9874   */\n      0x00\n        /* \"#utility.yul\":9870:9871   */\n      dup1\n        /* \"#utility.yul\":9863:9875   */\n      revert\n        /* \"#utility.yul\":9887:10067   */\n    tag_183:\n        /* \"#utility.yul\":9935:10012   */\n      0x4e487b7100000000000000000000000000000000000000000000000000000000\n        /* \"#utility.yul\":9932:9933   */\n      0x00\n        /* \"#utility.yul\":9925:10013   */\n      mstore\n        /* \"#utility.yul\":10032:10036   */\n      0x41\n        /* \"#utility.yul\":10029:10030   */\n      0x04\n        /* \"#utility.yul\":10022:10037   */\n      mstore\n        /* \"#utility.yul\":10056:10060   */\n      0x24\n        /* \"#utility.yul\":10053:10054   */\n      0x00\n        /* \"#utility.yul\":10046:10061   */\n      revert\n        /* \"#utility.yul\":10073:10354   */\n    tag_184:\n        /* \"#utility.yul\":10156:10183   */\n      tag_315\n        /* \"#utility.yul\":10178:10182   */\n      dup3\n        /* \"#utility.yul\":10156:10183   */\n      tag_164\n      jump\t// in\n    tag_315:\n        /* \"#utility.yul\":10148:10154   */\n      dup2\n        /* \"#utility.yul\":10144:10184   */\n      add\n        /* \"#utility.yul\":10286:10292   */\n      dup2\n        /* \"#utility.yul\":10274:10284   */\n      dup2\n        /* \"#utility.yul\":10271:10293   */\n      lt\n        /* \"#utility.yul\":10250:10268   */\n      0xffffffffffffffff\n        /* \"#utility.yul\":10238:10248   */\n      dup3\n        /* \"#utility.yul\":10235:10269   */\n      gt\n        /* \"#utility.yul\":10232:10294   */\n      or\n        /* \"#utility.yul\":10229:10317   */\n      iszero\n      tag_316\n      jumpi\n        /* \"#utility.yul\":10297:10315   */\n      tag_317\n      tag_183\n      jump\t// in\n    tag_317:\n        /* \"#utility.yul\":10229:10317   */\n    tag_316:\n        /* \"#utility.yul\":10337:10347   */\n      dup1\n        /* \"#utility.yul\":10333:10335   */\n      0x40\n        /* \"#utility.yul\":10326:10348   */\n      mstore\n        /* \"#utility.yul\":10116:10354   */\n      pop\n        /* \"#utility.yul\":10073:10354   */\n      pop\n      pop\n      jump\t// out\n        /* \"#utility.yul\":10360:10489   */\n    tag_185:\n        /* \"#utility.yul\":10394:10400   */\n      0x00\n        /* \"#utility.yul\":10421:10441   */\n      tag_319\n      tag_149\n      jump\t// in\n    tag_319:\n        /* \"#utility.yul\":10411:10441   */\n      swap1\n      pop\n        /* \"#utility.yul\":10450:10483   */\n      tag_320\n        /* \"#utility.yul\":10478:10482   */\n      dup3\n        /* \"#utility.yul\":10470:10476   */\n      dup3\n        /* \"#utility.yul\":10450:10483   */\n      tag_184\n      jump\t// in\n    tag_320:\n        /* \"#utility.yul\":10360:10489   */\n      swap2\n      swap1\n      pop\n      jump\t// out\n        /* \"#utility.yul\":10495:10803   */\n    tag_186:\n        /* \"#utility.yul\":10557:10561   */\n      0x00\n        /* \"#utility.yul\":10647:10665   */\n      0xffffffffffffffff\n        /* \"#utility.yul\":10639:10645   */\n      dup3\n        /* \"#utility.yul\":10636:10666   */\n      gt\n        /* \"#utility.yul\":10633:10689   */\n      iszero\n      tag_322\n      jumpi\n        /* \"#utility.yul\":10669:10687   */\n      tag_323\n      tag_183\n      jump\t// in\n    tag_323:\n        /* \"#utility.yul\":10633:10689   */\n    tag_322:\n        /* \"#utility.yul\":10707:10736   */\n      tag_324\n        /* \"#utility.yul\":10729:10735   */\n      dup3\n        /* \"#utility.yul\":10707:10736   */\n      tag_164\n      jump\t// in\n    tag_324:\n        /* \"#utility.yul\":10699:10736   */\n      swap1\n      pop\n        /* \"#utility.yul\":10791:10795   */\n      0x20\n        /* \"#utility.yul\":10785:10789   */\n      dup2\n        /* \"#utility.yul\":10781:10796   */\n      add\n        /* \"#utility.yul\":10773:10796   */\n      swap1\n      pop\n        /* \"#utility.yul\":10495:10803   */\n      swap2\n      swap1\n      pop\n      jump\t// out\n        /* \"#utility.yul\":10809:10957   */\n    tag_187:\n        /* \"#utility.yul\":10907:10913   */\n      dup3\n        /* \"#utility.yul\":10902:10905   */\n      dup2\n        /* \"#utility.yul\":10897:10900   */\n      dup4\n        /* \"#utility.yul\":10884:10914   */\n      calldatacopy\n        /* \"#utility.yul\":10948:10949   */\n      0x00\n        /* \"#utility.yul\":10939:10945   */\n      dup4\n        /* \"#utility.yul\":10934:10937   */\n      dup4\n        /* \"#utility.yul\":10930:10946   */\n      add\n        /* \"#utility.yul\":10923:10950   */\n      mstore\n        /* \"#utility.yul\":10809:10957   */\n      pop\n      pop\n      pop\n      jump\t// out\n        /* \"#utility.yul\":10963:11388   */\n    tag_188:\n        /* \"#utility.yul\":11041:11046   */\n      0x00\n        /* \"#utility.yul\":11066:11132   */\n      tag_327\n        /* \"#utility.yul\":11082:11131   */\n      tag_328\n        /* \"#utility.yul\":11124:11130   */\n      dup5\n        /* \"#utility.yul\":11082:11131   */\n      tag_186\n      jump\t// in\n    tag_328:\n        /* \"#utility.yul\":11066:11132   */\n      tag_185\n      jump\t// in\n    tag_327:\n        /* \"#utility.yul\":11057:11132   */\n      swap1\n      pop\n        /* \"#utility.yul\":11155:11161   */\n      dup3\n        /* \"#utility.yul\":11148:11153   */\n      dup2\n        /* \"#utility.yul\":11141:11162   */\n      mstore\n        /* \"#utility.yul\":11193:11197   */\n      0x20\n        /* \"#utility.yul\":11186:11191   */\n      dup2\n        /* \"#utility.yul\":11182:11198   */\n      add\n        /* \"#utility.yul\":11231:11234   */\n      dup5\n        /* \"#utility.yul\":11222:11228   */\n      dup5\n        /* \"#utility.yul\":11217:11220   */\n      dup5\n        /* \"#utility.yul\":11213:11229   */\n      add\n        /* \"#utility.yul\":11210:11235   */\n      gt\n        /* \"#utility.yul\":11207:11319   */\n      iszero\n      tag_329\n      jumpi\n        /* \"#utility.yul\":11238:11317   */\n      tag_330\n      tag_182\n      jump\t// in\n    tag_330:\n        /* \"#utility.yul\":11207:11319   */\n    tag_329:\n        /* \"#utility.yul\":11328:11382   */\n      tag_331\n        /* \"#utility.yul\":11375:11381   */\n      dup5\n        /* \"#utility.yul\":11370:11373   */\n      dup3\n        /* \"#utility.yul\":11365:11368   */\n      dup6\n        /* \"#utility.yul\":11328:11382   */\n      tag_187\n      jump\t// in\n    tag_331:\n        /* \"#utility.yul\":11047:11388   */\n      pop\n        /* \"#utility.yul\":10963:11388   */\n      swap4\n      swap3\n      pop\n      pop\n      pop\n      jump\t// out\n        /* \"#utility.yul\":11408:11748   */\n    tag_189:\n        /* \"#utility.yul\":11464:11469   */\n      0x00\n        /* \"#utility.yul\":11513:11516   */\n      dup3\n        /* \"#utility.yul\":11506:11510   */\n      0x1f\n        /* \"#utility.yul\":11498:11504   */\n      dup4\n        /* \"#utility.yul\":11494:11511   */\n      add\n        /* \"#utility.yul\":11490:11517   */\n      slt\n        /* \"#utility.yul\":11480:11602   */\n      tag_333\n      jumpi\n        /* \"#utility.yul\":11521:11600   */\n      tag_334\n      tag_181\n      jump\t// in\n    tag_334:\n        /* \"#utility.yul\":11480:11602   */\n    tag_333:\n        /* \"#utility.yul\":11638:11644   */\n      dup2\n        /* \"#utility.yul\":11625:11645   */\n      calldataload\n        /* \"#utility.yul\":11663:11742   */\n      tag_335\n        /* \"#utility.yul\":11738:11741   */\n      dup5\n        /* \"#utility.yul\":11730:11736   */\n      dup3\n        /* \"#utility.yul\":11723:11727   */\n      0x20\n        /* \"#utility.yul\":11715:11721   */\n      dup7\n        /* \"#utility.yul\":11711:11728   */\n      add\n        /* \"#utility.yul\":11663:11742   */\n      tag_188\n      jump\t// in\n    tag_335:\n        /* \"#utility.yul\":11654:11742   */\n      swap2\n      pop\n        /* \"#utility.yul\":11470:11748   */\n      pop\n        /* \"#utility.yul\":11408:11748   */\n      swap3\n      swap2\n      pop\n      pop\n      jump\t// out\n        /* \"#utility.yul\":11754:12263   */\n    tag_47:\n        /* \"#utility.yul\":11823:11829   */\n      0x00\n        /* \"#utility.yul\":11872:11874   */\n      0x20\n        /* \"#utility.yul\":11860:11869   */\n      dup3\n        /* \"#utility.yul\":11851:11858   */\n      dup5\n        /* \"#utility.yul\":11847:11870   */\n      sub\n        /* \"#utility.yul\":11843:11875   */\n      slt\n        /* \"#utility.yul\":11840:11959   */\n      iszero\n      tag_337\n      jumpi\n        /* \"#utility.yul\":11878:11957   */\n      tag_338\n      tag_150\n      jump\t// in\n    tag_338:\n        /* \"#utility.yul\":11840:11959   */\n    tag_337:\n        /* \"#utility.yul\":12026:12027   */\n      0x00\n        /* \"#utility.yul\":12015:12024   */\n      dup3\n        /* \"#utility.yul\":12011:12028   */\n      add\n        /* \"#utility.yul\":11998:12029   */\n      calldataload\n        /* \"#utility.yul\":12056:12074   */\n      0xffffffffffffffff\n        /* \"#utility.yul\":12048:12054   */\n      dup2\n        /* \"#utility.yul\":12045:12075   */\n      gt\n        /* \"#utility.yul\":12042:12159   */\n      iszero\n      tag_339\n      jumpi\n        /* \"#utility.yul\":12078:12157   */\n      tag_340\n      tag_151\n      jump\t// in\n    tag_340:\n        /* \"#utility.yul\":12042:12159   */\n    tag_339:\n        /* \"#utility.yul\":12183:12246   */\n      tag_341\n        /* \"#utility.yul\":12238:12245   */\n      dup5\n        /* \"#utility.yul\":12229:12235   */\n      dup3\n        /* \"#utility.yul\":12218:12227   */\n      dup6\n        /* \"#utility.yul\":12214:12236   */\n      add\n        /* \"#utility.yul\":12183:12246   */\n      tag_189\n      jump\t// in\n    tag_341:\n        /* \"#utility.yul\":12173:12246   */\n      swap2\n      pop\n        /* \"#utility.yul\":11969:12256   */\n      pop\n        /* \"#utility.yul\":11754:12263   */\n      swap3\n      swap2\n      pop\n      pop\n      jump\t// out\n        /* \"#utility.yul\":12269:12491   */\n    tag_52:\n        /* \"#utility.yul\":12362:12366   */\n      0x00\n        /* \"#utility.yul\":12400:12402   */\n      0x20\n        /* \"#utility.yul\":12389:12398   */\n      dup3\n        /* \"#utility.yul\":12385:12403   */\n      add\n        /* \"#utility.yul\":12377:12403   */\n      swap1\n      pop\n        /* \"#utility.yul\":12413:12484   */\n      tag_343\n        /* \"#utility.yul\":12481:12482   */\n      0x00\n        /* \"#utility.yul\":12470:12479   */\n      dup4\n        /* \"#utility.yul\":12466:12483   */\n      add\n        /* \"#utility.yul\":12457:12463   */\n      dup5\n        /* \"#utility.yul\":12413:12484   */\n      tag_160\n      jump\t// in\n    tag_343:\n        /* \"#utility.yul\":12269:12491   */\n      swap3\n      swap2\n      pop\n      pop\n      jump\t// out\n        /* \"#utility.yul\":12497:12826   */\n    tag_55:\n        /* \"#utility.yul\":12556:12562   */\n      0x00\n        /* \"#utility.yul\":12605:12607   */\n      0x20\n        /* \"#utility.yul\":12593:12602   */\n      dup3\n        /* \"#utility.yul\":12584:12591   */\n      dup5\n        /* \"#utility.yul\":12580:12603   */\n      sub\n        /* \"#utility.yul\":12576:12608   */\n      slt\n        /* \"#utility.yul\":12573:12692   */\n      iszero\n      tag_345\n      jumpi\n        /* \"#utility.yul\":12611:12690   */\n      tag_346\n      tag_150\n      jump\t// in\n    tag_346:\n        /* \"#utility.yul\":12573:12692   */\n    tag_345:\n        /* \"#utility.yul\":12731:12732   */\n      0x00\n        /* \"#utility.yul\":12756:12809   */\n      tag_347\n        /* \"#utility.yul\":12801:12808   */\n      dup5\n        /* \"#utility.yul\":12792:12798   */\n      dup3\n        /* \"#utility.yul\":12781:12790   */\n      dup6\n        /* \"#utility.yul\":12777:12799   */\n      add\n        /* \"#utility.yul\":12756:12809   */\n      tag_158\n      jump\t// in\n    tag_347:\n        /* \"#utility.yul\":12746:12809   */\n      swap2\n      pop\n        /* \"#utility.yul\":12702:12819   */\n      pop\n        /* \"#utility.yul\":12497:12826   */\n      swap3\n      swap2\n      pop\n      pop\n      jump\t// out\n        /* \"#utility.yul\":12884:14013   */\n    tag_190:\n        /* \"#utility.yul\":12995:12998   */\n      0x00\n        /* \"#utility.yul\":13031:13035   */\n      0xa0\n        /* \"#utility.yul\":13026:13029   */\n      dup4\n        /* \"#utility.yul\":13022:13036   */\n      add\n        /* \"#utility.yul\":13116:13120   */\n      0x00\n        /* \"#utility.yul\":13109:13114   */\n      dup4\n        /* \"#utility.yul\":13105:13121   */\n      add\n        /* \"#utility.yul\":13099:13122   */\n      mload\n        /* \"#utility.yul\":13135:13198   */\n      tag_349\n        /* \"#utility.yul\":13192:13196   */\n      0x00\n        /* \"#utility.yul\":13187:13190   */\n      dup7\n        /* \"#utility.yul\":13183:13197   */\n      add\n        /* \"#utility.yul\":13169:13181   */\n      dup3\n        /* \"#utility.yul\":13135:13198   */\n      tag_169\n      jump\t// in\n    tag_349:\n        /* \"#utility.yul\":13046:13208   */\n      pop\n        /* \"#utility.yul\":13292:13296   */\n      0x20\n        /* \"#utility.yul\":13285:13290   */\n      dup4\n        /* \"#utility.yul\":13281:13297   */\n      add\n        /* \"#utility.yul\":13275:13298   */\n      mload\n        /* \"#utility.yul\":13311:13374   */\n      tag_350\n        /* \"#utility.yul\":13368:13372   */\n      0x20\n        /* \"#utility.yul\":13363:13366   */\n      dup7\n        /* \"#utility.yul\":13359:13373   */\n      add\n        /* \"#utility.yul\":13345:13357   */\n      dup3\n        /* \"#utility.yul\":13311:13374   */\n      tag_170\n      jump\t// in\n    tag_350:\n        /* \"#utility.yul\":13218:13384   */\n      pop\n        /* \"#utility.yul\":13469:13473   */\n      0x40\n        /* \"#utility.yul\":13462:13467   */\n      dup4\n        /* \"#utility.yul\":13458:13474   */\n      add\n        /* \"#utility.yul\":13452:13475   */\n      mload\n        /* \"#utility.yul\":13522:13525   */\n      dup5\n        /* \"#utility.yul\":13516:13520   */\n      dup3\n        /* \"#utility.yul\":13512:13526   */\n      sub\n        /* \"#utility.yul\":13505:13509   */\n      0x40\n        /* \"#utility.yul\":13500:13503   */\n      dup7\n        /* \"#utility.yul\":13496:13510   */\n      add\n        /* \"#utility.yul\":13489:13527   */\n      mstore\n        /* \"#utility.yul\":13548:13621   */\n      tag_351\n        /* \"#utility.yul\":13616:13620   */\n      dup3\n        /* \"#utility.yul\":13602:13614   */\n      dup3\n        /* \"#utility.yul\":13548:13621   */\n      tag_172\n      jump\t// in\n    tag_351:\n        /* \"#utility.yul\":13540:13621   */\n      swap2\n      pop\n        /* \"#utility.yul\":13394:13632   */\n      pop\n        /* \"#utility.yul\":13719:13723   */\n      0x60\n        /* \"#utility.yul\":13712:13717   */\n      dup4\n        /* \"#utility.yul\":13708:13724   */\n      add\n        /* \"#utility.yul\":13702:13725   */\n      mload\n        /* \"#utility.yul\":13738:13801   */\n      tag_352\n        /* \"#utility.yul\":13795:13799   */\n      0x60\n        /* \"#utility.yul\":13790:13793   */\n      dup7\n        /* \"#utility.yul\":13786:13800   */\n      add\n        /* \"#utility.yul\":13772:13784   */\n      dup3\n        /* \"#utility.yul\":13738:13801   */\n      tag_169\n      jump\t// in\n    tag_352:\n        /* \"#utility.yul\":13642:13811   */\n      pop\n        /* \"#utility.yul\":13894:13898   */\n      0x80\n        /* \"#utility.yul\":13887:13892   */\n      dup4\n        /* \"#utility.yul\":13883:13899   */\n      add\n        /* \"#utility.yul\":13877:13900   */\n      mload\n        /* \"#utility.yul\":13913:13976   */\n      tag_353\n        /* \"#utility.yul\":13970:13974   */\n      0x80\n        /* \"#utility.yul\":13965:13968   */\n      dup7\n        /* \"#utility.yul\":13961:13975   */\n      add\n        /* \"#utility.yul\":13947:13959   */\n      dup3\n        /* \"#utility.yul\":13913:13976   */\n      tag_169\n      jump\t// in\n    tag_353:\n        /* \"#utility.yul\":13821:13986   */\n      pop\n        /* \"#utility.yul\":14003:14007   */\n      dup1\n        /* \"#utility.yul\":13996:14007   */\n      swap2\n      pop\n        /* \"#utility.yul\":13000:14013   */\n      pop\n        /* \"#utility.yul\":12884:14013   */\n      swap3\n      swap2\n      pop\n      pop\n      jump\t// out\n        /* \"#utility.yul\":14019:14376   */\n    tag_58:\n        /* \"#utility.yul\":14154:14158   */\n      0x00\n        /* \"#utility.yul\":14192:14194   */\n      0x20\n        /* \"#utility.yul\":14181:14190   */\n      dup3\n        /* \"#utility.yul\":14177:14195   */\n      add\n        /* \"#utility.yul\":14169:14195   */\n      swap1\n      pop\n        /* \"#utility.yul\":14241:14250   */\n      dup2\n        /* \"#utility.yul\":14235:14239   */\n      dup2\n        /* \"#utility.yul\":14231:14251   */\n      sub\n        /* \"#utility.yul\":14227:14228   */\n      0x00\n        /* \"#utility.yul\":14216:14225   */\n      dup4\n        /* \"#utility.yul\":14212:14229   */\n      add\n        /* \"#utility.yul\":14205:14252   */\n      mstore\n        /* \"#utility.yul\":14269:14369   */\n      tag_355\n        /* \"#utility.yul\":14364:14368   */\n      dup2\n        /* \"#utility.yul\":14355:14361   */\n      dup5\n        /* \"#utility.yul\":14269:14369   */\n      tag_190\n      jump\t// in\n    tag_355:\n        /* \"#utility.yul\":14261:14369   */\n      swap1\n      pop\n        /* \"#utility.yul\":14019:14376   */\n      swap3\n      swap2\n      pop\n      pop\n      jump\t// out\n        /* \"#utility.yul\":14382:14562   */\n    tag_191:\n        /* \"#utility.yul\":14430:14507   */\n      0x4e487b7100000000000000000000000000000000000000000000000000000000\n        /* \"#utility.yul\":14427:14428   */\n      0x00\n        /* \"#utility.yul\":14420:14508   */\n      mstore\n        /* \"#utility.yul\":14527:14531   */\n      0x22\n        /* \"#utility.yul\":14524:14525   */\n      0x04\n        /* \"#utility.yul\":14517:14532   */\n      mstore\n        /* \"#utility.yul\":14551:14555   */\n      0x24\n        /* \"#utility.yul\":14548:14549   */\n      0x00\n        /* \"#utility.yul\":14541:14556   */\n      revert\n        /* \"#utility.yul\":14568:14888   */\n    tag_62:\n        /* \"#utility.yul\":14612:14618   */\n      0x00\n        /* \"#utility.yul\":14649:14650   */\n      0x02\n        /* \"#utility.yul\":14643:14647   */\n      dup3\n        /* \"#utility.yul\":14639:14651   */\n      div\n        /* \"#utility.yul\":14629:14651   */\n      swap1\n      pop\n        /* \"#utility.yul\":14696:14697   */\n      0x01\n        /* \"#utility.yul\":14690:14694   */\n      dup3\n        /* \"#utility.yul\":14686:14698   */\n      and\n        /* \"#utility.yul\":14717:14735   */\n      dup1\n        /* \"#utility.yul\":14707:14788   */\n      tag_358\n      jumpi\n        /* \"#utility.yul\":14773:14777   */\n      0x7f\n        /* \"#utility.yul\":14765:14771   */\n      dup3\n        /* \"#utility.yul\":14761:14778   */\n      and\n        /* \"#utility.yul\":14751:14778   */\n      swap2\n      pop\n        /* \"#utility.yul\":14707:14788   */\n    tag_358:\n        /* \"#utility.yul\":14835:14837   */\n      0x20\n        /* \"#utility.yul\":14827:14833   */\n      dup3\n        /* \"#utility.yul\":14824:14838   */\n      lt\n        /* \"#utility.yul\":14804:14822   */\n      dup2\n        /* \"#utility.yul\":14801:14839   */\n      sub\n        /* \"#utility.yul\":14798:14882   */\n      tag_359\n      jumpi\n        /* \"#utility.yul\":14854:14872   */\n      tag_360\n      tag_191\n      jump\t// in\n    tag_360:\n        /* \"#utility.yul\":14798:14882   */\n    tag_359:\n        /* \"#utility.yul\":14619:14888   */\n      pop\n        /* \"#utility.yul\":14568:14888   */\n      swap2\n      swap1\n      pop\n      jump\t// out\n        /* \"#utility.yul\":14894:15074   */\n    tag_73:\n        /* \"#utility.yul\":14942:15019   */\n      0x4e487b7100000000000000000000000000000000000000000000000000000000\n        /* \"#utility.yul\":14939:14940   */\n      0x00\n        /* \"#utility.yul\":14932:15020   */\n      mstore\n        /* \"#utility.yul\":15039:15043   */\n      0x32\n        /* \"#utility.yul\":15036:15037   */\n      0x04\n        /* \"#utility.yul\":15029:15044   */\n      mstore\n        /* \"#utility.yul\":15063:15067   */\n      0x24\n        /* \"#utility.yul\":15060:15061   */\n      0x00\n        /* \"#utility.yul\":15053:15068   */\n      revert\n        /* \"#utility.yul\":15080:15260   */\n    tag_192:\n        /* \"#utility.yul\":15128:15205   */\n      0x4e487b7100000000000000000000000000000000000000000000000000000000\n        /* \"#utility.yul\":15125:15126   */\n      0x00\n        /* \"#utility.yul\":15118:15206   */\n      mstore\n        /* \"#utility.yul\":15225:15229   */\n      0x11\n        /* \"#utility.yul\":15222:15223   */\n      0x04\n        /* \"#utility.yul\":15215:15230   */\n      mstore\n        /* \"#utility.yul\":15249:15253   */\n      0x24\n        /* \"#utility.yul\":15246:15247   */\n      0x00\n        /* \"#utility.yul\":15239:15254   */\n      revert\n        /* \"#utility.yul\":15266:15457   */\n    tag_76:\n        /* \"#utility.yul\":15306:15309   */\n      0x00\n        /* \"#utility.yul\":15325:15345   */\n      tag_364\n        /* \"#utility.yul\":15343:15344   */\n      dup3\n        /* \"#utility.yul\":15325:15345   */\n      tag_156\n      jump\t// in\n    tag_364:\n        /* \"#utility.yul\":15320:15345   */\n      swap2\n      pop\n        /* \"#utility.yul\":15359:15379   */\n      tag_365\n        /* \"#utility.yul\":15377:15378   */\n      dup4\n        /* \"#utility.yul\":15359:15379   */\n      tag_156\n      jump\t// in\n    tag_365:\n        /* \"#utility.yul\":15354:15379   */\n      swap3\n      pop\n        /* \"#utility.yul\":15402:15403   */\n      dup3\n        /* \"#utility.yul\":15399:15400   */\n      dup3\n        /* \"#utility.yul\":15395:15404   */\n      add\n        /* \"#utility.yul\":15388:15404   */\n      swap1\n      pop\n        /* \"#utility.yul\":15423:15426   */\n      dup1\n        /* \"#utility.yul\":15420:15421   */\n      dup3\n        /* \"#utility.yul\":15417:15427   */\n      gt\n        /* \"#utility.yul\":15414:15450   */\n      iszero\n      tag_366\n      jumpi\n        /* \"#utility.yul\":15430:15448   */\n      tag_367\n      tag_192\n      jump\t// in\n    tag_367:\n        /* \"#utility.yul\":15414:15450   */\n    tag_366:\n        /* \"#utility.yul\":15266:15457   */\n      swap3\n      swap2\n      pop\n      pop\n      jump\t// out\n        /* \"#utility.yul\":15463:15633   */\n    tag_193:\n        /* \"#utility.yul\":15603:15625   */\n      0x545745455420444f4553204e4f54204558495354000000000000000000000000\n        /* \"#utility.yul\":15599:15600   */\n      0x00\n        /* \"#utility.yul\":15591:15597   */\n      dup3\n        /* \"#utility.yul\":15587:15601   */\n      add\n        /* \"#utility.yul\":15580:15626   */\n      mstore\n        /* \"#utility.yul\":15463:15633   */\n      pop\n      jump\t// out\n        /* \"#utility.yul\":15639:16005   */\n    tag_194:\n        /* \"#utility.yul\":15781:15784   */\n      0x00\n        /* \"#utility.yul\":15802:15869   */\n      tag_370\n        /* \"#utility.yul\":15866:15868   */\n      0x14\n        /* \"#utility.yul\":15861:15864   */\n      dup4\n        /* \"#utility.yul\":15802:15869   */\n      tag_162\n      jump\t// in\n    tag_370:\n        /* \"#utility.yul\":15795:15869   */\n      swap2\n      pop\n        /* \"#utility.yul\":15878:15971   */\n      tag_371\n        /* \"#utility.yul\":15967:15970   */\n      dup3\n        /* \"#utility.yul\":15878:15971   */\n      tag_193\n      jump\t// in\n    tag_371:\n        /* \"#utility.yul\":15996:15998   */\n      0x20\n        /* \"#utility.yul\":15991:15994   */\n      dup3\n        /* \"#utility.yul\":15987:15999   */\n      add\n        /* \"#utility.yul\":15980:15999   */\n      swap1\n      pop\n        /* \"#utility.yul\":15639:16005   */\n      swap2\n      swap1\n      pop\n      jump\t// out\n        /* \"#utility.yul\":16011:16430   */\n    tag_92:\n        /* \"#utility.yul\":16177:16181   */\n      0x00\n        /* \"#utility.yul\":16215:16217   */\n      0x20\n        /* \"#utility.yul\":16204:16213   */\n      dup3\n        /* \"#utility.yul\":16200:16218   */\n      add\n        /* \"#utility.yul\":16192:16218   */\n      swap1\n      pop\n        /* \"#utility.yul\":16264:16273   */\n      dup2\n        /* \"#utility.yul\":16258:16262   */\n      dup2\n        /* \"#utility.yul\":16254:16274   */\n      sub\n        /* \"#utility.yul\":16250:16251   */\n      0x00\n        /* \"#utility.yul\":16239:16248   */\n      dup4\n        /* \"#utility.yul\":16235:16252   */\n      add\n        /* \"#utility.yul\":16228:16275   */\n      mstore\n        /* \"#utility.yul\":16292:16423   */\n      tag_373\n        /* \"#utility.yul\":16418:16422   */\n      dup2\n        /* \"#utility.yul\":16292:16423   */\n      tag_194\n      jump\t// in\n    tag_373:\n        /* \"#utility.yul\":16284:16423   */\n      swap1\n      pop\n        /* \"#utility.yul\":16011:16430   */\n      swap2\n      swap1\n      pop\n      jump\t// out\n        /* \"#utility.yul\":16436:16604   */\n    tag_195:\n        /* \"#utility.yul\":16576:16596   */\n      0x545745455420484153204e4f204c494b45530000000000000000000000000000\n        /* \"#utility.yul\":16572:16573   */\n      0x00\n        /* \"#utility.yul\":16564:16570   */\n      dup3\n        /* \"#utility.yul\":16560:16574   */\n      add\n        /* \"#utility.yul\":16553:16597   */\n      mstore\n        /* \"#utility.yul\":16436:16604   */\n      pop\n      jump\t// out\n        /* \"#utility.yul\":16610:16976   */\n    tag_196:\n        /* \"#utility.yul\":16752:16755   */\n      0x00\n        /* \"#utility.yul\":16773:16840   */\n      tag_376\n        /* \"#utility.yul\":16837:16839   */\n      0x12\n        /* \"#utility.yul\":16832:16835   */\n      dup4\n        /* \"#utility.yul\":16773:16840   */\n      tag_162\n      jump\t// in\n    tag_376:\n        /* \"#utility.yul\":16766:16840   */\n      swap2\n      pop\n        /* \"#utility.yul\":16849:16942   */\n      tag_377\n        /* \"#utility.yul\":16938:16941   */\n      dup3\n        /* \"#utility.yul\":16849:16942   */\n      tag_195\n      jump\t// in\n    tag_377:\n        /* \"#utility.yul\":16967:16969   */\n      0x20\n        /* \"#utility.yul\":16962:16965   */\n      dup3\n        /* \"#utility.yul\":16958:16970   */\n      add\n        /* \"#utility.yul\":16951:16970   */\n      swap1\n      pop\n        /* \"#utility.yul\":16610:16976   */\n      swap2\n      swap1\n      pop\n      jump\t// out\n        /* \"#utility.yul\":16982:17401   */\n    tag_98:\n        /* \"#utility.yul\":17148:17152   */\n      0x00\n        /* \"#utility.yul\":17186:17188   */\n      0x20\n        /* \"#utility.yul\":17175:17184   */\n      dup3\n        /* \"#utility.yul\":17171:17189   */\n      add\n        /* \"#utility.yul\":17163:17189   */\n      swap1\n      pop\n        /* \"#utility.yul\":17235:17244   */\n      dup2\n        /* \"#utility.yul\":17229:17233   */\n      dup2\n        /* \"#utility.yul\":17225:17245   */\n      sub\n        /* \"#utility.yul\":17221:17222   */\n      0x00\n        /* \"#utility.yul\":17210:17219   */\n      dup4\n        /* \"#utility.yul\":17206:17223   */\n      add\n        /* \"#utility.yul\":17199:17246   */\n      mstore\n        /* \"#utility.yul\":17263:17394   */\n      tag_379\n        /* \"#utility.yul\":17389:17393   */\n      dup2\n        /* \"#utility.yul\":17263:17394   */\n      tag_196\n      jump\t// in\n    tag_379:\n        /* \"#utility.yul\":17255:17394   */\n      swap1\n      pop\n        /* \"#utility.yul\":16982:17401   */\n      swap2\n      swap1\n      pop\n      jump\t// out\n        /* \"#utility.yul\":17407:17578   */\n    tag_103:\n        /* \"#utility.yul\":17446:17449   */\n      0x00\n        /* \"#utility.yul\":17469:17493   */\n      tag_381\n        /* \"#utility.yul\":17487:17492   */\n      dup3\n        /* \"#utility.yul\":17469:17493   */\n      tag_156\n      jump\t// in\n    tag_381:\n        /* \"#utility.yul\":17460:17493   */\n      swap2\n      pop\n        /* \"#utility.yul\":17515:17519   */\n      0x00\n        /* \"#utility.yul\":17508:17513   */\n      dup3\n        /* \"#utility.yul\":17505:17520   */\n      sub\n        /* \"#utility.yul\":17502:17543   */\n      tag_382\n      jumpi\n        /* \"#utility.yul\":17523:17541   */\n      tag_383\n      tag_192\n      jump\t// in\n    tag_383:\n        /* \"#utility.yul\":17502:17543   */\n    tag_382:\n        /* \"#utility.yul\":17570:17571   */\n      0x01\n        /* \"#utility.yul\":17563:17568   */\n      dup3\n        /* \"#utility.yul\":17559:17572   */\n      sub\n        /* \"#utility.yul\":17552:17572   */\n      swap1\n      pop\n        /* \"#utility.yul\":17407:17578   */\n      swap2\n      swap1\n      pop\n      jump\t// out\n        /* \"#utility.yul\":17584:18137   */\n    tag_108:\n        /* \"#utility.yul\":17761:17765   */\n      0x00\n        /* \"#utility.yul\":17799:17802   */\n      0x80\n        /* \"#utility.yul\":17788:17797   */\n      dup3\n        /* \"#utility.yul\":17784:17803   */\n      add\n        /* \"#utility.yul\":17776:17803   */\n      swap1\n      pop\n        /* \"#utility.yul\":17813:17884   */\n      tag_385\n        /* \"#utility.yul\":17881:17882   */\n      0x00\n        /* \"#utility.yul\":17870:17879   */\n      dup4\n        /* \"#utility.yul\":17866:17883   */\n      add\n        /* \"#utility.yul\":17857:17863   */\n      dup8\n        /* \"#utility.yul\":17813:17884   */\n      tag_160\n      jump\t// in\n    tag_385:\n        /* \"#utility.yul\":17894:17966   */\n      tag_386\n        /* \"#utility.yul\":17962:17964   */\n      0x20\n        /* \"#utility.yul\":17951:17960   */\n      dup4\n        /* \"#utility.yul\":17947:17965   */\n      add\n        /* \"#utility.yul\":17938:17944   */\n      dup7\n        /* \"#utility.yul\":17894:17966   */\n      tag_160\n      jump\t// in\n    tag_386:\n        /* \"#utility.yul\":17976:18048   */\n      tag_387\n        /* \"#utility.yul\":18044:18046   */\n      0x40\n        /* \"#utility.yul\":18033:18042   */\n      dup4\n        /* \"#utility.yul\":18029:18047   */\n      add\n        /* \"#utility.yul\":18020:18026   */\n      dup6\n        /* \"#utility.yul\":17976:18048   */\n      tag_159\n      jump\t// in\n    tag_387:\n        /* \"#utility.yul\":18058:18130   */\n      tag_388\n        /* \"#utility.yul\":18126:18128   */\n      0x60\n        /* \"#utility.yul\":18115:18124   */\n      dup4\n        /* \"#utility.yul\":18111:18129   */\n      add\n        /* \"#utility.yul\":18102:18108   */\n      dup5\n        /* \"#utility.yul\":18058:18130   */\n      tag_159\n      jump\t// in\n    tag_388:\n        /* \"#utility.yul\":17584:18137   */\n      swap6\n      swap5\n      pop\n      pop\n      pop\n      pop\n      pop\n      jump\t// out\n        /* \"#utility.yul\":18143:18315   */\n    tag_197:\n        /* \"#utility.yul\":18283:18307   */\n      0x594f5520415245204e4f5420544845204f574e45522100000000000000000000\n        /* \"#utility.yul\":18279:18280   */\n      0x00\n        /* \"#utility.yul\":18271:18277   */\n      dup3\n        /* \"#utility.yul\":18267:18281   */\n      add\n        /* \"#utility.yul\":18260:18308   */\n      mstore\n        /* \"#utility.yul\":18143:18315   */\n      pop\n      jump\t// out\n        /* \"#utility.yul\":18321:18687   */\n    tag_198:\n        /* \"#utility.yul\":18463:18466   */\n      0x00\n        /* \"#utility.yul\":18484:18551   */\n      tag_391\n        /* \"#utility.yul\":18548:18550   */\n      0x16\n        /* \"#utility.yul\":18543:18546   */\n      dup4\n        /* \"#utility.yul\":18484:18551   */\n      tag_162\n      jump\t// in\n    tag_391:\n        /* \"#utility.yul\":18477:18551   */\n      swap2\n      pop\n        /* \"#utility.yul\":18560:18653   */\n      tag_392\n        /* \"#utility.yul\":18649:18652   */\n      dup3\n        /* \"#utility.yul\":18560:18653   */\n      tag_197\n      jump\t// in\n    tag_392:\n        /* \"#utility.yul\":18678:18680   */\n      0x20\n        /* \"#utility.yul\":18673:18676   */\n      dup3\n        /* \"#utility.yul\":18669:18681   */\n      add\n        /* \"#utility.yul\":18662:18681   */\n      swap1\n      pop\n        /* \"#utility.yul\":18321:18687   */\n      swap2\n      swap1\n      pop\n      jump\t// out\n        /* \"#utility.yul\":18693:19112   */\n    tag_112:\n        /* \"#utility.yul\":18859:18863   */\n      0x00\n        /* \"#utility.yul\":18897:18899   */\n      0x20\n        /* \"#utility.yul\":18886:18895   */\n      dup3\n        /* \"#utility.yul\":18882:18900   */\n      add\n        /* \"#utility.yul\":18874:18900   */\n      swap1\n      pop\n        /* \"#utility.yul\":18946:18955   */\n      dup2\n        /* \"#utility.yul\":18940:18944   */\n      dup2\n        /* \"#utility.yul\":18936:18956   */\n      sub\n        /* \"#utility.yul\":18932:18933   */\n      0x00\n        /* \"#utility.yul\":18921:18930   */\n      dup4\n        /* \"#utility.yul\":18917:18934   */\n      add\n        /* \"#utility.yul\":18910:18957   */\n      mstore\n        /* \"#utility.yul\":18974:19105   */\n      tag_394\n        /* \"#utility.yul\":19100:19104   */\n      dup2\n        /* \"#utility.yul\":18974:19105   */\n      tag_198\n      jump\t// in\n    tag_394:\n        /* \"#utility.yul\":18966:19105   */\n      swap1\n      pop\n        /* \"#utility.yul\":18693:19112   */\n      swap2\n      swap1\n      pop\n      jump\t// out\n        /* \"#utility.yul\":19118:19351   */\n    tag_124:\n        /* \"#utility.yul\":19157:19160   */\n      0x00\n        /* \"#utility.yul\":19180:19204   */\n      tag_396\n        /* \"#utility.yul\":19198:19203   */\n      dup3\n        /* \"#utility.yul\":19180:19204   */\n      tag_156\n      jump\t// in\n    tag_396:\n        /* \"#utility.yul\":19171:19204   */\n      swap2\n      pop\n        /* \"#utility.yul\":19226:19292   */\n      0xffffffffffffffffffffffffffffffffffffffffffffffffffffffffffffffff\n        /* \"#utility.yul\":19219:19224   */\n      dup3\n        /* \"#utility.yul\":19216:19293   */\n      sub\n        /* \"#utility.yul\":19213:19316   */\n      tag_397\n      jumpi\n        /* \"#utility.yul\":19296:19314   */\n      tag_398\n      tag_192\n      jump\t// in\n    tag_398:\n        /* \"#utility.yul\":19213:19316   */\n    tag_397:\n        /* \"#utility.yul\":19343:19344   */\n      0x01\n        /* \"#utility.yul\":19336:19341   */\n      dup3\n        /* \"#utility.yul\":19332:19345   */\n      add\n        /* \"#utility.yul\":19325:19345   */\n      swap1\n      pop\n        /* \"#utility.yul\":19118:19351   */\n      swap2\n      swap1\n      pop\n      jump\t// out\n        /* \"#utility.yul\":19357:19529   */\n    tag_199:\n        /* \"#utility.yul\":19497:19521   */\n      0x547765657420697320746f6f206c6f6e672062726f2100000000000000000000\n        /* \"#utility.yul\":19493:19494   */\n      0x00\n        /* \"#utility.yul\":19485:19491   */\n      dup3\n        /* \"#utility.yul\":19481:19495   */\n      add\n        /* \"#utility.yul\":19474:19522   */\n      mstore\n        /* \"#utility.yul\":19357:19529   */\n      pop\n      jump\t// out\n        /* \"#utility.yul\":19535:19901   */\n    tag_200:\n        /* \"#utility.yul\":19677:19680   */\n      0x00\n        /* \"#utility.yul\":19698:19765   */\n      tag_401\n        /* \"#utility.yul\":19762:19764   */\n      0x16\n        /* \"#utility.yul\":19757:19760   */\n      dup4\n        /* \"#utility.yul\":19698:19765   */\n      tag_162\n      jump\t// in\n    tag_401:\n        /* \"#utility.yul\":19691:19765   */\n      swap2\n      pop\n        /* \"#utility.yul\":19774:19867   */\n      tag_402\n        /* \"#utility.yul\":19863:19866   */\n      dup3\n        /* \"#utility.yul\":19774:19867   */\n      tag_199\n      jump\t// in\n    tag_402:\n        /* \"#utility.yul\":19892:19894   */\n      0x20\n        /* \"#utility.yul\":19887:19890   */\n      dup3\n        /* \"#utility.yul\":19883:19895   */\n      add\n        /* \"#utility.yul\":19876:19895   */\n      swap1\n      pop\n        /* \"#utility.yul\":19535:19901   */\n      swap2\n      swap1\n      pop\n      jump\t// out\n        /* \"#utility.yul\":19907:20326   */\n    tag_132:\n        /* \"#utility.yul\":20073:20077   */\n      0x00\n        /* \"#utility.yul\":20111:20113   */\n      0x20\n        /* \"#utility.yul\":20100:20109   */\n      dup3\n        /* \"#utility.yul\":20096:20114   */\n      add\n        /* \"#utility.yul\":20088:20114   */\n      swap1\n      pop\n        /* \"#utility.yul\":20160:20169   */\n      dup2\n        /* \"#utility.yul\":20154:20158   */\n      dup2\n        /* \"#utility.yul\":20150:20170   */\n      sub\n        /* \"#utility.yul\":20146:20147   */\n      0x00\n        /* \"#utility.yul\":20135:20144   */\n      dup4\n        /* \"#utility.yul\":20131:20148   */\n      add\n        /* \"#utility.yul\":20124:20171   */\n      mstore\n        /* \"#utility.yul\":20188:20319   */\n      tag_404\n        /* \"#utility.yul\":20314:20318   */\n      dup2\n        /* \"#utility.yul\":20188:20319   */\n      tag_200\n      jump\t// in\n    tag_404:\n        /* \"#utility.yul\":20180:20319   */\n      swap1\n      pop\n        /* \"#utility.yul\":19907:20326   */\n      swap2\n      swap1\n      pop\n      jump\t// out\n        /* \"#utility.yul\":20332:20473   */\n    tag_201:\n        /* \"#utility.yul\":20381:20385   */\n      0x00\n        /* \"#utility.yul\":20404:20407   */\n      dup2\n        /* \"#utility.yul\":20396:20407   */\n      swap1\n      pop\n        /* \"#utility.yul\":20427:20430   */\n      dup2\n        /* \"#utility.yul\":20424:20425   */\n      0x00\n        /* \"#utility.yul\":20417:20431   */\n      mstore\n        /* \"#utility.yul\":20461:20465   */\n      0x20\n        /* \"#utility.yul\":20458:20459   */\n      0x00\n        /* \"#utility.yul\":20448:20466   */\n      keccak256\n        /* \"#utility.yul\":20440:20466   */\n      swap1\n      pop\n        /* \"#utility.yul\":20332:20473   */\n      swap2\n      swap1\n      pop\n      jump\t// out\n        /* \"#utility.yul\":20479:20572   */\n    tag_202:\n        /* \"#utility.yul\":20516:20522   */\n      0x00\n        /* \"#utility.yul\":20563:20565   */\n      0x20\n        /* \"#utility.yul\":20558:20560   */\n      0x1f\n        /* \"#utility.yul\":20551:20556   */\n      dup4\n        /* \"#utility.yul\":20547:20561   */\n      add\n        /* \"#utility.yul\":20543:20566   */\n      div\n        /* \"#utility.yul\":20533:20566   */\n      swap1\n      pop\n        /* \"#utility.yul\":20479:20572   */\n      swap2\n      swap1\n      pop\n      jump\t// out\n        /* \"#utility.yul\":20578:20685   */\n    tag_203:\n        /* \"#utility.yul\":20622:20630   */\n      0x00\n        /* \"#utility.yul\":20672:20677   */\n      dup3\n        /* \"#utility.yul\":20666:20670   */\n      dup3\n        /* \"#utility.yul\":20662:20678   */\n      shl\n        /* \"#utility.yul\":20641:20678   */\n      swap1\n      pop\n        /* \"#utility.yul\":20578:20685   */\n      swap3\n      swap2\n      pop\n      pop\n      jump\t// out\n        /* \"#utility.yul\":20691:21084   */\n    tag_204:\n        /* \"#utility.yul\":20760:20766   */\n      0x00\n        /* \"#utility.yul\":20810:20811   */\n      0x08\n        /* \"#utility.yul\":20798:20808   */\n      dup4\n        /* \"#utility.yul\":20794:20812   */\n      mul\n        /* \"#utility.yul\":20833:20930   */\n      tag_409\n        /* \"#utility.yul\":20863:20929   */\n      0xffffffffffffffffffffffffffffffffffffffffffffffffffffffffffffffff\n        /* \"#utility.yul\":20852:20861   */\n      dup3\n        /* \"#utility.yul\":20833:20930   */\n      tag_203\n      jump\t// in\n    tag_409:\n        /* \"#utility.yul\":20951:20990   */\n      tag_410\n        /* \"#utility.yul\":20981:20989   */\n      dup7\n        /* \"#utility.yul\":20970:20979   */\n      dup4\n        /* \"#utility.yul\":20951:20990   */\n      tag_203\n      jump\t// in\n    tag_410:\n        /* \"#utility.yul\":20939:20990   */\n      swap6\n      pop\n        /* \"#utility.yul\":21023:21027   */\n      dup1\n        /* \"#utility.yul\":21019:21028   */\n      not\n        /* \"#utility.yul\":21012:21017   */\n      dup5\n        /* \"#utility.yul\":21008:21029   */\n      and\n        /* \"#utility.yul\":20999:21029   */\n      swap4\n      pop\n        /* \"#utility.yul\":21072:21076   */\n      dup1\n        /* \"#utility.yul\":21062:21070   */\n      dup7\n        /* \"#utility.yul\":21058:21077   */\n      and\n        /* \"#utility.yul\":21051:21056   */\n      dup5\n        /* \"#utility.yul\":21048:21078   */\n      or\n        /* \"#utility.yul\":21038:21078   */\n      swap3\n      pop\n        /* \"#utility.yul\":20767:21084   */\n      pop\n      pop\n        /* \"#utility.yul\":20691:21084   */\n      swap4\n      swap3\n      pop\n      pop\n      pop\n      jump\t// out\n        /* \"#utility.yul\":21090:21150   */\n    tag_205:\n        /* \"#utility.yul\":21118:21121   */\n      0x00\n        /* \"#utility.yul\":21139:21144   */\n      dup2\n        /* \"#utility.yul\":21132:21144   */\n      swap1\n      pop\n        /* \"#utility.yul\":21090:21150   */\n      swap2\n      swap1\n      pop\n      jump\t// out\n        /* \"#utility.yul\":21156:21298   */\n    tag_206:\n        /* \"#utility.yul\":21206:21215   */\n      0x00\n        /* \"#utility.yul\":21239:21292   */\n      tag_413\n        /* \"#utility.yul\":21257:21291   */\n      tag_414\n        /* \"#utility.yul\":21266:21290   */\n      tag_415\n        /* \"#utility.yul\":21284:21289   */\n      dup5\n        /* \"#utility.yul\":21266:21290   */\n      tag_156\n      jump\t// in\n    tag_415:\n        /* \"#utility.yul\":21257:21291   */\n      tag_205\n      jump\t// in\n    tag_414:\n        /* \"#utility.yul\":21239:21292   */\n      tag_156\n      jump\t// in\n    tag_413:\n        /* \"#utility.yul\":21226:21292   */\n      swap1\n      pop\n        /* \"#utility.yul\":21156:21298   */\n      swap2\n      swap1\n      pop\n      jump\t// out\n        /* \"#utility.yul\":21304:21379   */\n    tag_207:\n        /* \"#utility.yul\":21347:21350   */\n      0x00\n        /* \"#utility.yul\":21368:21373   */\n      dup2\n        /* \"#utility.yul\":21361:21373   */\n      swap1\n      pop\n        /* \"#utility.yul\":21304:21379   */\n      swap2\n      swap1\n      pop\n      jump\t// out\n        /* \"#utility.yul\":21385:21654   */\n    tag_208:\n        /* \"#utility.yul\":21495:21534   */\n      tag_418\n        /* \"#utility.yul\":21526:21533   */\n      dup4\n        /* \"#utility.yul\":21495:21534   */\n      tag_206\n      jump\t// in\n    tag_418:\n        /* \"#utility.yul\":21556:21647   */\n      tag_419\n        /* \"#utility.yul\":21605:21646   */\n      tag_420\n        /* \"#utility.yul\":21629:21645   */\n      dup3\n        /* \"#utility.yul\":21605:21646   */\n      tag_207\n      jump\t// in\n    tag_420:\n        /* \"#utility.yul\":21597:21603   */\n      dup5\n        /* \"#utility.yul\":21590:21594   */\n      dup5\n        /* \"#utility.yul\":21584:21595   */\n      sload\n        /* \"#utility.yul\":21556:21647   */\n      tag_204\n      jump\t// in\n    tag_419:\n        /* \"#utility.yul\":21550:21554   */\n      dup3\n        /* \"#utility.yul\":21543:21648   */\n      sstore\n        /* \"#utility.yul\":21461:21654   */\n      pop\n        /* \"#utility.yul\":21385:21654   */\n      pop\n      pop\n      pop\n      jump\t// out\n        /* \"#utility.yul\":21660:21733   */\n    tag_209:\n        /* \"#utility.yul\":21705:21708   */\n      0x00\n        /* \"#utility.yul\":21660:21733   */\n      swap1\n      jump\t// out\n        /* \"#utility.yul\":21739:21928   */\n    tag_210:\n        /* \"#utility.yul\":21816:21848   */\n      tag_423\n      tag_209\n      jump\t// in\n    tag_423:\n        /* \"#utility.yul\":21857:21922   */\n      tag_424\n        /* \"#utility.yul\":21915:21921   */\n      dup2\n        /* \"#utility.yul\":21907:21913   */\n      dup5\n        /* \"#utility.yul\":21901:21905   */\n      dup5\n        /* \"#utility.yul\":21857:21922   */\n      tag_208\n      jump\t// in\n    tag_424:\n        /* \"#utility.yul\":21792:21928   */\n      pop\n        /* \"#utility.yul\":21739:21928   */\n      pop\n      pop\n      jump\t// out\n        /* \"#utility.yul\":21934:22120   */\n    tag_211:\n        /* \"#utility.yul\":21994:22114   */\n    tag_426:\n        /* \"#utility.yul\":22011:22014   */\n      dup2\n        /* \"#utility.yul\":22004:22009   */\n      dup2\n        /* \"#utility.yul\":22001:22015   */\n      lt\n        /* \"#utility.yul\":21994:22114   */\n      iszero\n      tag_428\n      jumpi\n        /* \"#utility.yul\":22065:22104   */\n      tag_429\n        /* \"#utility.yul\":22102:22103   */\n      0x00\n        /* \"#utility.yul\":22095:22100   */\n      dup3\n        /* \"#utility.yul\":22065:22104   */\n      tag_210\n      jump\t// in\n    tag_429:\n        /* \"#utility.yul\":22038:22039   */\n      0x01\n        /* \"#utility.yul\":22031:22036   */\n      dup2\n        /* \"#utility.yul\":22027:22040   */\n      add\n        /* \"#utility.yul\":22018:22040   */\n      swap1\n      pop\n        /* \"#utility.yul\":21994:22114   */\n      jump(tag_426)\n    tag_428:\n        /* \"#utility.yul\":21934:22120   */\n      pop\n      pop\n      jump\t// out\n        /* \"#utility.yul\":22126:22669   */\n    tag_212:\n        /* \"#utility.yul\":22227:22229   */\n      0x1f\n        /* \"#utility.yul\":22222:22225   */\n      dup3\n        /* \"#utility.yul\":22219:22230   */\n      gt\n        /* \"#utility.yul\":22216:22662   */\n      iszero\n      tag_431\n      jumpi\n        /* \"#utility.yul\":22261:22299   */\n      tag_432\n        /* \"#utility.yul\":22293:22298   */\n      dup2\n        /* \"#utility.yul\":22261:22299   */\n      tag_201\n      jump\t// in\n    tag_432:\n        /* \"#utility.yul\":22345:22374   */\n      tag_433\n        /* \"#utility.yul\":22363:22373   */\n      dup5\n        /* \"#utility.yul\":22345:22374   */\n      tag_202\n      jump\t// in\n    tag_433:\n        /* \"#utility.yul\":22335:22343   */\n      dup2\n        /* \"#utility.yul\":22331:22375   */\n      add\n        /* \"#utility.yul\":22528:22530   */\n      0x20\n        /* \"#utility.yul\":22516:22526   */\n      dup6\n        /* \"#utility.yul\":22513:22531   */\n      lt\n        /* \"#utility.yul\":22510:22559   */\n      iszero\n      tag_434\n      jumpi\n        /* \"#utility.yul\":22549:22557   */\n      dup2\n        /* \"#utility.yul\":22534:22557   */\n      swap1\n      pop\n        /* \"#utility.yul\":22510:22559   */\n    tag_434:\n        /* \"#utility.yul\":22572:22652   */\n      tag_435\n        /* \"#utility.yul\":22628:22650   */\n      tag_436\n        /* \"#utility.yul\":22646:22649   */\n      dup6\n        /* \"#utility.yul\":22628:22650   */\n      tag_202\n      jump\t// in\n    tag_436:\n        /* \"#utility.yul\":22618:22626   */\n      dup4\n        /* \"#utility.yul\":22614:22651   */\n      add\n        /* \"#utility.yul\":22601:22612   */\n      dup3\n        /* \"#utility.yul\":22572:22652   */\n      tag_211\n      jump\t// in\n    tag_435:\n        /* \"#utility.yul\":22231:22662   */\n      pop\n      pop\n        /* \"#utility.yul\":22216:22662   */\n    tag_431:\n        /* \"#utility.yul\":22126:22669   */\n      pop\n      pop\n      pop\n      jump\t// out\n        /* \"#utility.yul\":22675:22792   */\n    tag_213:\n        /* \"#utility.yul\":22729:22737   */\n      0x00\n        /* \"#utility.yul\":22779:22784   */\n      dup3\n        /* \"#utility.yul\":22773:22777   */\n      dup3\n        /* \"#utility.yul\":22769:22785   */\n      shr\n        /* \"#utility.yul\":22748:22785   */\n      swap1\n      pop\n        /* \"#utility.yul\":22675:22792   */\n      swap3\n      swap2\n      pop\n      pop\n      jump\t// out\n        /* \"#utility.yul\":22798:22967   */\n    tag_214:\n        /* \"#utility.yul\":22842:22848   */\n      0x00\n        /* \"#utility.yul\":22875:22926   */\n      tag_439\n        /* \"#utility.yul\":22923:22924   */\n      0x00\n        /* \"#utility.yul\":22919:22925   */\n      not\n        /* \"#utility.yul\":22911:22916   */\n      dup5\n        /* \"#utility.yul\":22908:22909   */\n      0x08\n        /* \"#utility.yul\":22904:22917   */\n      mul\n        /* \"#utility.yul\":22875:22926   */\n      tag_213\n      jump\t// in\n    tag_439:\n        /* \"#utility.yul\":22871:22927   */\n      not\n        /* \"#utility.yul\":22956:22960   */\n      dup1\n        /* \"#utility.yul\":22950:22954   */\n      dup4\n        /* \"#utility.yul\":22946:22961   */\n      and\n        /* \"#utility.yul\":22936:22961   */\n      swap2\n      pop\n        /* \"#utility.yul\":22849:22967   */\n      pop\n        /* \"#utility.yul\":22798:22967   */\n      swap3\n      swap2\n      pop\n      pop\n      jump\t// out\n        /* \"#utility.yul\":22972:23267   */\n    tag_215:\n        /* \"#utility.yul\":23048:23052   */\n      0x00\n        /* \"#utility.yul\":23194:23223   */\n      tag_441\n        /* \"#utility.yul\":23219:23222   */\n      dup4\n        /* \"#utility.yul\":23213:23217   */\n      dup4\n        /* \"#utility.yul\":23194:23223   */\n      tag_214\n      jump\t// in\n    tag_441:\n        /* \"#utility.yul\":23186:23223   */\n      swap2\n      pop\n        /* \"#utility.yul\":23256:23259   */\n      dup3\n        /* \"#utility.yul\":23253:23254   */\n      0x02\n        /* \"#utility.yul\":23249:23260   */\n      mul\n        /* \"#utility.yul\":23243:23247   */\n      dup3\n        /* \"#utility.yul\":23240:23261   */\n      or\n        /* \"#utility.yul\":23232:23261   */\n      swap1\n      pop\n        /* \"#utility.yul\":22972:23267   */\n      swap3\n      swap2\n      pop\n      pop\n      jump\t// out\n        /* \"#utility.yul\":23272:24667   */\n    tag_135:\n        /* \"#utility.yul\":23389:23426   */\n      tag_443\n        /* \"#utility.yul\":23422:23425   */\n      dup3\n        /* \"#utility.yul\":23389:23426   */\n      tag_161\n      jump\t// in\n    tag_443:\n        /* \"#utility.yul\":23491:23509   */\n      0xffffffffffffffff\n        /* \"#utility.yul\":23483:23489   */\n      dup2\n        /* \"#utility.yul\":23480:23510   */\n      gt\n        /* \"#utility.yul\":23477:23533   */\n      iszero\n      tag_444\n      jumpi\n        /* \"#utility.yul\":23513:23531   */\n      tag_445\n      tag_183\n      jump\t// in\n    tag_445:\n        /* \"#utility.yul\":23477:23533   */\n    tag_444:\n        /* \"#utility.yul\":23557:23595   */\n      tag_446\n        /* \"#utility.yul\":23589:23593   */\n      dup3\n        /* \"#utility.yul\":23583:23594   */\n      sload\n        /* \"#utility.yul\":23557:23595   */\n      tag_62\n      jump\t// in\n    tag_446:\n        /* \"#utility.yul\":23642:23709   */\n      tag_447\n        /* \"#utility.yul\":23702:23708   */\n      dup3\n        /* \"#utility.yul\":23694:23700   */\n      dup3\n        /* \"#utility.yul\":23688:23692   */\n      dup6\n        /* \"#utility.yul\":23642:23709   */\n      tag_212\n      jump\t// in\n    tag_447:\n        /* \"#utility.yul\":23736:23737   */\n      0x00\n        /* \"#utility.yul\":23760:23764   */\n      0x20\n        /* \"#utility.yul\":23747:23764   */\n      swap1\n      pop\n        /* \"#utility.yul\":23792:23794   */\n      0x1f\n        /* \"#utility.yul\":23784:23790   */\n      dup4\n        /* \"#utility.yul\":23781:23795   */\n      gt\n        /* \"#utility.yul\":23809:23810   */\n      0x01\n        /* \"#utility.yul\":23804:24422   */\n      dup2\n      eq\n      tag_449\n      jumpi\n        /* \"#utility.yul\":24466:24467   */\n      0x00\n        /* \"#utility.yul\":24483:24489   */\n      dup5\n        /* \"#utility.yul\":24480:24557   */\n      iszero\n      tag_450\n      jumpi\n        /* \"#utility.yul\":24532:24541   */\n      dup3\n        /* \"#utility.yul\":24527:24530   */\n      dup8\n        /* \"#utility.yul\":24523:24542   */\n      add\n        /* \"#utility.yul\":24517:24543   */\n      mload\n        /* \"#utility.yul\":24508:24543   */\n      swap1\n      pop\n        /* \"#utility.yul\":24480:24557   */\n    tag_450:\n        /* \"#utility.yul\":24583:24650   */\n      tag_451\n        /* \"#utility.yul\":24643:24649   */\n      dup6\n        /* \"#utility.yul\":24636:24641   */\n      dup3\n        /* \"#utility.yul\":24583:24650   */\n      tag_215\n      jump\t// in\n    tag_451:\n        /* \"#utility.yul\":24577:24581   */\n      dup7\n        /* \"#utility.yul\":24570:24651   */\n      sstore\n        /* \"#utility.yul\":24439:24661   */\n      pop\n        /* \"#utility.yul\":23774:24661   */\n      jump(tag_448)\n        /* \"#utility.yul\":23804:24422   */\n    tag_449:\n        /* \"#utility.yul\":23856:23860   */\n      0x1f\n        /* \"#utility.yul\":23852:23861   */\n      not\n        /* \"#utility.yul\":23844:23850   */\n      dup5\n        /* \"#utility.yul\":23840:23862   */\n      and\n        /* \"#utility.yul\":23890:23927   */\n      tag_452\n        /* \"#utility.yul\":23922:23926   */\n      dup7\n        /* \"#utility.yul\":23890:23927   */\n      tag_201\n      jump\t// in\n    tag_452:\n        /* \"#utility.yul\":23949:23950   */\n      0x00\n        /* \"#utility.yul\":23963:24171   */\n    tag_453:\n        /* \"#utility.yul\":23977:23984   */\n      dup3\n        /* \"#utility.yul\":23974:23975   */\n      dup2\n        /* \"#utility.yul\":23971:23985   */\n      lt\n        /* \"#utility.yul\":23963:24171   */\n      iszero\n      tag_455\n      jumpi\n        /* \"#utility.yul\":24056:24065   */\n      dup5\n        /* \"#utility.yul\":24051:24054   */\n      dup10\n        /* \"#utility.yul\":24047:24066   */\n      add\n        /* \"#utility.yul\":24041:24067   */\n      mload\n        /* \"#utility.yul\":24033:24039   */\n      dup3\n        /* \"#utility.yul\":24026:24068   */\n      sstore\n        /* \"#utility.yul\":24107:24108   */\n      0x01\n        /* \"#utility.yul\":24099:24105   */\n      dup3\n        /* \"#utility.yul\":24095:24109   */\n      add\n        /* \"#utility.yul\":24085:24109   */\n      swap2\n      pop\n        /* \"#utility.yul\":24154:24156   */\n      0x20\n        /* \"#utility.yul\":24143:24152   */\n      dup6\n        /* \"#utility.yul\":24139:24157   */\n      add\n        /* \"#utility.yul\":24126:24157   */\n      swap5\n      pop\n        /* \"#utility.yul\":24000:24004   */\n      0x20\n        /* \"#utility.yul\":23997:23998   */\n      dup2\n        /* \"#utility.yul\":23993:24005   */\n      add\n        /* \"#utility.yul\":23988:24005   */\n      swap1\n      pop\n        /* \"#utility.yul\":23963:24171   */\n      jump(tag_453)\n    tag_455:\n        /* \"#utility.yul\":24199:24205   */\n      dup7\n        /* \"#utility.yul\":24190:24197   */\n      dup4\n        /* \"#utility.yul\":24187:24206   */\n      lt\n        /* \"#utility.yul\":24184:24363   */\n      iszero\n      tag_456\n      jumpi\n        /* \"#utility.yul\":24257:24266   */\n      dup5\n        /* \"#utility.yul\":24252:24255   */\n      dup10\n        /* \"#utility.yul\":24248:24267   */\n      add\n        /* \"#utility.yul\":24242:24268   */\n      mload\n        /* \"#utility.yul\":24300:24348   */\n      tag_457\n        /* \"#utility.yul\":24342:24346   */\n      0x1f\n        /* \"#utility.yul\":24334:24340   */\n      dup10\n        /* \"#utility.yul\":24330:24347   */\n      and\n        /* \"#utility.yul\":24319:24328   */\n      dup3\n        /* \"#utility.yul\":24300:24348   */\n      tag_214\n      jump\t// in\n    tag_457:\n        /* \"#utility.yul\":24292:24298   */\n      dup4\n        /* \"#utility.yul\":24285:24349   */\n      sstore\n        /* \"#utility.yul\":24207:24363   */\n      pop\n        /* \"#utility.yul\":24184:24363   */\n    tag_456:\n        /* \"#utility.yul\":24409:24410   */\n      0x01\n        /* \"#utility.yul\":24405:24406   */\n      0x02\n        /* \"#utility.yul\":24397:24403   */\n      dup9\n        /* \"#utility.yul\":24393:24407   */\n      mul\n        /* \"#utility.yul\":24389:24411   */\n      add\n        /* \"#utility.yul\":24383:24387   */\n      dup9\n        /* \"#utility.yul\":24376:24412   */\n      sstore\n        /* \"#utility.yul\":23811:24422   */\n      pop\n      pop\n      pop\n        /* \"#utility.yul\":23774:24661   */\n    tag_448:\n      pop\n        /* \"#utility.yul\":23364:24667   */\n      pop\n      pop\n      pop\n        /* \"#utility.yul\":23272:24667   */\n      pop\n      pop\n      jump\t// out\n        /* \"#utility.yul\":24673:25317   */\n    tag_137:\n        /* \"#utility.yul\":24870:24874   */\n      0x00\n        /* \"#utility.yul\":24908:24911   */\n      0x80\n        /* \"#utility.yul\":24897:24906   */\n      dup3\n        /* \"#utility.yul\":24893:24912   */\n      add\n        /* \"#utility.yul\":24885:24912   */\n      swap1\n      pop\n        /* \"#utility.yul\":24922:24993   */\n      tag_459\n        /* \"#utility.yul\":24990:24991   */\n      0x00\n        /* \"#utility.yul\":24979:24988   */\n      dup4\n        /* \"#utility.yul\":24975:24992   */\n      add\n        /* \"#utility.yul\":24966:24972   */\n      dup8\n        /* \"#utility.yul\":24922:24993   */\n      tag_159\n      jump\t// in\n    tag_459:\n        /* \"#utility.yul\":25003:25075   */\n      tag_460\n        /* \"#utility.yul\":25071:25073   */\n      0x20\n        /* \"#utility.yul\":25060:25069   */\n      dup4\n        /* \"#utility.yul\":25056:25074   */\n      add\n        /* \"#utility.yul\":25047:25053   */\n      dup7\n        /* \"#utility.yul\":25003:25075   */\n      tag_160\n      jump\t// in\n    tag_460:\n        /* \"#utility.yul\":25122:25131   */\n      dup2\n        /* \"#utility.yul\":25116:25120   */\n      dup2\n        /* \"#utility.yul\":25112:25132   */\n      sub\n        /* \"#utility.yul\":25107:25109   */\n      0x40\n        /* \"#utility.yul\":25096:25105   */\n      dup4\n        /* \"#utility.yul\":25092:25110   */\n      add\n        /* \"#utility.yul\":25085:25133   */\n      mstore\n        /* \"#utility.yul\":25150:25228   */\n      tag_461\n        /* \"#utility.yul\":25223:25227   */\n      dup2\n        /* \"#utility.yul\":25214:25220   */\n      dup6\n        /* \"#utility.yul\":25150:25228   */\n      tag_165\n      jump\t// in\n    tag_461:\n        /* \"#utility.yul\":25142:25228   */\n      swap1\n      pop\n        /* \"#utility.yul\":25238:25310   */\n      tag_462\n        /* \"#utility.yul\":25306:25308   */\n      0x60\n        /* \"#utility.yul\":25295:25304   */\n      dup4\n        /* \"#utility.yul\":25291:25309   */\n      add\n        /* \"#utility.yul\":25282:25288   */\n      dup5\n        /* \"#utility.yul\":25238:25310   */\n      tag_159\n      jump\t// in\n    tag_462:\n        /* \"#utility.yul\":24673:25317   */\n      swap6\n      swap5\n      pop\n      pop\n      pop\n      pop\n      pop\n      jump\t// out\n\n    auxdata: 0xa26469706673582212209caae13a2ba67dbcb6440a2d0b6ecc8d5cdf57271f5a2bc7d5210a9c18908e8e64736f6c634300081a0033\n}\n",
				"bytecode": {
					"linkReferences": {},
					"object": "60806040526101185f806101000a81548161ffff021916908361ffff160217905550348015602b575f80fd5b503360025f6101000a81548173ffffffffffffffffffffffffffffffffffffffff021916908373ffffffffffffffffffffffffffffffffffffffff160217905550611ac0806100795f395ff3fe608060405234801561000f575f80fd5b506004361061009c575f3560e01c80636337821611610064578063633782161461016c5780636eb10797146101885780637c9cd2bc146101a65780638da5cb5b146101c2578063c3ad5ecb146101e05761009c565b806305a1b4a9146100a05780630b76c1c9146100d457806312e7ee1c146101045780633d9b569f1461013457806358bfa4ab14610150575b5f80fd5b6100ba60048036038101906100b59190610ea9565b610210565b6040516100cb959493929190610f75565b60405180910390f35b6100ee60048036038101906100e99190610fcd565b610301565b6040516100fb9190610ff8565b60405180910390f35b61011e60048036038101906101199190610fcd565b6103d0565b60405161012b91906111a5565b60405180910390f35b61014e60048036038101906101499190610ea9565b61056b565b005b61016a600480360381019061016591906111fc565b6107bc565b005b61018660048036038101906101819190610ea9565b610869565b005b610190610a1a565b60405161019d9190611236565b60405180910390f35b6101c060048036038101906101bb919061137b565b610a2b565b005b6101ca610c2e565b6040516101d791906113c2565b60405180910390f35b6101fa60048036038101906101f591906113db565b610c53565b6040516102079190611479565b60405180910390f35b6001602052815f5260405f208181548110610229575f80fd5b905f5260205f2090600502015f9150915050805f015490806001015f9054906101000a900473ffffffffffffffffffffffffffffffffffffffff1690806002018054610274906114c6565b80601f01602080910402602001604051908101604052809291908181526020018280546102a0906114c6565b80156102eb5780601f106102c2576101008083540402835291602001916102eb565b820191905f5260205f20905b8154815290600101906020018083116102ce57829003601f168201915b5050505050908060030154908060040154905085565b5f805f5b60015f8573ffffffffffffffffffffffffffffffffffffffff1673ffffffffffffffffffffffffffffffffffffffff1681526020019081526020015f20805490508110156103c65760015f8573ffffffffffffffffffffffffffffffffffffffff1673ffffffffffffffffffffffffffffffffffffffff1681526020019081526020015f20818154811061039c5761039b6114f6565b5b905f5260205f20906005020160040154826103b79190611550565b91508080600101915050610305565b5080915050919050565b606060015f8373ffffffffffffffffffffffffffffffffffffffff1673ffffffffffffffffffffffffffffffffffffffff1681526020019081526020015f20805480602002602001604051908101604052809291908181526020015f905b82821015610560578382905f5260205f2090600502016040518060a00160405290815f8201548152602001600182015f9054906101000a900473ffffffffffffffffffffffffffffffffffffffff1673ffffffffffffffffffffffffffffffffffffffff1673ffffffffffffffffffffffffffffffffffffffff1681526020016002820180546104bd906114c6565b80601f01602080910402602001604051908101604052809291908181526020018280546104e9906114c6565b80156105345780601f1061050b57610100808354040283529160200191610534565b820191905f5260205f20905b81548152906001019060200180831161051757829003601f168201915b50505050508152602001600382015481526020016004820154815250508152602001906001019061042e565b505050509050919050565b8060015f8473ffffffffffffffffffffffffffffffffffffffff1673ffffffffffffffffffffffffffffffffffffffff1681526020019081526020015f2082815481106105bb576105ba6114f6565b5b905f5260205f2090600502015f01541461060a576040517f08c379a0000000000000000000000000000000000000000000000000000000008152600401610601906115cd565b60405180910390fd5b5f60015f8473ffffffffffffffffffffffffffffffffffffffff1673ffffffffffffffffffffffffffffffffffffffff1681526020019081526020015f20828154811061065a576106596114f6565b5b905f5260205f20906005020160040154116106aa576040517f08c379a00000000000000000000000000000000000000000000000000000000081526004016106a190611635565b60405180910390fd5b60015f8373ffffffffffffffffffffffffffffffffffffffff1673ffffffffffffffffffffffffffffffffffffffff1681526020019081526020015f2081815481106106f9576106f86114f6565b5b905f5260205f2090600502016004015f81548092919061071890611653565b91905055507f762c2616349603ac16eba0de8e6141b79129a07ab63bd99e0a80b3a47171694333838360015f8773ffffffffffffffffffffffffffffffffffffffff1673ffffffffffffffffffffffffffffffffffffffff1681526020019081526020015f2085815481106107905761078f6114f6565b5b905f5260205f209060050201600401546040516107b0949392919061167a565b60405180910390a15050565b60025f9054906101000a900473ffffffffffffffffffffffffffffffffffffffff1673ffffffffffffffffffffffffffffffffffffffff163373ffffffffffffffffffffffffffffffffffffffff161461084b576040517f08c379a000000000000000000000000000000000000000000000000000000000815260040161084290611707565b60405180910390fd5b805f806101000a81548161ffff021916908361ffff16021790555050565b8060015f8473ffffffffffffffffffffffffffffffffffffffff1673ffffffffffffffffffffffffffffffffffffffff1681526020019081526020015f2082815481106108b9576108b86114f6565b5b905f5260205f2090600502015f015414610908576040517f08c379a00000000000000000000000000000000000000000000000000000000081526004016108ff906115cd565b60405180910390fd5b60015f8373ffffffffffffffffffffffffffffffffffffffff1673ffffffffffffffffffffffffffffffffffffffff1681526020019081526020015f208181548110610957576109566114f6565b5b905f5260205f2090600502016004015f81548092919061097690611725565b91905055507fe8a76fc0f16d11a00d1e93b689b63d76cf60af914dd3d915375dc41d01a0c3c833838360015f8773ffffffffffffffffffffffffffffffffffffffff1673ffffffffffffffffffffffffffffffffffffffff1681526020019081526020015f2085815481106109ee576109ed6114f6565b5b905f5260205f20906005020160040154604051610a0e949392919061167a565b60405180910390a15050565b5f8054906101000a900461ffff1681565b5f8054906101000a900461ffff1661ffff1681511115610a80576040517f08c379a0000000000000000000000000000000000000000000000000000000008152600401610a77906117b6565b60405180910390fd5b5f6040518060a0016040528060015f3373ffffffffffffffffffffffffffffffffffffffff1673ffffffffffffffffffffffffffffffffffffffff1681526020019081526020015f208054905081526020013373ffffffffffffffffffffffffffffffffffffffff1681526020018381526020014281526020015f815250905060015f3373ffffffffffffffffffffffffffffffffffffffff1673ffffffffffffffffffffffffffffffffffffffff1681526020019081526020015f2081908060018154018082558091505060019003905f5260205f2090600502015f909190919091505f820151815f01556020820151816001015f6101000a81548173ffffffffffffffffffffffffffffffffffffffff021916908373ffffffffffffffffffffffffffffffffffffffff1602179055506040820151816002019081610bc79190611971565b50606082015181600301556080820151816004015550507f16fd3c13e9d46923e0a8bce11c7b473ec508a72e6c96cd2404b29ce972afc29e815f0151826020015183604001518460600151604051610c229493929190611a40565b60405180910390a15050565b60025f9054906101000a900473ffffffffffffffffffffffffffffffffffffffff1681565b610c5b610dca565b60015f3373ffffffffffffffffffffffffffffffffffffffff1673ffffffffffffffffffffffffffffffffffffffff1681526020019081526020015f208281548110610caa57610ca96114f6565b5b905f5260205f2090600502016040518060a00160405290815f8201548152602001600182015f9054906101000a900473ffffffffffffffffffffffffffffffffffffffff1673ffffffffffffffffffffffffffffffffffffffff1673ffffffffffffffffffffffffffffffffffffffff168152602001600282018054610d2f906114c6565b80601f0160208091040260200160405190810160405280929190818152602001828054610d5b906114c6565b8015610da65780601f10610d7d57610100808354040283529160200191610da6565b820191905f5260205f20905b815481529060010190602001808311610d8957829003601f168201915b50505050508152602001600382015481526020016004820154815250509050919050565b6040518060a001604052805f81526020015f73ffffffffffffffffffffffffffffffffffffffff168152602001606081526020015f81526020015f81525090565b5f604051905090565b5f80fd5b5f80fd5b5f73ffffffffffffffffffffffffffffffffffffffff82169050919050565b5f610e4582610e1c565b9050919050565b610e5581610e3b565b8114610e5f575f80fd5b50565b5f81359050610e7081610e4c565b92915050565b5f819050919050565b610e8881610e76565b8114610e92575f80fd5b50565b5f81359050610ea381610e7f565b92915050565b5f8060408385031215610ebf57610ebe610e14565b5b5f610ecc85828601610e62565b9250506020610edd85828601610e95565b9150509250929050565b610ef081610e76565b82525050565b610eff81610e3b565b82525050565b5f81519050919050565b5f82825260208201905092915050565b8281835e5f83830152505050565b5f601f19601f8301169050919050565b5f610f4782610f05565b610f518185610f0f565b9350610f61818560208601610f1f565b610f6a81610f2d565b840191505092915050565b5f60a082019050610f885f830188610ee7565b610f956020830187610ef6565b8181036040830152610fa78186610f3d565b9050610fb66060830185610ee7565b610fc36080830184610ee7565b9695505050505050565b5f60208284031215610fe257610fe1610e14565b5b5f610fef84828501610e62565b91505092915050565b5f60208201905061100b5f830184610ee7565b92915050565b5f81519050919050565b5f82825260208201905092915050565b5f819050602082019050919050565b61104381610e76565b82525050565b61105281610e3b565b82525050565b5f82825260208201905092915050565b5f61107282610f05565b61107c8185611058565b935061108c818560208601610f1f565b61109581610f2d565b840191505092915050565b5f60a083015f8301516110b55f86018261103a565b5060208301516110c86020860182611049565b50604083015184820360408601526110e08282611068565b91505060608301516110f5606086018261103a565b506080830151611108608086018261103a565b508091505092915050565b5f61111e83836110a0565b905092915050565b5f602082019050919050565b5f61113c82611011565b611146818561101b565b9350836020820285016111588561102b565b805f5b8581101561119357848403895281516111748582611113565b945061117f83611126565b925060208a0199505060018101905061115b565b50829750879550505050505092915050565b5f6020820190508181035f8301526111bd8184611132565b905092915050565b5f61ffff82169050919050565b6111db816111c5565b81146111e5575f80fd5b50565b5f813590506111f6816111d2565b92915050565b5f6020828403121561121157611210610e14565b5b5f61121e848285016111e8565b91505092915050565b611230816111c5565b82525050565b5f6020820190506112495f830184611227565b92915050565b5f80fd5b5f80fd5b7f4e487b71000000000000000000000000000000000000000000000000000000005f52604160045260245ffd5b61128d82610f2d565b810181811067ffffffffffffffff821117156112ac576112ab611257565b5b80604052505050565b5f6112be610e0b565b90506112ca8282611284565b919050565b5f67ffffffffffffffff8211156112e9576112e8611257565b5b6112f282610f2d565b9050602081019050919050565b828183375f83830152505050565b5f61131f61131a846112cf565b6112b5565b90508281526020810184848401111561133b5761133a611253565b5b6113468482856112ff565b509392505050565b5f82601f8301126113625761136161124f565b5b813561137284826020860161130d565b91505092915050565b5f602082840312156113905761138f610e14565b5b5f82013567ffffffffffffffff8111156113ad576113ac610e18565b5b6113b98482850161134e565b91505092915050565b5f6020820190506113d55f830184610ef6565b92915050565b5f602082840312156113f0576113ef610e14565b5b5f6113fd84828501610e95565b91505092915050565b5f60a083015f83015161141b5f86018261103a565b50602083015161142e6020860182611049565b50604083015184820360408601526114468282611068565b915050606083015161145b606086018261103a565b50608083015161146e608086018261103a565b508091505092915050565b5f6020820190508181035f8301526114918184611406565b905092915050565b7f4e487b71000000000000000000000000000000000000000000000000000000005f52602260045260245ffd5b5f60028204905060018216806114dd57607f821691505b6020821081036114f0576114ef611499565b5b50919050565b7f4e487b71000000000000000000000000000000000000000000000000000000005f52603260045260245ffd5b7f4e487b71000000000000000000000000000000000000000000000000000000005f52601160045260245ffd5b5f61155a82610e76565b915061156583610e76565b925082820190508082111561157d5761157c611523565b5b92915050565b7f545745455420444f4553204e4f542045584953540000000000000000000000005f82015250565b5f6115b7601483610f0f565b91506115c282611583565b602082019050919050565b5f6020820190508181035f8301526115e4816115ab565b9050919050565b7f545745455420484153204e4f204c494b455300000000000000000000000000005f82015250565b5f61161f601283610f0f565b915061162a826115eb565b602082019050919050565b5f6020820190508181035f83015261164c81611613565b9050919050565b5f61165d82610e76565b91505f820361166f5761166e611523565b5b600182039050919050565b5f60808201905061168d5f830187610ef6565b61169a6020830186610ef6565b6116a76040830185610ee7565b6116b46060830184610ee7565b95945050505050565b7f594f5520415245204e4f5420544845204f574e455221000000000000000000005f82015250565b5f6116f1601683610f0f565b91506116fc826116bd565b602082019050919050565b5f6020820190508181035f83015261171e816116e5565b9050919050565b5f61172f82610e76565b91507fffffffffffffffffffffffffffffffffffffffffffffffffffffffffffffffff820361176157611760611523565b5b600182019050919050565b7f547765657420697320746f6f206c6f6e672062726f21000000000000000000005f82015250565b5f6117a0601683610f0f565b91506117ab8261176c565b602082019050919050565b5f6020820190508181035f8301526117cd81611794565b9050919050565b5f819050815f5260205f209050919050565b5f6020601f8301049050919050565b5f82821b905092915050565b5f600883026118307fffffffffffffffffffffffffffffffffffffffffffffffffffffffffffffffff826117f5565b61183a86836117f5565b95508019841693508086168417925050509392505050565b5f819050919050565b5f61187561187061186b84610e76565b611852565b610e76565b9050919050565b5f819050919050565b61188e8361185b565b6118a261189a8261187c565b848454611801565b825550505050565b5f90565b6118b66118aa565b6118c1818484611885565b505050565b5b818110156118e4576118d95f826118ae565b6001810190506118c7565b5050565b601f821115611929576118fa816117d4565b611903846117e6565b81016020851015611912578190505b61192661191e856117e6565b8301826118c6565b50505b505050565b5f82821c905092915050565b5f6119495f198460080261192e565b1980831691505092915050565b5f611961838361193a565b9150826002028217905092915050565b61197a82610f05565b67ffffffffffffffff81111561199357611992611257565b5b61199d82546114c6565b6119a88282856118e8565b5f60209050601f8311600181146119d9575f84156119c7578287015190505b6119d18582611956565b865550611a38565b601f1984166119e7866117d4565b5f5b82811015611a0e578489015182556001820191506020850194506020810190506119e9565b86831015611a2b5784890151611a27601f89168261193a565b8355505b6001600288020188555050505b505050505050565b5f608082019050611a535f830187610ee7565b611a606020830186610ef6565b8181036040830152611a728185610f3d565b9050611a816060830184610ee7565b9594505050505056fea26469706673582212209caae13a2ba67dbcb6440a2d0b6ecc8d5cdf57271f5a2bc7d5210a9c18908e8e64736f6c634300081a0033",
					"opcodes": "PUSH1 0x80 PUSH1 0x40 MSTORE PUSH2 0x118 PUSH0 DUP1 PUSH2 0x100 EXP DUP2 SLOAD DUP2 PUSH2 0xFFFF MUL NOT AND SWAP1 DUP4 PUSH2 0xFFFF AND MUL OR SWAP1 SSTORE POP CALLVALUE DUP1 ISZERO PUSH1 0x2B JUMPI PUSH0 DUP1 REVERT JUMPDEST POP CALLER PUSH1 0x2 PUSH0 PUSH2 0x100 EXP DUP2 SLOAD DUP2 PUSH20 0xFFFFFFFFFFFFFFFFFFFFFFFFFFFFFFFFFFFFFFFF MUL NOT AND SWAP1 DUP4 PUSH20 0xFFFFFFFFFFFFFFFFFFFFFFFFFFFFFFFFFFFFFFFF AND MUL OR SWAP1 SSTORE POP PUSH2 0x1AC0 DUP1 PUSH2 0x79 PUSH0 CODECOPY PUSH0 RETURN INVALID PUSH1 0x80 PUSH1 0x40 MSTORE CALLVALUE DUP1 ISZERO PUSH2 0xF JUMPI PUSH0 DUP1 REVERT JUMPDEST POP PUSH1 0x4 CALLDATASIZE LT PUSH2 0x9C JUMPI PUSH0 CALLDATALOAD PUSH1 0xE0 SHR DUP1 PUSH4 0x63378216 GT PUSH2 0x64 JUMPI DUP1 PUSH4 0x63378216 EQ PUSH2 0x16C JUMPI DUP1 PUSH4 0x6EB10797 EQ PUSH2 0x188 JUMPI DUP1 PUSH4 0x7C9CD2BC EQ PUSH2 0x1A6 JUMPI DUP1 PUSH4 0x8DA5CB5B EQ PUSH2 0x1C2 JUMPI DUP1 PUSH4 0xC3AD5ECB EQ PUSH2 0x1E0 JUMPI PUSH2 0x9C JUMP JUMPDEST DUP1 PUSH4 0x5A1B4A9 EQ PUSH2 0xA0 JUMPI DUP1 PUSH4 0xB76C1C9 EQ PUSH2 0xD4 JUMPI DUP1 PUSH4 0x12E7EE1C EQ PUSH2 0x104 JUMPI DUP1 PUSH4 0x3D9B569F EQ PUSH2 0x134 JUMPI DUP1 PUSH4 0x58BFA4AB EQ PUSH2 0x150 JUMPI JUMPDEST PUSH0 DUP1 REVERT JUMPDEST PUSH2 0xBA PUSH1 0x4 DUP1 CALLDATASIZE SUB DUP2 ADD SWAP1 PUSH2 0xB5 SWAP2 SWAP1 PUSH2 0xEA9 JUMP JUMPDEST PUSH2 0x210 JUMP JUMPDEST PUSH1 0x40 MLOAD PUSH2 0xCB SWAP6 SWAP5 SWAP4 SWAP3 SWAP2 SWAP1 PUSH2 0xF75 JUMP JUMPDEST PUSH1 0x40 MLOAD DUP1 SWAP2 SUB SWAP1 RETURN JUMPDEST PUSH2 0xEE PUSH1 0x4 DUP1 CALLDATASIZE SUB DUP2 ADD SWAP1 PUSH2 0xE9 SWAP2 SWAP1 PUSH2 0xFCD JUMP JUMPDEST PUSH2 0x301 JUMP JUMPDEST PUSH1 0x40 MLOAD PUSH2 0xFB SWAP2 SWAP1 PUSH2 0xFF8 JUMP JUMPDEST PUSH1 0x40 MLOAD DUP1 SWAP2 SUB SWAP1 RETURN JUMPDEST PUSH2 0x11E PUSH1 0x4 DUP1 CALLDATASIZE SUB DUP2 ADD SWAP1 PUSH2 0x119 SWAP2 SWAP1 PUSH2 0xFCD JUMP JUMPDEST PUSH2 0x3D0 JUMP JUMPDEST PUSH1 0x40 MLOAD PUSH2 0x12B SWAP2 SWAP1 PUSH2 0x11A5 JUMP JUMPDEST PUSH1 0x40 MLOAD DUP1 SWAP2 SUB SWAP1 RETURN JUMPDEST PUSH2 0x14E PUSH1 0x4 DUP1 CALLDATASIZE SUB DUP2 ADD SWAP1 PUSH2 0x149 SWAP2 SWAP1 PUSH2 0xEA9 JUMP JUMPDEST PUSH2 0x56B JUMP JUMPDEST STOP JUMPDEST PUSH2 0x16A PUSH1 0x4 DUP1 CALLDATASIZE SUB DUP2 ADD SWAP1 PUSH2 0x165 SWAP2 SWAP1 PUSH2 0x11FC JUMP JUMPDEST PUSH2 0x7BC JUMP JUMPDEST STOP JUMPDEST PUSH2 0x186 PUSH1 0x4 DUP1 CALLDATASIZE SUB DUP2 ADD SWAP1 PUSH2 0x181 SWAP2 SWAP1 PUSH2 0xEA9 JUMP JUMPDEST PUSH2 0x869 JUMP JUMPDEST STOP JUMPDEST PUSH2 0x190 PUSH2 0xA1A JUMP JUMPDEST PUSH1 0x40 MLOAD PUSH2 0x19D SWAP2 SWAP1 PUSH2 0x1236 JUMP JUMPDEST PUSH1 0x40 MLOAD DUP1 SWAP2 SUB SWAP1 RETURN JUMPDEST PUSH2 0x1C0 PUSH1 0x4 DUP1 CALLDATASIZE SUB DUP2 ADD SWAP1 PUSH2 0x1BB SWAP2 SWAP1 PUSH2 0x137B JUMP JUMPDEST PUSH2 0xA2B JUMP JUMPDEST STOP JUMPDEST PUSH2 0x1CA PUSH2 0xC2E JUMP JUMPDEST PUSH1 0x40 MLOAD PUSH2 0x1D7 SWAP2 SWAP1 PUSH2 0x13C2 JUMP JUMPDEST PUSH1 0x40 MLOAD DUP1 SWAP2 SUB SWAP1 RETURN JUMPDEST PUSH2 0x1FA PUSH1 0x4 DUP1 CALLDATASIZE SUB DUP2 ADD SWAP1 PUSH2 0x1F5 SWAP2 SWAP1 PUSH2 0x13DB JUMP JUMPDEST PUSH2 0xC53 JUMP JUMPDEST PUSH1 0x40 MLOAD PUSH2 0x207 SWAP2 SWAP1 PUSH2 0x1479 JUMP JUMPDEST PUSH1 0x40 MLOAD DUP1 SWAP2 SUB SWAP1 RETURN JUMPDEST PUSH1 0x1 PUSH1 0x20 MSTORE DUP2 PUSH0 MSTORE PUSH1 0x40 PUSH0 KECCAK256 DUP2 DUP2 SLOAD DUP2 LT PUSH2 0x229 JUMPI PUSH0 DUP1 REVERT JUMPDEST SWAP1 PUSH0 MSTORE PUSH1 0x20 PUSH0 KECCAK256 SWAP1 PUSH1 0x5 MUL ADD PUSH0 SWAP2 POP SWAP2 POP POP DUP1 PUSH0 ADD SLOAD SWAP1 DUP1 PUSH1 0x1 ADD PUSH0 SWAP1 SLOAD SWAP1 PUSH2 0x100 EXP SWAP1 DIV PUSH20 0xFFFFFFFFFFFFFFFFFFFFFFFFFFFFFFFFFFFFFFFF AND SWAP1 DUP1 PUSH1 0x2 ADD DUP1 SLOAD PUSH2 0x274 SWAP1 PUSH2 0x14C6 JUMP JUMPDEST DUP1 PUSH1 0x1F ADD PUSH1 0x20 DUP1 SWAP2 DIV MUL PUSH1 0x20 ADD PUSH1 0x40 MLOAD SWAP1 DUP2 ADD PUSH1 0x40 MSTORE DUP1 SWAP3 SWAP2 SWAP1 DUP2 DUP2 MSTORE PUSH1 0x20 ADD DUP3 DUP1 SLOAD PUSH2 0x2A0 SWAP1 PUSH2 0x14C6 JUMP JUMPDEST DUP1 ISZERO PUSH2 0x2EB JUMPI DUP1 PUSH1 0x1F LT PUSH2 0x2C2 JUMPI PUSH2 0x100 DUP1 DUP4 SLOAD DIV MUL DUP4 MSTORE SWAP2 PUSH1 0x20 ADD SWAP2 PUSH2 0x2EB JUMP JUMPDEST DUP3 ADD SWAP2 SWAP1 PUSH0 MSTORE PUSH1 0x20 PUSH0 KECCAK256 SWAP1 JUMPDEST DUP2 SLOAD DUP2 MSTORE SWAP1 PUSH1 0x1 ADD SWAP1 PUSH1 0x20 ADD DUP1 DUP4 GT PUSH2 0x2CE JUMPI DUP3 SWAP1 SUB PUSH1 0x1F AND DUP3 ADD SWAP2 JUMPDEST POP POP POP POP POP SWAP1 DUP1 PUSH1 0x3 ADD SLOAD SWAP1 DUP1 PUSH1 0x4 ADD SLOAD SWAP1 POP DUP6 JUMP JUMPDEST PUSH0 DUP1 PUSH0 JUMPDEST PUSH1 0x1 PUSH0 DUP6 PUSH20 0xFFFFFFFFFFFFFFFFFFFFFFFFFFFFFFFFFFFFFFFF AND PUSH20 0xFFFFFFFFFFFFFFFFFFFFFFFFFFFFFFFFFFFFFFFF AND DUP2 MSTORE PUSH1 0x20 ADD SWAP1 DUP2 MSTORE PUSH1 0x20 ADD PUSH0 KECCAK256 DUP1 SLOAD SWAP1 POP DUP2 LT ISZERO PUSH2 0x3C6 JUMPI PUSH1 0x1 PUSH0 DUP6 PUSH20 0xFFFFFFFFFFFFFFFFFFFFFFFFFFFFFFFFFFFFFFFF AND PUSH20 0xFFFFFFFFFFFFFFFFFFFFFFFFFFFFFFFFFFFFFFFF AND DUP2 MSTORE PUSH1 0x20 ADD SWAP1 DUP2 MSTORE PUSH1 0x20 ADD PUSH0 KECCAK256 DUP2 DUP2 SLOAD DUP2 LT PUSH2 0x39C JUMPI PUSH2 0x39B PUSH2 0x14F6 JUMP JUMPDEST JUMPDEST SWAP1 PUSH0 MSTORE PUSH1 0x20 PUSH0 KECCAK256 SWAP1 PUSH1 0x5 MUL ADD PUSH1 0x4 ADD SLOAD DUP3 PUSH2 0x3B7 SWAP2 SWAP1 PUSH2 0x1550 JUMP JUMPDEST SWAP2 POP DUP1 DUP1 PUSH1 0x1 ADD SWAP2 POP POP PUSH2 0x305 JUMP JUMPDEST POP DUP1 SWAP2 POP POP SWAP2 SWAP1 POP JUMP JUMPDEST PUSH1 0x60 PUSH1 0x1 PUSH0 DUP4 PUSH20 0xFFFFFFFFFFFFFFFFFFFFFFFFFFFFFFFFFFFFFFFF AND PUSH20 0xFFFFFFFFFFFFFFFFFFFFFFFFFFFFFFFFFFFFFFFF AND DUP2 MSTORE PUSH1 0x20 ADD SWAP1 DUP2 MSTORE PUSH1 0x20 ADD PUSH0 KECCAK256 DUP1 SLOAD DUP1 PUSH1 0x20 MUL PUSH1 0x20 ADD PUSH1 0x40 MLOAD SWAP1 DUP2 ADD PUSH1 0x40 MSTORE DUP1 SWAP3 SWAP2 SWAP1 DUP2 DUP2 MSTORE PUSH1 0x20 ADD PUSH0 SWAP1 JUMPDEST DUP3 DUP3 LT ISZERO PUSH2 0x560 JUMPI DUP4 DUP3 SWAP1 PUSH0 MSTORE PUSH1 0x20 PUSH0 KECCAK256 SWAP1 PUSH1 0x5 MUL ADD PUSH1 0x40 MLOAD DUP1 PUSH1 0xA0 ADD PUSH1 0x40 MSTORE SWAP1 DUP2 PUSH0 DUP3 ADD SLOAD DUP2 MSTORE PUSH1 0x20 ADD PUSH1 0x1 DUP3 ADD PUSH0 SWAP1 SLOAD SWAP1 PUSH2 0x100 EXP SWAP1 DIV PUSH20 0xFFFFFFFFFFFFFFFFFFFFFFFFFFFFFFFFFFFFFFFF AND PUSH20 0xFFFFFFFFFFFFFFFFFFFFFFFFFFFFFFFFFFFFFFFF AND PUSH20 0xFFFFFFFFFFFFFFFFFFFFFFFFFFFFFFFFFFFFFFFF AND DUP2 MSTORE PUSH1 0x20 ADD PUSH1 0x2 DUP3 ADD DUP1 SLOAD PUSH2 0x4BD SWAP1 PUSH2 0x14C6 JUMP JUMPDEST DUP1 PUSH1 0x1F ADD PUSH1 0x20 DUP1 SWAP2 DIV MUL PUSH1 0x20 ADD PUSH1 0x40 MLOAD SWAP1 DUP2 ADD PUSH1 0x40 MSTORE DUP1 SWAP3 SWAP2 SWAP1 DUP2 DUP2 MSTORE PUSH1 0x20 ADD DUP3 DUP1 SLOAD PUSH2 0x4E9 SWAP1 PUSH2 0x14C6 JUMP JUMPDEST DUP1 ISZERO PUSH2 0x534 JUMPI DUP1 PUSH1 0x1F LT PUSH2 0x50B JUMPI PUSH2 0x100 DUP1 DUP4 SLOAD DIV MUL DUP4 MSTORE SWAP2 PUSH1 0x20 ADD SWAP2 PUSH2 0x534 JUMP JUMPDEST DUP3 ADD SWAP2 SWAP1 PUSH0 MSTORE PUSH1 0x20 PUSH0 KECCAK256 SWAP1 JUMPDEST DUP2 SLOAD DUP2 MSTORE SWAP1 PUSH1 0x1 ADD SWAP1 PUSH1 0x20 ADD DUP1 DUP4 GT PUSH2 0x517 JUMPI DUP3 SWAP1 SUB PUSH1 0x1F AND DUP3 ADD SWAP2 JUMPDEST POP POP POP POP POP DUP2 MSTORE PUSH1 0x20 ADD PUSH1 0x3 DUP3 ADD SLOAD DUP2 MSTORE PUSH1 0x20 ADD PUSH1 0x4 DUP3 ADD SLOAD DUP2 MSTORE POP POP DUP2 MSTORE PUSH1 0x20 ADD SWAP1 PUSH1 0x1 ADD SWAP1 PUSH2 0x42E JUMP JUMPDEST POP POP POP POP SWAP1 POP SWAP2 SWAP1 POP JUMP JUMPDEST DUP1 PUSH1 0x1 PUSH0 DUP5 PUSH20 0xFFFFFFFFFFFFFFFFFFFFFFFFFFFFFFFFFFFFFFFF AND PUSH20 0xFFFFFFFFFFFFFFFFFFFFFFFFFFFFFFFFFFFFFFFF AND DUP2 MSTORE PUSH1 0x20 ADD SWAP1 DUP2 MSTORE PUSH1 0x20 ADD PUSH0 KECCAK256 DUP3 DUP2 SLOAD DUP2 LT PUSH2 0x5BB JUMPI PUSH2 0x5BA PUSH2 0x14F6 JUMP JUMPDEST JUMPDEST SWAP1 PUSH0 MSTORE PUSH1 0x20 PUSH0 KECCAK256 SWAP1 PUSH1 0x5 MUL ADD PUSH0 ADD SLOAD EQ PUSH2 0x60A JUMPI PUSH1 0x40 MLOAD PUSH32 0x8C379A000000000000000000000000000000000000000000000000000000000 DUP2 MSTORE PUSH1 0x4 ADD PUSH2 0x601 SWAP1 PUSH2 0x15CD JUMP JUMPDEST PUSH1 0x40 MLOAD DUP1 SWAP2 SUB SWAP1 REVERT JUMPDEST PUSH0 PUSH1 0x1 PUSH0 DUP5 PUSH20 0xFFFFFFFFFFFFFFFFFFFFFFFFFFFFFFFFFFFFFFFF AND PUSH20 0xFFFFFFFFFFFFFFFFFFFFFFFFFFFFFFFFFFFFFFFF AND DUP2 MSTORE PUSH1 0x20 ADD SWAP1 DUP2 MSTORE PUSH1 0x20 ADD PUSH0 KECCAK256 DUP3 DUP2 SLOAD DUP2 LT PUSH2 0x65A JUMPI PUSH2 0x659 PUSH2 0x14F6 JUMP JUMPDEST JUMPDEST SWAP1 PUSH0 MSTORE PUSH1 0x20 PUSH0 KECCAK256 SWAP1 PUSH1 0x5 MUL ADD PUSH1 0x4 ADD SLOAD GT PUSH2 0x6AA JUMPI PUSH1 0x40 MLOAD PUSH32 0x8C379A000000000000000000000000000000000000000000000000000000000 DUP2 MSTORE PUSH1 0x4 ADD PUSH2 0x6A1 SWAP1 PUSH2 0x1635 JUMP JUMPDEST PUSH1 0x40 MLOAD DUP1 SWAP2 SUB SWAP1 REVERT JUMPDEST PUSH1 0x1 PUSH0 DUP4 PUSH20 0xFFFFFFFFFFFFFFFFFFFFFFFFFFFFFFFFFFFFFFFF AND PUSH20 0xFFFFFFFFFFFFFFFFFFFFFFFFFFFFFFFFFFFFFFFF AND DUP2 MSTORE PUSH1 0x20 ADD SWAP1 DUP2 MSTORE PUSH1 0x20 ADD PUSH0 KECCAK256 DUP2 DUP2 SLOAD DUP2 LT PUSH2 0x6F9 JUMPI PUSH2 0x6F8 PUSH2 0x14F6 JUMP JUMPDEST JUMPDEST SWAP1 PUSH0 MSTORE PUSH1 0x20 PUSH0 KECCAK256 SWAP1 PUSH1 0x5 MUL ADD PUSH1 0x4 ADD PUSH0 DUP2 SLOAD DUP1 SWAP3 SWAP2 SWAP1 PUSH2 0x718 SWAP1 PUSH2 0x1653 JUMP JUMPDEST SWAP2 SWAP1 POP SSTORE POP PUSH32 0x762C2616349603AC16EBA0DE8E6141B79129A07AB63BD99E0A80B3A471716943 CALLER DUP4 DUP4 PUSH1 0x1 PUSH0 DUP8 PUSH20 0xFFFFFFFFFFFFFFFFFFFFFFFFFFFFFFFFFFFFFFFF AND PUSH20 0xFFFFFFFFFFFFFFFFFFFFFFFFFFFFFFFFFFFFFFFF AND DUP2 MSTORE PUSH1 0x20 ADD SWAP1 DUP2 MSTORE PUSH1 0x20 ADD PUSH0 KECCAK256 DUP6 DUP2 SLOAD DUP2 LT PUSH2 0x790 JUMPI PUSH2 0x78F PUSH2 0x14F6 JUMP JUMPDEST JUMPDEST SWAP1 PUSH0 MSTORE PUSH1 0x20 PUSH0 KECCAK256 SWAP1 PUSH1 0x5 MUL ADD PUSH1 0x4 ADD SLOAD PUSH1 0x40 MLOAD PUSH2 0x7B0 SWAP5 SWAP4 SWAP3 SWAP2 SWAP1 PUSH2 0x167A JUMP JUMPDEST PUSH1 0x40 MLOAD DUP1 SWAP2 SUB SWAP1 LOG1 POP POP JUMP JUMPDEST PUSH1 0x2 PUSH0 SWAP1 SLOAD SWAP1 PUSH2 0x100 EXP SWAP1 DIV PUSH20 0xFFFFFFFFFFFFFFFFFFFFFFFFFFFFFFFFFFFFFFFF AND PUSH20 0xFFFFFFFFFFFFFFFFFFFFFFFFFFFFFFFFFFFFFFFF AND CALLER PUSH20 0xFFFFFFFFFFFFFFFFFFFFFFFFFFFFFFFFFFFFFFFF AND EQ PUSH2 0x84B JUMPI PUSH1 0x40 MLOAD PUSH32 0x8C379A000000000000000000000000000000000000000000000000000000000 DUP2 MSTORE PUSH1 0x4 ADD PUSH2 0x842 SWAP1 PUSH2 0x1707 JUMP JUMPDEST PUSH1 0x40 MLOAD DUP1 SWAP2 SUB SWAP1 REVERT JUMPDEST DUP1 PUSH0 DUP1 PUSH2 0x100 EXP DUP2 SLOAD DUP2 PUSH2 0xFFFF MUL NOT AND SWAP1 DUP4 PUSH2 0xFFFF AND MUL OR SWAP1 SSTORE POP POP JUMP JUMPDEST DUP1 PUSH1 0x1 PUSH0 DUP5 PUSH20 0xFFFFFFFFFFFFFFFFFFFFFFFFFFFFFFFFFFFFFFFF AND PUSH20 0xFFFFFFFFFFFFFFFFFFFFFFFFFFFFFFFFFFFFFFFF AND DUP2 MSTORE PUSH1 0x20 ADD SWAP1 DUP2 MSTORE PUSH1 0x20 ADD PUSH0 KECCAK256 DUP3 DUP2 SLOAD DUP2 LT PUSH2 0x8B9 JUMPI PUSH2 0x8B8 PUSH2 0x14F6 JUMP JUMPDEST JUMPDEST SWAP1 PUSH0 MSTORE PUSH1 0x20 PUSH0 KECCAK256 SWAP1 PUSH1 0x5 MUL ADD PUSH0 ADD SLOAD EQ PUSH2 0x908 JUMPI PUSH1 0x40 MLOAD PUSH32 0x8C379A000000000000000000000000000000000000000000000000000000000 DUP2 MSTORE PUSH1 0x4 ADD PUSH2 0x8FF SWAP1 PUSH2 0x15CD JUMP JUMPDEST PUSH1 0x40 MLOAD DUP1 SWAP2 SUB SWAP1 REVERT JUMPDEST PUSH1 0x1 PUSH0 DUP4 PUSH20 0xFFFFFFFFFFFFFFFFFFFFFFFFFFFFFFFFFFFFFFFF AND PUSH20 0xFFFFFFFFFFFFFFFFFFFFFFFFFFFFFFFFFFFFFFFF AND DUP2 MSTORE PUSH1 0x20 ADD SWAP1 DUP2 MSTORE PUSH1 0x20 ADD PUSH0 KECCAK256 DUP2 DUP2 SLOAD DUP2 LT PUSH2 0x957 JUMPI PUSH2 0x956 PUSH2 0x14F6 JUMP JUMPDEST JUMPDEST SWAP1 PUSH0 MSTORE PUSH1 0x20 PUSH0 KECCAK256 SWAP1 PUSH1 0x5 MUL ADD PUSH1 0x4 ADD PUSH0 DUP2 SLOAD DUP1 SWAP3 SWAP2 SWAP1 PUSH2 0x976 SWAP1 PUSH2 0x1725 JUMP JUMPDEST SWAP2 SWAP1 POP SSTORE POP PUSH32 0xE8A76FC0F16D11A00D1E93B689B63D76CF60AF914DD3D915375DC41D01A0C3C8 CALLER DUP4 DUP4 PUSH1 0x1 PUSH0 DUP8 PUSH20 0xFFFFFFFFFFFFFFFFFFFFFFFFFFFFFFFFFFFFFFFF AND PUSH20 0xFFFFFFFFFFFFFFFFFFFFFFFFFFFFFFFFFFFFFFFF AND DUP2 MSTORE PUSH1 0x20 ADD SWAP1 DUP2 MSTORE PUSH1 0x20 ADD PUSH0 KECCAK256 DUP6 DUP2 SLOAD DUP2 LT PUSH2 0x9EE JUMPI PUSH2 0x9ED PUSH2 0x14F6 JUMP JUMPDEST JUMPDEST SWAP1 PUSH0 MSTORE PUSH1 0x20 PUSH0 KECCAK256 SWAP1 PUSH1 0x5 MUL ADD PUSH1 0x4 ADD SLOAD PUSH1 0x40 MLOAD PUSH2 0xA0E SWAP5 SWAP4 SWAP3 SWAP2 SWAP1 PUSH2 0x167A JUMP JUMPDEST PUSH1 0x40 MLOAD DUP1 SWAP2 SUB SWAP1 LOG1 POP POP JUMP JUMPDEST PUSH0 DUP1 SLOAD SWAP1 PUSH2 0x100 EXP SWAP1 DIV PUSH2 0xFFFF AND DUP2 JUMP JUMPDEST PUSH0 DUP1 SLOAD SWAP1 PUSH2 0x100 EXP SWAP1 DIV PUSH2 0xFFFF AND PUSH2 0xFFFF AND DUP2 MLOAD GT ISZERO PUSH2 0xA80 JUMPI PUSH1 0x40 MLOAD PUSH32 0x8C379A000000000000000000000000000000000000000000000000000000000 DUP2 MSTORE PUSH1 0x4 ADD PUSH2 0xA77 SWAP1 PUSH2 0x17B6 JUMP JUMPDEST PUSH1 0x40 MLOAD DUP1 SWAP2 SUB SWAP1 REVERT JUMPDEST PUSH0 PUSH1 0x40 MLOAD DUP1 PUSH1 0xA0 ADD PUSH1 0x40 MSTORE DUP1 PUSH1 0x1 PUSH0 CALLER PUSH20 0xFFFFFFFFFFFFFFFFFFFFFFFFFFFFFFFFFFFFFFFF AND PUSH20 0xFFFFFFFFFFFFFFFFFFFFFFFFFFFFFFFFFFFFFFFF AND DUP2 MSTORE PUSH1 0x20 ADD SWAP1 DUP2 MSTORE PUSH1 0x20 ADD PUSH0 KECCAK256 DUP1 SLOAD SWAP1 POP DUP2 MSTORE PUSH1 0x20 ADD CALLER PUSH20 0xFFFFFFFFFFFFFFFFFFFFFFFFFFFFFFFFFFFFFFFF AND DUP2 MSTORE PUSH1 0x20 ADD DUP4 DUP2 MSTORE PUSH1 0x20 ADD TIMESTAMP DUP2 MSTORE PUSH1 0x20 ADD PUSH0 DUP2 MSTORE POP SWAP1 POP PUSH1 0x1 PUSH0 CALLER PUSH20 0xFFFFFFFFFFFFFFFFFFFFFFFFFFFFFFFFFFFFFFFF AND PUSH20 0xFFFFFFFFFFFFFFFFFFFFFFFFFFFFFFFFFFFFFFFF AND DUP2 MSTORE PUSH1 0x20 ADD SWAP1 DUP2 MSTORE PUSH1 0x20 ADD PUSH0 KECCAK256 DUP2 SWAP1 DUP1 PUSH1 0x1 DUP2 SLOAD ADD DUP1 DUP3 SSTORE DUP1 SWAP2 POP POP PUSH1 0x1 SWAP1 SUB SWAP1 PUSH0 MSTORE PUSH1 0x20 PUSH0 KECCAK256 SWAP1 PUSH1 0x5 MUL ADD PUSH0 SWAP1 SWAP2 SWAP1 SWAP2 SWAP1 SWAP2 POP PUSH0 DUP3 ADD MLOAD DUP2 PUSH0 ADD SSTORE PUSH1 0x20 DUP3 ADD MLOAD DUP2 PUSH1 0x1 ADD PUSH0 PUSH2 0x100 EXP DUP2 SLOAD DUP2 PUSH20 0xFFFFFFFFFFFFFFFFFFFFFFFFFFFFFFFFFFFFFFFF MUL NOT AND SWAP1 DUP4 PUSH20 0xFFFFFFFFFFFFFFFFFFFFFFFFFFFFFFFFFFFFFFFF AND MUL OR SWAP1 SSTORE POP PUSH1 0x40 DUP3 ADD MLOAD DUP2 PUSH1 0x2 ADD SWAP1 DUP2 PUSH2 0xBC7 SWAP2 SWAP1 PUSH2 0x1971 JUMP JUMPDEST POP PUSH1 0x60 DUP3 ADD MLOAD DUP2 PUSH1 0x3 ADD SSTORE PUSH1 0x80 DUP3 ADD MLOAD DUP2 PUSH1 0x4 ADD SSTORE POP POP PUSH32 0x16FD3C13E9D46923E0A8BCE11C7B473EC508A72E6C96CD2404B29CE972AFC29E DUP2 PUSH0 ADD MLOAD DUP3 PUSH1 0x20 ADD MLOAD DUP4 PUSH1 0x40 ADD MLOAD DUP5 PUSH1 0x60 ADD MLOAD PUSH1 0x40 MLOAD PUSH2 0xC22 SWAP5 SWAP4 SWAP3 SWAP2 SWAP1 PUSH2 0x1A40 JUMP JUMPDEST PUSH1 0x40 MLOAD DUP1 SWAP2 SUB SWAP1 LOG1 POP POP JUMP JUMPDEST PUSH1 0x2 PUSH0 SWAP1 SLOAD SWAP1 PUSH2 0x100 EXP SWAP1 DIV PUSH20 0xFFFFFFFFFFFFFFFFFFFFFFFFFFFFFFFFFFFFFFFF AND DUP2 JUMP JUMPDEST PUSH2 0xC5B PUSH2 0xDCA JUMP JUMPDEST PUSH1 0x1 PUSH0 CALLER PUSH20 0xFFFFFFFFFFFFFFFFFFFFFFFFFFFFFFFFFFFFFFFF AND PUSH20 0xFFFFFFFFFFFFFFFFFFFFFFFFFFFFFFFFFFFFFFFF AND DUP2 MSTORE PUSH1 0x20 ADD SWAP1 DUP2 MSTORE PUSH1 0x20 ADD PUSH0 KECCAK256 DUP3 DUP2 SLOAD DUP2 LT PUSH2 0xCAA JUMPI PUSH2 0xCA9 PUSH2 0x14F6 JUMP JUMPDEST JUMPDEST SWAP1 PUSH0 MSTORE PUSH1 0x20 PUSH0 KECCAK256 SWAP1 PUSH1 0x5 MUL ADD PUSH1 0x40 MLOAD DUP1 PUSH1 0xA0 ADD PUSH1 0x40 MSTORE SWAP1 DUP2 PUSH0 DUP3 ADD SLOAD DUP2 MSTORE PUSH1 0x20 ADD PUSH1 0x1 DUP3 ADD PUSH0 SWAP1 SLOAD SWAP1 PUSH2 0x100 EXP SWAP1 DIV PUSH20 0xFFFFFFFFFFFFFFFFFFFFFFFFFFFFFFFFFFFFFFFF AND PUSH20 0xFFFFFFFFFFFFFFFFFFFFFFFFFFFFFFFFFFFFFFFF AND PUSH20 0xFFFFFFFFFFFFFFFFFFFFFFFFFFFFFFFFFFFFFFFF AND DUP2 MSTORE PUSH1 0x20 ADD PUSH1 0x2 DUP3 ADD DUP1 SLOAD PUSH2 0xD2F SWAP1 PUSH2 0x14C6 JUMP JUMPDEST DUP1 PUSH1 0x1F ADD PUSH1 0x20 DUP1 SWAP2 DIV MUL PUSH1 0x20 ADD PUSH1 0x40 MLOAD SWAP1 DUP2 ADD PUSH1 0x40 MSTORE DUP1 SWAP3 SWAP2 SWAP1 DUP2 DUP2 MSTORE PUSH1 0x20 ADD DUP3 DUP1 SLOAD PUSH2 0xD5B SWAP1 PUSH2 0x14C6 JUMP JUMPDEST DUP1 ISZERO PUSH2 0xDA6 JUMPI DUP1 PUSH1 0x1F LT PUSH2 0xD7D JUMPI PUSH2 0x100 DUP1 DUP4 SLOAD DIV MUL DUP4 MSTORE SWAP2 PUSH1 0x20 ADD SWAP2 PUSH2 0xDA6 JUMP JUMPDEST DUP3 ADD SWAP2 SWAP1 PUSH0 MSTORE PUSH1 0x20 PUSH0 KECCAK256 SWAP1 JUMPDEST DUP2 SLOAD DUP2 MSTORE SWAP1 PUSH1 0x1 ADD SWAP1 PUSH1 0x20 ADD DUP1 DUP4 GT PUSH2 0xD89 JUMPI DUP3 SWAP1 SUB PUSH1 0x1F AND DUP3 ADD SWAP2 JUMPDEST POP POP POP POP POP DUP2 MSTORE PUSH1 0x20 ADD PUSH1 0x3 DUP3 ADD SLOAD DUP2 MSTORE PUSH1 0x20 ADD PUSH1 0x4 DUP3 ADD SLOAD DUP2 MSTORE POP POP SWAP1 POP SWAP2 SWAP1 POP JUMP JUMPDEST PUSH1 0x40 MLOAD DUP1 PUSH1 0xA0 ADD PUSH1 0x40 MSTORE DUP1 PUSH0 DUP2 MSTORE PUSH1 0x20 ADD PUSH0 PUSH20 0xFFFFFFFFFFFFFFFFFFFFFFFFFFFFFFFFFFFFFFFF AND DUP2 MSTORE PUSH1 0x20 ADD PUSH1 0x60 DUP2 MSTORE PUSH1 0x20 ADD PUSH0 DUP2 MSTORE PUSH1 0x20 ADD PUSH0 DUP2 MSTORE POP SWAP1 JUMP JUMPDEST PUSH0 PUSH1 0x40 MLOAD SWAP1 POP SWAP1 JUMP JUMPDEST PUSH0 DUP1 REVERT JUMPDEST PUSH0 DUP1 REVERT JUMPDEST PUSH0 PUSH20 0xFFFFFFFFFFFFFFFFFFFFFFFFFFFFFFFFFFFFFFFF DUP3 AND SWAP1 POP SWAP2 SWAP1 POP JUMP JUMPDEST PUSH0 PUSH2 0xE45 DUP3 PUSH2 0xE1C JUMP JUMPDEST SWAP1 POP SWAP2 SWAP1 POP JUMP JUMPDEST PUSH2 0xE55 DUP2 PUSH2 0xE3B JUMP JUMPDEST DUP2 EQ PUSH2 0xE5F JUMPI PUSH0 DUP1 REVERT JUMPDEST POP JUMP JUMPDEST PUSH0 DUP2 CALLDATALOAD SWAP1 POP PUSH2 0xE70 DUP2 PUSH2 0xE4C JUMP JUMPDEST SWAP3 SWAP2 POP POP JUMP JUMPDEST PUSH0 DUP2 SWAP1 POP SWAP2 SWAP1 POP JUMP JUMPDEST PUSH2 0xE88 DUP2 PUSH2 0xE76 JUMP JUMPDEST DUP2 EQ PUSH2 0xE92 JUMPI PUSH0 DUP1 REVERT JUMPDEST POP JUMP JUMPDEST PUSH0 DUP2 CALLDATALOAD SWAP1 POP PUSH2 0xEA3 DUP2 PUSH2 0xE7F JUMP JUMPDEST SWAP3 SWAP2 POP POP JUMP JUMPDEST PUSH0 DUP1 PUSH1 0x40 DUP4 DUP6 SUB SLT ISZERO PUSH2 0xEBF JUMPI PUSH2 0xEBE PUSH2 0xE14 JUMP JUMPDEST JUMPDEST PUSH0 PUSH2 0xECC DUP6 DUP3 DUP7 ADD PUSH2 0xE62 JUMP JUMPDEST SWAP3 POP POP PUSH1 0x20 PUSH2 0xEDD DUP6 DUP3 DUP7 ADD PUSH2 0xE95 JUMP JUMPDEST SWAP2 POP POP SWAP3 POP SWAP3 SWAP1 POP JUMP JUMPDEST PUSH2 0xEF0 DUP2 PUSH2 0xE76 JUMP JUMPDEST DUP3 MSTORE POP POP JUMP JUMPDEST PUSH2 0xEFF DUP2 PUSH2 0xE3B JUMP JUMPDEST DUP3 MSTORE POP POP JUMP JUMPDEST PUSH0 DUP2 MLOAD SWAP1 POP SWAP2 SWAP1 POP JUMP JUMPDEST PUSH0 DUP3 DUP3 MSTORE PUSH1 0x20 DUP3 ADD SWAP1 POP SWAP3 SWAP2 POP POP JUMP JUMPDEST DUP3 DUP2 DUP4 MCOPY PUSH0 DUP4 DUP4 ADD MSTORE POP POP POP JUMP JUMPDEST PUSH0 PUSH1 0x1F NOT PUSH1 0x1F DUP4 ADD AND SWAP1 POP SWAP2 SWAP1 POP JUMP JUMPDEST PUSH0 PUSH2 0xF47 DUP3 PUSH2 0xF05 JUMP JUMPDEST PUSH2 0xF51 DUP2 DUP6 PUSH2 0xF0F JUMP JUMPDEST SWAP4 POP PUSH2 0xF61 DUP2 DUP6 PUSH1 0x20 DUP7 ADD PUSH2 0xF1F JUMP JUMPDEST PUSH2 0xF6A DUP2 PUSH2 0xF2D JUMP JUMPDEST DUP5 ADD SWAP2 POP POP SWAP3 SWAP2 POP POP JUMP JUMPDEST PUSH0 PUSH1 0xA0 DUP3 ADD SWAP1 POP PUSH2 0xF88 PUSH0 DUP4 ADD DUP9 PUSH2 0xEE7 JUMP JUMPDEST PUSH2 0xF95 PUSH1 0x20 DUP4 ADD DUP8 PUSH2 0xEF6 JUMP JUMPDEST DUP2 DUP2 SUB PUSH1 0x40 DUP4 ADD MSTORE PUSH2 0xFA7 DUP2 DUP7 PUSH2 0xF3D JUMP JUMPDEST SWAP1 POP PUSH2 0xFB6 PUSH1 0x60 DUP4 ADD DUP6 PUSH2 0xEE7 JUMP JUMPDEST PUSH2 0xFC3 PUSH1 0x80 DUP4 ADD DUP5 PUSH2 0xEE7 JUMP JUMPDEST SWAP7 SWAP6 POP POP POP POP POP POP JUMP JUMPDEST PUSH0 PUSH1 0x20 DUP3 DUP5 SUB SLT ISZERO PUSH2 0xFE2 JUMPI PUSH2 0xFE1 PUSH2 0xE14 JUMP JUMPDEST JUMPDEST PUSH0 PUSH2 0xFEF DUP5 DUP3 DUP6 ADD PUSH2 0xE62 JUMP JUMPDEST SWAP2 POP POP SWAP3 SWAP2 POP POP JUMP JUMPDEST PUSH0 PUSH1 0x20 DUP3 ADD SWAP1 POP PUSH2 0x100B PUSH0 DUP4 ADD DUP5 PUSH2 0xEE7 JUMP JUMPDEST SWAP3 SWAP2 POP POP JUMP JUMPDEST PUSH0 DUP2 MLOAD SWAP1 POP SWAP2 SWAP1 POP JUMP JUMPDEST PUSH0 DUP3 DUP3 MSTORE PUSH1 0x20 DUP3 ADD SWAP1 POP SWAP3 SWAP2 POP POP JUMP JUMPDEST PUSH0 DUP2 SWAP1 POP PUSH1 0x20 DUP3 ADD SWAP1 POP SWAP2 SWAP1 POP JUMP JUMPDEST PUSH2 0x1043 DUP2 PUSH2 0xE76 JUMP JUMPDEST DUP3 MSTORE POP POP JUMP JUMPDEST PUSH2 0x1052 DUP2 PUSH2 0xE3B JUMP JUMPDEST DUP3 MSTORE POP POP JUMP JUMPDEST PUSH0 DUP3 DUP3 MSTORE PUSH1 0x20 DUP3 ADD SWAP1 POP SWAP3 SWAP2 POP POP JUMP JUMPDEST PUSH0 PUSH2 0x1072 DUP3 PUSH2 0xF05 JUMP JUMPDEST PUSH2 0x107C DUP2 DUP6 PUSH2 0x1058 JUMP JUMPDEST SWAP4 POP PUSH2 0x108C DUP2 DUP6 PUSH1 0x20 DUP7 ADD PUSH2 0xF1F JUMP JUMPDEST PUSH2 0x1095 DUP2 PUSH2 0xF2D JUMP JUMPDEST DUP5 ADD SWAP2 POP POP SWAP3 SWAP2 POP POP JUMP JUMPDEST PUSH0 PUSH1 0xA0 DUP4 ADD PUSH0 DUP4 ADD MLOAD PUSH2 0x10B5 PUSH0 DUP7 ADD DUP3 PUSH2 0x103A JUMP JUMPDEST POP PUSH1 0x20 DUP4 ADD MLOAD PUSH2 0x10C8 PUSH1 0x20 DUP7 ADD DUP3 PUSH2 0x1049 JUMP JUMPDEST POP PUSH1 0x40 DUP4 ADD MLOAD DUP5 DUP3 SUB PUSH1 0x40 DUP7 ADD MSTORE PUSH2 0x10E0 DUP3 DUP3 PUSH2 0x1068 JUMP JUMPDEST SWAP2 POP POP PUSH1 0x60 DUP4 ADD MLOAD PUSH2 0x10F5 PUSH1 0x60 DUP7 ADD DUP3 PUSH2 0x103A JUMP JUMPDEST POP PUSH1 0x80 DUP4 ADD MLOAD PUSH2 0x1108 PUSH1 0x80 DUP7 ADD DUP3 PUSH2 0x103A JUMP JUMPDEST POP DUP1 SWAP2 POP POP SWAP3 SWAP2 POP POP JUMP JUMPDEST PUSH0 PUSH2 0x111E DUP4 DUP4 PUSH2 0x10A0 JUMP JUMPDEST SWAP1 POP SWAP3 SWAP2 POP POP JUMP JUMPDEST PUSH0 PUSH1 0x20 DUP3 ADD SWAP1 POP SWAP2 SWAP1 POP JUMP JUMPDEST PUSH0 PUSH2 0x113C DUP3 PUSH2 0x1011 JUMP JUMPDEST PUSH2 0x1146 DUP2 DUP6 PUSH2 0x101B JUMP JUMPDEST SWAP4 POP DUP4 PUSH1 0x20 DUP3 MUL DUP6 ADD PUSH2 0x1158 DUP6 PUSH2 0x102B JUMP JUMPDEST DUP1 PUSH0 JUMPDEST DUP6 DUP2 LT ISZERO PUSH2 0x1193 JUMPI DUP5 DUP5 SUB DUP10 MSTORE DUP2 MLOAD PUSH2 0x1174 DUP6 DUP3 PUSH2 0x1113 JUMP JUMPDEST SWAP5 POP PUSH2 0x117F DUP4 PUSH2 0x1126 JUMP JUMPDEST SWAP3 POP PUSH1 0x20 DUP11 ADD SWAP10 POP POP PUSH1 0x1 DUP2 ADD SWAP1 POP PUSH2 0x115B JUMP JUMPDEST POP DUP3 SWAP8 POP DUP8 SWAP6 POP POP POP POP POP POP SWAP3 SWAP2 POP POP JUMP JUMPDEST PUSH0 PUSH1 0x20 DUP3 ADD SWAP1 POP DUP2 DUP2 SUB PUSH0 DUP4 ADD MSTORE PUSH2 0x11BD DUP2 DUP5 PUSH2 0x1132 JUMP JUMPDEST SWAP1 POP SWAP3 SWAP2 POP POP JUMP JUMPDEST PUSH0 PUSH2 0xFFFF DUP3 AND SWAP1 POP SWAP2 SWAP1 POP JUMP JUMPDEST PUSH2 0x11DB DUP2 PUSH2 0x11C5 JUMP JUMPDEST DUP2 EQ PUSH2 0x11E5 JUMPI PUSH0 DUP1 REVERT JUMPDEST POP JUMP JUMPDEST PUSH0 DUP2 CALLDATALOAD SWAP1 POP PUSH2 0x11F6 DUP2 PUSH2 0x11D2 JUMP JUMPDEST SWAP3 SWAP2 POP POP JUMP JUMPDEST PUSH0 PUSH1 0x20 DUP3 DUP5 SUB SLT ISZERO PUSH2 0x1211 JUMPI PUSH2 0x1210 PUSH2 0xE14 JUMP JUMPDEST JUMPDEST PUSH0 PUSH2 0x121E DUP5 DUP3 DUP6 ADD PUSH2 0x11E8 JUMP JUMPDEST SWAP2 POP POP SWAP3 SWAP2 POP POP JUMP JUMPDEST PUSH2 0x1230 DUP2 PUSH2 0x11C5 JUMP JUMPDEST DUP3 MSTORE POP POP JUMP JUMPDEST PUSH0 PUSH1 0x20 DUP3 ADD SWAP1 POP PUSH2 0x1249 PUSH0 DUP4 ADD DUP5 PUSH2 0x1227 JUMP JUMPDEST SWAP3 SWAP2 POP POP JUMP JUMPDEST PUSH0 DUP1 REVERT JUMPDEST PUSH0 DUP1 REVERT JUMPDEST PUSH32 0x4E487B7100000000000000000000000000000000000000000000000000000000 PUSH0 MSTORE PUSH1 0x41 PUSH1 0x4 MSTORE PUSH1 0x24 PUSH0 REVERT JUMPDEST PUSH2 0x128D DUP3 PUSH2 0xF2D JUMP JUMPDEST DUP2 ADD DUP2 DUP2 LT PUSH8 0xFFFFFFFFFFFFFFFF DUP3 GT OR ISZERO PUSH2 0x12AC JUMPI PUSH2 0x12AB PUSH2 0x1257 JUMP JUMPDEST JUMPDEST DUP1 PUSH1 0x40 MSTORE POP POP POP JUMP JUMPDEST PUSH0 PUSH2 0x12BE PUSH2 0xE0B JUMP JUMPDEST SWAP1 POP PUSH2 0x12CA DUP3 DUP3 PUSH2 0x1284 JUMP JUMPDEST SWAP2 SWAP1 POP JUMP JUMPDEST PUSH0 PUSH8 0xFFFFFFFFFFFFFFFF DUP3 GT ISZERO PUSH2 0x12E9 JUMPI PUSH2 0x12E8 PUSH2 0x1257 JUMP JUMPDEST JUMPDEST PUSH2 0x12F2 DUP3 PUSH2 0xF2D JUMP JUMPDEST SWAP1 POP PUSH1 0x20 DUP2 ADD SWAP1 POP SWAP2 SWAP1 POP JUMP JUMPDEST DUP3 DUP2 DUP4 CALLDATACOPY PUSH0 DUP4 DUP4 ADD MSTORE POP POP POP JUMP JUMPDEST PUSH0 PUSH2 0x131F PUSH2 0x131A DUP5 PUSH2 0x12CF JUMP JUMPDEST PUSH2 0x12B5 JUMP JUMPDEST SWAP1 POP DUP3 DUP2 MSTORE PUSH1 0x20 DUP2 ADD DUP5 DUP5 DUP5 ADD GT ISZERO PUSH2 0x133B JUMPI PUSH2 0x133A PUSH2 0x1253 JUMP JUMPDEST JUMPDEST PUSH2 0x1346 DUP5 DUP3 DUP6 PUSH2 0x12FF JUMP JUMPDEST POP SWAP4 SWAP3 POP POP POP JUMP JUMPDEST PUSH0 DUP3 PUSH1 0x1F DUP4 ADD SLT PUSH2 0x1362 JUMPI PUSH2 0x1361 PUSH2 0x124F JUMP JUMPDEST JUMPDEST DUP2 CALLDATALOAD PUSH2 0x1372 DUP5 DUP3 PUSH1 0x20 DUP7 ADD PUSH2 0x130D JUMP JUMPDEST SWAP2 POP POP SWAP3 SWAP2 POP POP JUMP JUMPDEST PUSH0 PUSH1 0x20 DUP3 DUP5 SUB SLT ISZERO PUSH2 0x1390 JUMPI PUSH2 0x138F PUSH2 0xE14 JUMP JUMPDEST JUMPDEST PUSH0 DUP3 ADD CALLDATALOAD PUSH8 0xFFFFFFFFFFFFFFFF DUP2 GT ISZERO PUSH2 0x13AD JUMPI PUSH2 0x13AC PUSH2 0xE18 JUMP JUMPDEST JUMPDEST PUSH2 0x13B9 DUP5 DUP3 DUP6 ADD PUSH2 0x134E JUMP JUMPDEST SWAP2 POP POP SWAP3 SWAP2 POP POP JUMP JUMPDEST PUSH0 PUSH1 0x20 DUP3 ADD SWAP1 POP PUSH2 0x13D5 PUSH0 DUP4 ADD DUP5 PUSH2 0xEF6 JUMP JUMPDEST SWAP3 SWAP2 POP POP JUMP JUMPDEST PUSH0 PUSH1 0x20 DUP3 DUP5 SUB SLT ISZERO PUSH2 0x13F0 JUMPI PUSH2 0x13EF PUSH2 0xE14 JUMP JUMPDEST JUMPDEST PUSH0 PUSH2 0x13FD DUP5 DUP3 DUP6 ADD PUSH2 0xE95 JUMP JUMPDEST SWAP2 POP POP SWAP3 SWAP2 POP POP JUMP JUMPDEST PUSH0 PUSH1 0xA0 DUP4 ADD PUSH0 DUP4 ADD MLOAD PUSH2 0x141B PUSH0 DUP7 ADD DUP3 PUSH2 0x103A JUMP JUMPDEST POP PUSH1 0x20 DUP4 ADD MLOAD PUSH2 0x142E PUSH1 0x20 DUP7 ADD DUP3 PUSH2 0x1049 JUMP JUMPDEST POP PUSH1 0x40 DUP4 ADD MLOAD DUP5 DUP3 SUB PUSH1 0x40 DUP7 ADD MSTORE PUSH2 0x1446 DUP3 DUP3 PUSH2 0x1068 JUMP JUMPDEST SWAP2 POP POP PUSH1 0x60 DUP4 ADD MLOAD PUSH2 0x145B PUSH1 0x60 DUP7 ADD DUP3 PUSH2 0x103A JUMP JUMPDEST POP PUSH1 0x80 DUP4 ADD MLOAD PUSH2 0x146E PUSH1 0x80 DUP7 ADD DUP3 PUSH2 0x103A JUMP JUMPDEST POP DUP1 SWAP2 POP POP SWAP3 SWAP2 POP POP JUMP JUMPDEST PUSH0 PUSH1 0x20 DUP3 ADD SWAP1 POP DUP2 DUP2 SUB PUSH0 DUP4 ADD MSTORE PUSH2 0x1491 DUP2 DUP5 PUSH2 0x1406 JUMP JUMPDEST SWAP1 POP SWAP3 SWAP2 POP POP JUMP JUMPDEST PUSH32 0x4E487B7100000000000000000000000000000000000000000000000000000000 PUSH0 MSTORE PUSH1 0x22 PUSH1 0x4 MSTORE PUSH1 0x24 PUSH0 REVERT JUMPDEST PUSH0 PUSH1 0x2 DUP3 DIV SWAP1 POP PUSH1 0x1 DUP3 AND DUP1 PUSH2 0x14DD JUMPI PUSH1 0x7F DUP3 AND SWAP2 POP JUMPDEST PUSH1 0x20 DUP3 LT DUP2 SUB PUSH2 0x14F0 JUMPI PUSH2 0x14EF PUSH2 0x1499 JUMP JUMPDEST JUMPDEST POP SWAP2 SWAP1 POP JUMP JUMPDEST PUSH32 0x4E487B7100000000000000000000000000000000000000000000000000000000 PUSH0 MSTORE PUSH1 0x32 PUSH1 0x4 MSTORE PUSH1 0x24 PUSH0 REVERT JUMPDEST PUSH32 0x4E487B7100000000000000000000000000000000000000000000000000000000 PUSH0 MSTORE PUSH1 0x11 PUSH1 0x4 MSTORE PUSH1 0x24 PUSH0 REVERT JUMPDEST PUSH0 PUSH2 0x155A DUP3 PUSH2 0xE76 JUMP JUMPDEST SWAP2 POP PUSH2 0x1565 DUP4 PUSH2 0xE76 JUMP JUMPDEST SWAP3 POP DUP3 DUP3 ADD SWAP1 POP DUP1 DUP3 GT ISZERO PUSH2 0x157D JUMPI PUSH2 0x157C PUSH2 0x1523 JUMP JUMPDEST JUMPDEST SWAP3 SWAP2 POP POP JUMP JUMPDEST PUSH32 0x545745455420444F4553204E4F54204558495354000000000000000000000000 PUSH0 DUP3 ADD MSTORE POP JUMP JUMPDEST PUSH0 PUSH2 0x15B7 PUSH1 0x14 DUP4 PUSH2 0xF0F JUMP JUMPDEST SWAP2 POP PUSH2 0x15C2 DUP3 PUSH2 0x1583 JUMP JUMPDEST PUSH1 0x20 DUP3 ADD SWAP1 POP SWAP2 SWAP1 POP JUMP JUMPDEST PUSH0 PUSH1 0x20 DUP3 ADD SWAP1 POP DUP2 DUP2 SUB PUSH0 DUP4 ADD MSTORE PUSH2 0x15E4 DUP2 PUSH2 0x15AB JUMP JUMPDEST SWAP1 POP SWAP2 SWAP1 POP JUMP JUMPDEST PUSH32 0x545745455420484153204E4F204C494B45530000000000000000000000000000 PUSH0 DUP3 ADD MSTORE POP JUMP JUMPDEST PUSH0 PUSH2 0x161F PUSH1 0x12 DUP4 PUSH2 0xF0F JUMP JUMPDEST SWAP2 POP PUSH2 0x162A DUP3 PUSH2 0x15EB JUMP JUMPDEST PUSH1 0x20 DUP3 ADD SWAP1 POP SWAP2 SWAP1 POP JUMP JUMPDEST PUSH0 PUSH1 0x20 DUP3 ADD SWAP1 POP DUP2 DUP2 SUB PUSH0 DUP4 ADD MSTORE PUSH2 0x164C DUP2 PUSH2 0x1613 JUMP JUMPDEST SWAP1 POP SWAP2 SWAP1 POP JUMP JUMPDEST PUSH0 PUSH2 0x165D DUP3 PUSH2 0xE76 JUMP JUMPDEST SWAP2 POP PUSH0 DUP3 SUB PUSH2 0x166F JUMPI PUSH2 0x166E PUSH2 0x1523 JUMP JUMPDEST JUMPDEST PUSH1 0x1 DUP3 SUB SWAP1 POP SWAP2 SWAP1 POP JUMP JUMPDEST PUSH0 PUSH1 0x80 DUP3 ADD SWAP1 POP PUSH2 0x168D PUSH0 DUP4 ADD DUP8 PUSH2 0xEF6 JUMP JUMPDEST PUSH2 0x169A PUSH1 0x20 DUP4 ADD DUP7 PUSH2 0xEF6 JUMP JUMPDEST PUSH2 0x16A7 PUSH1 0x40 DUP4 ADD DUP6 PUSH2 0xEE7 JUMP JUMPDEST PUSH2 0x16B4 PUSH1 0x60 DUP4 ADD DUP5 PUSH2 0xEE7 JUMP JUMPDEST SWAP6 SWAP5 POP POP POP POP POP JUMP JUMPDEST PUSH32 0x594F5520415245204E4F5420544845204F574E45522100000000000000000000 PUSH0 DUP3 ADD MSTORE POP JUMP JUMPDEST PUSH0 PUSH2 0x16F1 PUSH1 0x16 DUP4 PUSH2 0xF0F JUMP JUMPDEST SWAP2 POP PUSH2 0x16FC DUP3 PUSH2 0x16BD JUMP JUMPDEST PUSH1 0x20 DUP3 ADD SWAP1 POP SWAP2 SWAP1 POP JUMP JUMPDEST PUSH0 PUSH1 0x20 DUP3 ADD SWAP1 POP DUP2 DUP2 SUB PUSH0 DUP4 ADD MSTORE PUSH2 0x171E DUP2 PUSH2 0x16E5 JUMP JUMPDEST SWAP1 POP SWAP2 SWAP1 POP JUMP JUMPDEST PUSH0 PUSH2 0x172F DUP3 PUSH2 0xE76 JUMP JUMPDEST SWAP2 POP PUSH32 0xFFFFFFFFFFFFFFFFFFFFFFFFFFFFFFFFFFFFFFFFFFFFFFFFFFFFFFFFFFFFFFFF DUP3 SUB PUSH2 0x1761 JUMPI PUSH2 0x1760 PUSH2 0x1523 JUMP JUMPDEST JUMPDEST PUSH1 0x1 DUP3 ADD SWAP1 POP SWAP2 SWAP1 POP JUMP JUMPDEST PUSH32 0x547765657420697320746F6F206C6F6E672062726F2100000000000000000000 PUSH0 DUP3 ADD MSTORE POP JUMP JUMPDEST PUSH0 PUSH2 0x17A0 PUSH1 0x16 DUP4 PUSH2 0xF0F JUMP JUMPDEST SWAP2 POP PUSH2 0x17AB DUP3 PUSH2 0x176C JUMP JUMPDEST PUSH1 0x20 DUP3 ADD SWAP1 POP SWAP2 SWAP1 POP JUMP JUMPDEST PUSH0 PUSH1 0x20 DUP3 ADD SWAP1 POP DUP2 DUP2 SUB PUSH0 DUP4 ADD MSTORE PUSH2 0x17CD DUP2 PUSH2 0x1794 JUMP JUMPDEST SWAP1 POP SWAP2 SWAP1 POP JUMP JUMPDEST PUSH0 DUP2 SWAP1 POP DUP2 PUSH0 MSTORE PUSH1 0x20 PUSH0 KECCAK256 SWAP1 POP SWAP2 SWAP1 POP JUMP JUMPDEST PUSH0 PUSH1 0x20 PUSH1 0x1F DUP4 ADD DIV SWAP1 POP SWAP2 SWAP1 POP JUMP JUMPDEST PUSH0 DUP3 DUP3 SHL SWAP1 POP SWAP3 SWAP2 POP POP JUMP JUMPDEST PUSH0 PUSH1 0x8 DUP4 MUL PUSH2 0x1830 PUSH32 0xFFFFFFFFFFFFFFFFFFFFFFFFFFFFFFFFFFFFFFFFFFFFFFFFFFFFFFFFFFFFFFFF DUP3 PUSH2 0x17F5 JUMP JUMPDEST PUSH2 0x183A DUP7 DUP4 PUSH2 0x17F5 JUMP JUMPDEST SWAP6 POP DUP1 NOT DUP5 AND SWAP4 POP DUP1 DUP7 AND DUP5 OR SWAP3 POP POP POP SWAP4 SWAP3 POP POP POP JUMP JUMPDEST PUSH0 DUP2 SWAP1 POP SWAP2 SWAP1 POP JUMP JUMPDEST PUSH0 PUSH2 0x1875 PUSH2 0x1870 PUSH2 0x186B DUP5 PUSH2 0xE76 JUMP JUMPDEST PUSH2 0x1852 JUMP JUMPDEST PUSH2 0xE76 JUMP JUMPDEST SWAP1 POP SWAP2 SWAP1 POP JUMP JUMPDEST PUSH0 DUP2 SWAP1 POP SWAP2 SWAP1 POP JUMP JUMPDEST PUSH2 0x188E DUP4 PUSH2 0x185B JUMP JUMPDEST PUSH2 0x18A2 PUSH2 0x189A DUP3 PUSH2 0x187C JUMP JUMPDEST DUP5 DUP5 SLOAD PUSH2 0x1801 JUMP JUMPDEST DUP3 SSTORE POP POP POP POP JUMP JUMPDEST PUSH0 SWAP1 JUMP JUMPDEST PUSH2 0x18B6 PUSH2 0x18AA JUMP JUMPDEST PUSH2 0x18C1 DUP2 DUP5 DUP5 PUSH2 0x1885 JUMP JUMPDEST POP POP POP JUMP JUMPDEST JUMPDEST DUP2 DUP2 LT ISZERO PUSH2 0x18E4 JUMPI PUSH2 0x18D9 PUSH0 DUP3 PUSH2 0x18AE JUMP JUMPDEST PUSH1 0x1 DUP2 ADD SWAP1 POP PUSH2 0x18C7 JUMP JUMPDEST POP POP JUMP JUMPDEST PUSH1 0x1F DUP3 GT ISZERO PUSH2 0x1929 JUMPI PUSH2 0x18FA DUP2 PUSH2 0x17D4 JUMP JUMPDEST PUSH2 0x1903 DUP5 PUSH2 0x17E6 JUMP JUMPDEST DUP2 ADD PUSH1 0x20 DUP6 LT ISZERO PUSH2 0x1912 JUMPI DUP2 SWAP1 POP JUMPDEST PUSH2 0x1926 PUSH2 0x191E DUP6 PUSH2 0x17E6 JUMP JUMPDEST DUP4 ADD DUP3 PUSH2 0x18C6 JUMP JUMPDEST POP POP JUMPDEST POP POP POP JUMP JUMPDEST PUSH0 DUP3 DUP3 SHR SWAP1 POP SWAP3 SWAP2 POP POP JUMP JUMPDEST PUSH0 PUSH2 0x1949 PUSH0 NOT DUP5 PUSH1 0x8 MUL PUSH2 0x192E JUMP JUMPDEST NOT DUP1 DUP4 AND SWAP2 POP POP SWAP3 SWAP2 POP POP JUMP JUMPDEST PUSH0 PUSH2 0x1961 DUP4 DUP4 PUSH2 0x193A JUMP JUMPDEST SWAP2 POP DUP3 PUSH1 0x2 MUL DUP3 OR SWAP1 POP SWAP3 SWAP2 POP POP JUMP JUMPDEST PUSH2 0x197A DUP3 PUSH2 0xF05 JUMP JUMPDEST PUSH8 0xFFFFFFFFFFFFFFFF DUP2 GT ISZERO PUSH2 0x1993 JUMPI PUSH2 0x1992 PUSH2 0x1257 JUMP JUMPDEST JUMPDEST PUSH2 0x199D DUP3 SLOAD PUSH2 0x14C6 JUMP JUMPDEST PUSH2 0x19A8 DUP3 DUP3 DUP6 PUSH2 0x18E8 JUMP JUMPDEST PUSH0 PUSH1 0x20 SWAP1 POP PUSH1 0x1F DUP4 GT PUSH1 0x1 DUP2 EQ PUSH2 0x19D9 JUMPI PUSH0 DUP5 ISZERO PUSH2 0x19C7 JUMPI DUP3 DUP8 ADD MLOAD SWAP1 POP JUMPDEST PUSH2 0x19D1 DUP6 DUP3 PUSH2 0x1956 JUMP JUMPDEST DUP7 SSTORE POP PUSH2 0x1A38 JUMP JUMPDEST PUSH1 0x1F NOT DUP5 AND PUSH2 0x19E7 DUP7 PUSH2 0x17D4 JUMP JUMPDEST PUSH0 JUMPDEST DUP3 DUP2 LT ISZERO PUSH2 0x1A0E JUMPI DUP5 DUP10 ADD MLOAD DUP3 SSTORE PUSH1 0x1 DUP3 ADD SWAP2 POP PUSH1 0x20 DUP6 ADD SWAP5 POP PUSH1 0x20 DUP2 ADD SWAP1 POP PUSH2 0x19E9 JUMP JUMPDEST DUP7 DUP4 LT ISZERO PUSH2 0x1A2B JUMPI DUP5 DUP10 ADD MLOAD PUSH2 0x1A27 PUSH1 0x1F DUP10 AND DUP3 PUSH2 0x193A JUMP JUMPDEST DUP4 SSTORE POP JUMPDEST PUSH1 0x1 PUSH1 0x2 DUP9 MUL ADD DUP9 SSTORE POP POP POP JUMPDEST POP POP POP POP POP POP JUMP JUMPDEST PUSH0 PUSH1 0x80 DUP3 ADD SWAP1 POP PUSH2 0x1A53 PUSH0 DUP4 ADD DUP8 PUSH2 0xEE7 JUMP JUMPDEST PUSH2 0x1A60 PUSH1 0x20 DUP4 ADD DUP7 PUSH2 0xEF6 JUMP JUMPDEST DUP2 DUP2 SUB PUSH1 0x40 DUP4 ADD MSTORE PUSH2 0x1A72 DUP2 DUP6 PUSH2 0xF3D JUMP JUMPDEST SWAP1 POP PUSH2 0x1A81 PUSH1 0x60 DUP4 ADD DUP5 PUSH2 0xEE7 JUMP JUMPDEST SWAP6 SWAP5 POP POP POP POP POP JUMP INVALID LOG2 PUSH5 0x6970667358 0x22 SLT KECCAK256 SWAP13 0xAA 0xE1 GASPRICE 0x2B 0xA6 PUSH30 0xBCB6440A2D0B6ECC8D5CDF57271F5A2BC7D5210A9C18908E8E64736F6C63 NUMBER STOP ADDMOD BYTE STOP CALLER "
				},
				"gasEstimates": {
					"creation": {
						"codeDepositCost": "1369600",
						"executionCost": "49953",
						"totalCost": "1419553"
					},
					"external": {
						"MAX_TWEET_LENGTH()": "2485",
						"changeTweetLength(uint16)": "26931",
						"createTweet(string)": "infinite",
						"getAllTweets(address)": "infinite",
						"getTweet(uint256)": "infinite",
						"gettotallikes(address)": "infinite",
						"likeTweet(address,uint256)": "infinite",
						"owner()": "2574",
						"tweets(address,uint256)": "infinite",
						"unlikeTweet(address,uint256)": "infinite"
					}
				},
				"methodIdentifiers": {
					"MAX_TWEET_LENGTH()": "6eb10797",
					"changeTweetLength(uint16)": "58bfa4ab",
					"createTweet(string)": "7c9cd2bc",
					"getAllTweets(address)": "12e7ee1c",
					"getTweet(uint256)": "c3ad5ecb",
					"gettotallikes(address)": "0b76c1c9",
					"likeTweet(address,uint256)": "63378216",
					"owner()": "8da5cb5b",
					"tweets(address,uint256)": "05a1b4a9",
					"unlikeTweet(address,uint256)": "3d9b569f"
				}
			},
			"storageLayout": {
				"storage": [
					{
						"astId": 4,
						"contract": "contracts/Tweet get total of like.sol:Twitter",
						"label": "MAX_TWEET_LENGTH",
						"offset": 0,
						"slot": "0",
						"type": "t_uint16"
					},
					{
						"astId": 21,
						"contract": "contracts/Tweet get total of like.sol:Twitter",
						"label": "tweets",
						"offset": 0,
						"slot": "1",
						"type": "t_mapping(t_address,t_array(t_struct(Tweet)15_storage)dyn_storage)"
					},
					{
						"astId": 23,
						"contract": "contracts/Tweet get total of like.sol:Twitter",
						"label": "owner",
						"offset": 0,
						"slot": "2",
						"type": "t_address"
					}
				],
				"types": {
					"t_address": {
						"encoding": "inplace",
						"label": "address",
						"numberOfBytes": "20"
					},
					"t_array(t_struct(Tweet)15_storage)dyn_storage": {
						"base": "t_struct(Tweet)15_storage",
						"encoding": "dynamic_array",
						"label": "struct Twitter.Tweet[]",
						"numberOfBytes": "32"
					},
					"t_mapping(t_address,t_array(t_struct(Tweet)15_storage)dyn_storage)": {
						"encoding": "mapping",
						"key": "t_address",
						"label": "mapping(address => struct Twitter.Tweet[])",
						"numberOfBytes": "32",
						"value": "t_array(t_struct(Tweet)15_storage)dyn_storage"
					},
					"t_string_storage": {
						"encoding": "bytes",
						"label": "string",
						"numberOfBytes": "32"
					},
					"t_struct(Tweet)15_storage": {
						"encoding": "inplace",
						"label": "struct Twitter.Tweet",
						"members": [
							{
								"astId": 6,
								"contract": "contracts/Tweet get total of like.sol:Twitter",
								"label": "id",
								"offset": 0,
								"slot": "0",
								"type": "t_uint256"
							},
							{
								"astId": 8,
								"contract": "contracts/Tweet get total of like.sol:Twitter",
								"label": "author",
								"offset": 0,
								"slot": "1",
								"type": "t_address"
							},
							{
								"astId": 10,
								"contract": "contracts/Tweet get total of like.sol:Twitter",
								"label": "content",
								"offset": 0,
								"slot": "2",
								"type": "t_string_storage"
							},
							{
								"astId": 12,
								"contract": "contracts/Tweet get total of like.sol:Twitter",
								"label": "timestamp",
								"offset": 0,
								"slot": "3",
								"type": "t_uint256"
							},
							{
								"astId": 14,
								"contract": "contracts/Tweet get total of like.sol:Twitter",
								"label": "likes",
								"offset": 0,
								"slot": "4",
								"type": "t_uint256"
							}
						],
						"numberOfBytes": "160"
					},
					"t_uint16": {
						"encoding": "inplace",
						"label": "uint16",
						"numberOfBytes": "2"
					},
					"t_uint256": {
						"encoding": "inplace",
						"label": "uint256",
						"numberOfBytes": "32"
					}
				}
			},
			"userdoc": {
				"kind": "user",
				"methods": {},
				"version": 1
			}
		}
	}
}