{
	"contracts/Tweet with requirements.sol": {
		"Twitter": {
			"abi": [
				{
					"inputs": [
						{
							"internalType": "string",
							"name": "_tweet",
							"type": "string"
						}
					],
					"name": "createtweet",
					"outputs": [],
					"stateMutability": "nonpayable",
					"type": "function"
				},
				{
					"inputs": [
						{
							"internalType": "address",
							"name": "_owner",
							"type": "address"
						}
					],
					"name": "getalltweet",
					"outputs": [
						{
							"components": [
								{
									"internalType": "address",
									"name": "author",
									"type": "address"
								},
								{
									"internalType": "string",
									"name": "content",
									"type": "string"
								},
								{
									"internalType": "uint256",
									"name": "timestamp",
									"type": "uint256"
								},
								{
									"internalType": "uint256",
									"name": "likes",
									"type": "uint256"
								}
							],
							"internalType": "struct Twitter.Tweet[]",
							"name": "",
							"type": "tuple[]"
						}
					],
					"stateMutability": "view",
					"type": "function"
				},
				{
					"inputs": [
						{
							"internalType": "address",
							"name": "_owner",
							"type": "address"
						},
						{
							"internalType": "uint256",
							"name": "_i",
							"type": "uint256"
						}
					],
					"name": "gettweet",
					"outputs": [
						{
							"components": [
								{
									"internalType": "address",
									"name": "author",
									"type": "address"
								},
								{
									"internalType": "string",
									"name": "content",
									"type": "string"
								},
								{
									"internalType": "uint256",
									"name": "timestamp",
									"type": "uint256"
								},
								{
									"internalType": "uint256",
									"name": "likes",
									"type": "uint256"
								}
							],
							"internalType": "struct Twitter.Tweet",
							"name": "",
							"type": "tuple"
						}
					],
					"stateMutability": "view",
					"type": "function"
				},
				{
					"inputs": [
						{
							"internalType": "uint256",
							"name": "_i",
							"type": "uint256"
						}
					],
					"name": "gettweet2",
					"outputs": [
						{
							"components": [
								{
									"internalType": "address",
									"name": "author",
									"type": "address"
								},
								{
									"internalType": "string",
									"name": "content",
									"type": "string"
								},
								{
									"internalType": "uint256",
									"name": "timestamp",
									"type": "uint256"
								},
								{
									"internalType": "uint256",
									"name": "likes",
									"type": "uint256"
								}
							],
							"internalType": "struct Twitter.Tweet",
							"name": "",
							"type": "tuple"
						}
					],
					"stateMutability": "view",
					"type": "function"
				},
				{
					"inputs": [
						{
							"internalType": "address",
							"name": "",
							"type": "address"
						},
						{
							"internalType": "uint256",
							"name": "",
							"type": "uint256"
						}
					],
					"name": "tweets",
					"outputs": [
						{
							"internalType": "address",
							"name": "author",
							"type": "address"
						},
						{
							"internalType": "string",
							"name": "content",
							"type": "string"
						},
						{
							"internalType": "uint256",
							"name": "timestamp",
							"type": "uint256"
						},
						{
							"internalType": "uint256",
							"name": "likes",
							"type": "uint256"
						}
					],
					"stateMutability": "view",
					"type": "function"
				}
			],
			"devdoc": {
				"kind": "dev",
				"methods": {},
				"version": 1
			},
			"evm": {
				"assembly": "    /* \"contracts/Tweet with requirements.sol\":261:2175  contract Twitter {... */\n  mstore(0x40, 0x80)\n  callvalue\n  dup1\n  iszero\n  tag_1\n  jumpi\n  0x00\n  dup1\n  revert\ntag_1:\n  pop\n  dataSize(sub_0)\n  dup1\n  dataOffset(sub_0)\n  0x00\n  codecopy\n  0x00\n  return\nstop\n\nsub_0: assembly {\n        /* \"contracts/Tweet with requirements.sol\":261:2175  contract Twitter {... */\n      mstore(0x40, 0x80)\n      callvalue\n      dup1\n      iszero\n      tag_1\n      jumpi\n      0x00\n      dup1\n      revert\n    tag_1:\n      pop\n      jumpi(tag_2, lt(calldatasize, 0x04))\n      shr(0xe0, calldataload(0x00))\n      dup1\n      0x05a1b4a9\n      eq\n      tag_3\n      jumpi\n      dup1\n      0x203bbbda\n      eq\n      tag_4\n      jumpi\n      dup1\n      0xa8b606d6\n      eq\n      tag_5\n      jumpi\n      dup1\n      0xb8e4f167\n      eq\n      tag_6\n      jumpi\n      dup1\n      0xd6650978\n      eq\n      tag_7\n      jumpi\n    tag_2:\n      0x00\n      dup1\n      revert\n        /* \"contracts/Tweet with requirements.sol\":618:658  mapping(address =>Tweet[]) public tweets */\n    tag_3:\n      tag_8\n      0x04\n      dup1\n      calldatasize\n      sub\n      dup2\n      add\n      swap1\n      tag_9\n      swap2\n      swap1\n      tag_10\n      jump\t// in\n    tag_9:\n      tag_11\n      jump\t// in\n    tag_8:\n      mload(0x40)\n      tag_12\n      swap5\n      swap4\n      swap3\n      swap2\n      swap1\n      tag_13\n      jump\t// in\n    tag_12:\n      mload(0x40)\n      dup1\n      swap2\n      sub\n      swap1\n      return\n        /* \"contracts/Tweet with requirements.sol\":2045:2162  function gettweet2( uint _i) public view returns  (Tweet memory) {... */\n    tag_4:\n      tag_14\n      0x04\n      dup1\n      calldatasize\n      sub\n      dup2\n      add\n      swap1\n      tag_15\n      swap2\n      swap1\n      tag_16\n      jump\t// in\n    tag_15:\n      tag_17\n      jump\t// in\n    tag_14:\n      mload(0x40)\n      tag_18\n      swap2\n      swap1\n      tag_19\n      jump\t// in\n    tag_18:\n      mload(0x40)\n      dup1\n      swap2\n      sub\n      swap1\n      return\n        /* \"contracts/Tweet with requirements.sol\":1822:1940  function getalltweet (address _owner) public view returns (Tweet[] memory){... */\n    tag_5:\n      tag_20\n      0x04\n      dup1\n      calldatasize\n      sub\n      dup2\n      add\n      swap1\n      tag_21\n      swap2\n      swap1\n      tag_22\n      jump\t// in\n    tag_21:\n      tag_23\n      jump\t// in\n    tag_20:\n      mload(0x40)\n      tag_24\n      swap2\n      swap1\n      tag_25\n      jump\t// in\n    tag_24:\n      mload(0x40)\n      dup1\n      swap2\n      sub\n      swap1\n      return\n        /* \"contracts/Tweet with requirements.sol\":671:1573  function createtweet(string memory _tweet) public {... */\n    tag_6:\n      tag_26\n      0x04\n      dup1\n      calldatasize\n      sub\n      dup2\n      add\n      swap1\n      tag_27\n      swap2\n      swap1\n      tag_28\n      jump\t// in\n    tag_27:\n      tag_29\n      jump\t// in\n    tag_26:\n      stop\n        /* \"contracts/Tweet with requirements.sol\":1687:1814  function gettweet(address _owner, uint _i) public view returns  (Tweet memory) {... */\n    tag_7:\n      tag_30\n      0x04\n      dup1\n      calldatasize\n      sub\n      dup2\n      add\n      swap1\n      tag_31\n      swap2\n      swap1\n      tag_10\n      jump\t// in\n    tag_31:\n      tag_32\n      jump\t// in\n    tag_30:\n      mload(0x40)\n      tag_33\n      swap2\n      swap1\n      tag_19\n      jump\t// in\n    tag_33:\n      mload(0x40)\n      dup1\n      swap2\n      sub\n      swap1\n      return\n        /* \"contracts/Tweet with requirements.sol\":618:658  mapping(address =>Tweet[]) public tweets */\n    tag_11:\n      mstore(0x20, 0x00)\n      dup2\n      0x00\n      mstore\n      keccak256(0x00, 0x40)\n      dup2\n      dup2\n      sload\n      dup2\n      lt\n      tag_34\n      jumpi\n      0x00\n      dup1\n      revert\n    tag_34:\n      swap1\n      0x00\n      mstore\n      keccak256(0x00, 0x20)\n      swap1\n      0x04\n      mul\n      add\n      0x00\n      swap2\n      pop\n      swap2\n      pop\n      pop\n      dup1\n      0x00\n      add\n      0x00\n      swap1\n      sload\n      swap1\n      0x0100\n      exp\n      swap1\n      div\n      0xffffffffffffffffffffffffffffffffffffffff\n      and\n      swap1\n      dup1\n      0x01\n      add\n      dup1\n      sload\n      tag_36\n      swap1\n      tag_37\n      jump\t// in\n    tag_36:\n      dup1\n      0x1f\n      add\n      0x20\n      dup1\n      swap2\n      div\n      mul\n      0x20\n      add\n      mload(0x40)\n      swap1\n      dup2\n      add\n      0x40\n      mstore\n      dup1\n      swap3\n      swap2\n      swap1\n      dup2\n      dup2\n      mstore\n      0x20\n      add\n      dup3\n      dup1\n      sload\n      tag_38\n      swap1\n      tag_37\n      jump\t// in\n    tag_38:\n      dup1\n      iszero\n      tag_39\n      jumpi\n      dup1\n      0x1f\n      lt\n      tag_40\n      jumpi\n      0x0100\n      dup1\n      dup4\n      sload\n      div\n      mul\n      dup4\n      mstore\n      swap2\n      0x20\n      add\n      swap2\n      jump(tag_39)\n    tag_40:\n      dup3\n      add\n      swap2\n      swap1\n      0x00\n      mstore\n      keccak256(0x00, 0x20)\n      swap1\n    tag_41:\n      dup2\n      sload\n      dup2\n      mstore\n      swap1\n      0x01\n      add\n      swap1\n      0x20\n      add\n      dup1\n      dup4\n      gt\n      tag_41\n      jumpi\n      dup3\n      swap1\n      sub\n      0x1f\n      and\n      dup3\n      add\n      swap2\n    tag_39:\n      pop\n      pop\n      pop\n      pop\n      pop\n      swap1\n      dup1\n      0x02\n      add\n      sload\n      swap1\n      dup1\n      0x03\n      add\n      sload\n      swap1\n      pop\n      dup5\n      jump\t// out\n        /* \"contracts/Tweet with requirements.sol\":2045:2162  function gettweet2( uint _i) public view returns  (Tweet memory) {... */\n    tag_17:\n        /* \"contracts/Tweet with requirements.sol\":2096:2108  Tweet memory */\n      tag_42\n      tag_43\n      jump\t// in\n    tag_42:\n        /* \"contracts/Tweet with requirements.sol\":2130:2136  tweets */\n      0x00\n        /* \"contracts/Tweet with requirements.sol\":2130:2148  tweets[msg.sender] */\n      dup1\n        /* \"contracts/Tweet with requirements.sol\":2137:2147  msg.sender */\n      caller\n        /* \"contracts/Tweet with requirements.sol\":2130:2148  tweets[msg.sender] */\n      0xffffffffffffffffffffffffffffffffffffffff\n      and\n      0xffffffffffffffffffffffffffffffffffffffff\n      and\n      dup2\n      mstore\n      0x20\n      add\n      swap1\n      dup2\n      mstore\n      0x20\n      add\n      0x00\n      keccak256\n        /* \"contracts/Tweet with requirements.sol\":2149:2151  _i */\n      dup3\n        /* \"contracts/Tweet with requirements.sol\":2130:2152  tweets[msg.sender][_i] */\n      dup2\n      sload\n      dup2\n      lt\n      tag_45\n      jumpi\n      tag_46\n      tag_47\n      jump\t// in\n    tag_46:\n    tag_45:\n      swap1\n      0x00\n      mstore\n      keccak256(0x00, 0x20)\n      swap1\n      0x04\n      mul\n      add\n        /* \"contracts/Tweet with requirements.sol\":2123:2152  return tweets[msg.sender][_i] */\n      mload(0x40)\n      dup1\n      0x80\n      add\n      0x40\n      mstore\n      swap1\n      dup2\n      0x00\n      dup3\n      add\n      0x00\n      swap1\n      sload\n      swap1\n      0x0100\n      exp\n      swap1\n      div\n      0xffffffffffffffffffffffffffffffffffffffff\n      and\n      0xffffffffffffffffffffffffffffffffffffffff\n      and\n      0xffffffffffffffffffffffffffffffffffffffff\n      and\n      dup2\n      mstore\n      0x20\n      add\n      0x01\n      dup3\n      add\n      dup1\n      sload\n      tag_49\n      swap1\n      tag_37\n      jump\t// in\n    tag_49:\n      dup1\n      0x1f\n      add\n      0x20\n      dup1\n      swap2\n      div\n      mul\n      0x20\n      add\n      mload(0x40)\n      swap1\n      dup2\n      add\n      0x40\n      mstore\n      dup1\n      swap3\n      swap2\n      swap1\n      dup2\n      dup2\n      mstore\n      0x20\n      add\n      dup3\n      dup1\n      sload\n      tag_50\n      swap1\n      tag_37\n      jump\t// in\n    tag_50:\n      dup1\n      iszero\n      tag_51\n      jumpi\n      dup1\n      0x1f\n      lt\n      tag_52\n      jumpi\n      0x0100\n      dup1\n      dup4\n      sload\n      div\n      mul\n      dup4\n      mstore\n      swap2\n      0x20\n      add\n      swap2\n      jump(tag_51)\n    tag_52:\n      dup3\n      add\n      swap2\n      swap1\n      0x00\n      mstore\n      keccak256(0x00, 0x20)\n      swap1\n    tag_53:\n      dup2\n      sload\n      dup2\n      mstore\n      swap1\n      0x01\n      add\n      swap1\n      0x20\n      add\n      dup1\n      dup4\n      gt\n      tag_53\n      jumpi\n      dup3\n      swap1\n      sub\n      0x1f\n      and\n      dup3\n      add\n      swap2\n    tag_51:\n      pop\n      pop\n      pop\n      pop\n      pop\n      dup2\n      mstore\n      0x20\n      add\n      0x02\n      dup3\n      add\n      sload\n      dup2\n      mstore\n      0x20\n      add\n      0x03\n      dup3\n      add\n      sload\n      dup2\n      mstore\n      pop\n      pop\n      swap1\n      pop\n        /* \"contracts/Tweet with requirements.sol\":2045:2162  function gettweet2( uint _i) public view returns  (Tweet memory) {... */\n      swap2\n      swap1\n      pop\n      jump\t// out\n        /* \"contracts/Tweet with requirements.sol\":1822:1940  function getalltweet (address _owner) public view returns (Tweet[] memory){... */\n    tag_23:\n        /* \"contracts/Tweet with requirements.sol\":1881:1895  Tweet[] memory */\n      0x60\n        /* \"contracts/Tweet with requirements.sol\":1916:1922  tweets */\n      0x00\n        /* \"contracts/Tweet with requirements.sol\":1916:1930  tweets[_owner] */\n      dup1\n        /* \"contracts/Tweet with requirements.sol\":1923:1929  _owner */\n      dup4\n        /* \"contracts/Tweet with requirements.sol\":1916:1930  tweets[_owner] */\n      0xffffffffffffffffffffffffffffffffffffffff\n      and\n      0xffffffffffffffffffffffffffffffffffffffff\n      and\n      dup2\n      mstore\n      0x20\n      add\n      swap1\n      dup2\n      mstore\n      0x20\n      add\n      0x00\n      keccak256\n        /* \"contracts/Tweet with requirements.sol\":1909:1930  return tweets[_owner] */\n      dup1\n      sload\n      dup1\n      0x20\n      mul\n      0x20\n      add\n      mload(0x40)\n      swap1\n      dup2\n      add\n      0x40\n      mstore\n      dup1\n      swap3\n      swap2\n      swap1\n      dup2\n      dup2\n      mstore\n      0x20\n      add\n      0x00\n      swap1\n    tag_55:\n      dup3\n      dup3\n      lt\n      iszero\n      tag_56\n      jumpi\n      dup4\n      dup3\n      swap1\n      0x00\n      mstore\n      keccak256(0x00, 0x20)\n      swap1\n      0x04\n      mul\n      add\n      mload(0x40)\n      dup1\n      0x80\n      add\n      0x40\n      mstore\n      swap1\n      dup2\n      0x00\n      dup3\n      add\n      0x00\n      swap1\n      sload\n      swap1\n      0x0100\n      exp\n      swap1\n      div\n      0xffffffffffffffffffffffffffffffffffffffff\n      and\n      0xffffffffffffffffffffffffffffffffffffffff\n      and\n      0xffffffffffffffffffffffffffffffffffffffff\n      and\n      dup2\n      mstore\n      0x20\n      add\n      0x01\n      dup3\n      add\n      dup1\n      sload\n      tag_58\n      swap1\n      tag_37\n      jump\t// in\n    tag_58:\n      dup1\n      0x1f\n      add\n      0x20\n      dup1\n      swap2\n      div\n      mul\n      0x20\n      add\n      mload(0x40)\n      swap1\n      dup2\n      add\n      0x40\n      mstore\n      dup1\n      swap3\n      swap2\n      swap1\n      dup2\n      dup2\n      mstore\n      0x20\n      add\n      dup3\n      dup1\n      sload\n      tag_59\n      swap1\n      tag_37\n      jump\t// in\n    tag_59:\n      dup1\n      iszero\n      tag_60\n      jumpi\n      dup1\n      0x1f\n      lt\n      tag_61\n      jumpi\n      0x0100\n      dup1\n      dup4\n      sload\n      div\n      mul\n      dup4\n      mstore\n      swap2\n      0x20\n      add\n      swap2\n      jump(tag_60)\n    tag_61:\n      dup3\n      add\n      swap2\n      swap1\n      0x00\n      mstore\n      keccak256(0x00, 0x20)\n      swap1\n    tag_62:\n      dup2\n      sload\n      dup2\n      mstore\n      swap1\n      0x01\n      add\n      swap1\n      0x20\n      add\n      dup1\n      dup4\n      gt\n      tag_62\n      jumpi\n      dup3\n      swap1\n      sub\n      0x1f\n      and\n      dup3\n      add\n      swap2\n    tag_60:\n      pop\n      pop\n      pop\n      pop\n      pop\n      dup2\n      mstore\n      0x20\n      add\n      0x02\n      dup3\n      add\n      sload\n      dup2\n      mstore\n      0x20\n      add\n      0x03\n      dup3\n      add\n      sload\n      dup2\n      mstore\n      pop\n      pop\n      dup2\n      mstore\n      0x20\n      add\n      swap1\n      0x01\n      add\n      swap1\n      jump(tag_55)\n    tag_56:\n      pop\n      pop\n      pop\n      pop\n      swap1\n      pop\n        /* \"contracts/Tweet with requirements.sol\":1822:1940  function getalltweet (address _owner) public view returns (Tweet[] memory){... */\n      swap2\n      swap1\n      pop\n      jump\t// out\n        /* \"contracts/Tweet with requirements.sol\":671:1573  function createtweet(string memory _tweet) public {... */\n    tag_29:\n        /* \"contracts/Tweet with requirements.sol\":364:367  280 */\n      0x0118\n        /* \"contracts/Tweet with requirements.sol\":1272:1311  bytes(_tweet).length <=MAX_TWEET_LENGTH */\n      0xffff\n      and\n        /* \"contracts/Tweet with requirements.sol\":1278:1284  _tweet */\n      dup2\n        /* \"contracts/Tweet with requirements.sol\":1272:1292  bytes(_tweet).length */\n      mload\n        /* \"contracts/Tweet with requirements.sol\":1272:1311  bytes(_tweet).length <=MAX_TWEET_LENGTH */\n      gt\n      iszero\n        /* \"contracts/Tweet with requirements.sol\":1264:1331  require(bytes(_tweet).length <=MAX_TWEET_LENGTH, \"Tweet too Long\" ) */\n      tag_64\n      jumpi\n      mload(0x40)\n      0x08c379a000000000000000000000000000000000000000000000000000000000\n      dup2\n      mstore\n      0x04\n      add\n      tag_65\n      swap1\n      tag_66\n      jump\t// in\n    tag_65:\n      mload(0x40)\n      dup1\n      swap2\n      sub\n      swap1\n      revert\n    tag_64:\n        /* \"contracts/Tweet with requirements.sol\":1345:1366  Tweet memory newTweet */\n      0x00\n        /* \"contracts/Tweet with requirements.sol\":1369:1517  Tweet({... */\n      mload(0x40)\n      dup1\n      0x80\n      add\n      0x40\n      mstore\n      dup1\n        /* \"contracts/Tweet with requirements.sol\":1398:1408  msg.sender */\n      caller\n        /* \"contracts/Tweet with requirements.sol\":1369:1517  Tweet({... */\n      0xffffffffffffffffffffffffffffffffffffffff\n      and\n      dup2\n      mstore\n      0x20\n      add\n        /* \"contracts/Tweet with requirements.sol\":1432:1438  _tweet */\n      dup4\n        /* \"contracts/Tweet with requirements.sol\":1369:1517  Tweet({... */\n      dup2\n      mstore\n      0x20\n      add\n        /* \"contracts/Tweet with requirements.sol\":1464:1479  block.timestamp */\n      timestamp\n        /* \"contracts/Tweet with requirements.sol\":1369:1517  Tweet({... */\n      dup2\n      mstore\n      0x20\n      add\n        /* \"contracts/Tweet with requirements.sol\":1501:1502  0 */\n      0x00\n        /* \"contracts/Tweet with requirements.sol\":1369:1517  Tweet({... */\n      dup2\n      mstore\n      pop\n        /* \"contracts/Tweet with requirements.sol\":1345:1517  Tweet memory newTweet = Tweet({... */\n      swap1\n      pop\n        /* \"contracts/Tweet with requirements.sol\":1530:1536  tweets */\n      0x00\n        /* \"contracts/Tweet with requirements.sol\":1530:1548  tweets[msg.sender] */\n      dup1\n        /* \"contracts/Tweet with requirements.sol\":1537:1547  msg.sender */\n      caller\n        /* \"contracts/Tweet with requirements.sol\":1530:1548  tweets[msg.sender] */\n      0xffffffffffffffffffffffffffffffffffffffff\n      and\n      0xffffffffffffffffffffffffffffffffffffffff\n      and\n      dup2\n      mstore\n      0x20\n      add\n      swap1\n      dup2\n      mstore\n      0x20\n      add\n      0x00\n      keccak256\n        /* \"contracts/Tweet with requirements.sol\":1554:1562  newTweet */\n      dup2\n        /* \"contracts/Tweet with requirements.sol\":1530:1563  tweets[msg.sender].push(newTweet) */\n      swap1\n      dup1\n      0x01\n      dup2\n      sload\n      add\n      dup1\n      dup3\n      sstore\n      dup1\n      swap2\n      pop\n      pop\n      0x01\n      swap1\n      sub\n      swap1\n      0x00\n      mstore\n      keccak256(0x00, 0x20)\n      swap1\n      0x04\n      mul\n      add\n      0x00\n      swap1\n      swap2\n      swap1\n      swap2\n      swap1\n      swap2\n      pop\n      0x00\n      dup3\n      add\n      mload\n      dup2\n      0x00\n      add\n      exp(0x0100, 0x00)\n      dup2\n      sload\n      dup2\n      0xffffffffffffffffffffffffffffffffffffffff\n      mul\n      not\n      and\n      swap1\n      dup4\n      0xffffffffffffffffffffffffffffffffffffffff\n      and\n      mul\n      or\n      swap1\n      sstore\n      pop\n      0x20\n      dup3\n      add\n      mload\n      dup2\n      0x01\n      add\n      swap1\n      dup2\n      tag_68\n      swap2\n      swap1\n      tag_69\n      jump\t// in\n    tag_68:\n      pop\n      0x40\n      dup3\n      add\n      mload\n      dup2\n      0x02\n      add\n      sstore\n      0x60\n      dup3\n      add\n      mload\n      dup2\n      0x03\n      add\n      sstore\n      pop\n      pop\n        /* \"contracts/Tweet with requirements.sol\":721:1573  {... */\n      pop\n        /* \"contracts/Tweet with requirements.sol\":671:1573  function createtweet(string memory _tweet) public {... */\n      pop\n      jump\t// out\n        /* \"contracts/Tweet with requirements.sol\":1687:1814  function gettweet(address _owner, uint _i) public view returns  (Tweet memory) {... */\n    tag_32:\n        /* \"contracts/Tweet with requirements.sol\":1752:1764  Tweet memory */\n      tag_70\n      tag_43\n      jump\t// in\n    tag_70:\n        /* \"contracts/Tweet with requirements.sol\":1786:1792  tweets */\n      0x00\n        /* \"contracts/Tweet with requirements.sol\":1786:1800  tweets[_owner] */\n      dup1\n        /* \"contracts/Tweet with requirements.sol\":1793:1799  _owner */\n      dup5\n        /* \"contracts/Tweet with requirements.sol\":1786:1800  tweets[_owner] */\n      0xffffffffffffffffffffffffffffffffffffffff\n      and\n      0xffffffffffffffffffffffffffffffffffffffff\n      and\n      dup2\n      mstore\n      0x20\n      add\n      swap1\n      dup2\n      mstore\n      0x20\n      add\n      0x00\n      keccak256\n        /* \"contracts/Tweet with requirements.sol\":1801:1803  _i */\n      dup3\n        /* \"contracts/Tweet with requirements.sol\":1786:1804  tweets[_owner][_i] */\n      dup2\n      sload\n      dup2\n      lt\n      tag_72\n      jumpi\n      tag_73\n      tag_47\n      jump\t// in\n    tag_73:\n    tag_72:\n      swap1\n      0x00\n      mstore\n      keccak256(0x00, 0x20)\n      swap1\n      0x04\n      mul\n      add\n        /* \"contracts/Tweet with requirements.sol\":1779:1804  return tweets[_owner][_i] */\n      mload(0x40)\n      dup1\n      0x80\n      add\n      0x40\n      mstore\n      swap1\n      dup2\n      0x00\n      dup3\n      add\n      0x00\n      swap1\n      sload\n      swap1\n      0x0100\n      exp\n      swap1\n      div\n      0xffffffffffffffffffffffffffffffffffffffff\n      and\n      0xffffffffffffffffffffffffffffffffffffffff\n      and\n      0xffffffffffffffffffffffffffffffffffffffff\n      and\n      dup2\n      mstore\n      0x20\n      add\n      0x01\n      dup3\n      add\n      dup1\n      sload\n      tag_75\n      swap1\n      tag_37\n      jump\t// in\n    tag_75:\n      dup1\n      0x1f\n      add\n      0x20\n      dup1\n      swap2\n      div\n      mul\n      0x20\n      add\n      mload(0x40)\n      swap1\n      dup2\n      add\n      0x40\n      mstore\n      dup1\n      swap3\n      swap2\n      swap1\n      dup2\n      dup2\n      mstore\n      0x20\n      add\n      dup3\n      dup1\n      sload\n      tag_76\n      swap1\n      tag_37\n      jump\t// in\n    tag_76:\n      dup1\n      iszero\n      tag_77\n      jumpi\n      dup1\n      0x1f\n      lt\n      tag_78\n      jumpi\n      0x0100\n      dup1\n      dup4\n      sload\n      div\n      mul\n      dup4\n      mstore\n      swap2\n      0x20\n      add\n      swap2\n      jump(tag_77)\n    tag_78:\n      dup3\n      add\n      swap2\n      swap1\n      0x00\n      mstore\n      keccak256(0x00, 0x20)\n      swap1\n    tag_79:\n      dup2\n      sload\n      dup2\n      mstore\n      swap1\n      0x01\n      add\n      swap1\n      0x20\n      add\n      dup1\n      dup4\n      gt\n      tag_79\n      jumpi\n      dup3\n      swap1\n      sub\n      0x1f\n      and\n      dup3\n      add\n      swap2\n    tag_77:\n      pop\n      pop\n      pop\n      pop\n      pop\n      dup2\n      mstore\n      0x20\n      add\n      0x02\n      dup3\n      add\n      sload\n      dup2\n      mstore\n      0x20\n      add\n      0x03\n      dup3\n      add\n      sload\n      dup2\n      mstore\n      pop\n      pop\n      swap1\n      pop\n        /* \"contracts/Tweet with requirements.sol\":1687:1814  function gettweet(address _owner, uint _i) public view returns  (Tweet memory) {... */\n      swap3\n      swap2\n      pop\n      pop\n      jump\t// out\n    tag_43:\n      mload(0x40)\n      dup1\n      0x80\n      add\n      0x40\n      mstore\n      dup1\n      and(0xffffffffffffffffffffffffffffffffffffffff, 0x00)\n      dup2\n      mstore\n      0x20\n      add\n      0x60\n      dup2\n      mstore\n      0x20\n      add\n      0x00\n      dup2\n      mstore\n      0x20\n      add\n      0x00\n      dup2\n      mstore\n      pop\n      swap1\n      jump\t// out\n        /* \"#utility.yul\":7:82   */\n    tag_80:\n        /* \"#utility.yul\":40:46   */\n      0x00\n        /* \"#utility.yul\":73:75   */\n      0x40\n        /* \"#utility.yul\":67:76   */\n      mload\n        /* \"#utility.yul\":57:76   */\n      swap1\n      pop\n        /* \"#utility.yul\":7:82   */\n      swap1\n      jump\t// out\n        /* \"#utility.yul\":88:205   */\n    tag_81:\n        /* \"#utility.yul\":197:198   */\n      0x00\n        /* \"#utility.yul\":194:195   */\n      dup1\n        /* \"#utility.yul\":187:199   */\n      revert\n        /* \"#utility.yul\":211:328   */\n    tag_82:\n        /* \"#utility.yul\":320:321   */\n      0x00\n        /* \"#utility.yul\":317:318   */\n      dup1\n        /* \"#utility.yul\":310:322   */\n      revert\n        /* \"#utility.yul\":334:460   */\n    tag_83:\n        /* \"#utility.yul\":371:378   */\n      0x00\n        /* \"#utility.yul\":411:453   */\n      0xffffffffffffffffffffffffffffffffffffffff\n        /* \"#utility.yul\":404:409   */\n      dup3\n        /* \"#utility.yul\":400:454   */\n      and\n        /* \"#utility.yul\":389:454   */\n      swap1\n      pop\n        /* \"#utility.yul\":334:460   */\n      swap2\n      swap1\n      pop\n      jump\t// out\n        /* \"#utility.yul\":466:562   */\n    tag_84:\n        /* \"#utility.yul\":503:510   */\n      0x00\n        /* \"#utility.yul\":532:556   */\n      tag_142\n        /* \"#utility.yul\":550:555   */\n      dup3\n        /* \"#utility.yul\":532:556   */\n      tag_83\n      jump\t// in\n    tag_142:\n        /* \"#utility.yul\":521:556   */\n      swap1\n      pop\n        /* \"#utility.yul\":466:562   */\n      swap2\n      swap1\n      pop\n      jump\t// out\n        /* \"#utility.yul\":568:690   */\n    tag_85:\n        /* \"#utility.yul\":641:665   */\n      tag_144\n        /* \"#utility.yul\":659:664   */\n      dup2\n        /* \"#utility.yul\":641:665   */\n      tag_84\n      jump\t// in\n    tag_144:\n        /* \"#utility.yul\":634:639   */\n      dup2\n        /* \"#utility.yul\":631:666   */\n      eq\n        /* \"#utility.yul\":621:684   */\n      tag_145\n      jumpi\n        /* \"#utility.yul\":680:681   */\n      0x00\n        /* \"#utility.yul\":677:678   */\n      dup1\n        /* \"#utility.yul\":670:682   */\n      revert\n        /* \"#utility.yul\":621:684   */\n    tag_145:\n        /* \"#utility.yul\":568:690   */\n      pop\n      jump\t// out\n        /* \"#utility.yul\":696:835   */\n    tag_86:\n        /* \"#utility.yul\":742:747   */\n      0x00\n        /* \"#utility.yul\":780:786   */\n      dup2\n        /* \"#utility.yul\":767:787   */\n      calldataload\n        /* \"#utility.yul\":758:787   */\n      swap1\n      pop\n        /* \"#utility.yul\":796:829   */\n      tag_147\n        /* \"#utility.yul\":823:828   */\n      dup2\n        /* \"#utility.yul\":796:829   */\n      tag_85\n      jump\t// in\n    tag_147:\n        /* \"#utility.yul\":696:835   */\n      swap3\n      swap2\n      pop\n      pop\n      jump\t// out\n        /* \"#utility.yul\":841:918   */\n    tag_87:\n        /* \"#utility.yul\":878:885   */\n      0x00\n        /* \"#utility.yul\":907:912   */\n      dup2\n        /* \"#utility.yul\":896:912   */\n      swap1\n      pop\n        /* \"#utility.yul\":841:918   */\n      swap2\n      swap1\n      pop\n      jump\t// out\n        /* \"#utility.yul\":924:1046   */\n    tag_88:\n        /* \"#utility.yul\":997:1021   */\n      tag_150\n        /* \"#utility.yul\":1015:1020   */\n      dup2\n        /* \"#utility.yul\":997:1021   */\n      tag_87\n      jump\t// in\n    tag_150:\n        /* \"#utility.yul\":990:995   */\n      dup2\n        /* \"#utility.yul\":987:1022   */\n      eq\n        /* \"#utility.yul\":977:1040   */\n      tag_151\n      jumpi\n        /* \"#utility.yul\":1036:1037   */\n      0x00\n        /* \"#utility.yul\":1033:1034   */\n      dup1\n        /* \"#utility.yul\":1026:1038   */\n      revert\n        /* \"#utility.yul\":977:1040   */\n    tag_151:\n        /* \"#utility.yul\":924:1046   */\n      pop\n      jump\t// out\n        /* \"#utility.yul\":1052:1191   */\n    tag_89:\n        /* \"#utility.yul\":1098:1103   */\n      0x00\n        /* \"#utility.yul\":1136:1142   */\n      dup2\n        /* \"#utility.yul\":1123:1143   */\n      calldataload\n        /* \"#utility.yul\":1114:1143   */\n      swap1\n      pop\n        /* \"#utility.yul\":1152:1185   */\n      tag_153\n        /* \"#utility.yul\":1179:1184   */\n      dup2\n        /* \"#utility.yul\":1152:1185   */\n      tag_88\n      jump\t// in\n    tag_153:\n        /* \"#utility.yul\":1052:1191   */\n      swap3\n      swap2\n      pop\n      pop\n      jump\t// out\n        /* \"#utility.yul\":1197:1671   */\n    tag_10:\n        /* \"#utility.yul\":1265:1271   */\n      0x00\n        /* \"#utility.yul\":1273:1279   */\n      dup1\n        /* \"#utility.yul\":1322:1324   */\n      0x40\n        /* \"#utility.yul\":1310:1319   */\n      dup4\n        /* \"#utility.yul\":1301:1308   */\n      dup6\n        /* \"#utility.yul\":1297:1320   */\n      sub\n        /* \"#utility.yul\":1293:1325   */\n      slt\n        /* \"#utility.yul\":1290:1409   */\n      iszero\n      tag_155\n      jumpi\n        /* \"#utility.yul\":1328:1407   */\n      tag_156\n      tag_81\n      jump\t// in\n    tag_156:\n        /* \"#utility.yul\":1290:1409   */\n    tag_155:\n        /* \"#utility.yul\":1448:1449   */\n      0x00\n        /* \"#utility.yul\":1473:1526   */\n      tag_157\n        /* \"#utility.yul\":1518:1525   */\n      dup6\n        /* \"#utility.yul\":1509:1515   */\n      dup3\n        /* \"#utility.yul\":1498:1507   */\n      dup7\n        /* \"#utility.yul\":1494:1516   */\n      add\n        /* \"#utility.yul\":1473:1526   */\n      tag_86\n      jump\t// in\n    tag_157:\n        /* \"#utility.yul\":1463:1526   */\n      swap3\n      pop\n        /* \"#utility.yul\":1419:1536   */\n      pop\n        /* \"#utility.yul\":1575:1577   */\n      0x20\n        /* \"#utility.yul\":1601:1654   */\n      tag_158\n        /* \"#utility.yul\":1646:1653   */\n      dup6\n        /* \"#utility.yul\":1637:1643   */\n      dup3\n        /* \"#utility.yul\":1626:1635   */\n      dup7\n        /* \"#utility.yul\":1622:1644   */\n      add\n        /* \"#utility.yul\":1601:1654   */\n      tag_89\n      jump\t// in\n    tag_158:\n        /* \"#utility.yul\":1591:1654   */\n      swap2\n      pop\n        /* \"#utility.yul\":1546:1664   */\n      pop\n        /* \"#utility.yul\":1197:1671   */\n      swap3\n      pop\n      swap3\n      swap1\n      pop\n      jump\t// out\n        /* \"#utility.yul\":1677:1795   */\n    tag_90:\n        /* \"#utility.yul\":1764:1788   */\n      tag_160\n        /* \"#utility.yul\":1782:1787   */\n      dup2\n        /* \"#utility.yul\":1764:1788   */\n      tag_84\n      jump\t// in\n    tag_160:\n        /* \"#utility.yul\":1759:1762   */\n      dup3\n        /* \"#utility.yul\":1752:1789   */\n      mstore\n        /* \"#utility.yul\":1677:1795   */\n      pop\n      pop\n      jump\t// out\n        /* \"#utility.yul\":1801:1900   */\n    tag_91:\n        /* \"#utility.yul\":1853:1859   */\n      0x00\n        /* \"#utility.yul\":1887:1892   */\n      dup2\n        /* \"#utility.yul\":1881:1893   */\n      mload\n        /* \"#utility.yul\":1871:1893   */\n      swap1\n      pop\n        /* \"#utility.yul\":1801:1900   */\n      swap2\n      swap1\n      pop\n      jump\t// out\n        /* \"#utility.yul\":1906:2075   */\n    tag_92:\n        /* \"#utility.yul\":1990:2001   */\n      0x00\n        /* \"#utility.yul\":2024:2030   */\n      dup3\n        /* \"#utility.yul\":2019:2022   */\n      dup3\n        /* \"#utility.yul\":2012:2031   */\n      mstore\n        /* \"#utility.yul\":2064:2068   */\n      0x20\n        /* \"#utility.yul\":2059:2062   */\n      dup3\n        /* \"#utility.yul\":2055:2069   */\n      add\n        /* \"#utility.yul\":2040:2069   */\n      swap1\n      pop\n        /* \"#utility.yul\":1906:2075   */\n      swap3\n      swap2\n      pop\n      pop\n      jump\t// out\n        /* \"#utility.yul\":2081:2220   */\n    tag_93:\n        /* \"#utility.yul\":2170:2176   */\n      dup3\n        /* \"#utility.yul\":2165:2168   */\n      dup2\n        /* \"#utility.yul\":2160:2163   */\n      dup4\n        /* \"#utility.yul\":2154:2177   */\n      mcopy\n        /* \"#utility.yul\":2211:2212   */\n      0x00\n        /* \"#utility.yul\":2202:2208   */\n      dup4\n        /* \"#utility.yul\":2197:2200   */\n      dup4\n        /* \"#utility.yul\":2193:2209   */\n      add\n        /* \"#utility.yul\":2186:2213   */\n      mstore\n        /* \"#utility.yul\":2081:2220   */\n      pop\n      pop\n      pop\n      jump\t// out\n        /* \"#utility.yul\":2226:2328   */\n    tag_94:\n        /* \"#utility.yul\":2267:2273   */\n      0x00\n        /* \"#utility.yul\":2318:2320   */\n      0x1f\n        /* \"#utility.yul\":2314:2321   */\n      not\n        /* \"#utility.yul\":2309:2311   */\n      0x1f\n        /* \"#utility.yul\":2302:2307   */\n      dup4\n        /* \"#utility.yul\":2298:2312   */\n      add\n        /* \"#utility.yul\":2294:2322   */\n      and\n        /* \"#utility.yul\":2284:2322   */\n      swap1\n      pop\n        /* \"#utility.yul\":2226:2328   */\n      swap2\n      swap1\n      pop\n      jump\t// out\n        /* \"#utility.yul\":2334:2711   */\n    tag_95:\n        /* \"#utility.yul\":2422:2425   */\n      0x00\n        /* \"#utility.yul\":2450:2489   */\n      tag_166\n        /* \"#utility.yul\":2483:2488   */\n      dup3\n        /* \"#utility.yul\":2450:2489   */\n      tag_91\n      jump\t// in\n    tag_166:\n        /* \"#utility.yul\":2505:2576   */\n      tag_167\n        /* \"#utility.yul\":2569:2575   */\n      dup2\n        /* \"#utility.yul\":2564:2567   */\n      dup6\n        /* \"#utility.yul\":2505:2576   */\n      tag_92\n      jump\t// in\n    tag_167:\n        /* \"#utility.yul\":2498:2576   */\n      swap4\n      pop\n        /* \"#utility.yul\":2585:2650   */\n      tag_168\n        /* \"#utility.yul\":2643:2649   */\n      dup2\n        /* \"#utility.yul\":2638:2641   */\n      dup6\n        /* \"#utility.yul\":2631:2635   */\n      0x20\n        /* \"#utility.yul\":2624:2629   */\n      dup7\n        /* \"#utility.yul\":2620:2636   */\n      add\n        /* \"#utility.yul\":2585:2650   */\n      tag_93\n      jump\t// in\n    tag_168:\n        /* \"#utility.yul\":2675:2704   */\n      tag_169\n        /* \"#utility.yul\":2697:2703   */\n      dup2\n        /* \"#utility.yul\":2675:2704   */\n      tag_94\n      jump\t// in\n    tag_169:\n        /* \"#utility.yul\":2670:2673   */\n      dup5\n        /* \"#utility.yul\":2666:2705   */\n      add\n        /* \"#utility.yul\":2659:2705   */\n      swap2\n      pop\n        /* \"#utility.yul\":2426:2711   */\n      pop\n        /* \"#utility.yul\":2334:2711   */\n      swap3\n      swap2\n      pop\n      pop\n      jump\t// out\n        /* \"#utility.yul\":2717:2835   */\n    tag_96:\n        /* \"#utility.yul\":2804:2828   */\n      tag_171\n        /* \"#utility.yul\":2822:2827   */\n      dup2\n        /* \"#utility.yul\":2804:2828   */\n      tag_87\n      jump\t// in\n    tag_171:\n        /* \"#utility.yul\":2799:2802   */\n      dup3\n        /* \"#utility.yul\":2792:2829   */\n      mstore\n        /* \"#utility.yul\":2717:2835   */\n      pop\n      pop\n      jump\t// out\n        /* \"#utility.yul\":2841:3485   */\n    tag_13:\n        /* \"#utility.yul\":3038:3042   */\n      0x00\n        /* \"#utility.yul\":3076:3079   */\n      0x80\n        /* \"#utility.yul\":3065:3074   */\n      dup3\n        /* \"#utility.yul\":3061:3080   */\n      add\n        /* \"#utility.yul\":3053:3080   */\n      swap1\n      pop\n        /* \"#utility.yul\":3090:3161   */\n      tag_173\n        /* \"#utility.yul\":3158:3159   */\n      0x00\n        /* \"#utility.yul\":3147:3156   */\n      dup4\n        /* \"#utility.yul\":3143:3160   */\n      add\n        /* \"#utility.yul\":3134:3140   */\n      dup8\n        /* \"#utility.yul\":3090:3161   */\n      tag_90\n      jump\t// in\n    tag_173:\n        /* \"#utility.yul\":3208:3217   */\n      dup2\n        /* \"#utility.yul\":3202:3206   */\n      dup2\n        /* \"#utility.yul\":3198:3218   */\n      sub\n        /* \"#utility.yul\":3193:3195   */\n      0x20\n        /* \"#utility.yul\":3182:3191   */\n      dup4\n        /* \"#utility.yul\":3178:3196   */\n      add\n        /* \"#utility.yul\":3171:3219   */\n      mstore\n        /* \"#utility.yul\":3236:3314   */\n      tag_174\n        /* \"#utility.yul\":3309:3313   */\n      dup2\n        /* \"#utility.yul\":3300:3306   */\n      dup7\n        /* \"#utility.yul\":3236:3314   */\n      tag_95\n      jump\t// in\n    tag_174:\n        /* \"#utility.yul\":3228:3314   */\n      swap1\n      pop\n        /* \"#utility.yul\":3324:3396   */\n      tag_175\n        /* \"#utility.yul\":3392:3394   */\n      0x40\n        /* \"#utility.yul\":3381:3390   */\n      dup4\n        /* \"#utility.yul\":3377:3395   */\n      add\n        /* \"#utility.yul\":3368:3374   */\n      dup6\n        /* \"#utility.yul\":3324:3396   */\n      tag_96\n      jump\t// in\n    tag_175:\n        /* \"#utility.yul\":3406:3478   */\n      tag_176\n        /* \"#utility.yul\":3474:3476   */\n      0x60\n        /* \"#utility.yul\":3463:3472   */\n      dup4\n        /* \"#utility.yul\":3459:3477   */\n      add\n        /* \"#utility.yul\":3450:3456   */\n      dup5\n        /* \"#utility.yul\":3406:3478   */\n      tag_96\n      jump\t// in\n    tag_176:\n        /* \"#utility.yul\":2841:3485   */\n      swap6\n      swap5\n      pop\n      pop\n      pop\n      pop\n      pop\n      jump\t// out\n        /* \"#utility.yul\":3491:3820   */\n    tag_16:\n        /* \"#utility.yul\":3550:3556   */\n      0x00\n        /* \"#utility.yul\":3599:3601   */\n      0x20\n        /* \"#utility.yul\":3587:3596   */\n      dup3\n        /* \"#utility.yul\":3578:3585   */\n      dup5\n        /* \"#utility.yul\":3574:3597   */\n      sub\n        /* \"#utility.yul\":3570:3602   */\n      slt\n        /* \"#utility.yul\":3567:3686   */\n      iszero\n      tag_178\n      jumpi\n        /* \"#utility.yul\":3605:3684   */\n      tag_179\n      tag_81\n      jump\t// in\n    tag_179:\n        /* \"#utility.yul\":3567:3686   */\n    tag_178:\n        /* \"#utility.yul\":3725:3726   */\n      0x00\n        /* \"#utility.yul\":3750:3803   */\n      tag_180\n        /* \"#utility.yul\":3795:3802   */\n      dup5\n        /* \"#utility.yul\":3786:3792   */\n      dup3\n        /* \"#utility.yul\":3775:3784   */\n      dup6\n        /* \"#utility.yul\":3771:3793   */\n      add\n        /* \"#utility.yul\":3750:3803   */\n      tag_89\n      jump\t// in\n    tag_180:\n        /* \"#utility.yul\":3740:3803   */\n      swap2\n      pop\n        /* \"#utility.yul\":3696:3813   */\n      pop\n        /* \"#utility.yul\":3491:3820   */\n      swap3\n      swap2\n      pop\n      pop\n      jump\t// out\n        /* \"#utility.yul\":3826:3934   */\n    tag_97:\n        /* \"#utility.yul\":3903:3927   */\n      tag_182\n        /* \"#utility.yul\":3921:3926   */\n      dup2\n        /* \"#utility.yul\":3903:3927   */\n      tag_84\n      jump\t// in\n    tag_182:\n        /* \"#utility.yul\":3898:3901   */\n      dup3\n        /* \"#utility.yul\":3891:3928   */\n      mstore\n        /* \"#utility.yul\":3826:3934   */\n      pop\n      pop\n      jump\t// out\n        /* \"#utility.yul\":3940:4099   */\n    tag_98:\n        /* \"#utility.yul\":4014:4025   */\n      0x00\n        /* \"#utility.yul\":4048:4054   */\n      dup3\n        /* \"#utility.yul\":4043:4046   */\n      dup3\n        /* \"#utility.yul\":4036:4055   */\n      mstore\n        /* \"#utility.yul\":4088:4092   */\n      0x20\n        /* \"#utility.yul\":4083:4086   */\n      dup3\n        /* \"#utility.yul\":4079:4093   */\n      add\n        /* \"#utility.yul\":4064:4093   */\n      swap1\n      pop\n        /* \"#utility.yul\":3940:4099   */\n      swap3\n      swap2\n      pop\n      pop\n      jump\t// out\n        /* \"#utility.yul\":4105:4462   */\n    tag_99:\n        /* \"#utility.yul\":4183:4186   */\n      0x00\n        /* \"#utility.yul\":4211:4250   */\n      tag_185\n        /* \"#utility.yul\":4244:4249   */\n      dup3\n        /* \"#utility.yul\":4211:4250   */\n      tag_91\n      jump\t// in\n    tag_185:\n        /* \"#utility.yul\":4266:4327   */\n      tag_186\n        /* \"#utility.yul\":4320:4326   */\n      dup2\n        /* \"#utility.yul\":4315:4318   */\n      dup6\n        /* \"#utility.yul\":4266:4327   */\n      tag_98\n      jump\t// in\n    tag_186:\n        /* \"#utility.yul\":4259:4327   */\n      swap4\n      pop\n        /* \"#utility.yul\":4336:4401   */\n      tag_187\n        /* \"#utility.yul\":4394:4400   */\n      dup2\n        /* \"#utility.yul\":4389:4392   */\n      dup6\n        /* \"#utility.yul\":4382:4386   */\n      0x20\n        /* \"#utility.yul\":4375:4380   */\n      dup7\n        /* \"#utility.yul\":4371:4387   */\n      add\n        /* \"#utility.yul\":4336:4401   */\n      tag_93\n      jump\t// in\n    tag_187:\n        /* \"#utility.yul\":4426:4455   */\n      tag_188\n        /* \"#utility.yul\":4448:4454   */\n      dup2\n        /* \"#utility.yul\":4426:4455   */\n      tag_94\n      jump\t// in\n    tag_188:\n        /* \"#utility.yul\":4421:4424   */\n      dup5\n        /* \"#utility.yul\":4417:4456   */\n      add\n        /* \"#utility.yul\":4410:4456   */\n      swap2\n      pop\n        /* \"#utility.yul\":4187:4462   */\n      pop\n        /* \"#utility.yul\":4105:4462   */\n      swap3\n      swap2\n      pop\n      pop\n      jump\t// out\n        /* \"#utility.yul\":4468:4576   */\n    tag_100:\n        /* \"#utility.yul\":4545:4569   */\n      tag_190\n        /* \"#utility.yul\":4563:4568   */\n      dup2\n        /* \"#utility.yul\":4545:4569   */\n      tag_87\n      jump\t// in\n    tag_190:\n        /* \"#utility.yul\":4540:4543   */\n      dup3\n        /* \"#utility.yul\":4533:4570   */\n      mstore\n        /* \"#utility.yul\":4468:4576   */\n      pop\n      pop\n      jump\t// out\n        /* \"#utility.yul\":4634:5591   */\n    tag_101:\n        /* \"#utility.yul\":4745:4748   */\n      0x00\n        /* \"#utility.yul\":4781:4785   */\n      0x80\n        /* \"#utility.yul\":4776:4779   */\n      dup4\n        /* \"#utility.yul\":4772:4786   */\n      add\n        /* \"#utility.yul\":4870:4874   */\n      0x00\n        /* \"#utility.yul\":4863:4868   */\n      dup4\n        /* \"#utility.yul\":4859:4875   */\n      add\n        /* \"#utility.yul\":4853:4876   */\n      mload\n        /* \"#utility.yul\":4889:4952   */\n      tag_192\n        /* \"#utility.yul\":4946:4950   */\n      0x00\n        /* \"#utility.yul\":4941:4944   */\n      dup7\n        /* \"#utility.yul\":4937:4951   */\n      add\n        /* \"#utility.yul\":4923:4935   */\n      dup3\n        /* \"#utility.yul\":4889:4952   */\n      tag_97\n      jump\t// in\n    tag_192:\n        /* \"#utility.yul\":4796:4962   */\n      pop\n        /* \"#utility.yul\":5047:5051   */\n      0x20\n        /* \"#utility.yul\":5040:5045   */\n      dup4\n        /* \"#utility.yul\":5036:5052   */\n      add\n        /* \"#utility.yul\":5030:5053   */\n      mload\n        /* \"#utility.yul\":5100:5103   */\n      dup5\n        /* \"#utility.yul\":5094:5098   */\n      dup3\n        /* \"#utility.yul\":5090:5104   */\n      sub\n        /* \"#utility.yul\":5083:5087   */\n      0x20\n        /* \"#utility.yul\":5078:5081   */\n      dup7\n        /* \"#utility.yul\":5074:5088   */\n      add\n        /* \"#utility.yul\":5067:5105   */\n      mstore\n        /* \"#utility.yul\":5126:5199   */\n      tag_193\n        /* \"#utility.yul\":5194:5198   */\n      dup3\n        /* \"#utility.yul\":5180:5192   */\n      dup3\n        /* \"#utility.yul\":5126:5199   */\n      tag_99\n      jump\t// in\n    tag_193:\n        /* \"#utility.yul\":5118:5199   */\n      swap2\n      pop\n        /* \"#utility.yul\":4972:5210   */\n      pop\n        /* \"#utility.yul\":5297:5301   */\n      0x40\n        /* \"#utility.yul\":5290:5295   */\n      dup4\n        /* \"#utility.yul\":5286:5302   */\n      add\n        /* \"#utility.yul\":5280:5303   */\n      mload\n        /* \"#utility.yul\":5316:5379   */\n      tag_194\n        /* \"#utility.yul\":5373:5377   */\n      0x40\n        /* \"#utility.yul\":5368:5371   */\n      dup7\n        /* \"#utility.yul\":5364:5378   */\n      add\n        /* \"#utility.yul\":5350:5362   */\n      dup3\n        /* \"#utility.yul\":5316:5379   */\n      tag_100\n      jump\t// in\n    tag_194:\n        /* \"#utility.yul\":5220:5389   */\n      pop\n        /* \"#utility.yul\":5472:5476   */\n      0x60\n        /* \"#utility.yul\":5465:5470   */\n      dup4\n        /* \"#utility.yul\":5461:5477   */\n      add\n        /* \"#utility.yul\":5455:5478   */\n      mload\n        /* \"#utility.yul\":5491:5554   */\n      tag_195\n        /* \"#utility.yul\":5548:5552   */\n      0x60\n        /* \"#utility.yul\":5543:5546   */\n      dup7\n        /* \"#utility.yul\":5539:5553   */\n      add\n        /* \"#utility.yul\":5525:5537   */\n      dup3\n        /* \"#utility.yul\":5491:5554   */\n      tag_100\n      jump\t// in\n    tag_195:\n        /* \"#utility.yul\":5399:5564   */\n      pop\n        /* \"#utility.yul\":5581:5585   */\n      dup1\n        /* \"#utility.yul\":5574:5585   */\n      swap2\n      pop\n        /* \"#utility.yul\":4750:5591   */\n      pop\n        /* \"#utility.yul\":4634:5591   */\n      swap3\n      swap2\n      pop\n      pop\n      jump\t// out\n        /* \"#utility.yul\":5597:5954   */\n    tag_19:\n        /* \"#utility.yul\":5732:5736   */\n      0x00\n        /* \"#utility.yul\":5770:5772   */\n      0x20\n        /* \"#utility.yul\":5759:5768   */\n      dup3\n        /* \"#utility.yul\":5755:5773   */\n      add\n        /* \"#utility.yul\":5747:5773   */\n      swap1\n      pop\n        /* \"#utility.yul\":5819:5828   */\n      dup2\n        /* \"#utility.yul\":5813:5817   */\n      dup2\n        /* \"#utility.yul\":5809:5829   */\n      sub\n        /* \"#utility.yul\":5805:5806   */\n      0x00\n        /* \"#utility.yul\":5794:5803   */\n      dup4\n        /* \"#utility.yul\":5790:5807   */\n      add\n        /* \"#utility.yul\":5783:5830   */\n      mstore\n        /* \"#utility.yul\":5847:5947   */\n      tag_197\n        /* \"#utility.yul\":5942:5946   */\n      dup2\n        /* \"#utility.yul\":5933:5939   */\n      dup5\n        /* \"#utility.yul\":5847:5947   */\n      tag_101\n      jump\t// in\n    tag_197:\n        /* \"#utility.yul\":5839:5947   */\n      swap1\n      pop\n        /* \"#utility.yul\":5597:5954   */\n      swap3\n      swap2\n      pop\n      pop\n      jump\t// out\n        /* \"#utility.yul\":5960:6289   */\n    tag_22:\n        /* \"#utility.yul\":6019:6025   */\n      0x00\n        /* \"#utility.yul\":6068:6070   */\n      0x20\n        /* \"#utility.yul\":6056:6065   */\n      dup3\n        /* \"#utility.yul\":6047:6054   */\n      dup5\n        /* \"#utility.yul\":6043:6066   */\n      sub\n        /* \"#utility.yul\":6039:6071   */\n      slt\n        /* \"#utility.yul\":6036:6155   */\n      iszero\n      tag_199\n      jumpi\n        /* \"#utility.yul\":6074:6153   */\n      tag_200\n      tag_81\n      jump\t// in\n    tag_200:\n        /* \"#utility.yul\":6036:6155   */\n    tag_199:\n        /* \"#utility.yul\":6194:6195   */\n      0x00\n        /* \"#utility.yul\":6219:6272   */\n      tag_201\n        /* \"#utility.yul\":6264:6271   */\n      dup5\n        /* \"#utility.yul\":6255:6261   */\n      dup3\n        /* \"#utility.yul\":6244:6253   */\n      dup6\n        /* \"#utility.yul\":6240:6262   */\n      add\n        /* \"#utility.yul\":6219:6272   */\n      tag_86\n      jump\t// in\n    tag_201:\n        /* \"#utility.yul\":6209:6272   */\n      swap2\n      pop\n        /* \"#utility.yul\":6165:6282   */\n      pop\n        /* \"#utility.yul\":5960:6289   */\n      swap3\n      swap2\n      pop\n      pop\n      jump\t// out\n        /* \"#utility.yul\":6295:6430   */\n    tag_102:\n        /* \"#utility.yul\":6383:6389   */\n      0x00\n        /* \"#utility.yul\":6417:6422   */\n      dup2\n        /* \"#utility.yul\":6411:6423   */\n      mload\n        /* \"#utility.yul\":6401:6423   */\n      swap1\n      pop\n        /* \"#utility.yul\":6295:6430   */\n      swap2\n      swap1\n      pop\n      jump\t// out\n        /* \"#utility.yul\":6436:6641   */\n    tag_103:\n        /* \"#utility.yul\":6556:6567   */\n      0x00\n        /* \"#utility.yul\":6590:6596   */\n      dup3\n        /* \"#utility.yul\":6585:6588   */\n      dup3\n        /* \"#utility.yul\":6578:6597   */\n      mstore\n        /* \"#utility.yul\":6630:6634   */\n      0x20\n        /* \"#utility.yul\":6625:6628   */\n      dup3\n        /* \"#utility.yul\":6621:6635   */\n      add\n        /* \"#utility.yul\":6606:6635   */\n      swap1\n      pop\n        /* \"#utility.yul\":6436:6641   */\n      swap3\n      swap2\n      pop\n      pop\n      jump\t// out\n        /* \"#utility.yul\":6647:6800   */\n    tag_104:\n        /* \"#utility.yul\":6735:6739   */\n      0x00\n        /* \"#utility.yul\":6758:6761   */\n      dup2\n        /* \"#utility.yul\":6750:6761   */\n      swap1\n      pop\n        /* \"#utility.yul\":6788:6792   */\n      0x20\n        /* \"#utility.yul\":6783:6786   */\n      dup3\n        /* \"#utility.yul\":6779:6793   */\n      add\n        /* \"#utility.yul\":6771:6793   */\n      swap1\n      pop\n        /* \"#utility.yul\":6647:6800   */\n      swap2\n      swap1\n      pop\n      jump\t// out\n        /* \"#utility.yul\":6858:7805   */\n    tag_105:\n        /* \"#utility.yul\":6959:6962   */\n      0x00\n        /* \"#utility.yul\":6995:6999   */\n      0x80\n        /* \"#utility.yul\":6990:6993   */\n      dup4\n        /* \"#utility.yul\":6986:7000   */\n      add\n        /* \"#utility.yul\":7084:7088   */\n      0x00\n        /* \"#utility.yul\":7077:7082   */\n      dup4\n        /* \"#utility.yul\":7073:7089   */\n      add\n        /* \"#utility.yul\":7067:7090   */\n      mload\n        /* \"#utility.yul\":7103:7166   */\n      tag_206\n        /* \"#utility.yul\":7160:7164   */\n      0x00\n        /* \"#utility.yul\":7155:7158   */\n      dup7\n        /* \"#utility.yul\":7151:7165   */\n      add\n        /* \"#utility.yul\":7137:7149   */\n      dup3\n        /* \"#utility.yul\":7103:7166   */\n      tag_97\n      jump\t// in\n    tag_206:\n        /* \"#utility.yul\":7010:7176   */\n      pop\n        /* \"#utility.yul\":7261:7265   */\n      0x20\n        /* \"#utility.yul\":7254:7259   */\n      dup4\n        /* \"#utility.yul\":7250:7266   */\n      add\n        /* \"#utility.yul\":7244:7267   */\n      mload\n        /* \"#utility.yul\":7314:7317   */\n      dup5\n        /* \"#utility.yul\":7308:7312   */\n      dup3\n        /* \"#utility.yul\":7304:7318   */\n      sub\n        /* \"#utility.yul\":7297:7301   */\n      0x20\n        /* \"#utility.yul\":7292:7295   */\n      dup7\n        /* \"#utility.yul\":7288:7302   */\n      add\n        /* \"#utility.yul\":7281:7319   */\n      mstore\n        /* \"#utility.yul\":7340:7413   */\n      tag_207\n        /* \"#utility.yul\":7408:7412   */\n      dup3\n        /* \"#utility.yul\":7394:7406   */\n      dup3\n        /* \"#utility.yul\":7340:7413   */\n      tag_99\n      jump\t// in\n    tag_207:\n        /* \"#utility.yul\":7332:7413   */\n      swap2\n      pop\n        /* \"#utility.yul\":7186:7424   */\n      pop\n        /* \"#utility.yul\":7511:7515   */\n      0x40\n        /* \"#utility.yul\":7504:7509   */\n      dup4\n        /* \"#utility.yul\":7500:7516   */\n      add\n        /* \"#utility.yul\":7494:7517   */\n      mload\n        /* \"#utility.yul\":7530:7593   */\n      tag_208\n        /* \"#utility.yul\":7587:7591   */\n      0x40\n        /* \"#utility.yul\":7582:7585   */\n      dup7\n        /* \"#utility.yul\":7578:7592   */\n      add\n        /* \"#utility.yul\":7564:7576   */\n      dup3\n        /* \"#utility.yul\":7530:7593   */\n      tag_100\n      jump\t// in\n    tag_208:\n        /* \"#utility.yul\":7434:7603   */\n      pop\n        /* \"#utility.yul\":7686:7690   */\n      0x60\n        /* \"#utility.yul\":7679:7684   */\n      dup4\n        /* \"#utility.yul\":7675:7691   */\n      add\n        /* \"#utility.yul\":7669:7692   */\n      mload\n        /* \"#utility.yul\":7705:7768   */\n      tag_209\n        /* \"#utility.yul\":7762:7766   */\n      0x60\n        /* \"#utility.yul\":7757:7760   */\n      dup7\n        /* \"#utility.yul\":7753:7767   */\n      add\n        /* \"#utility.yul\":7739:7751   */\n      dup3\n        /* \"#utility.yul\":7705:7768   */\n      tag_100\n      jump\t// in\n    tag_209:\n        /* \"#utility.yul\":7613:7778   */\n      pop\n        /* \"#utility.yul\":7795:7799   */\n      dup1\n        /* \"#utility.yul\":7788:7799   */\n      swap2\n      pop\n        /* \"#utility.yul\":6964:7805   */\n      pop\n        /* \"#utility.yul\":6858:7805   */\n      swap3\n      swap2\n      pop\n      pop\n      jump\t// out\n        /* \"#utility.yul\":7811:8051   */\n    tag_106:\n        /* \"#utility.yul\":7922:7932   */\n      0x00\n        /* \"#utility.yul\":7957:8045   */\n      tag_211\n        /* \"#utility.yul\":8041:8044   */\n      dup4\n        /* \"#utility.yul\":8033:8039   */\n      dup4\n        /* \"#utility.yul\":7957:8045   */\n      tag_105\n      jump\t// in\n    tag_211:\n        /* \"#utility.yul\":7943:8045   */\n      swap1\n      pop\n        /* \"#utility.yul\":7811:8051   */\n      swap3\n      swap2\n      pop\n      pop\n      jump\t// out\n        /* \"#utility.yul\":8057:8191   */\n    tag_107:\n        /* \"#utility.yul\":8148:8152   */\n      0x00\n        /* \"#utility.yul\":8180:8184   */\n      0x20\n        /* \"#utility.yul\":8175:8178   */\n      dup3\n        /* \"#utility.yul\":8171:8185   */\n      add\n        /* \"#utility.yul\":8163:8185   */\n      swap1\n      pop\n        /* \"#utility.yul\":8057:8191   */\n      swap2\n      swap1\n      pop\n      jump\t// out\n        /* \"#utility.yul\":8253:9332   */\n    tag_108:\n        /* \"#utility.yul\":8414:8417   */\n      0x00\n        /* \"#utility.yul\":8443:8518   */\n      tag_214\n        /* \"#utility.yul\":8512:8517   */\n      dup3\n        /* \"#utility.yul\":8443:8518   */\n      tag_102\n      jump\t// in\n    tag_214:\n        /* \"#utility.yul\":8534:8641   */\n      tag_215\n        /* \"#utility.yul\":8634:8640   */\n      dup2\n        /* \"#utility.yul\":8629:8632   */\n      dup6\n        /* \"#utility.yul\":8534:8641   */\n      tag_103\n      jump\t// in\n    tag_215:\n        /* \"#utility.yul\":8527:8641   */\n      swap4\n      pop\n        /* \"#utility.yul\":8667:8670   */\n      dup4\n        /* \"#utility.yul\":8712:8716   */\n      0x20\n        /* \"#utility.yul\":8704:8710   */\n      dup3\n        /* \"#utility.yul\":8700:8717   */\n      mul\n        /* \"#utility.yul\":8695:8698   */\n      dup6\n        /* \"#utility.yul\":8691:8718   */\n      add\n        /* \"#utility.yul\":8742:8819   */\n      tag_216\n        /* \"#utility.yul\":8813:8818   */\n      dup6\n        /* \"#utility.yul\":8742:8819   */\n      tag_104\n      jump\t// in\n    tag_216:\n        /* \"#utility.yul\":8842:8849   */\n      dup1\n        /* \"#utility.yul\":8873:8874   */\n      0x00\n        /* \"#utility.yul\":8858:9287   */\n    tag_217:\n        /* \"#utility.yul\":8883:8889   */\n      dup6\n        /* \"#utility.yul\":8880:8881   */\n      dup2\n        /* \"#utility.yul\":8877:8890   */\n      lt\n        /* \"#utility.yul\":8858:9287   */\n      iszero\n      tag_219\n      jumpi\n        /* \"#utility.yul\":8954:8963   */\n      dup5\n        /* \"#utility.yul\":8948:8952   */\n      dup5\n        /* \"#utility.yul\":8944:8964   */\n      sub\n        /* \"#utility.yul\":8939:8942   */\n      dup10\n        /* \"#utility.yul\":8932:8965   */\n      mstore\n        /* \"#utility.yul\":9005:9011   */\n      dup2\n        /* \"#utility.yul\":8999:9012   */\n      mload\n        /* \"#utility.yul\":9033:9139   */\n      tag_220\n        /* \"#utility.yul\":9134:9138   */\n      dup6\n        /* \"#utility.yul\":9119:9132   */\n      dup3\n        /* \"#utility.yul\":9033:9139   */\n      tag_106\n      jump\t// in\n    tag_220:\n        /* \"#utility.yul\":9025:9139   */\n      swap5\n      pop\n        /* \"#utility.yul\":9162:9243   */\n      tag_221\n        /* \"#utility.yul\":9236:9242   */\n      dup4\n        /* \"#utility.yul\":9162:9243   */\n      tag_107\n      jump\t// in\n    tag_221:\n        /* \"#utility.yul\":9152:9243   */\n      swap3\n      pop\n        /* \"#utility.yul\":9272:9276   */\n      0x20\n        /* \"#utility.yul\":9267:9270   */\n      dup11\n        /* \"#utility.yul\":9263:9277   */\n      add\n        /* \"#utility.yul\":9256:9277   */\n      swap10\n      pop\n        /* \"#utility.yul\":8918:9287   */\n      pop\n        /* \"#utility.yul\":8905:8906   */\n      0x01\n        /* \"#utility.yul\":8902:8903   */\n      dup2\n        /* \"#utility.yul\":8898:8907   */\n      add\n        /* \"#utility.yul\":8893:8907   */\n      swap1\n      pop\n        /* \"#utility.yul\":8858:9287   */\n      jump(tag_217)\n    tag_219:\n        /* \"#utility.yul\":8862:8876   */\n      pop\n        /* \"#utility.yul\":9303:9307   */\n      dup3\n        /* \"#utility.yul\":9296:9307   */\n      swap8\n      pop\n        /* \"#utility.yul\":9323:9326   */\n      dup8\n        /* \"#utility.yul\":9316:9326   */\n      swap6\n      pop\n        /* \"#utility.yul\":8419:9332   */\n      pop\n      pop\n      pop\n      pop\n      pop\n        /* \"#utility.yul\":8253:9332   */\n      swap3\n      swap2\n      pop\n      pop\n      jump\t// out\n        /* \"#utility.yul\":9338:9795   */\n    tag_25:\n        /* \"#utility.yul\":9523:9527   */\n      0x00\n        /* \"#utility.yul\":9561:9563   */\n      0x20\n        /* \"#utility.yul\":9550:9559   */\n      dup3\n        /* \"#utility.yul\":9546:9564   */\n      add\n        /* \"#utility.yul\":9538:9564   */\n      swap1\n      pop\n        /* \"#utility.yul\":9610:9619   */\n      dup2\n        /* \"#utility.yul\":9604:9608   */\n      dup2\n        /* \"#utility.yul\":9600:9620   */\n      sub\n        /* \"#utility.yul\":9596:9597   */\n      0x00\n        /* \"#utility.yul\":9585:9594   */\n      dup4\n        /* \"#utility.yul\":9581:9598   */\n      add\n        /* \"#utility.yul\":9574:9621   */\n      mstore\n        /* \"#utility.yul\":9638:9788   */\n      tag_223\n        /* \"#utility.yul\":9783:9787   */\n      dup2\n        /* \"#utility.yul\":9774:9780   */\n      dup5\n        /* \"#utility.yul\":9638:9788   */\n      tag_108\n      jump\t// in\n    tag_223:\n        /* \"#utility.yul\":9630:9788   */\n      swap1\n      pop\n        /* \"#utility.yul\":9338:9795   */\n      swap3\n      swap2\n      pop\n      pop\n      jump\t// out\n        /* \"#utility.yul\":9801:9918   */\n    tag_109:\n        /* \"#utility.yul\":9910:9911   */\n      0x00\n        /* \"#utility.yul\":9907:9908   */\n      dup1\n        /* \"#utility.yul\":9900:9912   */\n      revert\n        /* \"#utility.yul\":9924:10041   */\n    tag_110:\n        /* \"#utility.yul\":10033:10034   */\n      0x00\n        /* \"#utility.yul\":10030:10031   */\n      dup1\n        /* \"#utility.yul\":10023:10035   */\n      revert\n        /* \"#utility.yul\":10047:10227   */\n    tag_111:\n        /* \"#utility.yul\":10095:10172   */\n      0x4e487b7100000000000000000000000000000000000000000000000000000000\n        /* \"#utility.yul\":10092:10093   */\n      0x00\n        /* \"#utility.yul\":10085:10173   */\n      mstore\n        /* \"#utility.yul\":10192:10196   */\n      0x41\n        /* \"#utility.yul\":10189:10190   */\n      0x04\n        /* \"#utility.yul\":10182:10197   */\n      mstore\n        /* \"#utility.yul\":10216:10220   */\n      0x24\n        /* \"#utility.yul\":10213:10214   */\n      0x00\n        /* \"#utility.yul\":10206:10221   */\n      revert\n        /* \"#utility.yul\":10233:10514   */\n    tag_112:\n        /* \"#utility.yul\":10316:10343   */\n      tag_228\n        /* \"#utility.yul\":10338:10342   */\n      dup3\n        /* \"#utility.yul\":10316:10343   */\n      tag_94\n      jump\t// in\n    tag_228:\n        /* \"#utility.yul\":10308:10314   */\n      dup2\n        /* \"#utility.yul\":10304:10344   */\n      add\n        /* \"#utility.yul\":10446:10452   */\n      dup2\n        /* \"#utility.yul\":10434:10444   */\n      dup2\n        /* \"#utility.yul\":10431:10453   */\n      lt\n        /* \"#utility.yul\":10410:10428   */\n      0xffffffffffffffff\n        /* \"#utility.yul\":10398:10408   */\n      dup3\n        /* \"#utility.yul\":10395:10429   */\n      gt\n        /* \"#utility.yul\":10392:10454   */\n      or\n        /* \"#utility.yul\":10389:10477   */\n      iszero\n      tag_229\n      jumpi\n        /* \"#utility.yul\":10457:10475   */\n      tag_230\n      tag_111\n      jump\t// in\n    tag_230:\n        /* \"#utility.yul\":10389:10477   */\n    tag_229:\n        /* \"#utility.yul\":10497:10507   */\n      dup1\n        /* \"#utility.yul\":10493:10495   */\n      0x40\n        /* \"#utility.yul\":10486:10508   */\n      mstore\n        /* \"#utility.yul\":10276:10514   */\n      pop\n        /* \"#utility.yul\":10233:10514   */\n      pop\n      pop\n      jump\t// out\n        /* \"#utility.yul\":10520:10649   */\n    tag_113:\n        /* \"#utility.yul\":10554:10560   */\n      0x00\n        /* \"#utility.yul\":10581:10601   */\n      tag_232\n      tag_80\n      jump\t// in\n    tag_232:\n        /* \"#utility.yul\":10571:10601   */\n      swap1\n      pop\n        /* \"#utility.yul\":10610:10643   */\n      tag_233\n        /* \"#utility.yul\":10638:10642   */\n      dup3\n        /* \"#utility.yul\":10630:10636   */\n      dup3\n        /* \"#utility.yul\":10610:10643   */\n      tag_112\n      jump\t// in\n    tag_233:\n        /* \"#utility.yul\":10520:10649   */\n      swap2\n      swap1\n      pop\n      jump\t// out\n        /* \"#utility.yul\":10655:10963   */\n    tag_114:\n        /* \"#utility.yul\":10717:10721   */\n      0x00\n        /* \"#utility.yul\":10807:10825   */\n      0xffffffffffffffff\n        /* \"#utility.yul\":10799:10805   */\n      dup3\n        /* \"#utility.yul\":10796:10826   */\n      gt\n        /* \"#utility.yul\":10793:10849   */\n      iszero\n      tag_235\n      jumpi\n        /* \"#utility.yul\":10829:10847   */\n      tag_236\n      tag_111\n      jump\t// in\n    tag_236:\n        /* \"#utility.yul\":10793:10849   */\n    tag_235:\n        /* \"#utility.yul\":10867:10896   */\n      tag_237\n        /* \"#utility.yul\":10889:10895   */\n      dup3\n        /* \"#utility.yul\":10867:10896   */\n      tag_94\n      jump\t// in\n    tag_237:\n        /* \"#utility.yul\":10859:10896   */\n      swap1\n      pop\n        /* \"#utility.yul\":10951:10955   */\n      0x20\n        /* \"#utility.yul\":10945:10949   */\n      dup2\n        /* \"#utility.yul\":10941:10956   */\n      add\n        /* \"#utility.yul\":10933:10956   */\n      swap1\n      pop\n        /* \"#utility.yul\":10655:10963   */\n      swap2\n      swap1\n      pop\n      jump\t// out\n        /* \"#utility.yul\":10969:11117   */\n    tag_115:\n        /* \"#utility.yul\":11067:11073   */\n      dup3\n        /* \"#utility.yul\":11062:11065   */\n      dup2\n        /* \"#utility.yul\":11057:11060   */\n      dup4\n        /* \"#utility.yul\":11044:11074   */\n      calldatacopy\n        /* \"#utility.yul\":11108:11109   */\n      0x00\n        /* \"#utility.yul\":11099:11105   */\n      dup4\n        /* \"#utility.yul\":11094:11097   */\n      dup4\n        /* \"#utility.yul\":11090:11106   */\n      add\n        /* \"#utility.yul\":11083:11110   */\n      mstore\n        /* \"#utility.yul\":10969:11117   */\n      pop\n      pop\n      pop\n      jump\t// out\n        /* \"#utility.yul\":11123:11548   */\n    tag_116:\n        /* \"#utility.yul\":11201:11206   */\n      0x00\n        /* \"#utility.yul\":11226:11292   */\n      tag_240\n        /* \"#utility.yul\":11242:11291   */\n      tag_241\n        /* \"#utility.yul\":11284:11290   */\n      dup5\n        /* \"#utility.yul\":11242:11291   */\n      tag_114\n      jump\t// in\n    tag_241:\n        /* \"#utility.yul\":11226:11292   */\n      tag_113\n      jump\t// in\n    tag_240:\n        /* \"#utility.yul\":11217:11292   */\n      swap1\n      pop\n        /* \"#utility.yul\":11315:11321   */\n      dup3\n        /* \"#utility.yul\":11308:11313   */\n      dup2\n        /* \"#utility.yul\":11301:11322   */\n      mstore\n        /* \"#utility.yul\":11353:11357   */\n      0x20\n        /* \"#utility.yul\":11346:11351   */\n      dup2\n        /* \"#utility.yul\":11342:11358   */\n      add\n        /* \"#utility.yul\":11391:11394   */\n      dup5\n        /* \"#utility.yul\":11382:11388   */\n      dup5\n        /* \"#utility.yul\":11377:11380   */\n      dup5\n        /* \"#utility.yul\":11373:11389   */\n      add\n        /* \"#utility.yul\":11370:11395   */\n      gt\n        /* \"#utility.yul\":11367:11479   */\n      iszero\n      tag_242\n      jumpi\n        /* \"#utility.yul\":11398:11477   */\n      tag_243\n      tag_110\n      jump\t// in\n    tag_243:\n        /* \"#utility.yul\":11367:11479   */\n    tag_242:\n        /* \"#utility.yul\":11488:11542   */\n      tag_244\n        /* \"#utility.yul\":11535:11541   */\n      dup5\n        /* \"#utility.yul\":11530:11533   */\n      dup3\n        /* \"#utility.yul\":11525:11528   */\n      dup6\n        /* \"#utility.yul\":11488:11542   */\n      tag_115\n      jump\t// in\n    tag_244:\n        /* \"#utility.yul\":11207:11548   */\n      pop\n        /* \"#utility.yul\":11123:11548   */\n      swap4\n      swap3\n      pop\n      pop\n      pop\n      jump\t// out\n        /* \"#utility.yul\":11568:11908   */\n    tag_117:\n        /* \"#utility.yul\":11624:11629   */\n      0x00\n        /* \"#utility.yul\":11673:11676   */\n      dup3\n        /* \"#utility.yul\":11666:11670   */\n      0x1f\n        /* \"#utility.yul\":11658:11664   */\n      dup4\n        /* \"#utility.yul\":11654:11671   */\n      add\n        /* \"#utility.yul\":11650:11677   */\n      slt\n        /* \"#utility.yul\":11640:11762   */\n      tag_246\n      jumpi\n        /* \"#utility.yul\":11681:11760   */\n      tag_247\n      tag_109\n      jump\t// in\n    tag_247:\n        /* \"#utility.yul\":11640:11762   */\n    tag_246:\n        /* \"#utility.yul\":11798:11804   */\n      dup2\n        /* \"#utility.yul\":11785:11805   */\n      calldataload\n        /* \"#utility.yul\":11823:11902   */\n      tag_248\n        /* \"#utility.yul\":11898:11901   */\n      dup5\n        /* \"#utility.yul\":11890:11896   */\n      dup3\n        /* \"#utility.yul\":11883:11887   */\n      0x20\n        /* \"#utility.yul\":11875:11881   */\n      dup7\n        /* \"#utility.yul\":11871:11888   */\n      add\n        /* \"#utility.yul\":11823:11902   */\n      tag_116\n      jump\t// in\n    tag_248:\n        /* \"#utility.yul\":11814:11902   */\n      swap2\n      pop\n        /* \"#utility.yul\":11630:11908   */\n      pop\n        /* \"#utility.yul\":11568:11908   */\n      swap3\n      swap2\n      pop\n      pop\n      jump\t// out\n        /* \"#utility.yul\":11914:12423   */\n    tag_28:\n        /* \"#utility.yul\":11983:11989   */\n      0x00\n        /* \"#utility.yul\":12032:12034   */\n      0x20\n        /* \"#utility.yul\":12020:12029   */\n      dup3\n        /* \"#utility.yul\":12011:12018   */\n      dup5\n        /* \"#utility.yul\":12007:12030   */\n      sub\n        /* \"#utility.yul\":12003:12035   */\n      slt\n        /* \"#utility.yul\":12000:12119   */\n      iszero\n      tag_250\n      jumpi\n        /* \"#utility.yul\":12038:12117   */\n      tag_251\n      tag_81\n      jump\t// in\n    tag_251:\n        /* \"#utility.yul\":12000:12119   */\n    tag_250:\n        /* \"#utility.yul\":12186:12187   */\n      0x00\n        /* \"#utility.yul\":12175:12184   */\n      dup3\n        /* \"#utility.yul\":12171:12188   */\n      add\n        /* \"#utility.yul\":12158:12189   */\n      calldataload\n        /* \"#utility.yul\":12216:12234   */\n      0xffffffffffffffff\n        /* \"#utility.yul\":12208:12214   */\n      dup2\n        /* \"#utility.yul\":12205:12235   */\n      gt\n        /* \"#utility.yul\":12202:12319   */\n      iszero\n      tag_252\n      jumpi\n        /* \"#utility.yul\":12238:12317   */\n      tag_253\n      tag_82\n      jump\t// in\n    tag_253:\n        /* \"#utility.yul\":12202:12319   */\n    tag_252:\n        /* \"#utility.yul\":12343:12406   */\n      tag_254\n        /* \"#utility.yul\":12398:12405   */\n      dup5\n        /* \"#utility.yul\":12389:12395   */\n      dup3\n        /* \"#utility.yul\":12378:12387   */\n      dup6\n        /* \"#utility.yul\":12374:12396   */\n      add\n        /* \"#utility.yul\":12343:12406   */\n      tag_117\n      jump\t// in\n    tag_254:\n        /* \"#utility.yul\":12333:12406   */\n      swap2\n      pop\n        /* \"#utility.yul\":12129:12416   */\n      pop\n        /* \"#utility.yul\":11914:12423   */\n      swap3\n      swap2\n      pop\n      pop\n      jump\t// out\n        /* \"#utility.yul\":12429:12609   */\n    tag_118:\n        /* \"#utility.yul\":12477:12554   */\n      0x4e487b7100000000000000000000000000000000000000000000000000000000\n        /* \"#utility.yul\":12474:12475   */\n      0x00\n        /* \"#utility.yul\":12467:12555   */\n      mstore\n        /* \"#utility.yul\":12574:12578   */\n      0x22\n        /* \"#utility.yul\":12571:12572   */\n      0x04\n        /* \"#utility.yul\":12564:12579   */\n      mstore\n        /* \"#utility.yul\":12598:12602   */\n      0x24\n        /* \"#utility.yul\":12595:12596   */\n      0x00\n        /* \"#utility.yul\":12588:12603   */\n      revert\n        /* \"#utility.yul\":12615:12935   */\n    tag_37:\n        /* \"#utility.yul\":12659:12665   */\n      0x00\n        /* \"#utility.yul\":12696:12697   */\n      0x02\n        /* \"#utility.yul\":12690:12694   */\n      dup3\n        /* \"#utility.yul\":12686:12698   */\n      div\n        /* \"#utility.yul\":12676:12698   */\n      swap1\n      pop\n        /* \"#utility.yul\":12743:12744   */\n      0x01\n        /* \"#utility.yul\":12737:12741   */\n      dup3\n        /* \"#utility.yul\":12733:12745   */\n      and\n        /* \"#utility.yul\":12764:12782   */\n      dup1\n        /* \"#utility.yul\":12754:12835   */\n      tag_257\n      jumpi\n        /* \"#utility.yul\":12820:12824   */\n      0x7f\n        /* \"#utility.yul\":12812:12818   */\n      dup3\n        /* \"#utility.yul\":12808:12825   */\n      and\n        /* \"#utility.yul\":12798:12825   */\n      swap2\n      pop\n        /* \"#utility.yul\":12754:12835   */\n    tag_257:\n        /* \"#utility.yul\":12882:12884   */\n      0x20\n        /* \"#utility.yul\":12874:12880   */\n      dup3\n        /* \"#utility.yul\":12871:12885   */\n      lt\n        /* \"#utility.yul\":12851:12869   */\n      dup2\n        /* \"#utility.yul\":12848:12886   */\n      sub\n        /* \"#utility.yul\":12845:12929   */\n      tag_258\n      jumpi\n        /* \"#utility.yul\":12901:12919   */\n      tag_259\n      tag_118\n      jump\t// in\n    tag_259:\n        /* \"#utility.yul\":12845:12929   */\n    tag_258:\n        /* \"#utility.yul\":12666:12935   */\n      pop\n        /* \"#utility.yul\":12615:12935   */\n      swap2\n      swap1\n      pop\n      jump\t// out\n        /* \"#utility.yul\":12941:13121   */\n    tag_47:\n        /* \"#utility.yul\":12989:13066   */\n      0x4e487b7100000000000000000000000000000000000000000000000000000000\n        /* \"#utility.yul\":12986:12987   */\n      0x00\n        /* \"#utility.yul\":12979:13067   */\n      mstore\n        /* \"#utility.yul\":13086:13090   */\n      0x32\n        /* \"#utility.yul\":13083:13084   */\n      0x04\n        /* \"#utility.yul\":13076:13091   */\n      mstore\n        /* \"#utility.yul\":13110:13114   */\n      0x24\n        /* \"#utility.yul\":13107:13108   */\n      0x00\n        /* \"#utility.yul\":13100:13115   */\n      revert\n        /* \"#utility.yul\":13127:13291   */\n    tag_119:\n        /* \"#utility.yul\":13267:13283   */\n      0x547765657420746f6f204c6f6e67000000000000000000000000000000000000\n        /* \"#utility.yul\":13263:13264   */\n      0x00\n        /* \"#utility.yul\":13255:13261   */\n      dup3\n        /* \"#utility.yul\":13251:13265   */\n      add\n        /* \"#utility.yul\":13244:13284   */\n      mstore\n        /* \"#utility.yul\":13127:13291   */\n      pop\n      jump\t// out\n        /* \"#utility.yul\":13297:13663   */\n    tag_120:\n        /* \"#utility.yul\":13439:13442   */\n      0x00\n        /* \"#utility.yul\":13460:13527   */\n      tag_263\n        /* \"#utility.yul\":13524:13526   */\n      0x0e\n        /* \"#utility.yul\":13519:13522   */\n      dup4\n        /* \"#utility.yul\":13460:13527   */\n      tag_92\n      jump\t// in\n    tag_263:\n        /* \"#utility.yul\":13453:13527   */\n      swap2\n      pop\n        /* \"#utility.yul\":13536:13629   */\n      tag_264\n        /* \"#utility.yul\":13625:13628   */\n      dup3\n        /* \"#utility.yul\":13536:13629   */\n      tag_119\n      jump\t// in\n    tag_264:\n        /* \"#utility.yul\":13654:13656   */\n      0x20\n        /* \"#utility.yul\":13649:13652   */\n      dup3\n        /* \"#utility.yul\":13645:13657   */\n      add\n        /* \"#utility.yul\":13638:13657   */\n      swap1\n      pop\n        /* \"#utility.yul\":13297:13663   */\n      swap2\n      swap1\n      pop\n      jump\t// out\n        /* \"#utility.yul\":13669:14088   */\n    tag_66:\n        /* \"#utility.yul\":13835:13839   */\n      0x00\n        /* \"#utility.yul\":13873:13875   */\n      0x20\n        /* \"#utility.yul\":13862:13871   */\n      dup3\n        /* \"#utility.yul\":13858:13876   */\n      add\n        /* \"#utility.yul\":13850:13876   */\n      swap1\n      pop\n        /* \"#utility.yul\":13922:13931   */\n      dup2\n        /* \"#utility.yul\":13916:13920   */\n      dup2\n        /* \"#utility.yul\":13912:13932   */\n      sub\n        /* \"#utility.yul\":13908:13909   */\n      0x00\n        /* \"#utility.yul\":13897:13906   */\n      dup4\n        /* \"#utility.yul\":13893:13910   */\n      add\n        /* \"#utility.yul\":13886:13933   */\n      mstore\n        /* \"#utility.yul\":13950:14081   */\n      tag_266\n        /* \"#utility.yul\":14076:14080   */\n      dup2\n        /* \"#utility.yul\":13950:14081   */\n      tag_120\n      jump\t// in\n    tag_266:\n        /* \"#utility.yul\":13942:14081   */\n      swap1\n      pop\n        /* \"#utility.yul\":13669:14088   */\n      swap2\n      swap1\n      pop\n      jump\t// out\n        /* \"#utility.yul\":14094:14235   */\n    tag_121:\n        /* \"#utility.yul\":14143:14147   */\n      0x00\n        /* \"#utility.yul\":14166:14169   */\n      dup2\n        /* \"#utility.yul\":14158:14169   */\n      swap1\n      pop\n        /* \"#utility.yul\":14189:14192   */\n      dup2\n        /* \"#utility.yul\":14186:14187   */\n      0x00\n        /* \"#utility.yul\":14179:14193   */\n      mstore\n        /* \"#utility.yul\":14223:14227   */\n      0x20\n        /* \"#utility.yul\":14220:14221   */\n      0x00\n        /* \"#utility.yul\":14210:14228   */\n      keccak256\n        /* \"#utility.yul\":14202:14228   */\n      swap1\n      pop\n        /* \"#utility.yul\":14094:14235   */\n      swap2\n      swap1\n      pop\n      jump\t// out\n        /* \"#utility.yul\":14241:14334   */\n    tag_122:\n        /* \"#utility.yul\":14278:14284   */\n      0x00\n        /* \"#utility.yul\":14325:14327   */\n      0x20\n        /* \"#utility.yul\":14320:14322   */\n      0x1f\n        /* \"#utility.yul\":14313:14318   */\n      dup4\n        /* \"#utility.yul\":14309:14323   */\n      add\n        /* \"#utility.yul\":14305:14328   */\n      div\n        /* \"#utility.yul\":14295:14328   */\n      swap1\n      pop\n        /* \"#utility.yul\":14241:14334   */\n      swap2\n      swap1\n      pop\n      jump\t// out\n        /* \"#utility.yul\":14340:14447   */\n    tag_123:\n        /* \"#utility.yul\":14384:14392   */\n      0x00\n        /* \"#utility.yul\":14434:14439   */\n      dup3\n        /* \"#utility.yul\":14428:14432   */\n      dup3\n        /* \"#utility.yul\":14424:14440   */\n      shl\n        /* \"#utility.yul\":14403:14440   */\n      swap1\n      pop\n        /* \"#utility.yul\":14340:14447   */\n      swap3\n      swap2\n      pop\n      pop\n      jump\t// out\n        /* \"#utility.yul\":14453:14846   */\n    tag_124:\n        /* \"#utility.yul\":14522:14528   */\n      0x00\n        /* \"#utility.yul\":14572:14573   */\n      0x08\n        /* \"#utility.yul\":14560:14570   */\n      dup4\n        /* \"#utility.yul\":14556:14574   */\n      mul\n        /* \"#utility.yul\":14595:14692   */\n      tag_271\n        /* \"#utility.yul\":14625:14691   */\n      0xffffffffffffffffffffffffffffffffffffffffffffffffffffffffffffffff\n        /* \"#utility.yul\":14614:14623   */\n      dup3\n        /* \"#utility.yul\":14595:14692   */\n      tag_123\n      jump\t// in\n    tag_271:\n        /* \"#utility.yul\":14713:14752   */\n      tag_272\n        /* \"#utility.yul\":14743:14751   */\n      dup7\n        /* \"#utility.yul\":14732:14741   */\n      dup4\n        /* \"#utility.yul\":14713:14752   */\n      tag_123\n      jump\t// in\n    tag_272:\n        /* \"#utility.yul\":14701:14752   */\n      swap6\n      pop\n        /* \"#utility.yul\":14785:14789   */\n      dup1\n        /* \"#utility.yul\":14781:14790   */\n      not\n        /* \"#utility.yul\":14774:14779   */\n      dup5\n        /* \"#utility.yul\":14770:14791   */\n      and\n        /* \"#utility.yul\":14761:14791   */\n      swap4\n      pop\n        /* \"#utility.yul\":14834:14838   */\n      dup1\n        /* \"#utility.yul\":14824:14832   */\n      dup7\n        /* \"#utility.yul\":14820:14839   */\n      and\n        /* \"#utility.yul\":14813:14818   */\n      dup5\n        /* \"#utility.yul\":14810:14840   */\n      or\n        /* \"#utility.yul\":14800:14840   */\n      swap3\n      pop\n        /* \"#utility.yul\":14529:14846   */\n      pop\n      pop\n        /* \"#utility.yul\":14453:14846   */\n      swap4\n      swap3\n      pop\n      pop\n      pop\n      jump\t// out\n        /* \"#utility.yul\":14852:14912   */\n    tag_125:\n        /* \"#utility.yul\":14880:14883   */\n      0x00\n        /* \"#utility.yul\":14901:14906   */\n      dup2\n        /* \"#utility.yul\":14894:14906   */\n      swap1\n      pop\n        /* \"#utility.yul\":14852:14912   */\n      swap2\n      swap1\n      pop\n      jump\t// out\n        /* \"#utility.yul\":14918:15060   */\n    tag_126:\n        /* \"#utility.yul\":14968:14977   */\n      0x00\n        /* \"#utility.yul\":15001:15054   */\n      tag_275\n        /* \"#utility.yul\":15019:15053   */\n      tag_276\n        /* \"#utility.yul\":15028:15052   */\n      tag_277\n        /* \"#utility.yul\":15046:15051   */\n      dup5\n        /* \"#utility.yul\":15028:15052   */\n      tag_87\n      jump\t// in\n    tag_277:\n        /* \"#utility.yul\":15019:15053   */\n      tag_125\n      jump\t// in\n    tag_276:\n        /* \"#utility.yul\":15001:15054   */\n      tag_87\n      jump\t// in\n    tag_275:\n        /* \"#utility.yul\":14988:15054   */\n      swap1\n      pop\n        /* \"#utility.yul\":14918:15060   */\n      swap2\n      swap1\n      pop\n      jump\t// out\n        /* \"#utility.yul\":15066:15141   */\n    tag_127:\n        /* \"#utility.yul\":15109:15112   */\n      0x00\n        /* \"#utility.yul\":15130:15135   */\n      dup2\n        /* \"#utility.yul\":15123:15135   */\n      swap1\n      pop\n        /* \"#utility.yul\":15066:15141   */\n      swap2\n      swap1\n      pop\n      jump\t// out\n        /* \"#utility.yul\":15147:15416   */\n    tag_128:\n        /* \"#utility.yul\":15257:15296   */\n      tag_280\n        /* \"#utility.yul\":15288:15295   */\n      dup4\n        /* \"#utility.yul\":15257:15296   */\n      tag_126\n      jump\t// in\n    tag_280:\n        /* \"#utility.yul\":15318:15409   */\n      tag_281\n        /* \"#utility.yul\":15367:15408   */\n      tag_282\n        /* \"#utility.yul\":15391:15407   */\n      dup3\n        /* \"#utility.yul\":15367:15408   */\n      tag_127\n      jump\t// in\n    tag_282:\n        /* \"#utility.yul\":15359:15365   */\n      dup5\n        /* \"#utility.yul\":15352:15356   */\n      dup5\n        /* \"#utility.yul\":15346:15357   */\n      sload\n        /* \"#utility.yul\":15318:15409   */\n      tag_124\n      jump\t// in\n    tag_281:\n        /* \"#utility.yul\":15312:15316   */\n      dup3\n        /* \"#utility.yul\":15305:15410   */\n      sstore\n        /* \"#utility.yul\":15223:15416   */\n      pop\n        /* \"#utility.yul\":15147:15416   */\n      pop\n      pop\n      pop\n      jump\t// out\n        /* \"#utility.yul\":15422:15495   */\n    tag_129:\n        /* \"#utility.yul\":15467:15470   */\n      0x00\n        /* \"#utility.yul\":15422:15495   */\n      swap1\n      jump\t// out\n        /* \"#utility.yul\":15501:15690   */\n    tag_130:\n        /* \"#utility.yul\":15578:15610   */\n      tag_285\n      tag_129\n      jump\t// in\n    tag_285:\n        /* \"#utility.yul\":15619:15684   */\n      tag_286\n        /* \"#utility.yul\":15677:15683   */\n      dup2\n        /* \"#utility.yul\":15669:15675   */\n      dup5\n        /* \"#utility.yul\":15663:15667   */\n      dup5\n        /* \"#utility.yul\":15619:15684   */\n      tag_128\n      jump\t// in\n    tag_286:\n        /* \"#utility.yul\":15554:15690   */\n      pop\n        /* \"#utility.yul\":15501:15690   */\n      pop\n      pop\n      jump\t// out\n        /* \"#utility.yul\":15696:15882   */\n    tag_131:\n        /* \"#utility.yul\":15756:15876   */\n    tag_288:\n        /* \"#utility.yul\":15773:15776   */\n      dup2\n        /* \"#utility.yul\":15766:15771   */\n      dup2\n        /* \"#utility.yul\":15763:15777   */\n      lt\n        /* \"#utility.yul\":15756:15876   */\n      iszero\n      tag_290\n      jumpi\n        /* \"#utility.yul\":15827:15866   */\n      tag_291\n        /* \"#utility.yul\":15864:15865   */\n      0x00\n        /* \"#utility.yul\":15857:15862   */\n      dup3\n        /* \"#utility.yul\":15827:15866   */\n      tag_130\n      jump\t// in\n    tag_291:\n        /* \"#utility.yul\":15800:15801   */\n      0x01\n        /* \"#utility.yul\":15793:15798   */\n      dup2\n        /* \"#utility.yul\":15789:15802   */\n      add\n        /* \"#utility.yul\":15780:15802   */\n      swap1\n      pop\n        /* \"#utility.yul\":15756:15876   */\n      jump(tag_288)\n    tag_290:\n        /* \"#utility.yul\":15696:15882   */\n      pop\n      pop\n      jump\t// out\n        /* \"#utility.yul\":15888:16431   */\n    tag_132:\n        /* \"#utility.yul\":15989:15991   */\n      0x1f\n        /* \"#utility.yul\":15984:15987   */\n      dup3\n        /* \"#utility.yul\":15981:15992   */\n      gt\n        /* \"#utility.yul\":15978:16424   */\n      iszero\n      tag_293\n      jumpi\n        /* \"#utility.yul\":16023:16061   */\n      tag_294\n        /* \"#utility.yul\":16055:16060   */\n      dup2\n        /* \"#utility.yul\":16023:16061   */\n      tag_121\n      jump\t// in\n    tag_294:\n        /* \"#utility.yul\":16107:16136   */\n      tag_295\n        /* \"#utility.yul\":16125:16135   */\n      dup5\n        /* \"#utility.yul\":16107:16136   */\n      tag_122\n      jump\t// in\n    tag_295:\n        /* \"#utility.yul\":16097:16105   */\n      dup2\n        /* \"#utility.yul\":16093:16137   */\n      add\n        /* \"#utility.yul\":16290:16292   */\n      0x20\n        /* \"#utility.yul\":16278:16288   */\n      dup6\n        /* \"#utility.yul\":16275:16293   */\n      lt\n        /* \"#utility.yul\":16272:16321   */\n      iszero\n      tag_296\n      jumpi\n        /* \"#utility.yul\":16311:16319   */\n      dup2\n        /* \"#utility.yul\":16296:16319   */\n      swap1\n      pop\n        /* \"#utility.yul\":16272:16321   */\n    tag_296:\n        /* \"#utility.yul\":16334:16414   */\n      tag_297\n        /* \"#utility.yul\":16390:16412   */\n      tag_298\n        /* \"#utility.yul\":16408:16411   */\n      dup6\n        /* \"#utility.yul\":16390:16412   */\n      tag_122\n      jump\t// in\n    tag_298:\n        /* \"#utility.yul\":16380:16388   */\n      dup4\n        /* \"#utility.yul\":16376:16413   */\n      add\n        /* \"#utility.yul\":16363:16374   */\n      dup3\n        /* \"#utility.yul\":16334:16414   */\n      tag_131\n      jump\t// in\n    tag_297:\n        /* \"#utility.yul\":15993:16424   */\n      pop\n      pop\n        /* \"#utility.yul\":15978:16424   */\n    tag_293:\n        /* \"#utility.yul\":15888:16431   */\n      pop\n      pop\n      pop\n      jump\t// out\n        /* \"#utility.yul\":16437:16554   */\n    tag_133:\n        /* \"#utility.yul\":16491:16499   */\n      0x00\n        /* \"#utility.yul\":16541:16546   */\n      dup3\n        /* \"#utility.yul\":16535:16539   */\n      dup3\n        /* \"#utility.yul\":16531:16547   */\n      shr\n        /* \"#utility.yul\":16510:16547   */\n      swap1\n      pop\n        /* \"#utility.yul\":16437:16554   */\n      swap3\n      swap2\n      pop\n      pop\n      jump\t// out\n        /* \"#utility.yul\":16560:16729   */\n    tag_134:\n        /* \"#utility.yul\":16604:16610   */\n      0x00\n        /* \"#utility.yul\":16637:16688   */\n      tag_301\n        /* \"#utility.yul\":16685:16686   */\n      0x00\n        /* \"#utility.yul\":16681:16687   */\n      not\n        /* \"#utility.yul\":16673:16678   */\n      dup5\n        /* \"#utility.yul\":16670:16671   */\n      0x08\n        /* \"#utility.yul\":16666:16679   */\n      mul\n        /* \"#utility.yul\":16637:16688   */\n      tag_133\n      jump\t// in\n    tag_301:\n        /* \"#utility.yul\":16633:16689   */\n      not\n        /* \"#utility.yul\":16718:16722   */\n      dup1\n        /* \"#utility.yul\":16712:16716   */\n      dup4\n        /* \"#utility.yul\":16708:16723   */\n      and\n        /* \"#utility.yul\":16698:16723   */\n      swap2\n      pop\n        /* \"#utility.yul\":16611:16729   */\n      pop\n        /* \"#utility.yul\":16560:16729   */\n      swap3\n      swap2\n      pop\n      pop\n      jump\t// out\n        /* \"#utility.yul\":16734:17029   */\n    tag_135:\n        /* \"#utility.yul\":16810:16814   */\n      0x00\n        /* \"#utility.yul\":16956:16985   */\n      tag_303\n        /* \"#utility.yul\":16981:16984   */\n      dup4\n        /* \"#utility.yul\":16975:16979   */\n      dup4\n        /* \"#utility.yul\":16956:16985   */\n      tag_134\n      jump\t// in\n    tag_303:\n        /* \"#utility.yul\":16948:16985   */\n      swap2\n      pop\n        /* \"#utility.yul\":17018:17021   */\n      dup3\n        /* \"#utility.yul\":17015:17016   */\n      0x02\n        /* \"#utility.yul\":17011:17022   */\n      mul\n        /* \"#utility.yul\":17005:17009   */\n      dup3\n        /* \"#utility.yul\":17002:17023   */\n      or\n        /* \"#utility.yul\":16994:17023   */\n      swap1\n      pop\n        /* \"#utility.yul\":16734:17029   */\n      swap3\n      swap2\n      pop\n      pop\n      jump\t// out\n        /* \"#utility.yul\":17034:18429   */\n    tag_69:\n        /* \"#utility.yul\":17151:17188   */\n      tag_305\n        /* \"#utility.yul\":17184:17187   */\n      dup3\n        /* \"#utility.yul\":17151:17188   */\n      tag_91\n      jump\t// in\n    tag_305:\n        /* \"#utility.yul\":17253:17271   */\n      0xffffffffffffffff\n        /* \"#utility.yul\":17245:17251   */\n      dup2\n        /* \"#utility.yul\":17242:17272   */\n      gt\n        /* \"#utility.yul\":17239:17295   */\n      iszero\n      tag_306\n      jumpi\n        /* \"#utility.yul\":17275:17293   */\n      tag_307\n      tag_111\n      jump\t// in\n    tag_307:\n        /* \"#utility.yul\":17239:17295   */\n    tag_306:\n        /* \"#utility.yul\":17319:17357   */\n      tag_308\n        /* \"#utility.yul\":17351:17355   */\n      dup3\n        /* \"#utility.yul\":17345:17356   */\n      sload\n        /* \"#utility.yul\":17319:17357   */\n      tag_37\n      jump\t// in\n    tag_308:\n        /* \"#utility.yul\":17404:17471   */\n      tag_309\n        /* \"#utility.yul\":17464:17470   */\n      dup3\n        /* \"#utility.yul\":17456:17462   */\n      dup3\n        /* \"#utility.yul\":17450:17454   */\n      dup6\n        /* \"#utility.yul\":17404:17471   */\n      tag_132\n      jump\t// in\n    tag_309:\n        /* \"#utility.yul\":17498:17499   */\n      0x00\n        /* \"#utility.yul\":17522:17526   */\n      0x20\n        /* \"#utility.yul\":17509:17526   */\n      swap1\n      pop\n        /* \"#utility.yul\":17554:17556   */\n      0x1f\n        /* \"#utility.yul\":17546:17552   */\n      dup4\n        /* \"#utility.yul\":17543:17557   */\n      gt\n        /* \"#utility.yul\":17571:17572   */\n      0x01\n        /* \"#utility.yul\":17566:18184   */\n      dup2\n      eq\n      tag_311\n      jumpi\n        /* \"#utility.yul\":18228:18229   */\n      0x00\n        /* \"#utility.yul\":18245:18251   */\n      dup5\n        /* \"#utility.yul\":18242:18319   */\n      iszero\n      tag_312\n      jumpi\n        /* \"#utility.yul\":18294:18303   */\n      dup3\n        /* \"#utility.yul\":18289:18292   */\n      dup8\n        /* \"#utility.yul\":18285:18304   */\n      add\n        /* \"#utility.yul\":18279:18305   */\n      mload\n        /* \"#utility.yul\":18270:18305   */\n      swap1\n      pop\n        /* \"#utility.yul\":18242:18319   */\n    tag_312:\n        /* \"#utility.yul\":18345:18412   */\n      tag_313\n        /* \"#utility.yul\":18405:18411   */\n      dup6\n        /* \"#utility.yul\":18398:18403   */\n      dup3\n        /* \"#utility.yul\":18345:18412   */\n      tag_135\n      jump\t// in\n    tag_313:\n        /* \"#utility.yul\":18339:18343   */\n      dup7\n        /* \"#utility.yul\":18332:18413   */\n      sstore\n        /* \"#utility.yul\":18201:18423   */\n      pop\n        /* \"#utility.yul\":17536:18423   */\n      jump(tag_310)\n        /* \"#utility.yul\":17566:18184   */\n    tag_311:\n        /* \"#utility.yul\":17618:17622   */\n      0x1f\n        /* \"#utility.yul\":17614:17623   */\n      not\n        /* \"#utility.yul\":17606:17612   */\n      dup5\n        /* \"#utility.yul\":17602:17624   */\n      and\n        /* \"#utility.yul\":17652:17689   */\n      tag_314\n        /* \"#utility.yul\":17684:17688   */\n      dup7\n        /* \"#utility.yul\":17652:17689   */\n      tag_121\n      jump\t// in\n    tag_314:\n        /* \"#utility.yul\":17711:17712   */\n      0x00\n        /* \"#utility.yul\":17725:17933   */\n    tag_315:\n        /* \"#utility.yul\":17739:17746   */\n      dup3\n        /* \"#utility.yul\":17736:17737   */\n      dup2\n        /* \"#utility.yul\":17733:17747   */\n      lt\n        /* \"#utility.yul\":17725:17933   */\n      iszero\n      tag_317\n      jumpi\n        /* \"#utility.yul\":17818:17827   */\n      dup5\n        /* \"#utility.yul\":17813:17816   */\n      dup10\n        /* \"#utility.yul\":17809:17828   */\n      add\n        /* \"#utility.yul\":17803:17829   */\n      mload\n        /* \"#utility.yul\":17795:17801   */\n      dup3\n        /* \"#utility.yul\":17788:17830   */\n      sstore\n        /* \"#utility.yul\":17869:17870   */\n      0x01\n        /* \"#utility.yul\":17861:17867   */\n      dup3\n        /* \"#utility.yul\":17857:17871   */\n      add\n        /* \"#utility.yul\":17847:17871   */\n      swap2\n      pop\n        /* \"#utility.yul\":17916:17918   */\n      0x20\n        /* \"#utility.yul\":17905:17914   */\n      dup6\n        /* \"#utility.yul\":17901:17919   */\n      add\n        /* \"#utility.yul\":17888:17919   */\n      swap5\n      pop\n        /* \"#utility.yul\":17762:17766   */\n      0x20\n        /* \"#utility.yul\":17759:17760   */\n      dup2\n        /* \"#utility.yul\":17755:17767   */\n      add\n        /* \"#utility.yul\":17750:17767   */\n      swap1\n      pop\n        /* \"#utility.yul\":17725:17933   */\n      jump(tag_315)\n    tag_317:\n        /* \"#utility.yul\":17961:17967   */\n      dup7\n        /* \"#utility.yul\":17952:17959   */\n      dup4\n        /* \"#utility.yul\":17949:17968   */\n      lt\n        /* \"#utility.yul\":17946:18125   */\n      iszero\n      tag_318\n      jumpi\n        /* \"#utility.yul\":18019:18028   */\n      dup5\n        /* \"#utility.yul\":18014:18017   */\n      dup10\n        /* \"#utility.yul\":18010:18029   */\n      add\n        /* \"#utility.yul\":18004:18030   */\n      mload\n        /* \"#utility.yul\":18062:18110   */\n      tag_319\n        /* \"#utility.yul\":18104:18108   */\n      0x1f\n        /* \"#utility.yul\":18096:18102   */\n      dup10\n        /* \"#utility.yul\":18092:18109   */\n      and\n        /* \"#utility.yul\":18081:18090   */\n      dup3\n        /* \"#utility.yul\":18062:18110   */\n      tag_134\n      jump\t// in\n    tag_319:\n        /* \"#utility.yul\":18054:18060   */\n      dup4\n        /* \"#utility.yul\":18047:18111   */\n      sstore\n        /* \"#utility.yul\":17969:18125   */\n      pop\n        /* \"#utility.yul\":17946:18125   */\n    tag_318:\n        /* \"#utility.yul\":18171:18172   */\n      0x01\n        /* \"#utility.yul\":18167:18168   */\n      0x02\n        /* \"#utility.yul\":18159:18165   */\n      dup9\n        /* \"#utility.yul\":18155:18169   */\n      mul\n        /* \"#utility.yul\":18151:18173   */\n      add\n        /* \"#utility.yul\":18145:18149   */\n      dup9\n        /* \"#utility.yul\":18138:18174   */\n      sstore\n        /* \"#utility.yul\":17573:18184   */\n      pop\n      pop\n      pop\n        /* \"#utility.yul\":17536:18423   */\n    tag_310:\n      pop\n        /* \"#utility.yul\":17126:18429   */\n      pop\n      pop\n      pop\n        /* \"#utility.yul\":17034:18429   */\n      pop\n      pop\n      jump\t// out\n\n    auxdata: 0xa2646970667358221220db302945c8de7efe658a63a2a17347bc4766d8a575ebc799d179cf4304bf6c1e64736f6c634300081a0033\n}\n",
				"bytecode": {
					"linkReferences": {},
					"object": "6080604052348015600e575f80fd5b506111538061001c5f395ff3fe608060405234801561000f575f80fd5b5060043610610055575f3560e01c806305a1b4a914610059578063203bbbda1461008c578063a8b606d6146100bc578063b8e4f167146100ec578063d665097814610108575b5f80fd5b610073600480360381019061006e91906108bf565b610138565b604051610083949392919061098b565b60405180910390f35b6100a660048036038101906100a191906109d5565b610222565b6040516100b39190610ac6565b60405180910390f35b6100d660048036038101906100d19190610ae6565b61038e565b6040516100e39190610c2c565b60405180910390f35b61010660048036038101906101019190610d78565b61051e565b005b610122600480360381019061011d91906108bf565b610679565b60405161012f9190610ac6565b60405180910390f35b5f602052815f5260405f208181548110610150575f80fd5b905f5260205f2090600402015f9150915050805f015f9054906101000a900473ffffffffffffffffffffffffffffffffffffffff169080600101805461019590610dec565b80601f01602080910402602001604051908101604052809291908181526020018280546101c190610dec565b801561020c5780601f106101e35761010080835404028352916020019161020c565b820191905f5260205f20905b8154815290600101906020018083116101ef57829003601f168201915b5050505050908060020154908060030154905084565b61022a6107e6565b5f803373ffffffffffffffffffffffffffffffffffffffff1673ffffffffffffffffffffffffffffffffffffffff1681526020019081526020015f20828154811061027857610277610e1c565b5b905f5260205f2090600402016040518060800160405290815f82015f9054906101000a900473ffffffffffffffffffffffffffffffffffffffff1673ffffffffffffffffffffffffffffffffffffffff1673ffffffffffffffffffffffffffffffffffffffff1681526020016001820180546102f390610dec565b80601f016020809104026020016040519081016040528092919081815260200182805461031f90610dec565b801561036a5780601f106103415761010080835404028352916020019161036a565b820191905f5260205f20905b81548152906001019060200180831161034d57829003601f168201915b50505050508152602001600282015481526020016003820154815250509050919050565b60605f808373ffffffffffffffffffffffffffffffffffffffff1673ffffffffffffffffffffffffffffffffffffffff1681526020019081526020015f20805480602002602001604051908101604052809291908181526020015f905b82821015610513578382905f5260205f2090600402016040518060800160405290815f82015f9054906101000a900473ffffffffffffffffffffffffffffffffffffffff1673ffffffffffffffffffffffffffffffffffffffff1673ffffffffffffffffffffffffffffffffffffffff16815260200160018201805461047090610dec565b80601f016020809104026020016040519081016040528092919081815260200182805461049c90610dec565b80156104e75780601f106104be576101008083540402835291602001916104e7565b820191905f5260205f20905b8154815290600101906020018083116104ca57829003601f168201915b5050505050815260200160028201548152602001600382015481525050815260200190600101906103eb565b505050509050919050565b61011861ffff1681511115610568576040517f08c379a000000000000000000000000000000000000000000000000000000000815260040161055f90610e93565b60405180910390fd5b5f60405180608001604052803373ffffffffffffffffffffffffffffffffffffffff1681526020018381526020014281526020015f81525090505f803373ffffffffffffffffffffffffffffffffffffffff1673ffffffffffffffffffffffffffffffffffffffff1681526020019081526020015f2081908060018154018082558091505060019003905f5260205f2090600402015f909190919091505f820151815f015f6101000a81548173ffffffffffffffffffffffffffffffffffffffff021916908373ffffffffffffffffffffffffffffffffffffffff160217905550602082015181600101908161065e919061104e565b50604082015181600201556060820151816003015550505050565b6106816107e6565b5f808473ffffffffffffffffffffffffffffffffffffffff1673ffffffffffffffffffffffffffffffffffffffff1681526020019081526020015f2082815481106106cf576106ce610e1c565b5b905f5260205f2090600402016040518060800160405290815f82015f9054906101000a900473ffffffffffffffffffffffffffffffffffffffff1673ffffffffffffffffffffffffffffffffffffffff1673ffffffffffffffffffffffffffffffffffffffff16815260200160018201805461074a90610dec565b80601f016020809104026020016040519081016040528092919081815260200182805461077690610dec565b80156107c15780601f10610798576101008083540402835291602001916107c1565b820191905f5260205f20905b8154815290600101906020018083116107a457829003601f168201915b5050505050815260200160028201548152602001600382015481525050905092915050565b60405180608001604052805f73ffffffffffffffffffffffffffffffffffffffff168152602001606081526020015f81526020015f81525090565b5f604051905090565b5f80fd5b5f80fd5b5f73ffffffffffffffffffffffffffffffffffffffff82169050919050565b5f61085b82610832565b9050919050565b61086b81610851565b8114610875575f80fd5b50565b5f8135905061088681610862565b92915050565b5f819050919050565b61089e8161088c565b81146108a8575f80fd5b50565b5f813590506108b981610895565b92915050565b5f80604083850312156108d5576108d461082a565b5b5f6108e285828601610878565b92505060206108f3858286016108ab565b9150509250929050565b61090681610851565b82525050565b5f81519050919050565b5f82825260208201905092915050565b8281835e5f83830152505050565b5f601f19601f8301169050919050565b5f61094e8261090c565b6109588185610916565b9350610968818560208601610926565b61097181610934565b840191505092915050565b6109858161088c565b82525050565b5f60808201905061099e5f8301876108fd565b81810360208301526109b08186610944565b90506109bf604083018561097c565b6109cc606083018461097c565b95945050505050565b5f602082840312156109ea576109e961082a565b5b5f6109f7848285016108ab565b91505092915050565b610a0981610851565b82525050565b5f82825260208201905092915050565b5f610a298261090c565b610a338185610a0f565b9350610a43818560208601610926565b610a4c81610934565b840191505092915050565b610a608161088c565b82525050565b5f608083015f830151610a7b5f860182610a00565b5060208301518482036020860152610a938282610a1f565b9150506040830151610aa86040860182610a57565b506060830151610abb6060860182610a57565b508091505092915050565b5f6020820190508181035f830152610ade8184610a66565b905092915050565b5f60208284031215610afb57610afa61082a565b5b5f610b0884828501610878565b91505092915050565b5f81519050919050565b5f82825260208201905092915050565b5f819050602082019050919050565b5f608083015f830151610b4f5f860182610a00565b5060208301518482036020860152610b678282610a1f565b9150506040830151610b7c6040860182610a57565b506060830151610b8f6060860182610a57565b508091505092915050565b5f610ba58383610b3a565b905092915050565b5f602082019050919050565b5f610bc382610b11565b610bcd8185610b1b565b935083602082028501610bdf85610b2b565b805f5b85811015610c1a5784840389528151610bfb8582610b9a565b9450610c0683610bad565b925060208a01995050600181019050610be2565b50829750879550505050505092915050565b5f6020820190508181035f830152610c448184610bb9565b905092915050565b5f80fd5b5f80fd5b7f4e487b71000000000000000000000000000000000000000000000000000000005f52604160045260245ffd5b610c8a82610934565b810181811067ffffffffffffffff82111715610ca957610ca8610c54565b5b80604052505050565b5f610cbb610821565b9050610cc78282610c81565b919050565b5f67ffffffffffffffff821115610ce657610ce5610c54565b5b610cef82610934565b9050602081019050919050565b828183375f83830152505050565b5f610d1c610d1784610ccc565b610cb2565b905082815260208101848484011115610d3857610d37610c50565b5b610d43848285610cfc565b509392505050565b5f82601f830112610d5f57610d5e610c4c565b5b8135610d6f848260208601610d0a565b91505092915050565b5f60208284031215610d8d57610d8c61082a565b5b5f82013567ffffffffffffffff811115610daa57610da961082e565b5b610db684828501610d4b565b91505092915050565b7f4e487b71000000000000000000000000000000000000000000000000000000005f52602260045260245ffd5b5f6002820490506001821680610e0357607f821691505b602082108103610e1657610e15610dbf565b5b50919050565b7f4e487b71000000000000000000000000000000000000000000000000000000005f52603260045260245ffd5b7f547765657420746f6f204c6f6e670000000000000000000000000000000000005f82015250565b5f610e7d600e83610916565b9150610e8882610e49565b602082019050919050565b5f6020820190508181035f830152610eaa81610e71565b9050919050565b5f819050815f5260205f209050919050565b5f6020601f8301049050919050565b5f82821b905092915050565b5f60088302610f0d7fffffffffffffffffffffffffffffffffffffffffffffffffffffffffffffffff82610ed2565b610f178683610ed2565b95508019841693508086168417925050509392505050565b5f819050919050565b5f610f52610f4d610f488461088c565b610f2f565b61088c565b9050919050565b5f819050919050565b610f6b83610f38565b610f7f610f7782610f59565b848454610ede565b825550505050565b5f90565b610f93610f87565b610f9e818484610f62565b505050565b5b81811015610fc157610fb65f82610f8b565b600181019050610fa4565b5050565b601f82111561100657610fd781610eb1565b610fe084610ec3565b81016020851015610fef578190505b611003610ffb85610ec3565b830182610fa3565b50505b505050565b5f82821c905092915050565b5f6110265f198460080261100b565b1980831691505092915050565b5f61103e8383611017565b9150826002028217905092915050565b6110578261090c565b67ffffffffffffffff8111156110705761106f610c54565b5b61107a8254610dec565b611085828285610fc5565b5f60209050601f8311600181146110b6575f84156110a4578287015190505b6110ae8582611033565b865550611115565b601f1984166110c486610eb1565b5f5b828110156110eb578489015182556001820191506020850194506020810190506110c6565b868310156111085784890151611104601f891682611017565b8355505b6001600288020188555050505b50505050505056fea2646970667358221220db302945c8de7efe658a63a2a17347bc4766d8a575ebc799d179cf4304bf6c1e64736f6c634300081a0033",
					"opcodes": "PUSH1 0x80 PUSH1 0x40 MSTORE CALLVALUE DUP1 ISZERO PUSH1 0xE JUMPI PUSH0 DUP1 REVERT JUMPDEST POP PUSH2 0x1153 DUP1 PUSH2 0x1C PUSH0 CODECOPY PUSH0 RETURN INVALID PUSH1 0x80 PUSH1 0x40 MSTORE CALLVALUE DUP1 ISZERO PUSH2 0xF JUMPI PUSH0 DUP1 REVERT JUMPDEST POP PUSH1 0x4 CALLDATASIZE LT PUSH2 0x55 JUMPI PUSH0 CALLDATALOAD PUSH1 0xE0 SHR DUP1 PUSH4 0x5A1B4A9 EQ PUSH2 0x59 JUMPI DUP1 PUSH4 0x203BBBDA EQ PUSH2 0x8C JUMPI DUP1 PUSH4 0xA8B606D6 EQ PUSH2 0xBC JUMPI DUP1 PUSH4 0xB8E4F167 EQ PUSH2 0xEC JUMPI DUP1 PUSH4 0xD6650978 EQ PUSH2 0x108 JUMPI JUMPDEST PUSH0 DUP1 REVERT JUMPDEST PUSH2 0x73 PUSH1 0x4 DUP1 CALLDATASIZE SUB DUP2 ADD SWAP1 PUSH2 0x6E SWAP2 SWAP1 PUSH2 0x8BF JUMP JUMPDEST PUSH2 0x138 JUMP JUMPDEST PUSH1 0x40 MLOAD PUSH2 0x83 SWAP5 SWAP4 SWAP3 SWAP2 SWAP1 PUSH2 0x98B JUMP JUMPDEST PUSH1 0x40 MLOAD DUP1 SWAP2 SUB SWAP1 RETURN JUMPDEST PUSH2 0xA6 PUSH1 0x4 DUP1 CALLDATASIZE SUB DUP2 ADD SWAP1 PUSH2 0xA1 SWAP2 SWAP1 PUSH2 0x9D5 JUMP JUMPDEST PUSH2 0x222 JUMP JUMPDEST PUSH1 0x40 MLOAD PUSH2 0xB3 SWAP2 SWAP1 PUSH2 0xAC6 JUMP JUMPDEST PUSH1 0x40 MLOAD DUP1 SWAP2 SUB SWAP1 RETURN JUMPDEST PUSH2 0xD6 PUSH1 0x4 DUP1 CALLDATASIZE SUB DUP2 ADD SWAP1 PUSH2 0xD1 SWAP2 SWAP1 PUSH2 0xAE6 JUMP JUMPDEST PUSH2 0x38E JUMP JUMPDEST PUSH1 0x40 MLOAD PUSH2 0xE3 SWAP2 SWAP1 PUSH2 0xC2C JUMP JUMPDEST PUSH1 0x40 MLOAD DUP1 SWAP2 SUB SWAP1 RETURN JUMPDEST PUSH2 0x106 PUSH1 0x4 DUP1 CALLDATASIZE SUB DUP2 ADD SWAP1 PUSH2 0x101 SWAP2 SWAP1 PUSH2 0xD78 JUMP JUMPDEST PUSH2 0x51E JUMP JUMPDEST STOP JUMPDEST PUSH2 0x122 PUSH1 0x4 DUP1 CALLDATASIZE SUB DUP2 ADD SWAP1 PUSH2 0x11D SWAP2 SWAP1 PUSH2 0x8BF JUMP JUMPDEST PUSH2 0x679 JUMP JUMPDEST PUSH1 0x40 MLOAD PUSH2 0x12F SWAP2 SWAP1 PUSH2 0xAC6 JUMP JUMPDEST PUSH1 0x40 MLOAD DUP1 SWAP2 SUB SWAP1 RETURN JUMPDEST PUSH0 PUSH1 0x20 MSTORE DUP2 PUSH0 MSTORE PUSH1 0x40 PUSH0 KECCAK256 DUP2 DUP2 SLOAD DUP2 LT PUSH2 0x150 JUMPI PUSH0 DUP1 REVERT JUMPDEST SWAP1 PUSH0 MSTORE PUSH1 0x20 PUSH0 KECCAK256 SWAP1 PUSH1 0x4 MUL ADD PUSH0 SWAP2 POP SWAP2 POP POP DUP1 PUSH0 ADD PUSH0 SWAP1 SLOAD SWAP1 PUSH2 0x100 EXP SWAP1 DIV PUSH20 0xFFFFFFFFFFFFFFFFFFFFFFFFFFFFFFFFFFFFFFFF AND SWAP1 DUP1 PUSH1 0x1 ADD DUP1 SLOAD PUSH2 0x195 SWAP1 PUSH2 0xDEC JUMP JUMPDEST DUP1 PUSH1 0x1F ADD PUSH1 0x20 DUP1 SWAP2 DIV MUL PUSH1 0x20 ADD PUSH1 0x40 MLOAD SWAP1 DUP2 ADD PUSH1 0x40 MSTORE DUP1 SWAP3 SWAP2 SWAP1 DUP2 DUP2 MSTORE PUSH1 0x20 ADD DUP3 DUP1 SLOAD PUSH2 0x1C1 SWAP1 PUSH2 0xDEC JUMP JUMPDEST DUP1 ISZERO PUSH2 0x20C JUMPI DUP1 PUSH1 0x1F LT PUSH2 0x1E3 JUMPI PUSH2 0x100 DUP1 DUP4 SLOAD DIV MUL DUP4 MSTORE SWAP2 PUSH1 0x20 ADD SWAP2 PUSH2 0x20C JUMP JUMPDEST DUP3 ADD SWAP2 SWAP1 PUSH0 MSTORE PUSH1 0x20 PUSH0 KECCAK256 SWAP1 JUMPDEST DUP2 SLOAD DUP2 MSTORE SWAP1 PUSH1 0x1 ADD SWAP1 PUSH1 0x20 ADD DUP1 DUP4 GT PUSH2 0x1EF JUMPI DUP3 SWAP1 SUB PUSH1 0x1F AND DUP3 ADD SWAP2 JUMPDEST POP POP POP POP POP SWAP1 DUP1 PUSH1 0x2 ADD SLOAD SWAP1 DUP1 PUSH1 0x3 ADD SLOAD SWAP1 POP DUP5 JUMP JUMPDEST PUSH2 0x22A PUSH2 0x7E6 JUMP JUMPDEST PUSH0 DUP1 CALLER PUSH20 0xFFFFFFFFFFFFFFFFFFFFFFFFFFFFFFFFFFFFFFFF AND PUSH20 0xFFFFFFFFFFFFFFFFFFFFFFFFFFFFFFFFFFFFFFFF AND DUP2 MSTORE PUSH1 0x20 ADD SWAP1 DUP2 MSTORE PUSH1 0x20 ADD PUSH0 KECCAK256 DUP3 DUP2 SLOAD DUP2 LT PUSH2 0x278 JUMPI PUSH2 0x277 PUSH2 0xE1C JUMP JUMPDEST JUMPDEST SWAP1 PUSH0 MSTORE PUSH1 0x20 PUSH0 KECCAK256 SWAP1 PUSH1 0x4 MUL ADD PUSH1 0x40 MLOAD DUP1 PUSH1 0x80 ADD PUSH1 0x40 MSTORE SWAP1 DUP2 PUSH0 DUP3 ADD PUSH0 SWAP1 SLOAD SWAP1 PUSH2 0x100 EXP SWAP1 DIV PUSH20 0xFFFFFFFFFFFFFFFFFFFFFFFFFFFFFFFFFFFFFFFF AND PUSH20 0xFFFFFFFFFFFFFFFFFFFFFFFFFFFFFFFFFFFFFFFF AND PUSH20 0xFFFFFFFFFFFFFFFFFFFFFFFFFFFFFFFFFFFFFFFF AND DUP2 MSTORE PUSH1 0x20 ADD PUSH1 0x1 DUP3 ADD DUP1 SLOAD PUSH2 0x2F3 SWAP1 PUSH2 0xDEC JUMP JUMPDEST DUP1 PUSH1 0x1F ADD PUSH1 0x20 DUP1 SWAP2 DIV MUL PUSH1 0x20 ADD PUSH1 0x40 MLOAD SWAP1 DUP2 ADD PUSH1 0x40 MSTORE DUP1 SWAP3 SWAP2 SWAP1 DUP2 DUP2 MSTORE PUSH1 0x20 ADD DUP3 DUP1 SLOAD PUSH2 0x31F SWAP1 PUSH2 0xDEC JUMP JUMPDEST DUP1 ISZERO PUSH2 0x36A JUMPI DUP1 PUSH1 0x1F LT PUSH2 0x341 JUMPI PUSH2 0x100 DUP1 DUP4 SLOAD DIV MUL DUP4 MSTORE SWAP2 PUSH1 0x20 ADD SWAP2 PUSH2 0x36A JUMP JUMPDEST DUP3 ADD SWAP2 SWAP1 PUSH0 MSTORE PUSH1 0x20 PUSH0 KECCAK256 SWAP1 JUMPDEST DUP2 SLOAD DUP2 MSTORE SWAP1 PUSH1 0x1 ADD SWAP1 PUSH1 0x20 ADD DUP1 DUP4 GT PUSH2 0x34D JUMPI DUP3 SWAP1 SUB PUSH1 0x1F AND DUP3 ADD SWAP2 JUMPDEST POP POP POP POP POP DUP2 MSTORE PUSH1 0x20 ADD PUSH1 0x2 DUP3 ADD SLOAD DUP2 MSTORE PUSH1 0x20 ADD PUSH1 0x3 DUP3 ADD SLOAD DUP2 MSTORE POP POP SWAP1 POP SWAP2 SWAP1 POP JUMP JUMPDEST PUSH1 0x60 PUSH0 DUP1 DUP4 PUSH20 0xFFFFFFFFFFFFFFFFFFFFFFFFFFFFFFFFFFFFFFFF AND PUSH20 0xFFFFFFFFFFFFFFFFFFFFFFFFFFFFFFFFFFFFFFFF AND DUP2 MSTORE PUSH1 0x20 ADD SWAP1 DUP2 MSTORE PUSH1 0x20 ADD PUSH0 KECCAK256 DUP1 SLOAD DUP1 PUSH1 0x20 MUL PUSH1 0x20 ADD PUSH1 0x40 MLOAD SWAP1 DUP2 ADD PUSH1 0x40 MSTORE DUP1 SWAP3 SWAP2 SWAP1 DUP2 DUP2 MSTORE PUSH1 0x20 ADD PUSH0 SWAP1 JUMPDEST DUP3 DUP3 LT ISZERO PUSH2 0x513 JUMPI DUP4 DUP3 SWAP1 PUSH0 MSTORE PUSH1 0x20 PUSH0 KECCAK256 SWAP1 PUSH1 0x4 MUL ADD PUSH1 0x40 MLOAD DUP1 PUSH1 0x80 ADD PUSH1 0x40 MSTORE SWAP1 DUP2 PUSH0 DUP3 ADD PUSH0 SWAP1 SLOAD SWAP1 PUSH2 0x100 EXP SWAP1 DIV PUSH20 0xFFFFFFFFFFFFFFFFFFFFFFFFFFFFFFFFFFFFFFFF AND PUSH20 0xFFFFFFFFFFFFFFFFFFFFFFFFFFFFFFFFFFFFFFFF AND PUSH20 0xFFFFFFFFFFFFFFFFFFFFFFFFFFFFFFFFFFFFFFFF AND DUP2 MSTORE PUSH1 0x20 ADD PUSH1 0x1 DUP3 ADD DUP1 SLOAD PUSH2 0x470 SWAP1 PUSH2 0xDEC JUMP JUMPDEST DUP1 PUSH1 0x1F ADD PUSH1 0x20 DUP1 SWAP2 DIV MUL PUSH1 0x20 ADD PUSH1 0x40 MLOAD SWAP1 DUP2 ADD PUSH1 0x40 MSTORE DUP1 SWAP3 SWAP2 SWAP1 DUP2 DUP2 MSTORE PUSH1 0x20 ADD DUP3 DUP1 SLOAD PUSH2 0x49C SWAP1 PUSH2 0xDEC JUMP JUMPDEST DUP1 ISZERO PUSH2 0x4E7 JUMPI DUP1 PUSH1 0x1F LT PUSH2 0x4BE JUMPI PUSH2 0x100 DUP1 DUP4 SLOAD DIV MUL DUP4 MSTORE SWAP2 PUSH1 0x20 ADD SWAP2 PUSH2 0x4E7 JUMP JUMPDEST DUP3 ADD SWAP2 SWAP1 PUSH0 MSTORE PUSH1 0x20 PUSH0 KECCAK256 SWAP1 JUMPDEST DUP2 SLOAD DUP2 MSTORE SWAP1 PUSH1 0x1 ADD SWAP1 PUSH1 0x20 ADD DUP1 DUP4 GT PUSH2 0x4CA JUMPI DUP3 SWAP1 SUB PUSH1 0x1F AND DUP3 ADD SWAP2 JUMPDEST POP POP POP POP POP DUP2 MSTORE PUSH1 0x20 ADD PUSH1 0x2 DUP3 ADD SLOAD DUP2 MSTORE PUSH1 0x20 ADD PUSH1 0x3 DUP3 ADD SLOAD DUP2 MSTORE POP POP DUP2 MSTORE PUSH1 0x20 ADD SWAP1 PUSH1 0x1 ADD SWAP1 PUSH2 0x3EB JUMP JUMPDEST POP POP POP POP SWAP1 POP SWAP2 SWAP1 POP JUMP JUMPDEST PUSH2 0x118 PUSH2 0xFFFF AND DUP2 MLOAD GT ISZERO PUSH2 0x568 JUMPI PUSH1 0x40 MLOAD PUSH32 0x8C379A000000000000000000000000000000000000000000000000000000000 DUP2 MSTORE PUSH1 0x4 ADD PUSH2 0x55F SWAP1 PUSH2 0xE93 JUMP JUMPDEST PUSH1 0x40 MLOAD DUP1 SWAP2 SUB SWAP1 REVERT JUMPDEST PUSH0 PUSH1 0x40 MLOAD DUP1 PUSH1 0x80 ADD PUSH1 0x40 MSTORE DUP1 CALLER PUSH20 0xFFFFFFFFFFFFFFFFFFFFFFFFFFFFFFFFFFFFFFFF AND DUP2 MSTORE PUSH1 0x20 ADD DUP4 DUP2 MSTORE PUSH1 0x20 ADD TIMESTAMP DUP2 MSTORE PUSH1 0x20 ADD PUSH0 DUP2 MSTORE POP SWAP1 POP PUSH0 DUP1 CALLER PUSH20 0xFFFFFFFFFFFFFFFFFFFFFFFFFFFFFFFFFFFFFFFF AND PUSH20 0xFFFFFFFFFFFFFFFFFFFFFFFFFFFFFFFFFFFFFFFF AND DUP2 MSTORE PUSH1 0x20 ADD SWAP1 DUP2 MSTORE PUSH1 0x20 ADD PUSH0 KECCAK256 DUP2 SWAP1 DUP1 PUSH1 0x1 DUP2 SLOAD ADD DUP1 DUP3 SSTORE DUP1 SWAP2 POP POP PUSH1 0x1 SWAP1 SUB SWAP1 PUSH0 MSTORE PUSH1 0x20 PUSH0 KECCAK256 SWAP1 PUSH1 0x4 MUL ADD PUSH0 SWAP1 SWAP2 SWAP1 SWAP2 SWAP1 SWAP2 POP PUSH0 DUP3 ADD MLOAD DUP2 PUSH0 ADD PUSH0 PUSH2 0x100 EXP DUP2 SLOAD DUP2 PUSH20 0xFFFFFFFFFFFFFFFFFFFFFFFFFFFFFFFFFFFFFFFF MUL NOT AND SWAP1 DUP4 PUSH20 0xFFFFFFFFFFFFFFFFFFFFFFFFFFFFFFFFFFFFFFFF AND MUL OR SWAP1 SSTORE POP PUSH1 0x20 DUP3 ADD MLOAD DUP2 PUSH1 0x1 ADD SWAP1 DUP2 PUSH2 0x65E SWAP2 SWAP1 PUSH2 0x104E JUMP JUMPDEST POP PUSH1 0x40 DUP3 ADD MLOAD DUP2 PUSH1 0x2 ADD SSTORE PUSH1 0x60 DUP3 ADD MLOAD DUP2 PUSH1 0x3 ADD SSTORE POP POP POP POP JUMP JUMPDEST PUSH2 0x681 PUSH2 0x7E6 JUMP JUMPDEST PUSH0 DUP1 DUP5 PUSH20 0xFFFFFFFFFFFFFFFFFFFFFFFFFFFFFFFFFFFFFFFF AND PUSH20 0xFFFFFFFFFFFFFFFFFFFFFFFFFFFFFFFFFFFFFFFF AND DUP2 MSTORE PUSH1 0x20 ADD SWAP1 DUP2 MSTORE PUSH1 0x20 ADD PUSH0 KECCAK256 DUP3 DUP2 SLOAD DUP2 LT PUSH2 0x6CF JUMPI PUSH2 0x6CE PUSH2 0xE1C JUMP JUMPDEST JUMPDEST SWAP1 PUSH0 MSTORE PUSH1 0x20 PUSH0 KECCAK256 SWAP1 PUSH1 0x4 MUL ADD PUSH1 0x40 MLOAD DUP1 PUSH1 0x80 ADD PUSH1 0x40 MSTORE SWAP1 DUP2 PUSH0 DUP3 ADD PUSH0 SWAP1 SLOAD SWAP1 PUSH2 0x100 EXP SWAP1 DIV PUSH20 0xFFFFFFFFFFFFFFFFFFFFFFFFFFFFFFFFFFFFFFFF AND PUSH20 0xFFFFFFFFFFFFFFFFFFFFFFFFFFFFFFFFFFFFFFFF AND PUSH20 0xFFFFFFFFFFFFFFFFFFFFFFFFFFFFFFFFFFFFFFFF AND DUP2 MSTORE PUSH1 0x20 ADD PUSH1 0x1 DUP3 ADD DUP1 SLOAD PUSH2 0x74A SWAP1 PUSH2 0xDEC JUMP JUMPDEST DUP1 PUSH1 0x1F ADD PUSH1 0x20 DUP1 SWAP2 DIV MUL PUSH1 0x20 ADD PUSH1 0x40 MLOAD SWAP1 DUP2 ADD PUSH1 0x40 MSTORE DUP1 SWAP3 SWAP2 SWAP1 DUP2 DUP2 MSTORE PUSH1 0x20 ADD DUP3 DUP1 SLOAD PUSH2 0x776 SWAP1 PUSH2 0xDEC JUMP JUMPDEST DUP1 ISZERO PUSH2 0x7C1 JUMPI DUP1 PUSH1 0x1F LT PUSH2 0x798 JUMPI PUSH2 0x100 DUP1 DUP4 SLOAD DIV MUL DUP4 MSTORE SWAP2 PUSH1 0x20 ADD SWAP2 PUSH2 0x7C1 JUMP JUMPDEST DUP3 ADD SWAP2 SWAP1 PUSH0 MSTORE PUSH1 0x20 PUSH0 KECCAK256 SWAP1 JUMPDEST DUP2 SLOAD DUP2 MSTORE SWAP1 PUSH1 0x1 ADD SWAP1 PUSH1 0x20 ADD DUP1 DUP4 GT PUSH2 0x7A4 JUMPI DUP3 SWAP1 SUB PUSH1 0x1F AND DUP3 ADD SWAP2 JUMPDEST POP POP POP POP POP DUP2 MSTORE PUSH1 0x20 ADD PUSH1 0x2 DUP3 ADD SLOAD DUP2 MSTORE PUSH1 0x20 ADD PUSH1 0x3 DUP3 ADD SLOAD DUP2 MSTORE POP POP SWAP1 POP SWAP3 SWAP2 POP POP JUMP JUMPDEST PUSH1 0x40 MLOAD DUP1 PUSH1 0x80 ADD PUSH1 0x40 MSTORE DUP1 PUSH0 PUSH20 0xFFFFFFFFFFFFFFFFFFFFFFFFFFFFFFFFFFFFFFFF AND DUP2 MSTORE PUSH1 0x20 ADD PUSH1 0x60 DUP2 MSTORE PUSH1 0x20 ADD PUSH0 DUP2 MSTORE PUSH1 0x20 ADD PUSH0 DUP2 MSTORE POP SWAP1 JUMP JUMPDEST PUSH0 PUSH1 0x40 MLOAD SWAP1 POP SWAP1 JUMP JUMPDEST PUSH0 DUP1 REVERT JUMPDEST PUSH0 DUP1 REVERT JUMPDEST PUSH0 PUSH20 0xFFFFFFFFFFFFFFFFFFFFFFFFFFFFFFFFFFFFFFFF DUP3 AND SWAP1 POP SWAP2 SWAP1 POP JUMP JUMPDEST PUSH0 PUSH2 0x85B DUP3 PUSH2 0x832 JUMP JUMPDEST SWAP1 POP SWAP2 SWAP1 POP JUMP JUMPDEST PUSH2 0x86B DUP2 PUSH2 0x851 JUMP JUMPDEST DUP2 EQ PUSH2 0x875 JUMPI PUSH0 DUP1 REVERT JUMPDEST POP JUMP JUMPDEST PUSH0 DUP2 CALLDATALOAD SWAP1 POP PUSH2 0x886 DUP2 PUSH2 0x862 JUMP JUMPDEST SWAP3 SWAP2 POP POP JUMP JUMPDEST PUSH0 DUP2 SWAP1 POP SWAP2 SWAP1 POP JUMP JUMPDEST PUSH2 0x89E DUP2 PUSH2 0x88C JUMP JUMPDEST DUP2 EQ PUSH2 0x8A8 JUMPI PUSH0 DUP1 REVERT JUMPDEST POP JUMP JUMPDEST PUSH0 DUP2 CALLDATALOAD SWAP1 POP PUSH2 0x8B9 DUP2 PUSH2 0x895 JUMP JUMPDEST SWAP3 SWAP2 POP POP JUMP JUMPDEST PUSH0 DUP1 PUSH1 0x40 DUP4 DUP6 SUB SLT ISZERO PUSH2 0x8D5 JUMPI PUSH2 0x8D4 PUSH2 0x82A JUMP JUMPDEST JUMPDEST PUSH0 PUSH2 0x8E2 DUP6 DUP3 DUP7 ADD PUSH2 0x878 JUMP JUMPDEST SWAP3 POP POP PUSH1 0x20 PUSH2 0x8F3 DUP6 DUP3 DUP7 ADD PUSH2 0x8AB JUMP JUMPDEST SWAP2 POP POP SWAP3 POP SWAP3 SWAP1 POP JUMP JUMPDEST PUSH2 0x906 DUP2 PUSH2 0x851 JUMP JUMPDEST DUP3 MSTORE POP POP JUMP JUMPDEST PUSH0 DUP2 MLOAD SWAP1 POP SWAP2 SWAP1 POP JUMP JUMPDEST PUSH0 DUP3 DUP3 MSTORE PUSH1 0x20 DUP3 ADD SWAP1 POP SWAP3 SWAP2 POP POP JUMP JUMPDEST DUP3 DUP2 DUP4 MCOPY PUSH0 DUP4 DUP4 ADD MSTORE POP POP POP JUMP JUMPDEST PUSH0 PUSH1 0x1F NOT PUSH1 0x1F DUP4 ADD AND SWAP1 POP SWAP2 SWAP1 POP JUMP JUMPDEST PUSH0 PUSH2 0x94E DUP3 PUSH2 0x90C JUMP JUMPDEST PUSH2 0x958 DUP2 DUP6 PUSH2 0x916 JUMP JUMPDEST SWAP4 POP PUSH2 0x968 DUP2 DUP6 PUSH1 0x20 DUP7 ADD PUSH2 0x926 JUMP JUMPDEST PUSH2 0x971 DUP2 PUSH2 0x934 JUMP JUMPDEST DUP5 ADD SWAP2 POP POP SWAP3 SWAP2 POP POP JUMP JUMPDEST PUSH2 0x985 DUP2 PUSH2 0x88C JUMP JUMPDEST DUP3 MSTORE POP POP JUMP JUMPDEST PUSH0 PUSH1 0x80 DUP3 ADD SWAP1 POP PUSH2 0x99E PUSH0 DUP4 ADD DUP8 PUSH2 0x8FD JUMP JUMPDEST DUP2 DUP2 SUB PUSH1 0x20 DUP4 ADD MSTORE PUSH2 0x9B0 DUP2 DUP7 PUSH2 0x944 JUMP JUMPDEST SWAP1 POP PUSH2 0x9BF PUSH1 0x40 DUP4 ADD DUP6 PUSH2 0x97C JUMP JUMPDEST PUSH2 0x9CC PUSH1 0x60 DUP4 ADD DUP5 PUSH2 0x97C JUMP JUMPDEST SWAP6 SWAP5 POP POP POP POP POP JUMP JUMPDEST PUSH0 PUSH1 0x20 DUP3 DUP5 SUB SLT ISZERO PUSH2 0x9EA JUMPI PUSH2 0x9E9 PUSH2 0x82A JUMP JUMPDEST JUMPDEST PUSH0 PUSH2 0x9F7 DUP5 DUP3 DUP6 ADD PUSH2 0x8AB JUMP JUMPDEST SWAP2 POP POP SWAP3 SWAP2 POP POP JUMP JUMPDEST PUSH2 0xA09 DUP2 PUSH2 0x851 JUMP JUMPDEST DUP3 MSTORE POP POP JUMP JUMPDEST PUSH0 DUP3 DUP3 MSTORE PUSH1 0x20 DUP3 ADD SWAP1 POP SWAP3 SWAP2 POP POP JUMP JUMPDEST PUSH0 PUSH2 0xA29 DUP3 PUSH2 0x90C JUMP JUMPDEST PUSH2 0xA33 DUP2 DUP6 PUSH2 0xA0F JUMP JUMPDEST SWAP4 POP PUSH2 0xA43 DUP2 DUP6 PUSH1 0x20 DUP7 ADD PUSH2 0x926 JUMP JUMPDEST PUSH2 0xA4C DUP2 PUSH2 0x934 JUMP JUMPDEST DUP5 ADD SWAP2 POP POP SWAP3 SWAP2 POP POP JUMP JUMPDEST PUSH2 0xA60 DUP2 PUSH2 0x88C JUMP JUMPDEST DUP3 MSTORE POP POP JUMP JUMPDEST PUSH0 PUSH1 0x80 DUP4 ADD PUSH0 DUP4 ADD MLOAD PUSH2 0xA7B PUSH0 DUP7 ADD DUP3 PUSH2 0xA00 JUMP JUMPDEST POP PUSH1 0x20 DUP4 ADD MLOAD DUP5 DUP3 SUB PUSH1 0x20 DUP7 ADD MSTORE PUSH2 0xA93 DUP3 DUP3 PUSH2 0xA1F JUMP JUMPDEST SWAP2 POP POP PUSH1 0x40 DUP4 ADD MLOAD PUSH2 0xAA8 PUSH1 0x40 DUP7 ADD DUP3 PUSH2 0xA57 JUMP JUMPDEST POP PUSH1 0x60 DUP4 ADD MLOAD PUSH2 0xABB PUSH1 0x60 DUP7 ADD DUP3 PUSH2 0xA57 JUMP JUMPDEST POP DUP1 SWAP2 POP POP SWAP3 SWAP2 POP POP JUMP JUMPDEST PUSH0 PUSH1 0x20 DUP3 ADD SWAP1 POP DUP2 DUP2 SUB PUSH0 DUP4 ADD MSTORE PUSH2 0xADE DUP2 DUP5 PUSH2 0xA66 JUMP JUMPDEST SWAP1 POP SWAP3 SWAP2 POP POP JUMP JUMPDEST PUSH0 PUSH1 0x20 DUP3 DUP5 SUB SLT ISZERO PUSH2 0xAFB JUMPI PUSH2 0xAFA PUSH2 0x82A JUMP JUMPDEST JUMPDEST PUSH0 PUSH2 0xB08 DUP5 DUP3 DUP6 ADD PUSH2 0x878 JUMP JUMPDEST SWAP2 POP POP SWAP3 SWAP2 POP POP JUMP JUMPDEST PUSH0 DUP2 MLOAD SWAP1 POP SWAP2 SWAP1 POP JUMP JUMPDEST PUSH0 DUP3 DUP3 MSTORE PUSH1 0x20 DUP3 ADD SWAP1 POP SWAP3 SWAP2 POP POP JUMP JUMPDEST PUSH0 DUP2 SWAP1 POP PUSH1 0x20 DUP3 ADD SWAP1 POP SWAP2 SWAP1 POP JUMP JUMPDEST PUSH0 PUSH1 0x80 DUP4 ADD PUSH0 DUP4 ADD MLOAD PUSH2 0xB4F PUSH0 DUP7 ADD DUP3 PUSH2 0xA00 JUMP JUMPDEST POP PUSH1 0x20 DUP4 ADD MLOAD DUP5 DUP3 SUB PUSH1 0x20 DUP7 ADD MSTORE PUSH2 0xB67 DUP3 DUP3 PUSH2 0xA1F JUMP JUMPDEST SWAP2 POP POP PUSH1 0x40 DUP4 ADD MLOAD PUSH2 0xB7C PUSH1 0x40 DUP7 ADD DUP3 PUSH2 0xA57 JUMP JUMPDEST POP PUSH1 0x60 DUP4 ADD MLOAD PUSH2 0xB8F PUSH1 0x60 DUP7 ADD DUP3 PUSH2 0xA57 JUMP JUMPDEST POP DUP1 SWAP2 POP POP SWAP3 SWAP2 POP POP JUMP JUMPDEST PUSH0 PUSH2 0xBA5 DUP4 DUP4 PUSH2 0xB3A JUMP JUMPDEST SWAP1 POP SWAP3 SWAP2 POP POP JUMP JUMPDEST PUSH0 PUSH1 0x20 DUP3 ADD SWAP1 POP SWAP2 SWAP1 POP JUMP JUMPDEST PUSH0 PUSH2 0xBC3 DUP3 PUSH2 0xB11 JUMP JUMPDEST PUSH2 0xBCD DUP2 DUP6 PUSH2 0xB1B JUMP JUMPDEST SWAP4 POP DUP4 PUSH1 0x20 DUP3 MUL DUP6 ADD PUSH2 0xBDF DUP6 PUSH2 0xB2B JUMP JUMPDEST DUP1 PUSH0 JUMPDEST DUP6 DUP2 LT ISZERO PUSH2 0xC1A JUMPI DUP5 DUP5 SUB DUP10 MSTORE DUP2 MLOAD PUSH2 0xBFB DUP6 DUP3 PUSH2 0xB9A JUMP JUMPDEST SWAP5 POP PUSH2 0xC06 DUP4 PUSH2 0xBAD JUMP JUMPDEST SWAP3 POP PUSH1 0x20 DUP11 ADD SWAP10 POP POP PUSH1 0x1 DUP2 ADD SWAP1 POP PUSH2 0xBE2 JUMP JUMPDEST POP DUP3 SWAP8 POP DUP8 SWAP6 POP POP POP POP POP POP SWAP3 SWAP2 POP POP JUMP JUMPDEST PUSH0 PUSH1 0x20 DUP3 ADD SWAP1 POP DUP2 DUP2 SUB PUSH0 DUP4 ADD MSTORE PUSH2 0xC44 DUP2 DUP5 PUSH2 0xBB9 JUMP JUMPDEST SWAP1 POP SWAP3 SWAP2 POP POP JUMP JUMPDEST PUSH0 DUP1 REVERT JUMPDEST PUSH0 DUP1 REVERT JUMPDEST PUSH32 0x4E487B7100000000000000000000000000000000000000000000000000000000 PUSH0 MSTORE PUSH1 0x41 PUSH1 0x4 MSTORE PUSH1 0x24 PUSH0 REVERT JUMPDEST PUSH2 0xC8A DUP3 PUSH2 0x934 JUMP JUMPDEST DUP2 ADD DUP2 DUP2 LT PUSH8 0xFFFFFFFFFFFFFFFF DUP3 GT OR ISZERO PUSH2 0xCA9 JUMPI PUSH2 0xCA8 PUSH2 0xC54 JUMP JUMPDEST JUMPDEST DUP1 PUSH1 0x40 MSTORE POP POP POP JUMP JUMPDEST PUSH0 PUSH2 0xCBB PUSH2 0x821 JUMP JUMPDEST SWAP1 POP PUSH2 0xCC7 DUP3 DUP3 PUSH2 0xC81 JUMP JUMPDEST SWAP2 SWAP1 POP JUMP JUMPDEST PUSH0 PUSH8 0xFFFFFFFFFFFFFFFF DUP3 GT ISZERO PUSH2 0xCE6 JUMPI PUSH2 0xCE5 PUSH2 0xC54 JUMP JUMPDEST JUMPDEST PUSH2 0xCEF DUP3 PUSH2 0x934 JUMP JUMPDEST SWAP1 POP PUSH1 0x20 DUP2 ADD SWAP1 POP SWAP2 SWAP1 POP JUMP JUMPDEST DUP3 DUP2 DUP4 CALLDATACOPY PUSH0 DUP4 DUP4 ADD MSTORE POP POP POP JUMP JUMPDEST PUSH0 PUSH2 0xD1C PUSH2 0xD17 DUP5 PUSH2 0xCCC JUMP JUMPDEST PUSH2 0xCB2 JUMP JUMPDEST SWAP1 POP DUP3 DUP2 MSTORE PUSH1 0x20 DUP2 ADD DUP5 DUP5 DUP5 ADD GT ISZERO PUSH2 0xD38 JUMPI PUSH2 0xD37 PUSH2 0xC50 JUMP JUMPDEST JUMPDEST PUSH2 0xD43 DUP5 DUP3 DUP6 PUSH2 0xCFC JUMP JUMPDEST POP SWAP4 SWAP3 POP POP POP JUMP JUMPDEST PUSH0 DUP3 PUSH1 0x1F DUP4 ADD SLT PUSH2 0xD5F JUMPI PUSH2 0xD5E PUSH2 0xC4C JUMP JUMPDEST JUMPDEST DUP2 CALLDATALOAD PUSH2 0xD6F DUP5 DUP3 PUSH1 0x20 DUP7 ADD PUSH2 0xD0A JUMP JUMPDEST SWAP2 POP POP SWAP3 SWAP2 POP POP JUMP JUMPDEST PUSH0 PUSH1 0x20 DUP3 DUP5 SUB SLT ISZERO PUSH2 0xD8D JUMPI PUSH2 0xD8C PUSH2 0x82A JUMP JUMPDEST JUMPDEST PUSH0 DUP3 ADD CALLDATALOAD PUSH8 0xFFFFFFFFFFFFFFFF DUP2 GT ISZERO PUSH2 0xDAA JUMPI PUSH2 0xDA9 PUSH2 0x82E JUMP JUMPDEST JUMPDEST PUSH2 0xDB6 DUP5 DUP3 DUP6 ADD PUSH2 0xD4B JUMP JUMPDEST SWAP2 POP POP SWAP3 SWAP2 POP POP JUMP JUMPDEST PUSH32 0x4E487B7100000000000000000000000000000000000000000000000000000000 PUSH0 MSTORE PUSH1 0x22 PUSH1 0x4 MSTORE PUSH1 0x24 PUSH0 REVERT JUMPDEST PUSH0 PUSH1 0x2 DUP3 DIV SWAP1 POP PUSH1 0x1 DUP3 AND DUP1 PUSH2 0xE03 JUMPI PUSH1 0x7F DUP3 AND SWAP2 POP JUMPDEST PUSH1 0x20 DUP3 LT DUP2 SUB PUSH2 0xE16 JUMPI PUSH2 0xE15 PUSH2 0xDBF JUMP JUMPDEST JUMPDEST POP SWAP2 SWAP1 POP JUMP JUMPDEST PUSH32 0x4E487B7100000000000000000000000000000000000000000000000000000000 PUSH0 MSTORE PUSH1 0x32 PUSH1 0x4 MSTORE PUSH1 0x24 PUSH0 REVERT JUMPDEST PUSH32 0x547765657420746F6F204C6F6E67000000000000000000000000000000000000 PUSH0 DUP3 ADD MSTORE POP JUMP JUMPDEST PUSH0 PUSH2 0xE7D PUSH1 0xE DUP4 PUSH2 0x916 JUMP JUMPDEST SWAP2 POP PUSH2 0xE88 DUP3 PUSH2 0xE49 JUMP JUMPDEST PUSH1 0x20 DUP3 ADD SWAP1 POP SWAP2 SWAP1 POP JUMP JUMPDEST PUSH0 PUSH1 0x20 DUP3 ADD SWAP1 POP DUP2 DUP2 SUB PUSH0 DUP4 ADD MSTORE PUSH2 0xEAA DUP2 PUSH2 0xE71 JUMP JUMPDEST SWAP1 POP SWAP2 SWAP1 POP JUMP JUMPDEST PUSH0 DUP2 SWAP1 POP DUP2 PUSH0 MSTORE PUSH1 0x20 PUSH0 KECCAK256 SWAP1 POP SWAP2 SWAP1 POP JUMP JUMPDEST PUSH0 PUSH1 0x20 PUSH1 0x1F DUP4 ADD DIV SWAP1 POP SWAP2 SWAP1 POP JUMP JUMPDEST PUSH0 DUP3 DUP3 SHL SWAP1 POP SWAP3 SWAP2 POP POP JUMP JUMPDEST PUSH0 PUSH1 0x8 DUP4 MUL PUSH2 0xF0D PUSH32 0xFFFFFFFFFFFFFFFFFFFFFFFFFFFFFFFFFFFFFFFFFFFFFFFFFFFFFFFFFFFFFFFF DUP3 PUSH2 0xED2 JUMP JUMPDEST PUSH2 0xF17 DUP7 DUP4 PUSH2 0xED2 JUMP JUMPDEST SWAP6 POP DUP1 NOT DUP5 AND SWAP4 POP DUP1 DUP7 AND DUP5 OR SWAP3 POP POP POP SWAP4 SWAP3 POP POP POP JUMP JUMPDEST PUSH0 DUP2 SWAP1 POP SWAP2 SWAP1 POP JUMP JUMPDEST PUSH0 PUSH2 0xF52 PUSH2 0xF4D PUSH2 0xF48 DUP5 PUSH2 0x88C JUMP JUMPDEST PUSH2 0xF2F JUMP JUMPDEST PUSH2 0x88C JUMP JUMPDEST SWAP1 POP SWAP2 SWAP1 POP JUMP JUMPDEST PUSH0 DUP2 SWAP1 POP SWAP2 SWAP1 POP JUMP JUMPDEST PUSH2 0xF6B DUP4 PUSH2 0xF38 JUMP JUMPDEST PUSH2 0xF7F PUSH2 0xF77 DUP3 PUSH2 0xF59 JUMP JUMPDEST DUP5 DUP5 SLOAD PUSH2 0xEDE JUMP JUMPDEST DUP3 SSTORE POP POP POP POP JUMP JUMPDEST PUSH0 SWAP1 JUMP JUMPDEST PUSH2 0xF93 PUSH2 0xF87 JUMP JUMPDEST PUSH2 0xF9E DUP2 DUP5 DUP5 PUSH2 0xF62 JUMP JUMPDEST POP POP POP JUMP JUMPDEST JUMPDEST DUP2 DUP2 LT ISZERO PUSH2 0xFC1 JUMPI PUSH2 0xFB6 PUSH0 DUP3 PUSH2 0xF8B JUMP JUMPDEST PUSH1 0x1 DUP2 ADD SWAP1 POP PUSH2 0xFA4 JUMP JUMPDEST POP POP JUMP JUMPDEST PUSH1 0x1F DUP3 GT ISZERO PUSH2 0x1006 JUMPI PUSH2 0xFD7 DUP2 PUSH2 0xEB1 JUMP JUMPDEST PUSH2 0xFE0 DUP5 PUSH2 0xEC3 JUMP JUMPDEST DUP2 ADD PUSH1 0x20 DUP6 LT ISZERO PUSH2 0xFEF JUMPI DUP2 SWAP1 POP JUMPDEST PUSH2 0x1003 PUSH2 0xFFB DUP6 PUSH2 0xEC3 JUMP JUMPDEST DUP4 ADD DUP3 PUSH2 0xFA3 JUMP JUMPDEST POP POP JUMPDEST POP POP POP JUMP JUMPDEST PUSH0 DUP3 DUP3 SHR SWAP1 POP SWAP3 SWAP2 POP POP JUMP JUMPDEST PUSH0 PUSH2 0x1026 PUSH0 NOT DUP5 PUSH1 0x8 MUL PUSH2 0x100B JUMP JUMPDEST NOT DUP1 DUP4 AND SWAP2 POP POP SWAP3 SWAP2 POP POP JUMP JUMPDEST PUSH0 PUSH2 0x103E DUP4 DUP4 PUSH2 0x1017 JUMP JUMPDEST SWAP2 POP DUP3 PUSH1 0x2 MUL DUP3 OR SWAP1 POP SWAP3 SWAP2 POP POP JUMP JUMPDEST PUSH2 0x1057 DUP3 PUSH2 0x90C JUMP JUMPDEST PUSH8 0xFFFFFFFFFFFFFFFF DUP2 GT ISZERO PUSH2 0x1070 JUMPI PUSH2 0x106F PUSH2 0xC54 JUMP JUMPDEST JUMPDEST PUSH2 0x107A DUP3 SLOAD PUSH2 0xDEC JUMP JUMPDEST PUSH2 0x1085 DUP3 DUP3 DUP6 PUSH2 0xFC5 JUMP JUMPDEST PUSH0 PUSH1 0x20 SWAP1 POP PUSH1 0x1F DUP4 GT PUSH1 0x1 DUP2 EQ PUSH2 0x10B6 JUMPI PUSH0 DUP5 ISZERO PUSH2 0x10A4 JUMPI DUP3 DUP8 ADD MLOAD SWAP1 POP JUMPDEST PUSH2 0x10AE DUP6 DUP3 PUSH2 0x1033 JUMP JUMPDEST DUP7 SSTORE POP PUSH2 0x1115 JUMP JUMPDEST PUSH1 0x1F NOT DUP5 AND PUSH2 0x10C4 DUP7 PUSH2 0xEB1 JUMP JUMPDEST PUSH0 JUMPDEST DUP3 DUP2 LT ISZERO PUSH2 0x10EB JUMPI DUP5 DUP10 ADD MLOAD DUP3 SSTORE PUSH1 0x1 DUP3 ADD SWAP2 POP PUSH1 0x20 DUP6 ADD SWAP5 POP PUSH1 0x20 DUP2 ADD SWAP1 POP PUSH2 0x10C6 JUMP JUMPDEST DUP7 DUP4 LT ISZERO PUSH2 0x1108 JUMPI DUP5 DUP10 ADD MLOAD PUSH2 0x1104 PUSH1 0x1F DUP10 AND DUP3 PUSH2 0x1017 JUMP JUMPDEST DUP4 SSTORE POP JUMPDEST PUSH1 0x1 PUSH1 0x2 DUP9 MUL ADD DUP9 SSTORE POP POP POP JUMPDEST POP POP POP POP POP POP JUMP INVALID LOG2 PUSH5 0x6970667358 0x22 SLT KECCAK256 0xDB ADDRESS 0x29 GASLIMIT 0xC8 0xDE PUSH31 0xFE658A63A2A17347BC4766D8A575EBC799D179CF4304BF6C1E64736F6C6343 STOP ADDMOD BYTE STOP CALLER "
				},
				"gasEstimates": {
					"creation": {
						"codeDepositCost": "887000",
						"executionCost": "920",
						"totalCost": "887920"
					},
					"external": {
						"createtweet(string)": "infinite",
						"getalltweet(address)": "infinite",
						"gettweet(address,uint256)": "infinite",
						"gettweet2(uint256)": "infinite",
						"tweets(address,uint256)": "infinite"
					}
				},
				"methodIdentifiers": {
					"createtweet(string)": "b8e4f167",
					"getalltweet(address)": "a8b606d6",
					"gettweet(address,uint256)": "d6650978",
					"gettweet2(uint256)": "203bbbda",
					"tweets(address,uint256)": "05a1b4a9"
				}
			},
			"storageLayout": {
				"storage": [
					{
						"astId": 19,
						"contract": "contracts/Tweet with requirements.sol:Twitter",
						"label": "tweets",
						"offset": 0,
						"slot": "0",
						"type": "t_mapping(t_address,t_array(t_struct(Tweet)13_storage)dyn_storage)"
					}
				],
				"types": {
					"t_address": {
						"encoding": "inplace",
						"label": "address",
						"numberOfBytes": "20"
					},
					"t_array(t_struct(Tweet)13_storage)dyn_storage": {
						"base": "t_struct(Tweet)13_storage",
						"encoding": "dynamic_array",
						"label": "struct Twitter.Tweet[]",
						"numberOfBytes": "32"
					},
					"t_mapping(t_address,t_array(t_struct(Tweet)13_storage)dyn_storage)": {
						"encoding": "mapping",
						"key": "t_address",
						"label": "mapping(address => struct Twitter.Tweet[])",
						"numberOfBytes": "32",
						"value": "t_array(t_struct(Tweet)13_storage)dyn_storage"
					},
					"t_string_storage": {
						"encoding": "bytes",
						"label": "string",
						"numberOfBytes": "32"
					},
					"t_struct(Tweet)13_storage": {
						"encoding": "inplace",
						"label": "struct Twitter.Tweet",
						"members": [
							{
								"astId": 6,
								"contract": "contracts/Tweet with requirements.sol:Twitter",
								"label": "author",
								"offset": 0,
								"slot": "0",
								"type": "t_address"
							},
							{
								"astId": 8,
								"contract": "contracts/Tweet with requirements.sol:Twitter",
								"label": "content",
								"offset": 0,
								"slot": "1",
								"type": "t_string_storage"
							},
							{
								"astId": 10,
								"contract": "contracts/Tweet with requirements.sol:Twitter",
								"label": "timestamp",
								"offset": 0,
								"slot": "2",
								"type": "t_uint256"
							},
							{
								"astId": 12,
								"contract": "contracts/Tweet with requirements.sol:Twitter",
								"label": "likes",
								"offset": 0,
								"slot": "3",
								"type": "t_uint256"
							}
						],
						"numberOfBytes": "128"
					},
					"t_uint256": {
						"encoding": "inplace",
						"label": "uint256",
						"numberOfBytes": "32"
					}
				}
			},
			"userdoc": {
				"kind": "user",
				"methods": {},
				"version": 1
			}
		}
	}
}