{
	"contracts/Tweet with Modifier.sol": {
		"Twitter": {
			"abi": [
				{
					"inputs": [],
					"stateMutability": "nonpayable",
					"type": "constructor"
				},
				{
					"inputs": [
						{
							"internalType": "string",
							"name": "_tweet",
							"type": "string"
						}
					],
					"name": "createTweet",
					"outputs": [],
					"stateMutability": "nonpayable",
					"type": "function"
				},
				{
					"inputs": [
						{
							"internalType": "uint16",
							"name": "newTweetlength",
							"type": "uint16"
						}
					],
					"name": "createTweetLength",
					"outputs": [],
					"stateMutability": "nonpayable",
					"type": "function"
				},
				{
					"inputs": [
						{
							"internalType": "address",
							"name": "_owner",
							"type": "address"
						}
					],
					"name": "getAllTweets",
					"outputs": [
						{
							"components": [
								{
									"internalType": "address",
									"name": "author",
									"type": "address"
								},
								{
									"internalType": "string",
									"name": "content",
									"type": "string"
								},
								{
									"internalType": "uint256",
									"name": "timestamp",
									"type": "uint256"
								},
								{
									"internalType": "uint256",
									"name": "likes",
									"type": "uint256"
								}
							],
							"internalType": "struct Twitter.Tweet[]",
							"name": "",
							"type": "tuple[]"
						}
					],
					"stateMutability": "view",
					"type": "function"
				},
				{
					"inputs": [
						{
							"internalType": "uint256",
							"name": "_i",
							"type": "uint256"
						}
					],
					"name": "getTweet",
					"outputs": [
						{
							"components": [
								{
									"internalType": "address",
									"name": "author",
									"type": "address"
								},
								{
									"internalType": "string",
									"name": "content",
									"type": "string"
								},
								{
									"internalType": "uint256",
									"name": "timestamp",
									"type": "uint256"
								},
								{
									"internalType": "uint256",
									"name": "likes",
									"type": "uint256"
								}
							],
							"internalType": "struct Twitter.Tweet",
							"name": "",
							"type": "tuple"
						}
					],
					"stateMutability": "view",
					"type": "function"
				},
				{
					"inputs": [],
					"name": "owner",
					"outputs": [
						{
							"internalType": "address",
							"name": "",
							"type": "address"
						}
					],
					"stateMutability": "view",
					"type": "function"
				},
				{
					"inputs": [
						{
							"internalType": "address",
							"name": "",
							"type": "address"
						},
						{
							"internalType": "uint256",
							"name": "",
							"type": "uint256"
						}
					],
					"name": "tweets",
					"outputs": [
						{
							"internalType": "address",
							"name": "author",
							"type": "address"
						},
						{
							"internalType": "string",
							"name": "content",
							"type": "string"
						},
						{
							"internalType": "uint256",
							"name": "timestamp",
							"type": "uint256"
						},
						{
							"internalType": "uint256",
							"name": "likes",
							"type": "uint256"
						}
					],
					"stateMutability": "view",
					"type": "function"
				}
			],
			"devdoc": {
				"kind": "dev",
				"methods": {},
				"version": 1
			},
			"evm": {
				"assembly": "    /* \"contracts/Tweet with Modifier.sol\":371:1903  contract Twitter {... */\n  mstore(0x40, 0x80)\n    /* \"contracts/Tweet with Modifier.sol\":578:581  280 */\n  0x0118\n    /* \"contracts/Tweet with Modifier.sol\":552:581  uint16 MAX_TWEET_LENGTH = 280 */\n  0x00\n  dup1\n  0x0100\n  exp\n  dup2\n  sload\n  dup2\n  0xffff\n  mul\n  not\n  and\n  swap1\n  dup4\n  0xffff\n  and\n  mul\n  or\n  swap1\n  sstore\n  pop\n    /* \"contracts/Tweet with Modifier.sol\":799:849  constructor(){... */\n  callvalue\n  dup1\n  iszero\n  tag_1\n  jumpi\n  0x00\n  dup1\n  revert\ntag_1:\n  pop\n    /* \"contracts/Tweet with Modifier.sol\":831:841  msg.sender */\n  caller\n    /* \"contracts/Tweet with Modifier.sol\":823:828  owner */\n  0x02\n  0x00\n    /* \"contracts/Tweet with Modifier.sol\":823:841  owner = msg.sender */\n  0x0100\n  exp\n  dup2\n  sload\n  dup2\n  0xffffffffffffffffffffffffffffffffffffffff\n  mul\n  not\n  and\n  swap1\n  dup4\n  0xffffffffffffffffffffffffffffffffffffffff\n  and\n  mul\n  or\n  swap1\n  sstore\n  pop\n    /* \"contracts/Tweet with Modifier.sol\":371:1903  contract Twitter {... */\n  dataSize(sub_0)\n  dup1\n  dataOffset(sub_0)\n  0x00\n  codecopy\n  0x00\n  return\nstop\n\nsub_0: assembly {\n        /* \"contracts/Tweet with Modifier.sol\":371:1903  contract Twitter {... */\n      mstore(0x40, 0x80)\n      callvalue\n      dup1\n      iszero\n      tag_1\n      jumpi\n      0x00\n      dup1\n      revert\n    tag_1:\n      pop\n      jumpi(tag_2, lt(calldatasize, 0x04))\n      shr(0xe0, calldataload(0x00))\n      dup1\n      0x05a1b4a9\n      eq\n      tag_3\n      jumpi\n      dup1\n      0x086756ee\n      eq\n      tag_4\n      jumpi\n      dup1\n      0x12e7ee1c\n      eq\n      tag_5\n      jumpi\n      dup1\n      0x7c9cd2bc\n      eq\n      tag_6\n      jumpi\n      dup1\n      0x8da5cb5b\n      eq\n      tag_7\n      jumpi\n      dup1\n      0xc3ad5ecb\n      eq\n      tag_8\n      jumpi\n    tag_2:\n      0x00\n      dup1\n      revert\n        /* \"contracts/Tweet with Modifier.sol\":719:761  mapping(address => Tweet[] ) public tweets */\n    tag_3:\n      tag_9\n      0x04\n      dup1\n      calldatasize\n      sub\n      dup2\n      add\n      swap1\n      tag_10\n      swap2\n      swap1\n      tag_11\n      jump\t// in\n    tag_10:\n      tag_12\n      jump\t// in\n    tag_9:\n      mload(0x40)\n      tag_13\n      swap5\n      swap4\n      swap3\n      swap2\n      swap1\n      tag_14\n      jump\t// in\n    tag_13:\n      mload(0x40)\n      dup1\n      swap2\n      sub\n      swap1\n      return\n        /* \"contracts/Tweet with Modifier.sol\":1101:1273  function createTweetLength(uint16 newTweetlength) public onlyOwner {... */\n    tag_4:\n      tag_15\n      0x04\n      dup1\n      calldatasize\n      sub\n      dup2\n      add\n      swap1\n      tag_16\n      swap2\n      swap1\n      tag_17\n      jump\t// in\n    tag_16:\n      tag_18\n      jump\t// in\n    tag_15:\n      stop\n        /* \"contracts/Tweet with Modifier.sol\":1783:1898  function getAllTweets(address _owner) public view returns (Tweet[] memory ){... */\n    tag_5:\n      tag_19\n      0x04\n      dup1\n      calldatasize\n      sub\n      dup2\n      add\n      swap1\n      tag_20\n      swap2\n      swap1\n      tag_21\n      jump\t// in\n    tag_20:\n      tag_22\n      jump\t// in\n    tag_19:\n      mload(0x40)\n      tag_23\n      swap2\n      swap1\n      tag_24\n      jump\t// in\n    tag_23:\n      mload(0x40)\n      dup1\n      swap2\n      sub\n      swap1\n      return\n        /* \"contracts/Tweet with Modifier.sol\":1283:1656  function createTweet(string memory _tweet) public {... */\n    tag_6:\n      tag_25\n      0x04\n      dup1\n      calldatasize\n      sub\n      dup2\n      add\n      swap1\n      tag_26\n      swap2\n      swap1\n      tag_27\n      jump\t// in\n    tag_26:\n      tag_28\n      jump\t// in\n    tag_25:\n      stop\n        /* \"contracts/Tweet with Modifier.sol\":770:790  address public owner */\n    tag_7:\n      tag_29\n      tag_30\n      jump\t// in\n    tag_29:\n      mload(0x40)\n      tag_31\n      swap2\n      swap1\n      tag_32\n      jump\t// in\n    tag_31:\n      mload(0x40)\n      dup1\n      swap2\n      sub\n      swap1\n      return\n        /* \"contracts/Tweet with Modifier.sol\":1664:1775  function getTweet( uint _i) public view returns (Tweet memory) {... */\n    tag_8:\n      tag_33\n      0x04\n      dup1\n      calldatasize\n      sub\n      dup2\n      add\n      swap1\n      tag_34\n      swap2\n      swap1\n      tag_35\n      jump\t// in\n    tag_34:\n      tag_36\n      jump\t// in\n    tag_33:\n      mload(0x40)\n      tag_37\n      swap2\n      swap1\n      tag_38\n      jump\t// in\n    tag_37:\n      mload(0x40)\n      dup1\n      swap2\n      sub\n      swap1\n      return\n        /* \"contracts/Tweet with Modifier.sol\":719:761  mapping(address => Tweet[] ) public tweets */\n    tag_12:\n      mstore(0x20, 0x01)\n      dup2\n      0x00\n      mstore\n      keccak256(0x00, 0x40)\n      dup2\n      dup2\n      sload\n      dup2\n      lt\n      tag_39\n      jumpi\n      0x00\n      dup1\n      revert\n    tag_39:\n      swap1\n      0x00\n      mstore\n      keccak256(0x00, 0x20)\n      swap1\n      0x04\n      mul\n      add\n      0x00\n      swap2\n      pop\n      swap2\n      pop\n      pop\n      dup1\n      0x00\n      add\n      0x00\n      swap1\n      sload\n      swap1\n      0x0100\n      exp\n      swap1\n      div\n      0xffffffffffffffffffffffffffffffffffffffff\n      and\n      swap1\n      dup1\n      0x01\n      add\n      dup1\n      sload\n      tag_41\n      swap1\n      tag_42\n      jump\t// in\n    tag_41:\n      dup1\n      0x1f\n      add\n      0x20\n      dup1\n      swap2\n      div\n      mul\n      0x20\n      add\n      mload(0x40)\n      swap1\n      dup2\n      add\n      0x40\n      mstore\n      dup1\n      swap3\n      swap2\n      swap1\n      dup2\n      dup2\n      mstore\n      0x20\n      add\n      dup3\n      dup1\n      sload\n      tag_43\n      swap1\n      tag_42\n      jump\t// in\n    tag_43:\n      dup1\n      iszero\n      tag_44\n      jumpi\n      dup1\n      0x1f\n      lt\n      tag_45\n      jumpi\n      0x0100\n      dup1\n      dup4\n      sload\n      div\n      mul\n      dup4\n      mstore\n      swap2\n      0x20\n      add\n      swap2\n      jump(tag_44)\n    tag_45:\n      dup3\n      add\n      swap2\n      swap1\n      0x00\n      mstore\n      keccak256(0x00, 0x20)\n      swap1\n    tag_46:\n      dup2\n      sload\n      dup2\n      mstore\n      swap1\n      0x01\n      add\n      swap1\n      0x20\n      add\n      dup1\n      dup4\n      gt\n      tag_46\n      jumpi\n      dup3\n      swap1\n      sub\n      0x1f\n      and\n      dup3\n      add\n      swap2\n    tag_44:\n      pop\n      pop\n      pop\n      pop\n      pop\n      swap1\n      dup1\n      0x02\n      add\n      sload\n      swap1\n      dup1\n      0x03\n      add\n      sload\n      swap1\n      pop\n      dup5\n      jump\t// out\n        /* \"contracts/Tweet with Modifier.sol\":1101:1273  function createTweetLength(uint16 newTweetlength) public onlyOwner {... */\n    tag_18:\n        /* \"contracts/Tweet with Modifier.sol\":911:916  owner */\n      0x02\n      0x00\n      swap1\n      sload\n      swap1\n      0x0100\n      exp\n      swap1\n      div\n      0xffffffffffffffffffffffffffffffffffffffff\n      and\n        /* \"contracts/Tweet with Modifier.sol\":897:916  msg.sender == owner */\n      0xffffffffffffffffffffffffffffffffffffffff\n      and\n        /* \"contracts/Tweet with Modifier.sol\":897:907  msg.sender */\n      caller\n        /* \"contracts/Tweet with Modifier.sol\":897:916  msg.sender == owner */\n      0xffffffffffffffffffffffffffffffffffffffff\n      and\n      eq\n        /* \"contracts/Tweet with Modifier.sol\":889:943  require(msg.sender == owner ,\"Your are not the owner\") */\n      tag_48\n      jumpi\n      mload(0x40)\n      0x08c379a000000000000000000000000000000000000000000000000000000000\n      dup2\n      mstore\n      0x04\n      add\n      tag_49\n      swap1\n      tag_50\n      jump\t// in\n    tag_49:\n      mload(0x40)\n      dup1\n      swap2\n      sub\n      swap1\n      revert\n    tag_48:\n        /* \"contracts/Tweet with Modifier.sol\":1251:1265  newTweetlength */\n      dup1\n        /* \"contracts/Tweet with Modifier.sol\":1232:1248  MAX_TWEET_LENGTH */\n      0x00\n      dup1\n        /* \"contracts/Tweet with Modifier.sol\":1232:1265  MAX_TWEET_LENGTH = newTweetlength */\n      0x0100\n      exp\n      dup2\n      sload\n      dup2\n      0xffff\n      mul\n      not\n      and\n      swap1\n      dup4\n      0xffff\n      and\n      mul\n      or\n      swap1\n      sstore\n      pop\n        /* \"contracts/Tweet with Modifier.sol\":1101:1273  function createTweetLength(uint16 newTweetlength) public onlyOwner {... */\n      pop\n      jump\t// out\n        /* \"contracts/Tweet with Modifier.sol\":1783:1898  function getAllTweets(address _owner) public view returns (Tweet[] memory ){... */\n    tag_22:\n        /* \"contracts/Tweet with Modifier.sol\":1842:1856  Tweet[] memory */\n      0x60\n        /* \"contracts/Tweet with Modifier.sol\":1876:1882  tweets */\n      0x01\n        /* \"contracts/Tweet with Modifier.sol\":1876:1890  tweets[_owner] */\n      0x00\n        /* \"contracts/Tweet with Modifier.sol\":1883:1889  _owner */\n      dup4\n        /* \"contracts/Tweet with Modifier.sol\":1876:1890  tweets[_owner] */\n      0xffffffffffffffffffffffffffffffffffffffff\n      and\n      0xffffffffffffffffffffffffffffffffffffffff\n      and\n      dup2\n      mstore\n      0x20\n      add\n      swap1\n      dup2\n      mstore\n      0x20\n      add\n      0x00\n      keccak256\n        /* \"contracts/Tweet with Modifier.sol\":1869:1890  return tweets[_owner] */\n      dup1\n      sload\n      dup1\n      0x20\n      mul\n      0x20\n      add\n      mload(0x40)\n      swap1\n      dup2\n      add\n      0x40\n      mstore\n      dup1\n      swap3\n      swap2\n      swap1\n      dup2\n      dup2\n      mstore\n      0x20\n      add\n      0x00\n      swap1\n    tag_53:\n      dup3\n      dup3\n      lt\n      iszero\n      tag_54\n      jumpi\n      dup4\n      dup3\n      swap1\n      0x00\n      mstore\n      keccak256(0x00, 0x20)\n      swap1\n      0x04\n      mul\n      add\n      mload(0x40)\n      dup1\n      0x80\n      add\n      0x40\n      mstore\n      swap1\n      dup2\n      0x00\n      dup3\n      add\n      0x00\n      swap1\n      sload\n      swap1\n      0x0100\n      exp\n      swap1\n      div\n      0xffffffffffffffffffffffffffffffffffffffff\n      and\n      0xffffffffffffffffffffffffffffffffffffffff\n      and\n      0xffffffffffffffffffffffffffffffffffffffff\n      and\n      dup2\n      mstore\n      0x20\n      add\n      0x01\n      dup3\n      add\n      dup1\n      sload\n      tag_56\n      swap1\n      tag_42\n      jump\t// in\n    tag_56:\n      dup1\n      0x1f\n      add\n      0x20\n      dup1\n      swap2\n      div\n      mul\n      0x20\n      add\n      mload(0x40)\n      swap1\n      dup2\n      add\n      0x40\n      mstore\n      dup1\n      swap3\n      swap2\n      swap1\n      dup2\n      dup2\n      mstore\n      0x20\n      add\n      dup3\n      dup1\n      sload\n      tag_57\n      swap1\n      tag_42\n      jump\t// in\n    tag_57:\n      dup1\n      iszero\n      tag_58\n      jumpi\n      dup1\n      0x1f\n      lt\n      tag_59\n      jumpi\n      0x0100\n      dup1\n      dup4\n      sload\n      div\n      mul\n      dup4\n      mstore\n      swap2\n      0x20\n      add\n      swap2\n      jump(tag_58)\n    tag_59:\n      dup3\n      add\n      swap2\n      swap1\n      0x00\n      mstore\n      keccak256(0x00, 0x20)\n      swap1\n    tag_60:\n      dup2\n      sload\n      dup2\n      mstore\n      swap1\n      0x01\n      add\n      swap1\n      0x20\n      add\n      dup1\n      dup4\n      gt\n      tag_60\n      jumpi\n      dup3\n      swap1\n      sub\n      0x1f\n      and\n      dup3\n      add\n      swap2\n    tag_58:\n      pop\n      pop\n      pop\n      pop\n      pop\n      dup2\n      mstore\n      0x20\n      add\n      0x02\n      dup3\n      add\n      sload\n      dup2\n      mstore\n      0x20\n      add\n      0x03\n      dup3\n      add\n      sload\n      dup2\n      mstore\n      pop\n      pop\n      dup2\n      mstore\n      0x20\n      add\n      swap1\n      0x01\n      add\n      swap1\n      jump(tag_53)\n    tag_54:\n      pop\n      pop\n      pop\n      pop\n      swap1\n      pop\n        /* \"contracts/Tweet with Modifier.sol\":1783:1898  function getAllTweets(address _owner) public view returns (Tweet[] memory ){... */\n      swap2\n      swap1\n      pop\n      jump\t// out\n        /* \"contracts/Tweet with Modifier.sol\":1283:1656  function createTweet(string memory _tweet) public {... */\n    tag_28:\n        /* \"contracts/Tweet with Modifier.sol\":1376:1392  MAX_TWEET_LENGTH */\n      0x00\n      dup1\n      sload\n      swap1\n      0x0100\n      exp\n      swap1\n      div\n      0xffff\n      and\n        /* \"contracts/Tweet with Modifier.sol\":1352:1392  bytes(_tweet).length <= MAX_TWEET_LENGTH */\n      0xffff\n      and\n        /* \"contracts/Tweet with Modifier.sol\":1358:1364  _tweet */\n      dup2\n        /* \"contracts/Tweet with Modifier.sol\":1352:1372  bytes(_tweet).length */\n      mload\n        /* \"contracts/Tweet with Modifier.sol\":1352:1392  bytes(_tweet).length <= MAX_TWEET_LENGTH */\n      gt\n      iszero\n        /* \"contracts/Tweet with Modifier.sol\":1344:1420  require(bytes(_tweet).length <= MAX_TWEET_LENGTH, \"Tweet is too long bro!\" ) */\n      tag_62\n      jumpi\n      mload(0x40)\n      0x08c379a000000000000000000000000000000000000000000000000000000000\n      dup2\n      mstore\n      0x04\n      add\n      tag_63\n      swap1\n      tag_64\n      jump\t// in\n    tag_63:\n      mload(0x40)\n      dup1\n      swap2\n      sub\n      swap1\n      revert\n    tag_62:\n        /* \"contracts/Tweet with Modifier.sol\":1433:1454  Tweet memory newTweet */\n      0x00\n        /* \"contracts/Tweet with Modifier.sol\":1457:1602  Tweet({... */\n      mload(0x40)\n      dup1\n      0x80\n      add\n      0x40\n      mstore\n      dup1\n        /* \"contracts/Tweet with Modifier.sol\":1486:1496  msg.sender */\n      caller\n        /* \"contracts/Tweet with Modifier.sol\":1457:1602  Tweet({... */\n      0xffffffffffffffffffffffffffffffffffffffff\n      and\n      dup2\n      mstore\n      0x20\n      add\n        /* \"contracts/Tweet with Modifier.sol\":1520:1526  _tweet */\n      dup4\n        /* \"contracts/Tweet with Modifier.sol\":1457:1602  Tweet({... */\n      dup2\n      mstore\n      0x20\n      add\n        /* \"contracts/Tweet with Modifier.sol\":1552:1567  block.timestamp */\n      timestamp\n        /* \"contracts/Tweet with Modifier.sol\":1457:1602  Tweet({... */\n      dup2\n      mstore\n      0x20\n      add\n        /* \"contracts/Tweet with Modifier.sol\":1589:1590  0 */\n      0x00\n        /* \"contracts/Tweet with Modifier.sol\":1457:1602  Tweet({... */\n      dup2\n      mstore\n      pop\n        /* \"contracts/Tweet with Modifier.sol\":1433:1602  Tweet memory newTweet = Tweet({... */\n      swap1\n      pop\n        /* \"contracts/Tweet with Modifier.sol\":1615:1621  tweets */\n      0x01\n        /* \"contracts/Tweet with Modifier.sol\":1615:1633  tweets[msg.sender] */\n      0x00\n        /* \"contracts/Tweet with Modifier.sol\":1622:1632  msg.sender */\n      caller\n        /* \"contracts/Tweet with Modifier.sol\":1615:1633  tweets[msg.sender] */\n      0xffffffffffffffffffffffffffffffffffffffff\n      and\n      0xffffffffffffffffffffffffffffffffffffffff\n      and\n      dup2\n      mstore\n      0x20\n      add\n      swap1\n      dup2\n      mstore\n      0x20\n      add\n      0x00\n      keccak256\n        /* \"contracts/Tweet with Modifier.sol\":1639:1647  newTweet */\n      dup2\n        /* \"contracts/Tweet with Modifier.sol\":1615:1648  tweets[msg.sender].push(newTweet) */\n      swap1\n      dup1\n      0x01\n      dup2\n      sload\n      add\n      dup1\n      dup3\n      sstore\n      dup1\n      swap2\n      pop\n      pop\n      0x01\n      swap1\n      sub\n      swap1\n      0x00\n      mstore\n      keccak256(0x00, 0x20)\n      swap1\n      0x04\n      mul\n      add\n      0x00\n      swap1\n      swap2\n      swap1\n      swap2\n      swap1\n      swap2\n      pop\n      0x00\n      dup3\n      add\n      mload\n      dup2\n      0x00\n      add\n      exp(0x0100, 0x00)\n      dup2\n      sload\n      dup2\n      0xffffffffffffffffffffffffffffffffffffffff\n      mul\n      not\n      and\n      swap1\n      dup4\n      0xffffffffffffffffffffffffffffffffffffffff\n      and\n      mul\n      or\n      swap1\n      sstore\n      pop\n      0x20\n      dup3\n      add\n      mload\n      dup2\n      0x01\n      add\n      swap1\n      dup2\n      tag_66\n      swap2\n      swap1\n      tag_67\n      jump\t// in\n    tag_66:\n      pop\n      0x40\n      dup3\n      add\n      mload\n      dup2\n      0x02\n      add\n      sstore\n      0x60\n      dup3\n      add\n      mload\n      dup2\n      0x03\n      add\n      sstore\n      pop\n      pop\n        /* \"contracts/Tweet with Modifier.sol\":1333:1656  {... */\n      pop\n        /* \"contracts/Tweet with Modifier.sol\":1283:1656  function createTweet(string memory _tweet) public {... */\n      pop\n      jump\t// out\n        /* \"contracts/Tweet with Modifier.sol\":770:790  address public owner */\n    tag_30:\n      0x02\n      0x00\n      swap1\n      sload\n      swap1\n      0x0100\n      exp\n      swap1\n      div\n      0xffffffffffffffffffffffffffffffffffffffff\n      and\n      dup2\n      jump\t// out\n        /* \"contracts/Tweet with Modifier.sol\":1664:1775  function getTweet( uint _i) public view returns (Tweet memory) {... */\n    tag_36:\n        /* \"contracts/Tweet with Modifier.sol\":1713:1725  Tweet memory */\n      tag_68\n      tag_69\n      jump\t// in\n    tag_68:\n        /* \"contracts/Tweet with Modifier.sol\":1745:1751  tweets */\n      0x01\n        /* \"contracts/Tweet with Modifier.sol\":1745:1763  tweets[msg.sender] */\n      0x00\n        /* \"contracts/Tweet with Modifier.sol\":1752:1762  msg.sender */\n      caller\n        /* \"contracts/Tweet with Modifier.sol\":1745:1763  tweets[msg.sender] */\n      0xffffffffffffffffffffffffffffffffffffffff\n      and\n      0xffffffffffffffffffffffffffffffffffffffff\n      and\n      dup2\n      mstore\n      0x20\n      add\n      swap1\n      dup2\n      mstore\n      0x20\n      add\n      0x00\n      keccak256\n        /* \"contracts/Tweet with Modifier.sol\":1764:1766  _i */\n      dup3\n        /* \"contracts/Tweet with Modifier.sol\":1745:1767  tweets[msg.sender][_i] */\n      dup2\n      sload\n      dup2\n      lt\n      tag_71\n      jumpi\n      tag_72\n      tag_73\n      jump\t// in\n    tag_72:\n    tag_71:\n      swap1\n      0x00\n      mstore\n      keccak256(0x00, 0x20)\n      swap1\n      0x04\n      mul\n      add\n        /* \"contracts/Tweet with Modifier.sol\":1738:1767  return tweets[msg.sender][_i] */\n      mload(0x40)\n      dup1\n      0x80\n      add\n      0x40\n      mstore\n      swap1\n      dup2\n      0x00\n      dup3\n      add\n      0x00\n      swap1\n      sload\n      swap1\n      0x0100\n      exp\n      swap1\n      div\n      0xffffffffffffffffffffffffffffffffffffffff\n      and\n      0xffffffffffffffffffffffffffffffffffffffff\n      and\n      0xffffffffffffffffffffffffffffffffffffffff\n      and\n      dup2\n      mstore\n      0x20\n      add\n      0x01\n      dup3\n      add\n      dup1\n      sload\n      tag_75\n      swap1\n      tag_42\n      jump\t// in\n    tag_75:\n      dup1\n      0x1f\n      add\n      0x20\n      dup1\n      swap2\n      div\n      mul\n      0x20\n      add\n      mload(0x40)\n      swap1\n      dup2\n      add\n      0x40\n      mstore\n      dup1\n      swap3\n      swap2\n      swap1\n      dup2\n      dup2\n      mstore\n      0x20\n      add\n      dup3\n      dup1\n      sload\n      tag_76\n      swap1\n      tag_42\n      jump\t// in\n    tag_76:\n      dup1\n      iszero\n      tag_77\n      jumpi\n      dup1\n      0x1f\n      lt\n      tag_78\n      jumpi\n      0x0100\n      dup1\n      dup4\n      sload\n      div\n      mul\n      dup4\n      mstore\n      swap2\n      0x20\n      add\n      swap2\n      jump(tag_77)\n    tag_78:\n      dup3\n      add\n      swap2\n      swap1\n      0x00\n      mstore\n      keccak256(0x00, 0x20)\n      swap1\n    tag_79:\n      dup2\n      sload\n      dup2\n      mstore\n      swap1\n      0x01\n      add\n      swap1\n      0x20\n      add\n      dup1\n      dup4\n      gt\n      tag_79\n      jumpi\n      dup3\n      swap1\n      sub\n      0x1f\n      and\n      dup3\n      add\n      swap2\n    tag_77:\n      pop\n      pop\n      pop\n      pop\n      pop\n      dup2\n      mstore\n      0x20\n      add\n      0x02\n      dup3\n      add\n      sload\n      dup2\n      mstore\n      0x20\n      add\n      0x03\n      dup3\n      add\n      sload\n      dup2\n      mstore\n      pop\n      pop\n      swap1\n      pop\n        /* \"contracts/Tweet with Modifier.sol\":1664:1775  function getTweet( uint _i) public view returns (Tweet memory) {... */\n      swap2\n      swap1\n      pop\n      jump\t// out\n    tag_69:\n      mload(0x40)\n      dup1\n      0x80\n      add\n      0x40\n      mstore\n      dup1\n      and(0xffffffffffffffffffffffffffffffffffffffff, 0x00)\n      dup2\n      mstore\n      0x20\n      add\n      0x60\n      dup2\n      mstore\n      0x20\n      add\n      0x00\n      dup2\n      mstore\n      0x20\n      add\n      0x00\n      dup2\n      mstore\n      pop\n      swap1\n      jump\t// out\n        /* \"#utility.yul\":7:82   */\n    tag_80:\n        /* \"#utility.yul\":40:46   */\n      0x00\n        /* \"#utility.yul\":73:75   */\n      0x40\n        /* \"#utility.yul\":67:76   */\n      mload\n        /* \"#utility.yul\":57:76   */\n      swap1\n      pop\n        /* \"#utility.yul\":7:82   */\n      swap1\n      jump\t// out\n        /* \"#utility.yul\":88:205   */\n    tag_81:\n        /* \"#utility.yul\":197:198   */\n      0x00\n        /* \"#utility.yul\":194:195   */\n      dup1\n        /* \"#utility.yul\":187:199   */\n      revert\n        /* \"#utility.yul\":211:328   */\n    tag_82:\n        /* \"#utility.yul\":320:321   */\n      0x00\n        /* \"#utility.yul\":317:318   */\n      dup1\n        /* \"#utility.yul\":310:322   */\n      revert\n        /* \"#utility.yul\":334:460   */\n    tag_83:\n        /* \"#utility.yul\":371:378   */\n      0x00\n        /* \"#utility.yul\":411:453   */\n      0xffffffffffffffffffffffffffffffffffffffff\n        /* \"#utility.yul\":404:409   */\n      dup3\n        /* \"#utility.yul\":400:454   */\n      and\n        /* \"#utility.yul\":389:454   */\n      swap1\n      pop\n        /* \"#utility.yul\":334:460   */\n      swap2\n      swap1\n      pop\n      jump\t// out\n        /* \"#utility.yul\":466:562   */\n    tag_84:\n        /* \"#utility.yul\":503:510   */\n      0x00\n        /* \"#utility.yul\":532:556   */\n      tag_147\n        /* \"#utility.yul\":550:555   */\n      dup3\n        /* \"#utility.yul\":532:556   */\n      tag_83\n      jump\t// in\n    tag_147:\n        /* \"#utility.yul\":521:556   */\n      swap1\n      pop\n        /* \"#utility.yul\":466:562   */\n      swap2\n      swap1\n      pop\n      jump\t// out\n        /* \"#utility.yul\":568:690   */\n    tag_85:\n        /* \"#utility.yul\":641:665   */\n      tag_149\n        /* \"#utility.yul\":659:664   */\n      dup2\n        /* \"#utility.yul\":641:665   */\n      tag_84\n      jump\t// in\n    tag_149:\n        /* \"#utility.yul\":634:639   */\n      dup2\n        /* \"#utility.yul\":631:666   */\n      eq\n        /* \"#utility.yul\":621:684   */\n      tag_150\n      jumpi\n        /* \"#utility.yul\":680:681   */\n      0x00\n        /* \"#utility.yul\":677:678   */\n      dup1\n        /* \"#utility.yul\":670:682   */\n      revert\n        /* \"#utility.yul\":621:684   */\n    tag_150:\n        /* \"#utility.yul\":568:690   */\n      pop\n      jump\t// out\n        /* \"#utility.yul\":696:835   */\n    tag_86:\n        /* \"#utility.yul\":742:747   */\n      0x00\n        /* \"#utility.yul\":780:786   */\n      dup2\n        /* \"#utility.yul\":767:787   */\n      calldataload\n        /* \"#utility.yul\":758:787   */\n      swap1\n      pop\n        /* \"#utility.yul\":796:829   */\n      tag_152\n        /* \"#utility.yul\":823:828   */\n      dup2\n        /* \"#utility.yul\":796:829   */\n      tag_85\n      jump\t// in\n    tag_152:\n        /* \"#utility.yul\":696:835   */\n      swap3\n      swap2\n      pop\n      pop\n      jump\t// out\n        /* \"#utility.yul\":841:918   */\n    tag_87:\n        /* \"#utility.yul\":878:885   */\n      0x00\n        /* \"#utility.yul\":907:912   */\n      dup2\n        /* \"#utility.yul\":896:912   */\n      swap1\n      pop\n        /* \"#utility.yul\":841:918   */\n      swap2\n      swap1\n      pop\n      jump\t// out\n        /* \"#utility.yul\":924:1046   */\n    tag_88:\n        /* \"#utility.yul\":997:1021   */\n      tag_155\n        /* \"#utility.yul\":1015:1020   */\n      dup2\n        /* \"#utility.yul\":997:1021   */\n      tag_87\n      jump\t// in\n    tag_155:\n        /* \"#utility.yul\":990:995   */\n      dup2\n        /* \"#utility.yul\":987:1022   */\n      eq\n        /* \"#utility.yul\":977:1040   */\n      tag_156\n      jumpi\n        /* \"#utility.yul\":1036:1037   */\n      0x00\n        /* \"#utility.yul\":1033:1034   */\n      dup1\n        /* \"#utility.yul\":1026:1038   */\n      revert\n        /* \"#utility.yul\":977:1040   */\n    tag_156:\n        /* \"#utility.yul\":924:1046   */\n      pop\n      jump\t// out\n        /* \"#utility.yul\":1052:1191   */\n    tag_89:\n        /* \"#utility.yul\":1098:1103   */\n      0x00\n        /* \"#utility.yul\":1136:1142   */\n      dup2\n        /* \"#utility.yul\":1123:1143   */\n      calldataload\n        /* \"#utility.yul\":1114:1143   */\n      swap1\n      pop\n        /* \"#utility.yul\":1152:1185   */\n      tag_158\n        /* \"#utility.yul\":1179:1184   */\n      dup2\n        /* \"#utility.yul\":1152:1185   */\n      tag_88\n      jump\t// in\n    tag_158:\n        /* \"#utility.yul\":1052:1191   */\n      swap3\n      swap2\n      pop\n      pop\n      jump\t// out\n        /* \"#utility.yul\":1197:1671   */\n    tag_11:\n        /* \"#utility.yul\":1265:1271   */\n      0x00\n        /* \"#utility.yul\":1273:1279   */\n      dup1\n        /* \"#utility.yul\":1322:1324   */\n      0x40\n        /* \"#utility.yul\":1310:1319   */\n      dup4\n        /* \"#utility.yul\":1301:1308   */\n      dup6\n        /* \"#utility.yul\":1297:1320   */\n      sub\n        /* \"#utility.yul\":1293:1325   */\n      slt\n        /* \"#utility.yul\":1290:1409   */\n      iszero\n      tag_160\n      jumpi\n        /* \"#utility.yul\":1328:1407   */\n      tag_161\n      tag_81\n      jump\t// in\n    tag_161:\n        /* \"#utility.yul\":1290:1409   */\n    tag_160:\n        /* \"#utility.yul\":1448:1449   */\n      0x00\n        /* \"#utility.yul\":1473:1526   */\n      tag_162\n        /* \"#utility.yul\":1518:1525   */\n      dup6\n        /* \"#utility.yul\":1509:1515   */\n      dup3\n        /* \"#utility.yul\":1498:1507   */\n      dup7\n        /* \"#utility.yul\":1494:1516   */\n      add\n        /* \"#utility.yul\":1473:1526   */\n      tag_86\n      jump\t// in\n    tag_162:\n        /* \"#utility.yul\":1463:1526   */\n      swap3\n      pop\n        /* \"#utility.yul\":1419:1536   */\n      pop\n        /* \"#utility.yul\":1575:1577   */\n      0x20\n        /* \"#utility.yul\":1601:1654   */\n      tag_163\n        /* \"#utility.yul\":1646:1653   */\n      dup6\n        /* \"#utility.yul\":1637:1643   */\n      dup3\n        /* \"#utility.yul\":1626:1635   */\n      dup7\n        /* \"#utility.yul\":1622:1644   */\n      add\n        /* \"#utility.yul\":1601:1654   */\n      tag_89\n      jump\t// in\n    tag_163:\n        /* \"#utility.yul\":1591:1654   */\n      swap2\n      pop\n        /* \"#utility.yul\":1546:1664   */\n      pop\n        /* \"#utility.yul\":1197:1671   */\n      swap3\n      pop\n      swap3\n      swap1\n      pop\n      jump\t// out\n        /* \"#utility.yul\":1677:1795   */\n    tag_90:\n        /* \"#utility.yul\":1764:1788   */\n      tag_165\n        /* \"#utility.yul\":1782:1787   */\n      dup2\n        /* \"#utility.yul\":1764:1788   */\n      tag_84\n      jump\t// in\n    tag_165:\n        /* \"#utility.yul\":1759:1762   */\n      dup3\n        /* \"#utility.yul\":1752:1789   */\n      mstore\n        /* \"#utility.yul\":1677:1795   */\n      pop\n      pop\n      jump\t// out\n        /* \"#utility.yul\":1801:1900   */\n    tag_91:\n        /* \"#utility.yul\":1853:1859   */\n      0x00\n        /* \"#utility.yul\":1887:1892   */\n      dup2\n        /* \"#utility.yul\":1881:1893   */\n      mload\n        /* \"#utility.yul\":1871:1893   */\n      swap1\n      pop\n        /* \"#utility.yul\":1801:1900   */\n      swap2\n      swap1\n      pop\n      jump\t// out\n        /* \"#utility.yul\":1906:2075   */\n    tag_92:\n        /* \"#utility.yul\":1990:2001   */\n      0x00\n        /* \"#utility.yul\":2024:2030   */\n      dup3\n        /* \"#utility.yul\":2019:2022   */\n      dup3\n        /* \"#utility.yul\":2012:2031   */\n      mstore\n        /* \"#utility.yul\":2064:2068   */\n      0x20\n        /* \"#utility.yul\":2059:2062   */\n      dup3\n        /* \"#utility.yul\":2055:2069   */\n      add\n        /* \"#utility.yul\":2040:2069   */\n      swap1\n      pop\n        /* \"#utility.yul\":1906:2075   */\n      swap3\n      swap2\n      pop\n      pop\n      jump\t// out\n        /* \"#utility.yul\":2081:2220   */\n    tag_93:\n        /* \"#utility.yul\":2170:2176   */\n      dup3\n        /* \"#utility.yul\":2165:2168   */\n      dup2\n        /* \"#utility.yul\":2160:2163   */\n      dup4\n        /* \"#utility.yul\":2154:2177   */\n      mcopy\n        /* \"#utility.yul\":2211:2212   */\n      0x00\n        /* \"#utility.yul\":2202:2208   */\n      dup4\n        /* \"#utility.yul\":2197:2200   */\n      dup4\n        /* \"#utility.yul\":2193:2209   */\n      add\n        /* \"#utility.yul\":2186:2213   */\n      mstore\n        /* \"#utility.yul\":2081:2220   */\n      pop\n      pop\n      pop\n      jump\t// out\n        /* \"#utility.yul\":2226:2328   */\n    tag_94:\n        /* \"#utility.yul\":2267:2273   */\n      0x00\n        /* \"#utility.yul\":2318:2320   */\n      0x1f\n        /* \"#utility.yul\":2314:2321   */\n      not\n        /* \"#utility.yul\":2309:2311   */\n      0x1f\n        /* \"#utility.yul\":2302:2307   */\n      dup4\n        /* \"#utility.yul\":2298:2312   */\n      add\n        /* \"#utility.yul\":2294:2322   */\n      and\n        /* \"#utility.yul\":2284:2322   */\n      swap1\n      pop\n        /* \"#utility.yul\":2226:2328   */\n      swap2\n      swap1\n      pop\n      jump\t// out\n        /* \"#utility.yul\":2334:2711   */\n    tag_95:\n        /* \"#utility.yul\":2422:2425   */\n      0x00\n        /* \"#utility.yul\":2450:2489   */\n      tag_171\n        /* \"#utility.yul\":2483:2488   */\n      dup3\n        /* \"#utility.yul\":2450:2489   */\n      tag_91\n      jump\t// in\n    tag_171:\n        /* \"#utility.yul\":2505:2576   */\n      tag_172\n        /* \"#utility.yul\":2569:2575   */\n      dup2\n        /* \"#utility.yul\":2564:2567   */\n      dup6\n        /* \"#utility.yul\":2505:2576   */\n      tag_92\n      jump\t// in\n    tag_172:\n        /* \"#utility.yul\":2498:2576   */\n      swap4\n      pop\n        /* \"#utility.yul\":2585:2650   */\n      tag_173\n        /* \"#utility.yul\":2643:2649   */\n      dup2\n        /* \"#utility.yul\":2638:2641   */\n      dup6\n        /* \"#utility.yul\":2631:2635   */\n      0x20\n        /* \"#utility.yul\":2624:2629   */\n      dup7\n        /* \"#utility.yul\":2620:2636   */\n      add\n        /* \"#utility.yul\":2585:2650   */\n      tag_93\n      jump\t// in\n    tag_173:\n        /* \"#utility.yul\":2675:2704   */\n      tag_174\n        /* \"#utility.yul\":2697:2703   */\n      dup2\n        /* \"#utility.yul\":2675:2704   */\n      tag_94\n      jump\t// in\n    tag_174:\n        /* \"#utility.yul\":2670:2673   */\n      dup5\n        /* \"#utility.yul\":2666:2705   */\n      add\n        /* \"#utility.yul\":2659:2705   */\n      swap2\n      pop\n        /* \"#utility.yul\":2426:2711   */\n      pop\n        /* \"#utility.yul\":2334:2711   */\n      swap3\n      swap2\n      pop\n      pop\n      jump\t// out\n        /* \"#utility.yul\":2717:2835   */\n    tag_96:\n        /* \"#utility.yul\":2804:2828   */\n      tag_176\n        /* \"#utility.yul\":2822:2827   */\n      dup2\n        /* \"#utility.yul\":2804:2828   */\n      tag_87\n      jump\t// in\n    tag_176:\n        /* \"#utility.yul\":2799:2802   */\n      dup3\n        /* \"#utility.yul\":2792:2829   */\n      mstore\n        /* \"#utility.yul\":2717:2835   */\n      pop\n      pop\n      jump\t// out\n        /* \"#utility.yul\":2841:3485   */\n    tag_14:\n        /* \"#utility.yul\":3038:3042   */\n      0x00\n        /* \"#utility.yul\":3076:3079   */\n      0x80\n        /* \"#utility.yul\":3065:3074   */\n      dup3\n        /* \"#utility.yul\":3061:3080   */\n      add\n        /* \"#utility.yul\":3053:3080   */\n      swap1\n      pop\n        /* \"#utility.yul\":3090:3161   */\n      tag_178\n        /* \"#utility.yul\":3158:3159   */\n      0x00\n        /* \"#utility.yul\":3147:3156   */\n      dup4\n        /* \"#utility.yul\":3143:3160   */\n      add\n        /* \"#utility.yul\":3134:3140   */\n      dup8\n        /* \"#utility.yul\":3090:3161   */\n      tag_90\n      jump\t// in\n    tag_178:\n        /* \"#utility.yul\":3208:3217   */\n      dup2\n        /* \"#utility.yul\":3202:3206   */\n      dup2\n        /* \"#utility.yul\":3198:3218   */\n      sub\n        /* \"#utility.yul\":3193:3195   */\n      0x20\n        /* \"#utility.yul\":3182:3191   */\n      dup4\n        /* \"#utility.yul\":3178:3196   */\n      add\n        /* \"#utility.yul\":3171:3219   */\n      mstore\n        /* \"#utility.yul\":3236:3314   */\n      tag_179\n        /* \"#utility.yul\":3309:3313   */\n      dup2\n        /* \"#utility.yul\":3300:3306   */\n      dup7\n        /* \"#utility.yul\":3236:3314   */\n      tag_95\n      jump\t// in\n    tag_179:\n        /* \"#utility.yul\":3228:3314   */\n      swap1\n      pop\n        /* \"#utility.yul\":3324:3396   */\n      tag_180\n        /* \"#utility.yul\":3392:3394   */\n      0x40\n        /* \"#utility.yul\":3381:3390   */\n      dup4\n        /* \"#utility.yul\":3377:3395   */\n      add\n        /* \"#utility.yul\":3368:3374   */\n      dup6\n        /* \"#utility.yul\":3324:3396   */\n      tag_96\n      jump\t// in\n    tag_180:\n        /* \"#utility.yul\":3406:3478   */\n      tag_181\n        /* \"#utility.yul\":3474:3476   */\n      0x60\n        /* \"#utility.yul\":3463:3472   */\n      dup4\n        /* \"#utility.yul\":3459:3477   */\n      add\n        /* \"#utility.yul\":3450:3456   */\n      dup5\n        /* \"#utility.yul\":3406:3478   */\n      tag_96\n      jump\t// in\n    tag_181:\n        /* \"#utility.yul\":2841:3485   */\n      swap6\n      swap5\n      pop\n      pop\n      pop\n      pop\n      pop\n      jump\t// out\n        /* \"#utility.yul\":3491:3580   */\n    tag_97:\n        /* \"#utility.yul\":3527:3534   */\n      0x00\n        /* \"#utility.yul\":3567:3573   */\n      0xffff\n        /* \"#utility.yul\":3560:3565   */\n      dup3\n        /* \"#utility.yul\":3556:3574   */\n      and\n        /* \"#utility.yul\":3545:3574   */\n      swap1\n      pop\n        /* \"#utility.yul\":3491:3580   */\n      swap2\n      swap1\n      pop\n      jump\t// out\n        /* \"#utility.yul\":3586:3706   */\n    tag_98:\n        /* \"#utility.yul\":3658:3681   */\n      tag_184\n        /* \"#utility.yul\":3675:3680   */\n      dup2\n        /* \"#utility.yul\":3658:3681   */\n      tag_97\n      jump\t// in\n    tag_184:\n        /* \"#utility.yul\":3651:3656   */\n      dup2\n        /* \"#utility.yul\":3648:3682   */\n      eq\n        /* \"#utility.yul\":3638:3700   */\n      tag_185\n      jumpi\n        /* \"#utility.yul\":3696:3697   */\n      0x00\n        /* \"#utility.yul\":3693:3694   */\n      dup1\n        /* \"#utility.yul\":3686:3698   */\n      revert\n        /* \"#utility.yul\":3638:3700   */\n    tag_185:\n        /* \"#utility.yul\":3586:3706   */\n      pop\n      jump\t// out\n        /* \"#utility.yul\":3712:3849   */\n    tag_99:\n        /* \"#utility.yul\":3757:3762   */\n      0x00\n        /* \"#utility.yul\":3795:3801   */\n      dup2\n        /* \"#utility.yul\":3782:3802   */\n      calldataload\n        /* \"#utility.yul\":3773:3802   */\n      swap1\n      pop\n        /* \"#utility.yul\":3811:3843   */\n      tag_187\n        /* \"#utility.yul\":3837:3842   */\n      dup2\n        /* \"#utility.yul\":3811:3843   */\n      tag_98\n      jump\t// in\n    tag_187:\n        /* \"#utility.yul\":3712:3849   */\n      swap3\n      swap2\n      pop\n      pop\n      jump\t// out\n        /* \"#utility.yul\":3855:4182   */\n    tag_17:\n        /* \"#utility.yul\":3913:3919   */\n      0x00\n        /* \"#utility.yul\":3962:3964   */\n      0x20\n        /* \"#utility.yul\":3950:3959   */\n      dup3\n        /* \"#utility.yul\":3941:3948   */\n      dup5\n        /* \"#utility.yul\":3937:3960   */\n      sub\n        /* \"#utility.yul\":3933:3965   */\n      slt\n        /* \"#utility.yul\":3930:4049   */\n      iszero\n      tag_189\n      jumpi\n        /* \"#utility.yul\":3968:4047   */\n      tag_190\n      tag_81\n      jump\t// in\n    tag_190:\n        /* \"#utility.yul\":3930:4049   */\n    tag_189:\n        /* \"#utility.yul\":4088:4089   */\n      0x00\n        /* \"#utility.yul\":4113:4165   */\n      tag_191\n        /* \"#utility.yul\":4157:4164   */\n      dup5\n        /* \"#utility.yul\":4148:4154   */\n      dup3\n        /* \"#utility.yul\":4137:4146   */\n      dup6\n        /* \"#utility.yul\":4133:4155   */\n      add\n        /* \"#utility.yul\":4113:4165   */\n      tag_99\n      jump\t// in\n    tag_191:\n        /* \"#utility.yul\":4103:4165   */\n      swap2\n      pop\n        /* \"#utility.yul\":4059:4175   */\n      pop\n        /* \"#utility.yul\":3855:4182   */\n      swap3\n      swap2\n      pop\n      pop\n      jump\t// out\n        /* \"#utility.yul\":4188:4517   */\n    tag_21:\n        /* \"#utility.yul\":4247:4253   */\n      0x00\n        /* \"#utility.yul\":4296:4298   */\n      0x20\n        /* \"#utility.yul\":4284:4293   */\n      dup3\n        /* \"#utility.yul\":4275:4282   */\n      dup5\n        /* \"#utility.yul\":4271:4294   */\n      sub\n        /* \"#utility.yul\":4267:4299   */\n      slt\n        /* \"#utility.yul\":4264:4383   */\n      iszero\n      tag_193\n      jumpi\n        /* \"#utility.yul\":4302:4381   */\n      tag_194\n      tag_81\n      jump\t// in\n    tag_194:\n        /* \"#utility.yul\":4264:4383   */\n    tag_193:\n        /* \"#utility.yul\":4422:4423   */\n      0x00\n        /* \"#utility.yul\":4447:4500   */\n      tag_195\n        /* \"#utility.yul\":4492:4499   */\n      dup5\n        /* \"#utility.yul\":4483:4489   */\n      dup3\n        /* \"#utility.yul\":4472:4481   */\n      dup6\n        /* \"#utility.yul\":4468:4490   */\n      add\n        /* \"#utility.yul\":4447:4500   */\n      tag_86\n      jump\t// in\n    tag_195:\n        /* \"#utility.yul\":4437:4500   */\n      swap2\n      pop\n        /* \"#utility.yul\":4393:4510   */\n      pop\n        /* \"#utility.yul\":4188:4517   */\n      swap3\n      swap2\n      pop\n      pop\n      jump\t// out\n        /* \"#utility.yul\":4523:4658   */\n    tag_100:\n        /* \"#utility.yul\":4611:4617   */\n      0x00\n        /* \"#utility.yul\":4645:4650   */\n      dup2\n        /* \"#utility.yul\":4639:4651   */\n      mload\n        /* \"#utility.yul\":4629:4651   */\n      swap1\n      pop\n        /* \"#utility.yul\":4523:4658   */\n      swap2\n      swap1\n      pop\n      jump\t// out\n        /* \"#utility.yul\":4664:4869   */\n    tag_101:\n        /* \"#utility.yul\":4784:4795   */\n      0x00\n        /* \"#utility.yul\":4818:4824   */\n      dup3\n        /* \"#utility.yul\":4813:4816   */\n      dup3\n        /* \"#utility.yul\":4806:4825   */\n      mstore\n        /* \"#utility.yul\":4858:4862   */\n      0x20\n        /* \"#utility.yul\":4853:4856   */\n      dup3\n        /* \"#utility.yul\":4849:4863   */\n      add\n        /* \"#utility.yul\":4834:4863   */\n      swap1\n      pop\n        /* \"#utility.yul\":4664:4869   */\n      swap3\n      swap2\n      pop\n      pop\n      jump\t// out\n        /* \"#utility.yul\":4875:5028   */\n    tag_102:\n        /* \"#utility.yul\":4963:4967   */\n      0x00\n        /* \"#utility.yul\":4986:4989   */\n      dup2\n        /* \"#utility.yul\":4978:4989   */\n      swap1\n      pop\n        /* \"#utility.yul\":5016:5020   */\n      0x20\n        /* \"#utility.yul\":5011:5014   */\n      dup3\n        /* \"#utility.yul\":5007:5021   */\n      add\n        /* \"#utility.yul\":4999:5021   */\n      swap1\n      pop\n        /* \"#utility.yul\":4875:5028   */\n      swap2\n      swap1\n      pop\n      jump\t// out\n        /* \"#utility.yul\":5034:5142   */\n    tag_103:\n        /* \"#utility.yul\":5111:5135   */\n      tag_200\n        /* \"#utility.yul\":5129:5134   */\n      dup2\n        /* \"#utility.yul\":5111:5135   */\n      tag_84\n      jump\t// in\n    tag_200:\n        /* \"#utility.yul\":5106:5109   */\n      dup3\n        /* \"#utility.yul\":5099:5136   */\n      mstore\n        /* \"#utility.yul\":5034:5142   */\n      pop\n      pop\n      jump\t// out\n        /* \"#utility.yul\":5148:5307   */\n    tag_104:\n        /* \"#utility.yul\":5222:5233   */\n      0x00\n        /* \"#utility.yul\":5256:5262   */\n      dup3\n        /* \"#utility.yul\":5251:5254   */\n      dup3\n        /* \"#utility.yul\":5244:5263   */\n      mstore\n        /* \"#utility.yul\":5296:5300   */\n      0x20\n        /* \"#utility.yul\":5291:5294   */\n      dup3\n        /* \"#utility.yul\":5287:5301   */\n      add\n        /* \"#utility.yul\":5272:5301   */\n      swap1\n      pop\n        /* \"#utility.yul\":5148:5307   */\n      swap3\n      swap2\n      pop\n      pop\n      jump\t// out\n        /* \"#utility.yul\":5313:5670   */\n    tag_105:\n        /* \"#utility.yul\":5391:5394   */\n      0x00\n        /* \"#utility.yul\":5419:5458   */\n      tag_203\n        /* \"#utility.yul\":5452:5457   */\n      dup3\n        /* \"#utility.yul\":5419:5458   */\n      tag_91\n      jump\t// in\n    tag_203:\n        /* \"#utility.yul\":5474:5535   */\n      tag_204\n        /* \"#utility.yul\":5528:5534   */\n      dup2\n        /* \"#utility.yul\":5523:5526   */\n      dup6\n        /* \"#utility.yul\":5474:5535   */\n      tag_104\n      jump\t// in\n    tag_204:\n        /* \"#utility.yul\":5467:5535   */\n      swap4\n      pop\n        /* \"#utility.yul\":5544:5609   */\n      tag_205\n        /* \"#utility.yul\":5602:5608   */\n      dup2\n        /* \"#utility.yul\":5597:5600   */\n      dup6\n        /* \"#utility.yul\":5590:5594   */\n      0x20\n        /* \"#utility.yul\":5583:5588   */\n      dup7\n        /* \"#utility.yul\":5579:5595   */\n      add\n        /* \"#utility.yul\":5544:5609   */\n      tag_93\n      jump\t// in\n    tag_205:\n        /* \"#utility.yul\":5634:5663   */\n      tag_206\n        /* \"#utility.yul\":5656:5662   */\n      dup2\n        /* \"#utility.yul\":5634:5663   */\n      tag_94\n      jump\t// in\n    tag_206:\n        /* \"#utility.yul\":5629:5632   */\n      dup5\n        /* \"#utility.yul\":5625:5664   */\n      add\n        /* \"#utility.yul\":5618:5664   */\n      swap2\n      pop\n        /* \"#utility.yul\":5395:5670   */\n      pop\n        /* \"#utility.yul\":5313:5670   */\n      swap3\n      swap2\n      pop\n      pop\n      jump\t// out\n        /* \"#utility.yul\":5676:5784   */\n    tag_106:\n        /* \"#utility.yul\":5753:5777   */\n      tag_208\n        /* \"#utility.yul\":5771:5776   */\n      dup2\n        /* \"#utility.yul\":5753:5777   */\n      tag_87\n      jump\t// in\n    tag_208:\n        /* \"#utility.yul\":5748:5751   */\n      dup3\n        /* \"#utility.yul\":5741:5778   */\n      mstore\n        /* \"#utility.yul\":5676:5784   */\n      pop\n      pop\n      jump\t// out\n        /* \"#utility.yul\":5842:6789   */\n    tag_107:\n        /* \"#utility.yul\":5943:5946   */\n      0x00\n        /* \"#utility.yul\":5979:5983   */\n      0x80\n        /* \"#utility.yul\":5974:5977   */\n      dup4\n        /* \"#utility.yul\":5970:5984   */\n      add\n        /* \"#utility.yul\":6068:6072   */\n      0x00\n        /* \"#utility.yul\":6061:6066   */\n      dup4\n        /* \"#utility.yul\":6057:6073   */\n      add\n        /* \"#utility.yul\":6051:6074   */\n      mload\n        /* \"#utility.yul\":6087:6150   */\n      tag_210\n        /* \"#utility.yul\":6144:6148   */\n      0x00\n        /* \"#utility.yul\":6139:6142   */\n      dup7\n        /* \"#utility.yul\":6135:6149   */\n      add\n        /* \"#utility.yul\":6121:6133   */\n      dup3\n        /* \"#utility.yul\":6087:6150   */\n      tag_103\n      jump\t// in\n    tag_210:\n        /* \"#utility.yul\":5994:6160   */\n      pop\n        /* \"#utility.yul\":6245:6249   */\n      0x20\n        /* \"#utility.yul\":6238:6243   */\n      dup4\n        /* \"#utility.yul\":6234:6250   */\n      add\n        /* \"#utility.yul\":6228:6251   */\n      mload\n        /* \"#utility.yul\":6298:6301   */\n      dup5\n        /* \"#utility.yul\":6292:6296   */\n      dup3\n        /* \"#utility.yul\":6288:6302   */\n      sub\n        /* \"#utility.yul\":6281:6285   */\n      0x20\n        /* \"#utility.yul\":6276:6279   */\n      dup7\n        /* \"#utility.yul\":6272:6286   */\n      add\n        /* \"#utility.yul\":6265:6303   */\n      mstore\n        /* \"#utility.yul\":6324:6397   */\n      tag_211\n        /* \"#utility.yul\":6392:6396   */\n      dup3\n        /* \"#utility.yul\":6378:6390   */\n      dup3\n        /* \"#utility.yul\":6324:6397   */\n      tag_105\n      jump\t// in\n    tag_211:\n        /* \"#utility.yul\":6316:6397   */\n      swap2\n      pop\n        /* \"#utility.yul\":6170:6408   */\n      pop\n        /* \"#utility.yul\":6495:6499   */\n      0x40\n        /* \"#utility.yul\":6488:6493   */\n      dup4\n        /* \"#utility.yul\":6484:6500   */\n      add\n        /* \"#utility.yul\":6478:6501   */\n      mload\n        /* \"#utility.yul\":6514:6577   */\n      tag_212\n        /* \"#utility.yul\":6571:6575   */\n      0x40\n        /* \"#utility.yul\":6566:6569   */\n      dup7\n        /* \"#utility.yul\":6562:6576   */\n      add\n        /* \"#utility.yul\":6548:6560   */\n      dup3\n        /* \"#utility.yul\":6514:6577   */\n      tag_106\n      jump\t// in\n    tag_212:\n        /* \"#utility.yul\":6418:6587   */\n      pop\n        /* \"#utility.yul\":6670:6674   */\n      0x60\n        /* \"#utility.yul\":6663:6668   */\n      dup4\n        /* \"#utility.yul\":6659:6675   */\n      add\n        /* \"#utility.yul\":6653:6676   */\n      mload\n        /* \"#utility.yul\":6689:6752   */\n      tag_213\n        /* \"#utility.yul\":6746:6750   */\n      0x60\n        /* \"#utility.yul\":6741:6744   */\n      dup7\n        /* \"#utility.yul\":6737:6751   */\n      add\n        /* \"#utility.yul\":6723:6735   */\n      dup3\n        /* \"#utility.yul\":6689:6752   */\n      tag_106\n      jump\t// in\n    tag_213:\n        /* \"#utility.yul\":6597:6762   */\n      pop\n        /* \"#utility.yul\":6779:6783   */\n      dup1\n        /* \"#utility.yul\":6772:6783   */\n      swap2\n      pop\n        /* \"#utility.yul\":5948:6789   */\n      pop\n        /* \"#utility.yul\":5842:6789   */\n      swap3\n      swap2\n      pop\n      pop\n      jump\t// out\n        /* \"#utility.yul\":6795:7035   */\n    tag_108:\n        /* \"#utility.yul\":6906:6916   */\n      0x00\n        /* \"#utility.yul\":6941:7029   */\n      tag_215\n        /* \"#utility.yul\":7025:7028   */\n      dup4\n        /* \"#utility.yul\":7017:7023   */\n      dup4\n        /* \"#utility.yul\":6941:7029   */\n      tag_107\n      jump\t// in\n    tag_215:\n        /* \"#utility.yul\":6927:7029   */\n      swap1\n      pop\n        /* \"#utility.yul\":6795:7035   */\n      swap3\n      swap2\n      pop\n      pop\n      jump\t// out\n        /* \"#utility.yul\":7041:7175   */\n    tag_109:\n        /* \"#utility.yul\":7132:7136   */\n      0x00\n        /* \"#utility.yul\":7164:7168   */\n      0x20\n        /* \"#utility.yul\":7159:7162   */\n      dup3\n        /* \"#utility.yul\":7155:7169   */\n      add\n        /* \"#utility.yul\":7147:7169   */\n      swap1\n      pop\n        /* \"#utility.yul\":7041:7175   */\n      swap2\n      swap1\n      pop\n      jump\t// out\n        /* \"#utility.yul\":7237:8316   */\n    tag_110:\n        /* \"#utility.yul\":7398:7401   */\n      0x00\n        /* \"#utility.yul\":7427:7502   */\n      tag_218\n        /* \"#utility.yul\":7496:7501   */\n      dup3\n        /* \"#utility.yul\":7427:7502   */\n      tag_100\n      jump\t// in\n    tag_218:\n        /* \"#utility.yul\":7518:7625   */\n      tag_219\n        /* \"#utility.yul\":7618:7624   */\n      dup2\n        /* \"#utility.yul\":7613:7616   */\n      dup6\n        /* \"#utility.yul\":7518:7625   */\n      tag_101\n      jump\t// in\n    tag_219:\n        /* \"#utility.yul\":7511:7625   */\n      swap4\n      pop\n        /* \"#utility.yul\":7651:7654   */\n      dup4\n        /* \"#utility.yul\":7696:7700   */\n      0x20\n        /* \"#utility.yul\":7688:7694   */\n      dup3\n        /* \"#utility.yul\":7684:7701   */\n      mul\n        /* \"#utility.yul\":7679:7682   */\n      dup6\n        /* \"#utility.yul\":7675:7702   */\n      add\n        /* \"#utility.yul\":7726:7803   */\n      tag_220\n        /* \"#utility.yul\":7797:7802   */\n      dup6\n        /* \"#utility.yul\":7726:7803   */\n      tag_102\n      jump\t// in\n    tag_220:\n        /* \"#utility.yul\":7826:7833   */\n      dup1\n        /* \"#utility.yul\":7857:7858   */\n      0x00\n        /* \"#utility.yul\":7842:8271   */\n    tag_221:\n        /* \"#utility.yul\":7867:7873   */\n      dup6\n        /* \"#utility.yul\":7864:7865   */\n      dup2\n        /* \"#utility.yul\":7861:7874   */\n      lt\n        /* \"#utility.yul\":7842:8271   */\n      iszero\n      tag_223\n      jumpi\n        /* \"#utility.yul\":7938:7947   */\n      dup5\n        /* \"#utility.yul\":7932:7936   */\n      dup5\n        /* \"#utility.yul\":7928:7948   */\n      sub\n        /* \"#utility.yul\":7923:7926   */\n      dup10\n        /* \"#utility.yul\":7916:7949   */\n      mstore\n        /* \"#utility.yul\":7989:7995   */\n      dup2\n        /* \"#utility.yul\":7983:7996   */\n      mload\n        /* \"#utility.yul\":8017:8123   */\n      tag_224\n        /* \"#utility.yul\":8118:8122   */\n      dup6\n        /* \"#utility.yul\":8103:8116   */\n      dup3\n        /* \"#utility.yul\":8017:8123   */\n      tag_108\n      jump\t// in\n    tag_224:\n        /* \"#utility.yul\":8009:8123   */\n      swap5\n      pop\n        /* \"#utility.yul\":8146:8227   */\n      tag_225\n        /* \"#utility.yul\":8220:8226   */\n      dup4\n        /* \"#utility.yul\":8146:8227   */\n      tag_109\n      jump\t// in\n    tag_225:\n        /* \"#utility.yul\":8136:8227   */\n      swap3\n      pop\n        /* \"#utility.yul\":8256:8260   */\n      0x20\n        /* \"#utility.yul\":8251:8254   */\n      dup11\n        /* \"#utility.yul\":8247:8261   */\n      add\n        /* \"#utility.yul\":8240:8261   */\n      swap10\n      pop\n        /* \"#utility.yul\":7902:8271   */\n      pop\n        /* \"#utility.yul\":7889:7890   */\n      0x01\n        /* \"#utility.yul\":7886:7887   */\n      dup2\n        /* \"#utility.yul\":7882:7891   */\n      add\n        /* \"#utility.yul\":7877:7891   */\n      swap1\n      pop\n        /* \"#utility.yul\":7842:8271   */\n      jump(tag_221)\n    tag_223:\n        /* \"#utility.yul\":7846:7860   */\n      pop\n        /* \"#utility.yul\":8287:8291   */\n      dup3\n        /* \"#utility.yul\":8280:8291   */\n      swap8\n      pop\n        /* \"#utility.yul\":8307:8310   */\n      dup8\n        /* \"#utility.yul\":8300:8310   */\n      swap6\n      pop\n        /* \"#utility.yul\":7403:8316   */\n      pop\n      pop\n      pop\n      pop\n      pop\n        /* \"#utility.yul\":7237:8316   */\n      swap3\n      swap2\n      pop\n      pop\n      jump\t// out\n        /* \"#utility.yul\":8322:8779   */\n    tag_24:\n        /* \"#utility.yul\":8507:8511   */\n      0x00\n        /* \"#utility.yul\":8545:8547   */\n      0x20\n        /* \"#utility.yul\":8534:8543   */\n      dup3\n        /* \"#utility.yul\":8530:8548   */\n      add\n        /* \"#utility.yul\":8522:8548   */\n      swap1\n      pop\n        /* \"#utility.yul\":8594:8603   */\n      dup2\n        /* \"#utility.yul\":8588:8592   */\n      dup2\n        /* \"#utility.yul\":8584:8604   */\n      sub\n        /* \"#utility.yul\":8580:8581   */\n      0x00\n        /* \"#utility.yul\":8569:8578   */\n      dup4\n        /* \"#utility.yul\":8565:8582   */\n      add\n        /* \"#utility.yul\":8558:8605   */\n      mstore\n        /* \"#utility.yul\":8622:8772   */\n      tag_227\n        /* \"#utility.yul\":8767:8771   */\n      dup2\n        /* \"#utility.yul\":8758:8764   */\n      dup5\n        /* \"#utility.yul\":8622:8772   */\n      tag_110\n      jump\t// in\n    tag_227:\n        /* \"#utility.yul\":8614:8772   */\n      swap1\n      pop\n        /* \"#utility.yul\":8322:8779   */\n      swap3\n      swap2\n      pop\n      pop\n      jump\t// out\n        /* \"#utility.yul\":8785:8902   */\n    tag_111:\n        /* \"#utility.yul\":8894:8895   */\n      0x00\n        /* \"#utility.yul\":8891:8892   */\n      dup1\n        /* \"#utility.yul\":8884:8896   */\n      revert\n        /* \"#utility.yul\":8908:9025   */\n    tag_112:\n        /* \"#utility.yul\":9017:9018   */\n      0x00\n        /* \"#utility.yul\":9014:9015   */\n      dup1\n        /* \"#utility.yul\":9007:9019   */\n      revert\n        /* \"#utility.yul\":9031:9211   */\n    tag_113:\n        /* \"#utility.yul\":9079:9156   */\n      0x4e487b7100000000000000000000000000000000000000000000000000000000\n        /* \"#utility.yul\":9076:9077   */\n      0x00\n        /* \"#utility.yul\":9069:9157   */\n      mstore\n        /* \"#utility.yul\":9176:9180   */\n      0x41\n        /* \"#utility.yul\":9173:9174   */\n      0x04\n        /* \"#utility.yul\":9166:9181   */\n      mstore\n        /* \"#utility.yul\":9200:9204   */\n      0x24\n        /* \"#utility.yul\":9197:9198   */\n      0x00\n        /* \"#utility.yul\":9190:9205   */\n      revert\n        /* \"#utility.yul\":9217:9498   */\n    tag_114:\n        /* \"#utility.yul\":9300:9327   */\n      tag_232\n        /* \"#utility.yul\":9322:9326   */\n      dup3\n        /* \"#utility.yul\":9300:9327   */\n      tag_94\n      jump\t// in\n    tag_232:\n        /* \"#utility.yul\":9292:9298   */\n      dup2\n        /* \"#utility.yul\":9288:9328   */\n      add\n        /* \"#utility.yul\":9430:9436   */\n      dup2\n        /* \"#utility.yul\":9418:9428   */\n      dup2\n        /* \"#utility.yul\":9415:9437   */\n      lt\n        /* \"#utility.yul\":9394:9412   */\n      0xffffffffffffffff\n        /* \"#utility.yul\":9382:9392   */\n      dup3\n        /* \"#utility.yul\":9379:9413   */\n      gt\n        /* \"#utility.yul\":9376:9438   */\n      or\n        /* \"#utility.yul\":9373:9461   */\n      iszero\n      tag_233\n      jumpi\n        /* \"#utility.yul\":9441:9459   */\n      tag_234\n      tag_113\n      jump\t// in\n    tag_234:\n        /* \"#utility.yul\":9373:9461   */\n    tag_233:\n        /* \"#utility.yul\":9481:9491   */\n      dup1\n        /* \"#utility.yul\":9477:9479   */\n      0x40\n        /* \"#utility.yul\":9470:9492   */\n      mstore\n        /* \"#utility.yul\":9260:9498   */\n      pop\n        /* \"#utility.yul\":9217:9498   */\n      pop\n      pop\n      jump\t// out\n        /* \"#utility.yul\":9504:9633   */\n    tag_115:\n        /* \"#utility.yul\":9538:9544   */\n      0x00\n        /* \"#utility.yul\":9565:9585   */\n      tag_236\n      tag_80\n      jump\t// in\n    tag_236:\n        /* \"#utility.yul\":9555:9585   */\n      swap1\n      pop\n        /* \"#utility.yul\":9594:9627   */\n      tag_237\n        /* \"#utility.yul\":9622:9626   */\n      dup3\n        /* \"#utility.yul\":9614:9620   */\n      dup3\n        /* \"#utility.yul\":9594:9627   */\n      tag_114\n      jump\t// in\n    tag_237:\n        /* \"#utility.yul\":9504:9633   */\n      swap2\n      swap1\n      pop\n      jump\t// out\n        /* \"#utility.yul\":9639:9947   */\n    tag_116:\n        /* \"#utility.yul\":9701:9705   */\n      0x00\n        /* \"#utility.yul\":9791:9809   */\n      0xffffffffffffffff\n        /* \"#utility.yul\":9783:9789   */\n      dup3\n        /* \"#utility.yul\":9780:9810   */\n      gt\n        /* \"#utility.yul\":9777:9833   */\n      iszero\n      tag_239\n      jumpi\n        /* \"#utility.yul\":9813:9831   */\n      tag_240\n      tag_113\n      jump\t// in\n    tag_240:\n        /* \"#utility.yul\":9777:9833   */\n    tag_239:\n        /* \"#utility.yul\":9851:9880   */\n      tag_241\n        /* \"#utility.yul\":9873:9879   */\n      dup3\n        /* \"#utility.yul\":9851:9880   */\n      tag_94\n      jump\t// in\n    tag_241:\n        /* \"#utility.yul\":9843:9880   */\n      swap1\n      pop\n        /* \"#utility.yul\":9935:9939   */\n      0x20\n        /* \"#utility.yul\":9929:9933   */\n      dup2\n        /* \"#utility.yul\":9925:9940   */\n      add\n        /* \"#utility.yul\":9917:9940   */\n      swap1\n      pop\n        /* \"#utility.yul\":9639:9947   */\n      swap2\n      swap1\n      pop\n      jump\t// out\n        /* \"#utility.yul\":9953:10101   */\n    tag_117:\n        /* \"#utility.yul\":10051:10057   */\n      dup3\n        /* \"#utility.yul\":10046:10049   */\n      dup2\n        /* \"#utility.yul\":10041:10044   */\n      dup4\n        /* \"#utility.yul\":10028:10058   */\n      calldatacopy\n        /* \"#utility.yul\":10092:10093   */\n      0x00\n        /* \"#utility.yul\":10083:10089   */\n      dup4\n        /* \"#utility.yul\":10078:10081   */\n      dup4\n        /* \"#utility.yul\":10074:10090   */\n      add\n        /* \"#utility.yul\":10067:10094   */\n      mstore\n        /* \"#utility.yul\":9953:10101   */\n      pop\n      pop\n      pop\n      jump\t// out\n        /* \"#utility.yul\":10107:10532   */\n    tag_118:\n        /* \"#utility.yul\":10185:10190   */\n      0x00\n        /* \"#utility.yul\":10210:10276   */\n      tag_244\n        /* \"#utility.yul\":10226:10275   */\n      tag_245\n        /* \"#utility.yul\":10268:10274   */\n      dup5\n        /* \"#utility.yul\":10226:10275   */\n      tag_116\n      jump\t// in\n    tag_245:\n        /* \"#utility.yul\":10210:10276   */\n      tag_115\n      jump\t// in\n    tag_244:\n        /* \"#utility.yul\":10201:10276   */\n      swap1\n      pop\n        /* \"#utility.yul\":10299:10305   */\n      dup3\n        /* \"#utility.yul\":10292:10297   */\n      dup2\n        /* \"#utility.yul\":10285:10306   */\n      mstore\n        /* \"#utility.yul\":10337:10341   */\n      0x20\n        /* \"#utility.yul\":10330:10335   */\n      dup2\n        /* \"#utility.yul\":10326:10342   */\n      add\n        /* \"#utility.yul\":10375:10378   */\n      dup5\n        /* \"#utility.yul\":10366:10372   */\n      dup5\n        /* \"#utility.yul\":10361:10364   */\n      dup5\n        /* \"#utility.yul\":10357:10373   */\n      add\n        /* \"#utility.yul\":10354:10379   */\n      gt\n        /* \"#utility.yul\":10351:10463   */\n      iszero\n      tag_246\n      jumpi\n        /* \"#utility.yul\":10382:10461   */\n      tag_247\n      tag_112\n      jump\t// in\n    tag_247:\n        /* \"#utility.yul\":10351:10463   */\n    tag_246:\n        /* \"#utility.yul\":10472:10526   */\n      tag_248\n        /* \"#utility.yul\":10519:10525   */\n      dup5\n        /* \"#utility.yul\":10514:10517   */\n      dup3\n        /* \"#utility.yul\":10509:10512   */\n      dup6\n        /* \"#utility.yul\":10472:10526   */\n      tag_117\n      jump\t// in\n    tag_248:\n        /* \"#utility.yul\":10191:10532   */\n      pop\n        /* \"#utility.yul\":10107:10532   */\n      swap4\n      swap3\n      pop\n      pop\n      pop\n      jump\t// out\n        /* \"#utility.yul\":10552:10892   */\n    tag_119:\n        /* \"#utility.yul\":10608:10613   */\n      0x00\n        /* \"#utility.yul\":10657:10660   */\n      dup3\n        /* \"#utility.yul\":10650:10654   */\n      0x1f\n        /* \"#utility.yul\":10642:10648   */\n      dup4\n        /* \"#utility.yul\":10638:10655   */\n      add\n        /* \"#utility.yul\":10634:10661   */\n      slt\n        /* \"#utility.yul\":10624:10746   */\n      tag_250\n      jumpi\n        /* \"#utility.yul\":10665:10744   */\n      tag_251\n      tag_111\n      jump\t// in\n    tag_251:\n        /* \"#utility.yul\":10624:10746   */\n    tag_250:\n        /* \"#utility.yul\":10782:10788   */\n      dup2\n        /* \"#utility.yul\":10769:10789   */\n      calldataload\n        /* \"#utility.yul\":10807:10886   */\n      tag_252\n        /* \"#utility.yul\":10882:10885   */\n      dup5\n        /* \"#utility.yul\":10874:10880   */\n      dup3\n        /* \"#utility.yul\":10867:10871   */\n      0x20\n        /* \"#utility.yul\":10859:10865   */\n      dup7\n        /* \"#utility.yul\":10855:10872   */\n      add\n        /* \"#utility.yul\":10807:10886   */\n      tag_118\n      jump\t// in\n    tag_252:\n        /* \"#utility.yul\":10798:10886   */\n      swap2\n      pop\n        /* \"#utility.yul\":10614:10892   */\n      pop\n        /* \"#utility.yul\":10552:10892   */\n      swap3\n      swap2\n      pop\n      pop\n      jump\t// out\n        /* \"#utility.yul\":10898:11407   */\n    tag_27:\n        /* \"#utility.yul\":10967:10973   */\n      0x00\n        /* \"#utility.yul\":11016:11018   */\n      0x20\n        /* \"#utility.yul\":11004:11013   */\n      dup3\n        /* \"#utility.yul\":10995:11002   */\n      dup5\n        /* \"#utility.yul\":10991:11014   */\n      sub\n        /* \"#utility.yul\":10987:11019   */\n      slt\n        /* \"#utility.yul\":10984:11103   */\n      iszero\n      tag_254\n      jumpi\n        /* \"#utility.yul\":11022:11101   */\n      tag_255\n      tag_81\n      jump\t// in\n    tag_255:\n        /* \"#utility.yul\":10984:11103   */\n    tag_254:\n        /* \"#utility.yul\":11170:11171   */\n      0x00\n        /* \"#utility.yul\":11159:11168   */\n      dup3\n        /* \"#utility.yul\":11155:11172   */\n      add\n        /* \"#utility.yul\":11142:11173   */\n      calldataload\n        /* \"#utility.yul\":11200:11218   */\n      0xffffffffffffffff\n        /* \"#utility.yul\":11192:11198   */\n      dup2\n        /* \"#utility.yul\":11189:11219   */\n      gt\n        /* \"#utility.yul\":11186:11303   */\n      iszero\n      tag_256\n      jumpi\n        /* \"#utility.yul\":11222:11301   */\n      tag_257\n      tag_82\n      jump\t// in\n    tag_257:\n        /* \"#utility.yul\":11186:11303   */\n    tag_256:\n        /* \"#utility.yul\":11327:11390   */\n      tag_258\n        /* \"#utility.yul\":11382:11389   */\n      dup5\n        /* \"#utility.yul\":11373:11379   */\n      dup3\n        /* \"#utility.yul\":11362:11371   */\n      dup6\n        /* \"#utility.yul\":11358:11380   */\n      add\n        /* \"#utility.yul\":11327:11390   */\n      tag_119\n      jump\t// in\n    tag_258:\n        /* \"#utility.yul\":11317:11390   */\n      swap2\n      pop\n        /* \"#utility.yul\":11113:11400   */\n      pop\n        /* \"#utility.yul\":10898:11407   */\n      swap3\n      swap2\n      pop\n      pop\n      jump\t// out\n        /* \"#utility.yul\":11413:11635   */\n    tag_32:\n        /* \"#utility.yul\":11506:11510   */\n      0x00\n        /* \"#utility.yul\":11544:11546   */\n      0x20\n        /* \"#utility.yul\":11533:11542   */\n      dup3\n        /* \"#utility.yul\":11529:11547   */\n      add\n        /* \"#utility.yul\":11521:11547   */\n      swap1\n      pop\n        /* \"#utility.yul\":11557:11628   */\n      tag_260\n        /* \"#utility.yul\":11625:11626   */\n      0x00\n        /* \"#utility.yul\":11614:11623   */\n      dup4\n        /* \"#utility.yul\":11610:11627   */\n      add\n        /* \"#utility.yul\":11601:11607   */\n      dup5\n        /* \"#utility.yul\":11557:11628   */\n      tag_90\n      jump\t// in\n    tag_260:\n        /* \"#utility.yul\":11413:11635   */\n      swap3\n      swap2\n      pop\n      pop\n      jump\t// out\n        /* \"#utility.yul\":11641:11970   */\n    tag_35:\n        /* \"#utility.yul\":11700:11706   */\n      0x00\n        /* \"#utility.yul\":11749:11751   */\n      0x20\n        /* \"#utility.yul\":11737:11746   */\n      dup3\n        /* \"#utility.yul\":11728:11735   */\n      dup5\n        /* \"#utility.yul\":11724:11747   */\n      sub\n        /* \"#utility.yul\":11720:11752   */\n      slt\n        /* \"#utility.yul\":11717:11836   */\n      iszero\n      tag_262\n      jumpi\n        /* \"#utility.yul\":11755:11834   */\n      tag_263\n      tag_81\n      jump\t// in\n    tag_263:\n        /* \"#utility.yul\":11717:11836   */\n    tag_262:\n        /* \"#utility.yul\":11875:11876   */\n      0x00\n        /* \"#utility.yul\":11900:11953   */\n      tag_264\n        /* \"#utility.yul\":11945:11952   */\n      dup5\n        /* \"#utility.yul\":11936:11942   */\n      dup3\n        /* \"#utility.yul\":11925:11934   */\n      dup6\n        /* \"#utility.yul\":11921:11943   */\n      add\n        /* \"#utility.yul\":11900:11953   */\n      tag_89\n      jump\t// in\n    tag_264:\n        /* \"#utility.yul\":11890:11953   */\n      swap2\n      pop\n        /* \"#utility.yul\":11846:11963   */\n      pop\n        /* \"#utility.yul\":11641:11970   */\n      swap3\n      swap2\n      pop\n      pop\n      jump\t// out\n        /* \"#utility.yul\":12028:12985   */\n    tag_120:\n        /* \"#utility.yul\":12139:12142   */\n      0x00\n        /* \"#utility.yul\":12175:12179   */\n      0x80\n        /* \"#utility.yul\":12170:12173   */\n      dup4\n        /* \"#utility.yul\":12166:12180   */\n      add\n        /* \"#utility.yul\":12264:12268   */\n      0x00\n        /* \"#utility.yul\":12257:12262   */\n      dup4\n        /* \"#utility.yul\":12253:12269   */\n      add\n        /* \"#utility.yul\":12247:12270   */\n      mload\n        /* \"#utility.yul\":12283:12346   */\n      tag_266\n        /* \"#utility.yul\":12340:12344   */\n      0x00\n        /* \"#utility.yul\":12335:12338   */\n      dup7\n        /* \"#utility.yul\":12331:12345   */\n      add\n        /* \"#utility.yul\":12317:12329   */\n      dup3\n        /* \"#utility.yul\":12283:12346   */\n      tag_103\n      jump\t// in\n    tag_266:\n        /* \"#utility.yul\":12190:12356   */\n      pop\n        /* \"#utility.yul\":12441:12445   */\n      0x20\n        /* \"#utility.yul\":12434:12439   */\n      dup4\n        /* \"#utility.yul\":12430:12446   */\n      add\n        /* \"#utility.yul\":12424:12447   */\n      mload\n        /* \"#utility.yul\":12494:12497   */\n      dup5\n        /* \"#utility.yul\":12488:12492   */\n      dup3\n        /* \"#utility.yul\":12484:12498   */\n      sub\n        /* \"#utility.yul\":12477:12481   */\n      0x20\n        /* \"#utility.yul\":12472:12475   */\n      dup7\n        /* \"#utility.yul\":12468:12482   */\n      add\n        /* \"#utility.yul\":12461:12499   */\n      mstore\n        /* \"#utility.yul\":12520:12593   */\n      tag_267\n        /* \"#utility.yul\":12588:12592   */\n      dup3\n        /* \"#utility.yul\":12574:12586   */\n      dup3\n        /* \"#utility.yul\":12520:12593   */\n      tag_105\n      jump\t// in\n    tag_267:\n        /* \"#utility.yul\":12512:12593   */\n      swap2\n      pop\n        /* \"#utility.yul\":12366:12604   */\n      pop\n        /* \"#utility.yul\":12691:12695   */\n      0x40\n        /* \"#utility.yul\":12684:12689   */\n      dup4\n        /* \"#utility.yul\":12680:12696   */\n      add\n        /* \"#utility.yul\":12674:12697   */\n      mload\n        /* \"#utility.yul\":12710:12773   */\n      tag_268\n        /* \"#utility.yul\":12767:12771   */\n      0x40\n        /* \"#utility.yul\":12762:12765   */\n      dup7\n        /* \"#utility.yul\":12758:12772   */\n      add\n        /* \"#utility.yul\":12744:12756   */\n      dup3\n        /* \"#utility.yul\":12710:12773   */\n      tag_106\n      jump\t// in\n    tag_268:\n        /* \"#utility.yul\":12614:12783   */\n      pop\n        /* \"#utility.yul\":12866:12870   */\n      0x60\n        /* \"#utility.yul\":12859:12864   */\n      dup4\n        /* \"#utility.yul\":12855:12871   */\n      add\n        /* \"#utility.yul\":12849:12872   */\n      mload\n        /* \"#utility.yul\":12885:12948   */\n      tag_269\n        /* \"#utility.yul\":12942:12946   */\n      0x60\n        /* \"#utility.yul\":12937:12940   */\n      dup7\n        /* \"#utility.yul\":12933:12947   */\n      add\n        /* \"#utility.yul\":12919:12931   */\n      dup3\n        /* \"#utility.yul\":12885:12948   */\n      tag_106\n      jump\t// in\n    tag_269:\n        /* \"#utility.yul\":12793:12958   */\n      pop\n        /* \"#utility.yul\":12975:12979   */\n      dup1\n        /* \"#utility.yul\":12968:12979   */\n      swap2\n      pop\n        /* \"#utility.yul\":12144:12985   */\n      pop\n        /* \"#utility.yul\":12028:12985   */\n      swap3\n      swap2\n      pop\n      pop\n      jump\t// out\n        /* \"#utility.yul\":12991:13348   */\n    tag_38:\n        /* \"#utility.yul\":13126:13130   */\n      0x00\n        /* \"#utility.yul\":13164:13166   */\n      0x20\n        /* \"#utility.yul\":13153:13162   */\n      dup3\n        /* \"#utility.yul\":13149:13167   */\n      add\n        /* \"#utility.yul\":13141:13167   */\n      swap1\n      pop\n        /* \"#utility.yul\":13213:13222   */\n      dup2\n        /* \"#utility.yul\":13207:13211   */\n      dup2\n        /* \"#utility.yul\":13203:13223   */\n      sub\n        /* \"#utility.yul\":13199:13200   */\n      0x00\n        /* \"#utility.yul\":13188:13197   */\n      dup4\n        /* \"#utility.yul\":13184:13201   */\n      add\n        /* \"#utility.yul\":13177:13224   */\n      mstore\n        /* \"#utility.yul\":13241:13341   */\n      tag_271\n        /* \"#utility.yul\":13336:13340   */\n      dup2\n        /* \"#utility.yul\":13327:13333   */\n      dup5\n        /* \"#utility.yul\":13241:13341   */\n      tag_120\n      jump\t// in\n    tag_271:\n        /* \"#utility.yul\":13233:13341   */\n      swap1\n      pop\n        /* \"#utility.yul\":12991:13348   */\n      swap3\n      swap2\n      pop\n      pop\n      jump\t// out\n        /* \"#utility.yul\":13354:13534   */\n    tag_121:\n        /* \"#utility.yul\":13402:13479   */\n      0x4e487b7100000000000000000000000000000000000000000000000000000000\n        /* \"#utility.yul\":13399:13400   */\n      0x00\n        /* \"#utility.yul\":13392:13480   */\n      mstore\n        /* \"#utility.yul\":13499:13503   */\n      0x22\n        /* \"#utility.yul\":13496:13497   */\n      0x04\n        /* \"#utility.yul\":13489:13504   */\n      mstore\n        /* \"#utility.yul\":13523:13527   */\n      0x24\n        /* \"#utility.yul\":13520:13521   */\n      0x00\n        /* \"#utility.yul\":13513:13528   */\n      revert\n        /* \"#utility.yul\":13540:13860   */\n    tag_42:\n        /* \"#utility.yul\":13584:13590   */\n      0x00\n        /* \"#utility.yul\":13621:13622   */\n      0x02\n        /* \"#utility.yul\":13615:13619   */\n      dup3\n        /* \"#utility.yul\":13611:13623   */\n      div\n        /* \"#utility.yul\":13601:13623   */\n      swap1\n      pop\n        /* \"#utility.yul\":13668:13669   */\n      0x01\n        /* \"#utility.yul\":13662:13666   */\n      dup3\n        /* \"#utility.yul\":13658:13670   */\n      and\n        /* \"#utility.yul\":13689:13707   */\n      dup1\n        /* \"#utility.yul\":13679:13760   */\n      tag_274\n      jumpi\n        /* \"#utility.yul\":13745:13749   */\n      0x7f\n        /* \"#utility.yul\":13737:13743   */\n      dup3\n        /* \"#utility.yul\":13733:13750   */\n      and\n        /* \"#utility.yul\":13723:13750   */\n      swap2\n      pop\n        /* \"#utility.yul\":13679:13760   */\n    tag_274:\n        /* \"#utility.yul\":13807:13809   */\n      0x20\n        /* \"#utility.yul\":13799:13805   */\n      dup3\n        /* \"#utility.yul\":13796:13810   */\n      lt\n        /* \"#utility.yul\":13776:13794   */\n      dup2\n        /* \"#utility.yul\":13773:13811   */\n      sub\n        /* \"#utility.yul\":13770:13854   */\n      tag_275\n      jumpi\n        /* \"#utility.yul\":13826:13844   */\n      tag_276\n      tag_121\n      jump\t// in\n    tag_276:\n        /* \"#utility.yul\":13770:13854   */\n    tag_275:\n        /* \"#utility.yul\":13591:13860   */\n      pop\n        /* \"#utility.yul\":13540:13860   */\n      swap2\n      swap1\n      pop\n      jump\t// out\n        /* \"#utility.yul\":13866:14038   */\n    tag_122:\n        /* \"#utility.yul\":14006:14030   */\n      0x596f757220617265206e6f7420746865206f776e657200000000000000000000\n        /* \"#utility.yul\":14002:14003   */\n      0x00\n        /* \"#utility.yul\":13994:14000   */\n      dup3\n        /* \"#utility.yul\":13990:14004   */\n      add\n        /* \"#utility.yul\":13983:14031   */\n      mstore\n        /* \"#utility.yul\":13866:14038   */\n      pop\n      jump\t// out\n        /* \"#utility.yul\":14044:14410   */\n    tag_123:\n        /* \"#utility.yul\":14186:14189   */\n      0x00\n        /* \"#utility.yul\":14207:14274   */\n      tag_279\n        /* \"#utility.yul\":14271:14273   */\n      0x16\n        /* \"#utility.yul\":14266:14269   */\n      dup4\n        /* \"#utility.yul\":14207:14274   */\n      tag_92\n      jump\t// in\n    tag_279:\n        /* \"#utility.yul\":14200:14274   */\n      swap2\n      pop\n        /* \"#utility.yul\":14283:14376   */\n      tag_280\n        /* \"#utility.yul\":14372:14375   */\n      dup3\n        /* \"#utility.yul\":14283:14376   */\n      tag_122\n      jump\t// in\n    tag_280:\n        /* \"#utility.yul\":14401:14403   */\n      0x20\n        /* \"#utility.yul\":14396:14399   */\n      dup3\n        /* \"#utility.yul\":14392:14404   */\n      add\n        /* \"#utility.yul\":14385:14404   */\n      swap1\n      pop\n        /* \"#utility.yul\":14044:14410   */\n      swap2\n      swap1\n      pop\n      jump\t// out\n        /* \"#utility.yul\":14416:14835   */\n    tag_50:\n        /* \"#utility.yul\":14582:14586   */\n      0x00\n        /* \"#utility.yul\":14620:14622   */\n      0x20\n        /* \"#utility.yul\":14609:14618   */\n      dup3\n        /* \"#utility.yul\":14605:14623   */\n      add\n        /* \"#utility.yul\":14597:14623   */\n      swap1\n      pop\n        /* \"#utility.yul\":14669:14678   */\n      dup2\n        /* \"#utility.yul\":14663:14667   */\n      dup2\n        /* \"#utility.yul\":14659:14679   */\n      sub\n        /* \"#utility.yul\":14655:14656   */\n      0x00\n        /* \"#utility.yul\":14644:14653   */\n      dup4\n        /* \"#utility.yul\":14640:14657   */\n      add\n        /* \"#utility.yul\":14633:14680   */\n      mstore\n        /* \"#utility.yul\":14697:14828   */\n      tag_282\n        /* \"#utility.yul\":14823:14827   */\n      dup2\n        /* \"#utility.yul\":14697:14828   */\n      tag_123\n      jump\t// in\n    tag_282:\n        /* \"#utility.yul\":14689:14828   */\n      swap1\n      pop\n        /* \"#utility.yul\":14416:14835   */\n      swap2\n      swap1\n      pop\n      jump\t// out\n        /* \"#utility.yul\":14841:15013   */\n    tag_124:\n        /* \"#utility.yul\":14981:15005   */\n      0x547765657420697320746f6f206c6f6e672062726f2100000000000000000000\n        /* \"#utility.yul\":14977:14978   */\n      0x00\n        /* \"#utility.yul\":14969:14975   */\n      dup3\n        /* \"#utility.yul\":14965:14979   */\n      add\n        /* \"#utility.yul\":14958:15006   */\n      mstore\n        /* \"#utility.yul\":14841:15013   */\n      pop\n      jump\t// out\n        /* \"#utility.yul\":15019:15385   */\n    tag_125:\n        /* \"#utility.yul\":15161:15164   */\n      0x00\n        /* \"#utility.yul\":15182:15249   */\n      tag_285\n        /* \"#utility.yul\":15246:15248   */\n      0x16\n        /* \"#utility.yul\":15241:15244   */\n      dup4\n        /* \"#utility.yul\":15182:15249   */\n      tag_92\n      jump\t// in\n    tag_285:\n        /* \"#utility.yul\":15175:15249   */\n      swap2\n      pop\n        /* \"#utility.yul\":15258:15351   */\n      tag_286\n        /* \"#utility.yul\":15347:15350   */\n      dup3\n        /* \"#utility.yul\":15258:15351   */\n      tag_124\n      jump\t// in\n    tag_286:\n        /* \"#utility.yul\":15376:15378   */\n      0x20\n        /* \"#utility.yul\":15371:15374   */\n      dup3\n        /* \"#utility.yul\":15367:15379   */\n      add\n        /* \"#utility.yul\":15360:15379   */\n      swap1\n      pop\n        /* \"#utility.yul\":15019:15385   */\n      swap2\n      swap1\n      pop\n      jump\t// out\n        /* \"#utility.yul\":15391:15810   */\n    tag_64:\n        /* \"#utility.yul\":15557:15561   */\n      0x00\n        /* \"#utility.yul\":15595:15597   */\n      0x20\n        /* \"#utility.yul\":15584:15593   */\n      dup3\n        /* \"#utility.yul\":15580:15598   */\n      add\n        /* \"#utility.yul\":15572:15598   */\n      swap1\n      pop\n        /* \"#utility.yul\":15644:15653   */\n      dup2\n        /* \"#utility.yul\":15638:15642   */\n      dup2\n        /* \"#utility.yul\":15634:15654   */\n      sub\n        /* \"#utility.yul\":15630:15631   */\n      0x00\n        /* \"#utility.yul\":15619:15628   */\n      dup4\n        /* \"#utility.yul\":15615:15632   */\n      add\n        /* \"#utility.yul\":15608:15655   */\n      mstore\n        /* \"#utility.yul\":15672:15803   */\n      tag_288\n        /* \"#utility.yul\":15798:15802   */\n      dup2\n        /* \"#utility.yul\":15672:15803   */\n      tag_125\n      jump\t// in\n    tag_288:\n        /* \"#utility.yul\":15664:15803   */\n      swap1\n      pop\n        /* \"#utility.yul\":15391:15810   */\n      swap2\n      swap1\n      pop\n      jump\t// out\n        /* \"#utility.yul\":15816:15957   */\n    tag_126:\n        /* \"#utility.yul\":15865:15869   */\n      0x00\n        /* \"#utility.yul\":15888:15891   */\n      dup2\n        /* \"#utility.yul\":15880:15891   */\n      swap1\n      pop\n        /* \"#utility.yul\":15911:15914   */\n      dup2\n        /* \"#utility.yul\":15908:15909   */\n      0x00\n        /* \"#utility.yul\":15901:15915   */\n      mstore\n        /* \"#utility.yul\":15945:15949   */\n      0x20\n        /* \"#utility.yul\":15942:15943   */\n      0x00\n        /* \"#utility.yul\":15932:15950   */\n      keccak256\n        /* \"#utility.yul\":15924:15950   */\n      swap1\n      pop\n        /* \"#utility.yul\":15816:15957   */\n      swap2\n      swap1\n      pop\n      jump\t// out\n        /* \"#utility.yul\":15963:16056   */\n    tag_127:\n        /* \"#utility.yul\":16000:16006   */\n      0x00\n        /* \"#utility.yul\":16047:16049   */\n      0x20\n        /* \"#utility.yul\":16042:16044   */\n      0x1f\n        /* \"#utility.yul\":16035:16040   */\n      dup4\n        /* \"#utility.yul\":16031:16045   */\n      add\n        /* \"#utility.yul\":16027:16050   */\n      div\n        /* \"#utility.yul\":16017:16050   */\n      swap1\n      pop\n        /* \"#utility.yul\":15963:16056   */\n      swap2\n      swap1\n      pop\n      jump\t// out\n        /* \"#utility.yul\":16062:16169   */\n    tag_128:\n        /* \"#utility.yul\":16106:16114   */\n      0x00\n        /* \"#utility.yul\":16156:16161   */\n      dup3\n        /* \"#utility.yul\":16150:16154   */\n      dup3\n        /* \"#utility.yul\":16146:16162   */\n      shl\n        /* \"#utility.yul\":16125:16162   */\n      swap1\n      pop\n        /* \"#utility.yul\":16062:16169   */\n      swap3\n      swap2\n      pop\n      pop\n      jump\t// out\n        /* \"#utility.yul\":16175:16568   */\n    tag_129:\n        /* \"#utility.yul\":16244:16250   */\n      0x00\n        /* \"#utility.yul\":16294:16295   */\n      0x08\n        /* \"#utility.yul\":16282:16292   */\n      dup4\n        /* \"#utility.yul\":16278:16296   */\n      mul\n        /* \"#utility.yul\":16317:16414   */\n      tag_293\n        /* \"#utility.yul\":16347:16413   */\n      0xffffffffffffffffffffffffffffffffffffffffffffffffffffffffffffffff\n        /* \"#utility.yul\":16336:16345   */\n      dup3\n        /* \"#utility.yul\":16317:16414   */\n      tag_128\n      jump\t// in\n    tag_293:\n        /* \"#utility.yul\":16435:16474   */\n      tag_294\n        /* \"#utility.yul\":16465:16473   */\n      dup7\n        /* \"#utility.yul\":16454:16463   */\n      dup4\n        /* \"#utility.yul\":16435:16474   */\n      tag_128\n      jump\t// in\n    tag_294:\n        /* \"#utility.yul\":16423:16474   */\n      swap6\n      pop\n        /* \"#utility.yul\":16507:16511   */\n      dup1\n        /* \"#utility.yul\":16503:16512   */\n      not\n        /* \"#utility.yul\":16496:16501   */\n      dup5\n        /* \"#utility.yul\":16492:16513   */\n      and\n        /* \"#utility.yul\":16483:16513   */\n      swap4\n      pop\n        /* \"#utility.yul\":16556:16560   */\n      dup1\n        /* \"#utility.yul\":16546:16554   */\n      dup7\n        /* \"#utility.yul\":16542:16561   */\n      and\n        /* \"#utility.yul\":16535:16540   */\n      dup5\n        /* \"#utility.yul\":16532:16562   */\n      or\n        /* \"#utility.yul\":16522:16562   */\n      swap3\n      pop\n        /* \"#utility.yul\":16251:16568   */\n      pop\n      pop\n        /* \"#utility.yul\":16175:16568   */\n      swap4\n      swap3\n      pop\n      pop\n      pop\n      jump\t// out\n        /* \"#utility.yul\":16574:16634   */\n    tag_130:\n        /* \"#utility.yul\":16602:16605   */\n      0x00\n        /* \"#utility.yul\":16623:16628   */\n      dup2\n        /* \"#utility.yul\":16616:16628   */\n      swap1\n      pop\n        /* \"#utility.yul\":16574:16634   */\n      swap2\n      swap1\n      pop\n      jump\t// out\n        /* \"#utility.yul\":16640:16782   */\n    tag_131:\n        /* \"#utility.yul\":16690:16699   */\n      0x00\n        /* \"#utility.yul\":16723:16776   */\n      tag_297\n        /* \"#utility.yul\":16741:16775   */\n      tag_298\n        /* \"#utility.yul\":16750:16774   */\n      tag_299\n        /* \"#utility.yul\":16768:16773   */\n      dup5\n        /* \"#utility.yul\":16750:16774   */\n      tag_87\n      jump\t// in\n    tag_299:\n        /* \"#utility.yul\":16741:16775   */\n      tag_130\n      jump\t// in\n    tag_298:\n        /* \"#utility.yul\":16723:16776   */\n      tag_87\n      jump\t// in\n    tag_297:\n        /* \"#utility.yul\":16710:16776   */\n      swap1\n      pop\n        /* \"#utility.yul\":16640:16782   */\n      swap2\n      swap1\n      pop\n      jump\t// out\n        /* \"#utility.yul\":16788:16863   */\n    tag_132:\n        /* \"#utility.yul\":16831:16834   */\n      0x00\n        /* \"#utility.yul\":16852:16857   */\n      dup2\n        /* \"#utility.yul\":16845:16857   */\n      swap1\n      pop\n        /* \"#utility.yul\":16788:16863   */\n      swap2\n      swap1\n      pop\n      jump\t// out\n        /* \"#utility.yul\":16869:17138   */\n    tag_133:\n        /* \"#utility.yul\":16979:17018   */\n      tag_302\n        /* \"#utility.yul\":17010:17017   */\n      dup4\n        /* \"#utility.yul\":16979:17018   */\n      tag_131\n      jump\t// in\n    tag_302:\n        /* \"#utility.yul\":17040:17131   */\n      tag_303\n        /* \"#utility.yul\":17089:17130   */\n      tag_304\n        /* \"#utility.yul\":17113:17129   */\n      dup3\n        /* \"#utility.yul\":17089:17130   */\n      tag_132\n      jump\t// in\n    tag_304:\n        /* \"#utility.yul\":17081:17087   */\n      dup5\n        /* \"#utility.yul\":17074:17078   */\n      dup5\n        /* \"#utility.yul\":17068:17079   */\n      sload\n        /* \"#utility.yul\":17040:17131   */\n      tag_129\n      jump\t// in\n    tag_303:\n        /* \"#utility.yul\":17034:17038   */\n      dup3\n        /* \"#utility.yul\":17027:17132   */\n      sstore\n        /* \"#utility.yul\":16945:17138   */\n      pop\n        /* \"#utility.yul\":16869:17138   */\n      pop\n      pop\n      pop\n      jump\t// out\n        /* \"#utility.yul\":17144:17217   */\n    tag_134:\n        /* \"#utility.yul\":17189:17192   */\n      0x00\n        /* \"#utility.yul\":17144:17217   */\n      swap1\n      jump\t// out\n        /* \"#utility.yul\":17223:17412   */\n    tag_135:\n        /* \"#utility.yul\":17300:17332   */\n      tag_307\n      tag_134\n      jump\t// in\n    tag_307:\n        /* \"#utility.yul\":17341:17406   */\n      tag_308\n        /* \"#utility.yul\":17399:17405   */\n      dup2\n        /* \"#utility.yul\":17391:17397   */\n      dup5\n        /* \"#utility.yul\":17385:17389   */\n      dup5\n        /* \"#utility.yul\":17341:17406   */\n      tag_133\n      jump\t// in\n    tag_308:\n        /* \"#utility.yul\":17276:17412   */\n      pop\n        /* \"#utility.yul\":17223:17412   */\n      pop\n      pop\n      jump\t// out\n        /* \"#utility.yul\":17418:17604   */\n    tag_136:\n        /* \"#utility.yul\":17478:17598   */\n    tag_310:\n        /* \"#utility.yul\":17495:17498   */\n      dup2\n        /* \"#utility.yul\":17488:17493   */\n      dup2\n        /* \"#utility.yul\":17485:17499   */\n      lt\n        /* \"#utility.yul\":17478:17598   */\n      iszero\n      tag_312\n      jumpi\n        /* \"#utility.yul\":17549:17588   */\n      tag_313\n        /* \"#utility.yul\":17586:17587   */\n      0x00\n        /* \"#utility.yul\":17579:17584   */\n      dup3\n        /* \"#utility.yul\":17549:17588   */\n      tag_135\n      jump\t// in\n    tag_313:\n        /* \"#utility.yul\":17522:17523   */\n      0x01\n        /* \"#utility.yul\":17515:17520   */\n      dup2\n        /* \"#utility.yul\":17511:17524   */\n      add\n        /* \"#utility.yul\":17502:17524   */\n      swap1\n      pop\n        /* \"#utility.yul\":17478:17598   */\n      jump(tag_310)\n    tag_312:\n        /* \"#utility.yul\":17418:17604   */\n      pop\n      pop\n      jump\t// out\n        /* \"#utility.yul\":17610:18153   */\n    tag_137:\n        /* \"#utility.yul\":17711:17713   */\n      0x1f\n        /* \"#utility.yul\":17706:17709   */\n      dup3\n        /* \"#utility.yul\":17703:17714   */\n      gt\n        /* \"#utility.yul\":17700:18146   */\n      iszero\n      tag_315\n      jumpi\n        /* \"#utility.yul\":17745:17783   */\n      tag_316\n        /* \"#utility.yul\":17777:17782   */\n      dup2\n        /* \"#utility.yul\":17745:17783   */\n      tag_126\n      jump\t// in\n    tag_316:\n        /* \"#utility.yul\":17829:17858   */\n      tag_317\n        /* \"#utility.yul\":17847:17857   */\n      dup5\n        /* \"#utility.yul\":17829:17858   */\n      tag_127\n      jump\t// in\n    tag_317:\n        /* \"#utility.yul\":17819:17827   */\n      dup2\n        /* \"#utility.yul\":17815:17859   */\n      add\n        /* \"#utility.yul\":18012:18014   */\n      0x20\n        /* \"#utility.yul\":18000:18010   */\n      dup6\n        /* \"#utility.yul\":17997:18015   */\n      lt\n        /* \"#utility.yul\":17994:18043   */\n      iszero\n      tag_318\n      jumpi\n        /* \"#utility.yul\":18033:18041   */\n      dup2\n        /* \"#utility.yul\":18018:18041   */\n      swap1\n      pop\n        /* \"#utility.yul\":17994:18043   */\n    tag_318:\n        /* \"#utility.yul\":18056:18136   */\n      tag_319\n        /* \"#utility.yul\":18112:18134   */\n      tag_320\n        /* \"#utility.yul\":18130:18133   */\n      dup6\n        /* \"#utility.yul\":18112:18134   */\n      tag_127\n      jump\t// in\n    tag_320:\n        /* \"#utility.yul\":18102:18110   */\n      dup4\n        /* \"#utility.yul\":18098:18135   */\n      add\n        /* \"#utility.yul\":18085:18096   */\n      dup3\n        /* \"#utility.yul\":18056:18136   */\n      tag_136\n      jump\t// in\n    tag_319:\n        /* \"#utility.yul\":17715:18146   */\n      pop\n      pop\n        /* \"#utility.yul\":17700:18146   */\n    tag_315:\n        /* \"#utility.yul\":17610:18153   */\n      pop\n      pop\n      pop\n      jump\t// out\n        /* \"#utility.yul\":18159:18276   */\n    tag_138:\n        /* \"#utility.yul\":18213:18221   */\n      0x00\n        /* \"#utility.yul\":18263:18268   */\n      dup3\n        /* \"#utility.yul\":18257:18261   */\n      dup3\n        /* \"#utility.yul\":18253:18269   */\n      shr\n        /* \"#utility.yul\":18232:18269   */\n      swap1\n      pop\n        /* \"#utility.yul\":18159:18276   */\n      swap3\n      swap2\n      pop\n      pop\n      jump\t// out\n        /* \"#utility.yul\":18282:18451   */\n    tag_139:\n        /* \"#utility.yul\":18326:18332   */\n      0x00\n        /* \"#utility.yul\":18359:18410   */\n      tag_323\n        /* \"#utility.yul\":18407:18408   */\n      0x00\n        /* \"#utility.yul\":18403:18409   */\n      not\n        /* \"#utility.yul\":18395:18400   */\n      dup5\n        /* \"#utility.yul\":18392:18393   */\n      0x08\n        /* \"#utility.yul\":18388:18401   */\n      mul\n        /* \"#utility.yul\":18359:18410   */\n      tag_138\n      jump\t// in\n    tag_323:\n        /* \"#utility.yul\":18355:18411   */\n      not\n        /* \"#utility.yul\":18440:18444   */\n      dup1\n        /* \"#utility.yul\":18434:18438   */\n      dup4\n        /* \"#utility.yul\":18430:18445   */\n      and\n        /* \"#utility.yul\":18420:18445   */\n      swap2\n      pop\n        /* \"#utility.yul\":18333:18451   */\n      pop\n        /* \"#utility.yul\":18282:18451   */\n      swap3\n      swap2\n      pop\n      pop\n      jump\t// out\n        /* \"#utility.yul\":18456:18751   */\n    tag_140:\n        /* \"#utility.yul\":18532:18536   */\n      0x00\n        /* \"#utility.yul\":18678:18707   */\n      tag_325\n        /* \"#utility.yul\":18703:18706   */\n      dup4\n        /* \"#utility.yul\":18697:18701   */\n      dup4\n        /* \"#utility.yul\":18678:18707   */\n      tag_139\n      jump\t// in\n    tag_325:\n        /* \"#utility.yul\":18670:18707   */\n      swap2\n      pop\n        /* \"#utility.yul\":18740:18743   */\n      dup3\n        /* \"#utility.yul\":18737:18738   */\n      0x02\n        /* \"#utility.yul\":18733:18744   */\n      mul\n        /* \"#utility.yul\":18727:18731   */\n      dup3\n        /* \"#utility.yul\":18724:18745   */\n      or\n        /* \"#utility.yul\":18716:18745   */\n      swap1\n      pop\n        /* \"#utility.yul\":18456:18751   */\n      swap3\n      swap2\n      pop\n      pop\n      jump\t// out\n        /* \"#utility.yul\":18756:20151   */\n    tag_67:\n        /* \"#utility.yul\":18873:18910   */\n      tag_327\n        /* \"#utility.yul\":18906:18909   */\n      dup3\n        /* \"#utility.yul\":18873:18910   */\n      tag_91\n      jump\t// in\n    tag_327:\n        /* \"#utility.yul\":18975:18993   */\n      0xffffffffffffffff\n        /* \"#utility.yul\":18967:18973   */\n      dup2\n        /* \"#utility.yul\":18964:18994   */\n      gt\n        /* \"#utility.yul\":18961:19017   */\n      iszero\n      tag_328\n      jumpi\n        /* \"#utility.yul\":18997:19015   */\n      tag_329\n      tag_113\n      jump\t// in\n    tag_329:\n        /* \"#utility.yul\":18961:19017   */\n    tag_328:\n        /* \"#utility.yul\":19041:19079   */\n      tag_330\n        /* \"#utility.yul\":19073:19077   */\n      dup3\n        /* \"#utility.yul\":19067:19078   */\n      sload\n        /* \"#utility.yul\":19041:19079   */\n      tag_42\n      jump\t// in\n    tag_330:\n        /* \"#utility.yul\":19126:19193   */\n      tag_331\n        /* \"#utility.yul\":19186:19192   */\n      dup3\n        /* \"#utility.yul\":19178:19184   */\n      dup3\n        /* \"#utility.yul\":19172:19176   */\n      dup6\n        /* \"#utility.yul\":19126:19193   */\n      tag_137\n      jump\t// in\n    tag_331:\n        /* \"#utility.yul\":19220:19221   */\n      0x00\n        /* \"#utility.yul\":19244:19248   */\n      0x20\n        /* \"#utility.yul\":19231:19248   */\n      swap1\n      pop\n        /* \"#utility.yul\":19276:19278   */\n      0x1f\n        /* \"#utility.yul\":19268:19274   */\n      dup4\n        /* \"#utility.yul\":19265:19279   */\n      gt\n        /* \"#utility.yul\":19293:19294   */\n      0x01\n        /* \"#utility.yul\":19288:19906   */\n      dup2\n      eq\n      tag_333\n      jumpi\n        /* \"#utility.yul\":19950:19951   */\n      0x00\n        /* \"#utility.yul\":19967:19973   */\n      dup5\n        /* \"#utility.yul\":19964:20041   */\n      iszero\n      tag_334\n      jumpi\n        /* \"#utility.yul\":20016:20025   */\n      dup3\n        /* \"#utility.yul\":20011:20014   */\n      dup8\n        /* \"#utility.yul\":20007:20026   */\n      add\n        /* \"#utility.yul\":20001:20027   */\n      mload\n        /* \"#utility.yul\":19992:20027   */\n      swap1\n      pop\n        /* \"#utility.yul\":19964:20041   */\n    tag_334:\n        /* \"#utility.yul\":20067:20134   */\n      tag_335\n        /* \"#utility.yul\":20127:20133   */\n      dup6\n        /* \"#utility.yul\":20120:20125   */\n      dup3\n        /* \"#utility.yul\":20067:20134   */\n      tag_140\n      jump\t// in\n    tag_335:\n        /* \"#utility.yul\":20061:20065   */\n      dup7\n        /* \"#utility.yul\":20054:20135   */\n      sstore\n        /* \"#utility.yul\":19923:20145   */\n      pop\n        /* \"#utility.yul\":19258:20145   */\n      jump(tag_332)\n        /* \"#utility.yul\":19288:19906   */\n    tag_333:\n        /* \"#utility.yul\":19340:19344   */\n      0x1f\n        /* \"#utility.yul\":19336:19345   */\n      not\n        /* \"#utility.yul\":19328:19334   */\n      dup5\n        /* \"#utility.yul\":19324:19346   */\n      and\n        /* \"#utility.yul\":19374:19411   */\n      tag_336\n        /* \"#utility.yul\":19406:19410   */\n      dup7\n        /* \"#utility.yul\":19374:19411   */\n      tag_126\n      jump\t// in\n    tag_336:\n        /* \"#utility.yul\":19433:19434   */\n      0x00\n        /* \"#utility.yul\":19447:19655   */\n    tag_337:\n        /* \"#utility.yul\":19461:19468   */\n      dup3\n        /* \"#utility.yul\":19458:19459   */\n      dup2\n        /* \"#utility.yul\":19455:19469   */\n      lt\n        /* \"#utility.yul\":19447:19655   */\n      iszero\n      tag_339\n      jumpi\n        /* \"#utility.yul\":19540:19549   */\n      dup5\n        /* \"#utility.yul\":19535:19538   */\n      dup10\n        /* \"#utility.yul\":19531:19550   */\n      add\n        /* \"#utility.yul\":19525:19551   */\n      mload\n        /* \"#utility.yul\":19517:19523   */\n      dup3\n        /* \"#utility.yul\":19510:19552   */\n      sstore\n        /* \"#utility.yul\":19591:19592   */\n      0x01\n        /* \"#utility.yul\":19583:19589   */\n      dup3\n        /* \"#utility.yul\":19579:19593   */\n      add\n        /* \"#utility.yul\":19569:19593   */\n      swap2\n      pop\n        /* \"#utility.yul\":19638:19640   */\n      0x20\n        /* \"#utility.yul\":19627:19636   */\n      dup6\n        /* \"#utility.yul\":19623:19641   */\n      add\n        /* \"#utility.yul\":19610:19641   */\n      swap5\n      pop\n        /* \"#utility.yul\":19484:19488   */\n      0x20\n        /* \"#utility.yul\":19481:19482   */\n      dup2\n        /* \"#utility.yul\":19477:19489   */\n      add\n        /* \"#utility.yul\":19472:19489   */\n      swap1\n      pop\n        /* \"#utility.yul\":19447:19655   */\n      jump(tag_337)\n    tag_339:\n        /* \"#utility.yul\":19683:19689   */\n      dup7\n        /* \"#utility.yul\":19674:19681   */\n      dup4\n        /* \"#utility.yul\":19671:19690   */\n      lt\n        /* \"#utility.yul\":19668:19847   */\n      iszero\n      tag_340\n      jumpi\n        /* \"#utility.yul\":19741:19750   */\n      dup5\n        /* \"#utility.yul\":19736:19739   */\n      dup10\n        /* \"#utility.yul\":19732:19751   */\n      add\n        /* \"#utility.yul\":19726:19752   */\n      mload\n        /* \"#utility.yul\":19784:19832   */\n      tag_341\n        /* \"#utility.yul\":19826:19830   */\n      0x1f\n        /* \"#utility.yul\":19818:19824   */\n      dup10\n        /* \"#utility.yul\":19814:19831   */\n      and\n        /* \"#utility.yul\":19803:19812   */\n      dup3\n        /* \"#utility.yul\":19784:19832   */\n      tag_139\n      jump\t// in\n    tag_341:\n        /* \"#utility.yul\":19776:19782   */\n      dup4\n        /* \"#utility.yul\":19769:19833   */\n      sstore\n        /* \"#utility.yul\":19691:19847   */\n      pop\n        /* \"#utility.yul\":19668:19847   */\n    tag_340:\n        /* \"#utility.yul\":19893:19894   */\n      0x01\n        /* \"#utility.yul\":19889:19890   */\n      0x02\n        /* \"#utility.yul\":19881:19887   */\n      dup9\n        /* \"#utility.yul\":19877:19891   */\n      mul\n        /* \"#utility.yul\":19873:19895   */\n      add\n        /* \"#utility.yul\":19867:19871   */\n      dup9\n        /* \"#utility.yul\":19860:19896   */\n      sstore\n        /* \"#utility.yul\":19295:19906   */\n      pop\n      pop\n      pop\n        /* \"#utility.yul\":19258:20145   */\n    tag_332:\n      pop\n        /* \"#utility.yul\":18848:20151   */\n      pop\n      pop\n      pop\n        /* \"#utility.yul\":18756:20151   */\n      pop\n      pop\n      jump\t// out\n        /* \"#utility.yul\":20157:20337   */\n    tag_73:\n        /* \"#utility.yul\":20205:20282   */\n      0x4e487b7100000000000000000000000000000000000000000000000000000000\n        /* \"#utility.yul\":20202:20203   */\n      0x00\n        /* \"#utility.yul\":20195:20283   */\n      mstore\n        /* \"#utility.yul\":20302:20306   */\n      0x32\n        /* \"#utility.yul\":20299:20300   */\n      0x04\n        /* \"#utility.yul\":20292:20307   */\n      mstore\n        /* \"#utility.yul\":20326:20330   */\n      0x24\n        /* \"#utility.yul\":20323:20324   */\n      0x00\n        /* \"#utility.yul\":20316:20331   */\n      revert\n\n    auxdata: 0xa264697066735822122078e33dff86a6f6c3b9b60f44a6f389c764cd245726bb4e388e8463e439a93ceb64736f6c634300081a0033\n}\n",
				"bytecode": {
					"linkReferences": {},
					"object": "60806040526101185f806101000a81548161ffff021916908361ffff160217905550348015602b575f80fd5b503360025f6101000a81548173ffffffffffffffffffffffffffffffffffffffff021916908373ffffffffffffffffffffffffffffffffffffffff1602179055506111bf806100795f395ff3fe608060405234801561000f575f80fd5b5060043610610060575f3560e01c806305a1b4a914610064578063086756ee1461009757806312e7ee1c146100b35780637c9cd2bc146100e35780638da5cb5b146100ff578063c3ad5ecb1461011d575b5f80fd5b61007e60048036038101906100799190610848565b61014d565b60405161008e9493929190610914565b60405180910390f35b6100b160048036038101906100ac9190610995565b610238565b005b6100cd60048036038101906100c891906109c0565b6102e5565b6040516100da9190610b6c565b60405180910390f35b6100fd60048036038101906100f89190610cb8565b610476565b005b6101076105dd565b6040516101149190610cff565b60405180910390f35b61013760048036038101906101329190610d18565b610602565b6040516101449190610da3565b60405180910390f35b6001602052815f5260405f208181548110610166575f80fd5b905f5260205f2090600402015f9150915050805f015f9054906101000a900473ffffffffffffffffffffffffffffffffffffffff16908060010180546101ab90610df0565b80601f01602080910402602001604051908101604052809291908181526020018280546101d790610df0565b80156102225780601f106101f957610100808354040283529160200191610222565b820191905f5260205f20905b81548152906001019060200180831161020557829003601f168201915b5050505050908060020154908060030154905084565b60025f9054906101000a900473ffffffffffffffffffffffffffffffffffffffff1673ffffffffffffffffffffffffffffffffffffffff163373ffffffffffffffffffffffffffffffffffffffff16146102c7576040517f08c379a00000000000000000000000000000000000000000000000000000000081526004016102be90610e6a565b60405180910390fd5b805f806101000a81548161ffff021916908361ffff16021790555050565b606060015f8373ffffffffffffffffffffffffffffffffffffffff1673ffffffffffffffffffffffffffffffffffffffff1681526020019081526020015f20805480602002602001604051908101604052809291908181526020015f905b8282101561046b578382905f5260205f2090600402016040518060800160405290815f82015f9054906101000a900473ffffffffffffffffffffffffffffffffffffffff1673ffffffffffffffffffffffffffffffffffffffff1673ffffffffffffffffffffffffffffffffffffffff1681526020016001820180546103c890610df0565b80601f01602080910402602001604051908101604052809291908181526020018280546103f490610df0565b801561043f5780601f106104165761010080835404028352916020019161043f565b820191905f5260205f20905b81548152906001019060200180831161042257829003601f168201915b505050505081526020016002820154815260200160038201548152505081526020019060010190610343565b505050509050919050565b5f8054906101000a900461ffff1661ffff16815111156104cb576040517f08c379a00000000000000000000000000000000000000000000000000000000081526004016104c290610ed2565b60405180910390fd5b5f60405180608001604052803373ffffffffffffffffffffffffffffffffffffffff1681526020018381526020014281526020015f815250905060015f3373ffffffffffffffffffffffffffffffffffffffff1673ffffffffffffffffffffffffffffffffffffffff1681526020019081526020015f2081908060018154018082558091505060019003905f5260205f2090600402015f909190919091505f820151815f015f6101000a81548173ffffffffffffffffffffffffffffffffffffffff021916908373ffffffffffffffffffffffffffffffffffffffff16021790555060208201518160010190816105c2919061108d565b50604082015181600201556060820151816003015550505050565b60025f9054906101000a900473ffffffffffffffffffffffffffffffffffffffff1681565b61060a61076f565b60015f3373ffffffffffffffffffffffffffffffffffffffff1673ffffffffffffffffffffffffffffffffffffffff1681526020019081526020015f2082815481106106595761065861115c565b5b905f5260205f2090600402016040518060800160405290815f82015f9054906101000a900473ffffffffffffffffffffffffffffffffffffffff1673ffffffffffffffffffffffffffffffffffffffff1673ffffffffffffffffffffffffffffffffffffffff1681526020016001820180546106d490610df0565b80601f016020809104026020016040519081016040528092919081815260200182805461070090610df0565b801561074b5780601f106107225761010080835404028352916020019161074b565b820191905f5260205f20905b81548152906001019060200180831161072e57829003601f168201915b50505050508152602001600282015481526020016003820154815250509050919050565b60405180608001604052805f73ffffffffffffffffffffffffffffffffffffffff168152602001606081526020015f81526020015f81525090565b5f604051905090565b5f80fd5b5f80fd5b5f73ffffffffffffffffffffffffffffffffffffffff82169050919050565b5f6107e4826107bb565b9050919050565b6107f4816107da565b81146107fe575f80fd5b50565b5f8135905061080f816107eb565b92915050565b5f819050919050565b61082781610815565b8114610831575f80fd5b50565b5f813590506108428161081e565b92915050565b5f806040838503121561085e5761085d6107b3565b5b5f61086b85828601610801565b925050602061087c85828601610834565b9150509250929050565b61088f816107da565b82525050565b5f81519050919050565b5f82825260208201905092915050565b8281835e5f83830152505050565b5f601f19601f8301169050919050565b5f6108d782610895565b6108e1818561089f565b93506108f18185602086016108af565b6108fa816108bd565b840191505092915050565b61090e81610815565b82525050565b5f6080820190506109275f830187610886565b818103602083015261093981866108cd565b90506109486040830185610905565b6109556060830184610905565b95945050505050565b5f61ffff82169050919050565b6109748161095e565b811461097e575f80fd5b50565b5f8135905061098f8161096b565b92915050565b5f602082840312156109aa576109a96107b3565b5b5f6109b784828501610981565b91505092915050565b5f602082840312156109d5576109d46107b3565b5b5f6109e284828501610801565b91505092915050565b5f81519050919050565b5f82825260208201905092915050565b5f819050602082019050919050565b610a1d816107da565b82525050565b5f82825260208201905092915050565b5f610a3d82610895565b610a478185610a23565b9350610a578185602086016108af565b610a60816108bd565b840191505092915050565b610a7481610815565b82525050565b5f608083015f830151610a8f5f860182610a14565b5060208301518482036020860152610aa78282610a33565b9150506040830151610abc6040860182610a6b565b506060830151610acf6060860182610a6b565b508091505092915050565b5f610ae58383610a7a565b905092915050565b5f602082019050919050565b5f610b03826109eb565b610b0d81856109f5565b935083602082028501610b1f85610a05565b805f5b85811015610b5a5784840389528151610b3b8582610ada565b9450610b4683610aed565b925060208a01995050600181019050610b22565b50829750879550505050505092915050565b5f6020820190508181035f830152610b848184610af9565b905092915050565b5f80fd5b5f80fd5b7f4e487b71000000000000000000000000000000000000000000000000000000005f52604160045260245ffd5b610bca826108bd565b810181811067ffffffffffffffff82111715610be957610be8610b94565b5b80604052505050565b5f610bfb6107aa565b9050610c078282610bc1565b919050565b5f67ffffffffffffffff821115610c2657610c25610b94565b5b610c2f826108bd565b9050602081019050919050565b828183375f83830152505050565b5f610c5c610c5784610c0c565b610bf2565b905082815260208101848484011115610c7857610c77610b90565b5b610c83848285610c3c565b509392505050565b5f82601f830112610c9f57610c9e610b8c565b5b8135610caf848260208601610c4a565b91505092915050565b5f60208284031215610ccd57610ccc6107b3565b5b5f82013567ffffffffffffffff811115610cea57610ce96107b7565b5b610cf684828501610c8b565b91505092915050565b5f602082019050610d125f830184610886565b92915050565b5f60208284031215610d2d57610d2c6107b3565b5b5f610d3a84828501610834565b91505092915050565b5f608083015f830151610d585f860182610a14565b5060208301518482036020860152610d708282610a33565b9150506040830151610d856040860182610a6b565b506060830151610d986060860182610a6b565b508091505092915050565b5f6020820190508181035f830152610dbb8184610d43565b905092915050565b7f4e487b71000000000000000000000000000000000000000000000000000000005f52602260045260245ffd5b5f6002820490506001821680610e0757607f821691505b602082108103610e1a57610e19610dc3565b5b50919050565b7f596f757220617265206e6f7420746865206f776e6572000000000000000000005f82015250565b5f610e5460168361089f565b9150610e5f82610e20565b602082019050919050565b5f6020820190508181035f830152610e8181610e48565b9050919050565b7f547765657420697320746f6f206c6f6e672062726f21000000000000000000005f82015250565b5f610ebc60168361089f565b9150610ec782610e88565b602082019050919050565b5f6020820190508181035f830152610ee981610eb0565b9050919050565b5f819050815f5260205f209050919050565b5f6020601f8301049050919050565b5f82821b905092915050565b5f60088302610f4c7fffffffffffffffffffffffffffffffffffffffffffffffffffffffffffffffff82610f11565b610f568683610f11565b95508019841693508086168417925050509392505050565b5f819050919050565b5f610f91610f8c610f8784610815565b610f6e565b610815565b9050919050565b5f819050919050565b610faa83610f77565b610fbe610fb682610f98565b848454610f1d565b825550505050565b5f90565b610fd2610fc6565b610fdd818484610fa1565b505050565b5b8181101561100057610ff55f82610fca565b600181019050610fe3565b5050565b601f8211156110455761101681610ef0565b61101f84610f02565b8101602085101561102e578190505b61104261103a85610f02565b830182610fe2565b50505b505050565b5f82821c905092915050565b5f6110655f198460080261104a565b1980831691505092915050565b5f61107d8383611056565b9150826002028217905092915050565b61109682610895565b67ffffffffffffffff8111156110af576110ae610b94565b5b6110b98254610df0565b6110c4828285611004565b5f60209050601f8311600181146110f5575f84156110e3578287015190505b6110ed8582611072565b865550611154565b601f19841661110386610ef0565b5f5b8281101561112a57848901518255600182019150602085019450602081019050611105565b868310156111475784890151611143601f891682611056565b8355505b6001600288020188555050505b505050505050565b7f4e487b71000000000000000000000000000000000000000000000000000000005f52603260045260245ffdfea264697066735822122078e33dff86a6f6c3b9b60f44a6f389c764cd245726bb4e388e8463e439a93ceb64736f6c634300081a0033",
					"opcodes": "PUSH1 0x80 PUSH1 0x40 MSTORE PUSH2 0x118 PUSH0 DUP1 PUSH2 0x100 EXP DUP2 SLOAD DUP2 PUSH2 0xFFFF MUL NOT AND SWAP1 DUP4 PUSH2 0xFFFF AND MUL OR SWAP1 SSTORE POP CALLVALUE DUP1 ISZERO PUSH1 0x2B JUMPI PUSH0 DUP1 REVERT JUMPDEST POP CALLER PUSH1 0x2 PUSH0 PUSH2 0x100 EXP DUP2 SLOAD DUP2 PUSH20 0xFFFFFFFFFFFFFFFFFFFFFFFFFFFFFFFFFFFFFFFF MUL NOT AND SWAP1 DUP4 PUSH20 0xFFFFFFFFFFFFFFFFFFFFFFFFFFFFFFFFFFFFFFFF AND MUL OR SWAP1 SSTORE POP PUSH2 0x11BF DUP1 PUSH2 0x79 PUSH0 CODECOPY PUSH0 RETURN INVALID PUSH1 0x80 PUSH1 0x40 MSTORE CALLVALUE DUP1 ISZERO PUSH2 0xF JUMPI PUSH0 DUP1 REVERT JUMPDEST POP PUSH1 0x4 CALLDATASIZE LT PUSH2 0x60 JUMPI PUSH0 CALLDATALOAD PUSH1 0xE0 SHR DUP1 PUSH4 0x5A1B4A9 EQ PUSH2 0x64 JUMPI DUP1 PUSH4 0x86756EE EQ PUSH2 0x97 JUMPI DUP1 PUSH4 0x12E7EE1C EQ PUSH2 0xB3 JUMPI DUP1 PUSH4 0x7C9CD2BC EQ PUSH2 0xE3 JUMPI DUP1 PUSH4 0x8DA5CB5B EQ PUSH2 0xFF JUMPI DUP1 PUSH4 0xC3AD5ECB EQ PUSH2 0x11D JUMPI JUMPDEST PUSH0 DUP1 REVERT JUMPDEST PUSH2 0x7E PUSH1 0x4 DUP1 CALLDATASIZE SUB DUP2 ADD SWAP1 PUSH2 0x79 SWAP2 SWAP1 PUSH2 0x848 JUMP JUMPDEST PUSH2 0x14D JUMP JUMPDEST PUSH1 0x40 MLOAD PUSH2 0x8E SWAP5 SWAP4 SWAP3 SWAP2 SWAP1 PUSH2 0x914 JUMP JUMPDEST PUSH1 0x40 MLOAD DUP1 SWAP2 SUB SWAP1 RETURN JUMPDEST PUSH2 0xB1 PUSH1 0x4 DUP1 CALLDATASIZE SUB DUP2 ADD SWAP1 PUSH2 0xAC SWAP2 SWAP1 PUSH2 0x995 JUMP JUMPDEST PUSH2 0x238 JUMP JUMPDEST STOP JUMPDEST PUSH2 0xCD PUSH1 0x4 DUP1 CALLDATASIZE SUB DUP2 ADD SWAP1 PUSH2 0xC8 SWAP2 SWAP1 PUSH2 0x9C0 JUMP JUMPDEST PUSH2 0x2E5 JUMP JUMPDEST PUSH1 0x40 MLOAD PUSH2 0xDA SWAP2 SWAP1 PUSH2 0xB6C JUMP JUMPDEST PUSH1 0x40 MLOAD DUP1 SWAP2 SUB SWAP1 RETURN JUMPDEST PUSH2 0xFD PUSH1 0x4 DUP1 CALLDATASIZE SUB DUP2 ADD SWAP1 PUSH2 0xF8 SWAP2 SWAP1 PUSH2 0xCB8 JUMP JUMPDEST PUSH2 0x476 JUMP JUMPDEST STOP JUMPDEST PUSH2 0x107 PUSH2 0x5DD JUMP JUMPDEST PUSH1 0x40 MLOAD PUSH2 0x114 SWAP2 SWAP1 PUSH2 0xCFF JUMP JUMPDEST PUSH1 0x40 MLOAD DUP1 SWAP2 SUB SWAP1 RETURN JUMPDEST PUSH2 0x137 PUSH1 0x4 DUP1 CALLDATASIZE SUB DUP2 ADD SWAP1 PUSH2 0x132 SWAP2 SWAP1 PUSH2 0xD18 JUMP JUMPDEST PUSH2 0x602 JUMP JUMPDEST PUSH1 0x40 MLOAD PUSH2 0x144 SWAP2 SWAP1 PUSH2 0xDA3 JUMP JUMPDEST PUSH1 0x40 MLOAD DUP1 SWAP2 SUB SWAP1 RETURN JUMPDEST PUSH1 0x1 PUSH1 0x20 MSTORE DUP2 PUSH0 MSTORE PUSH1 0x40 PUSH0 KECCAK256 DUP2 DUP2 SLOAD DUP2 LT PUSH2 0x166 JUMPI PUSH0 DUP1 REVERT JUMPDEST SWAP1 PUSH0 MSTORE PUSH1 0x20 PUSH0 KECCAK256 SWAP1 PUSH1 0x4 MUL ADD PUSH0 SWAP2 POP SWAP2 POP POP DUP1 PUSH0 ADD PUSH0 SWAP1 SLOAD SWAP1 PUSH2 0x100 EXP SWAP1 DIV PUSH20 0xFFFFFFFFFFFFFFFFFFFFFFFFFFFFFFFFFFFFFFFF AND SWAP1 DUP1 PUSH1 0x1 ADD DUP1 SLOAD PUSH2 0x1AB SWAP1 PUSH2 0xDF0 JUMP JUMPDEST DUP1 PUSH1 0x1F ADD PUSH1 0x20 DUP1 SWAP2 DIV MUL PUSH1 0x20 ADD PUSH1 0x40 MLOAD SWAP1 DUP2 ADD PUSH1 0x40 MSTORE DUP1 SWAP3 SWAP2 SWAP1 DUP2 DUP2 MSTORE PUSH1 0x20 ADD DUP3 DUP1 SLOAD PUSH2 0x1D7 SWAP1 PUSH2 0xDF0 JUMP JUMPDEST DUP1 ISZERO PUSH2 0x222 JUMPI DUP1 PUSH1 0x1F LT PUSH2 0x1F9 JUMPI PUSH2 0x100 DUP1 DUP4 SLOAD DIV MUL DUP4 MSTORE SWAP2 PUSH1 0x20 ADD SWAP2 PUSH2 0x222 JUMP JUMPDEST DUP3 ADD SWAP2 SWAP1 PUSH0 MSTORE PUSH1 0x20 PUSH0 KECCAK256 SWAP1 JUMPDEST DUP2 SLOAD DUP2 MSTORE SWAP1 PUSH1 0x1 ADD SWAP1 PUSH1 0x20 ADD DUP1 DUP4 GT PUSH2 0x205 JUMPI DUP3 SWAP1 SUB PUSH1 0x1F AND DUP3 ADD SWAP2 JUMPDEST POP POP POP POP POP SWAP1 DUP1 PUSH1 0x2 ADD SLOAD SWAP1 DUP1 PUSH1 0x3 ADD SLOAD SWAP1 POP DUP5 JUMP JUMPDEST PUSH1 0x2 PUSH0 SWAP1 SLOAD SWAP1 PUSH2 0x100 EXP SWAP1 DIV PUSH20 0xFFFFFFFFFFFFFFFFFFFFFFFFFFFFFFFFFFFFFFFF AND PUSH20 0xFFFFFFFFFFFFFFFFFFFFFFFFFFFFFFFFFFFFFFFF AND CALLER PUSH20 0xFFFFFFFFFFFFFFFFFFFFFFFFFFFFFFFFFFFFFFFF AND EQ PUSH2 0x2C7 JUMPI PUSH1 0x40 MLOAD PUSH32 0x8C379A000000000000000000000000000000000000000000000000000000000 DUP2 MSTORE PUSH1 0x4 ADD PUSH2 0x2BE SWAP1 PUSH2 0xE6A JUMP JUMPDEST PUSH1 0x40 MLOAD DUP1 SWAP2 SUB SWAP1 REVERT JUMPDEST DUP1 PUSH0 DUP1 PUSH2 0x100 EXP DUP2 SLOAD DUP2 PUSH2 0xFFFF MUL NOT AND SWAP1 DUP4 PUSH2 0xFFFF AND MUL OR SWAP1 SSTORE POP POP JUMP JUMPDEST PUSH1 0x60 PUSH1 0x1 PUSH0 DUP4 PUSH20 0xFFFFFFFFFFFFFFFFFFFFFFFFFFFFFFFFFFFFFFFF AND PUSH20 0xFFFFFFFFFFFFFFFFFFFFFFFFFFFFFFFFFFFFFFFF AND DUP2 MSTORE PUSH1 0x20 ADD SWAP1 DUP2 MSTORE PUSH1 0x20 ADD PUSH0 KECCAK256 DUP1 SLOAD DUP1 PUSH1 0x20 MUL PUSH1 0x20 ADD PUSH1 0x40 MLOAD SWAP1 DUP2 ADD PUSH1 0x40 MSTORE DUP1 SWAP3 SWAP2 SWAP1 DUP2 DUP2 MSTORE PUSH1 0x20 ADD PUSH0 SWAP1 JUMPDEST DUP3 DUP3 LT ISZERO PUSH2 0x46B JUMPI DUP4 DUP3 SWAP1 PUSH0 MSTORE PUSH1 0x20 PUSH0 KECCAK256 SWAP1 PUSH1 0x4 MUL ADD PUSH1 0x40 MLOAD DUP1 PUSH1 0x80 ADD PUSH1 0x40 MSTORE SWAP1 DUP2 PUSH0 DUP3 ADD PUSH0 SWAP1 SLOAD SWAP1 PUSH2 0x100 EXP SWAP1 DIV PUSH20 0xFFFFFFFFFFFFFFFFFFFFFFFFFFFFFFFFFFFFFFFF AND PUSH20 0xFFFFFFFFFFFFFFFFFFFFFFFFFFFFFFFFFFFFFFFF AND PUSH20 0xFFFFFFFFFFFFFFFFFFFFFFFFFFFFFFFFFFFFFFFF AND DUP2 MSTORE PUSH1 0x20 ADD PUSH1 0x1 DUP3 ADD DUP1 SLOAD PUSH2 0x3C8 SWAP1 PUSH2 0xDF0 JUMP JUMPDEST DUP1 PUSH1 0x1F ADD PUSH1 0x20 DUP1 SWAP2 DIV MUL PUSH1 0x20 ADD PUSH1 0x40 MLOAD SWAP1 DUP2 ADD PUSH1 0x40 MSTORE DUP1 SWAP3 SWAP2 SWAP1 DUP2 DUP2 MSTORE PUSH1 0x20 ADD DUP3 DUP1 SLOAD PUSH2 0x3F4 SWAP1 PUSH2 0xDF0 JUMP JUMPDEST DUP1 ISZERO PUSH2 0x43F JUMPI DUP1 PUSH1 0x1F LT PUSH2 0x416 JUMPI PUSH2 0x100 DUP1 DUP4 SLOAD DIV MUL DUP4 MSTORE SWAP2 PUSH1 0x20 ADD SWAP2 PUSH2 0x43F JUMP JUMPDEST DUP3 ADD SWAP2 SWAP1 PUSH0 MSTORE PUSH1 0x20 PUSH0 KECCAK256 SWAP1 JUMPDEST DUP2 SLOAD DUP2 MSTORE SWAP1 PUSH1 0x1 ADD SWAP1 PUSH1 0x20 ADD DUP1 DUP4 GT PUSH2 0x422 JUMPI DUP3 SWAP1 SUB PUSH1 0x1F AND DUP3 ADD SWAP2 JUMPDEST POP POP POP POP POP DUP2 MSTORE PUSH1 0x20 ADD PUSH1 0x2 DUP3 ADD SLOAD DUP2 MSTORE PUSH1 0x20 ADD PUSH1 0x3 DUP3 ADD SLOAD DUP2 MSTORE POP POP DUP2 MSTORE PUSH1 0x20 ADD SWAP1 PUSH1 0x1 ADD SWAP1 PUSH2 0x343 JUMP JUMPDEST POP POP POP POP SWAP1 POP SWAP2 SWAP1 POP JUMP JUMPDEST PUSH0 DUP1 SLOAD SWAP1 PUSH2 0x100 EXP SWAP1 DIV PUSH2 0xFFFF AND PUSH2 0xFFFF AND DUP2 MLOAD GT ISZERO PUSH2 0x4CB JUMPI PUSH1 0x40 MLOAD PUSH32 0x8C379A000000000000000000000000000000000000000000000000000000000 DUP2 MSTORE PUSH1 0x4 ADD PUSH2 0x4C2 SWAP1 PUSH2 0xED2 JUMP JUMPDEST PUSH1 0x40 MLOAD DUP1 SWAP2 SUB SWAP1 REVERT JUMPDEST PUSH0 PUSH1 0x40 MLOAD DUP1 PUSH1 0x80 ADD PUSH1 0x40 MSTORE DUP1 CALLER PUSH20 0xFFFFFFFFFFFFFFFFFFFFFFFFFFFFFFFFFFFFFFFF AND DUP2 MSTORE PUSH1 0x20 ADD DUP4 DUP2 MSTORE PUSH1 0x20 ADD TIMESTAMP DUP2 MSTORE PUSH1 0x20 ADD PUSH0 DUP2 MSTORE POP SWAP1 POP PUSH1 0x1 PUSH0 CALLER PUSH20 0xFFFFFFFFFFFFFFFFFFFFFFFFFFFFFFFFFFFFFFFF AND PUSH20 0xFFFFFFFFFFFFFFFFFFFFFFFFFFFFFFFFFFFFFFFF AND DUP2 MSTORE PUSH1 0x20 ADD SWAP1 DUP2 MSTORE PUSH1 0x20 ADD PUSH0 KECCAK256 DUP2 SWAP1 DUP1 PUSH1 0x1 DUP2 SLOAD ADD DUP1 DUP3 SSTORE DUP1 SWAP2 POP POP PUSH1 0x1 SWAP1 SUB SWAP1 PUSH0 MSTORE PUSH1 0x20 PUSH0 KECCAK256 SWAP1 PUSH1 0x4 MUL ADD PUSH0 SWAP1 SWAP2 SWAP1 SWAP2 SWAP1 SWAP2 POP PUSH0 DUP3 ADD MLOAD DUP2 PUSH0 ADD PUSH0 PUSH2 0x100 EXP DUP2 SLOAD DUP2 PUSH20 0xFFFFFFFFFFFFFFFFFFFFFFFFFFFFFFFFFFFFFFFF MUL NOT AND SWAP1 DUP4 PUSH20 0xFFFFFFFFFFFFFFFFFFFFFFFFFFFFFFFFFFFFFFFF AND MUL OR SWAP1 SSTORE POP PUSH1 0x20 DUP3 ADD MLOAD DUP2 PUSH1 0x1 ADD SWAP1 DUP2 PUSH2 0x5C2 SWAP2 SWAP1 PUSH2 0x108D JUMP JUMPDEST POP PUSH1 0x40 DUP3 ADD MLOAD DUP2 PUSH1 0x2 ADD SSTORE PUSH1 0x60 DUP3 ADD MLOAD DUP2 PUSH1 0x3 ADD SSTORE POP POP POP POP JUMP JUMPDEST PUSH1 0x2 PUSH0 SWAP1 SLOAD SWAP1 PUSH2 0x100 EXP SWAP1 DIV PUSH20 0xFFFFFFFFFFFFFFFFFFFFFFFFFFFFFFFFFFFFFFFF AND DUP2 JUMP JUMPDEST PUSH2 0x60A PUSH2 0x76F JUMP JUMPDEST PUSH1 0x1 PUSH0 CALLER PUSH20 0xFFFFFFFFFFFFFFFFFFFFFFFFFFFFFFFFFFFFFFFF AND PUSH20 0xFFFFFFFFFFFFFFFFFFFFFFFFFFFFFFFFFFFFFFFF AND DUP2 MSTORE PUSH1 0x20 ADD SWAP1 DUP2 MSTORE PUSH1 0x20 ADD PUSH0 KECCAK256 DUP3 DUP2 SLOAD DUP2 LT PUSH2 0x659 JUMPI PUSH2 0x658 PUSH2 0x115C JUMP JUMPDEST JUMPDEST SWAP1 PUSH0 MSTORE PUSH1 0x20 PUSH0 KECCAK256 SWAP1 PUSH1 0x4 MUL ADD PUSH1 0x40 MLOAD DUP1 PUSH1 0x80 ADD PUSH1 0x40 MSTORE SWAP1 DUP2 PUSH0 DUP3 ADD PUSH0 SWAP1 SLOAD SWAP1 PUSH2 0x100 EXP SWAP1 DIV PUSH20 0xFFFFFFFFFFFFFFFFFFFFFFFFFFFFFFFFFFFFFFFF AND PUSH20 0xFFFFFFFFFFFFFFFFFFFFFFFFFFFFFFFFFFFFFFFF AND PUSH20 0xFFFFFFFFFFFFFFFFFFFFFFFFFFFFFFFFFFFFFFFF AND DUP2 MSTORE PUSH1 0x20 ADD PUSH1 0x1 DUP3 ADD DUP1 SLOAD PUSH2 0x6D4 SWAP1 PUSH2 0xDF0 JUMP JUMPDEST DUP1 PUSH1 0x1F ADD PUSH1 0x20 DUP1 SWAP2 DIV MUL PUSH1 0x20 ADD PUSH1 0x40 MLOAD SWAP1 DUP2 ADD PUSH1 0x40 MSTORE DUP1 SWAP3 SWAP2 SWAP1 DUP2 DUP2 MSTORE PUSH1 0x20 ADD DUP3 DUP1 SLOAD PUSH2 0x700 SWAP1 PUSH2 0xDF0 JUMP JUMPDEST DUP1 ISZERO PUSH2 0x74B JUMPI DUP1 PUSH1 0x1F LT PUSH2 0x722 JUMPI PUSH2 0x100 DUP1 DUP4 SLOAD DIV MUL DUP4 MSTORE SWAP2 PUSH1 0x20 ADD SWAP2 PUSH2 0x74B JUMP JUMPDEST DUP3 ADD SWAP2 SWAP1 PUSH0 MSTORE PUSH1 0x20 PUSH0 KECCAK256 SWAP1 JUMPDEST DUP2 SLOAD DUP2 MSTORE SWAP1 PUSH1 0x1 ADD SWAP1 PUSH1 0x20 ADD DUP1 DUP4 GT PUSH2 0x72E JUMPI DUP3 SWAP1 SUB PUSH1 0x1F AND DUP3 ADD SWAP2 JUMPDEST POP POP POP POP POP DUP2 MSTORE PUSH1 0x20 ADD PUSH1 0x2 DUP3 ADD SLOAD DUP2 MSTORE PUSH1 0x20 ADD PUSH1 0x3 DUP3 ADD SLOAD DUP2 MSTORE POP POP SWAP1 POP SWAP2 SWAP1 POP JUMP JUMPDEST PUSH1 0x40 MLOAD DUP1 PUSH1 0x80 ADD PUSH1 0x40 MSTORE DUP1 PUSH0 PUSH20 0xFFFFFFFFFFFFFFFFFFFFFFFFFFFFFFFFFFFFFFFF AND DUP2 MSTORE PUSH1 0x20 ADD PUSH1 0x60 DUP2 MSTORE PUSH1 0x20 ADD PUSH0 DUP2 MSTORE PUSH1 0x20 ADD PUSH0 DUP2 MSTORE POP SWAP1 JUMP JUMPDEST PUSH0 PUSH1 0x40 MLOAD SWAP1 POP SWAP1 JUMP JUMPDEST PUSH0 DUP1 REVERT JUMPDEST PUSH0 DUP1 REVERT JUMPDEST PUSH0 PUSH20 0xFFFFFFFFFFFFFFFFFFFFFFFFFFFFFFFFFFFFFFFF DUP3 AND SWAP1 POP SWAP2 SWAP1 POP JUMP JUMPDEST PUSH0 PUSH2 0x7E4 DUP3 PUSH2 0x7BB JUMP JUMPDEST SWAP1 POP SWAP2 SWAP1 POP JUMP JUMPDEST PUSH2 0x7F4 DUP2 PUSH2 0x7DA JUMP JUMPDEST DUP2 EQ PUSH2 0x7FE JUMPI PUSH0 DUP1 REVERT JUMPDEST POP JUMP JUMPDEST PUSH0 DUP2 CALLDATALOAD SWAP1 POP PUSH2 0x80F DUP2 PUSH2 0x7EB JUMP JUMPDEST SWAP3 SWAP2 POP POP JUMP JUMPDEST PUSH0 DUP2 SWAP1 POP SWAP2 SWAP1 POP JUMP JUMPDEST PUSH2 0x827 DUP2 PUSH2 0x815 JUMP JUMPDEST DUP2 EQ PUSH2 0x831 JUMPI PUSH0 DUP1 REVERT JUMPDEST POP JUMP JUMPDEST PUSH0 DUP2 CALLDATALOAD SWAP1 POP PUSH2 0x842 DUP2 PUSH2 0x81E JUMP JUMPDEST SWAP3 SWAP2 POP POP JUMP JUMPDEST PUSH0 DUP1 PUSH1 0x40 DUP4 DUP6 SUB SLT ISZERO PUSH2 0x85E JUMPI PUSH2 0x85D PUSH2 0x7B3 JUMP JUMPDEST JUMPDEST PUSH0 PUSH2 0x86B DUP6 DUP3 DUP7 ADD PUSH2 0x801 JUMP JUMPDEST SWAP3 POP POP PUSH1 0x20 PUSH2 0x87C DUP6 DUP3 DUP7 ADD PUSH2 0x834 JUMP JUMPDEST SWAP2 POP POP SWAP3 POP SWAP3 SWAP1 POP JUMP JUMPDEST PUSH2 0x88F DUP2 PUSH2 0x7DA JUMP JUMPDEST DUP3 MSTORE POP POP JUMP JUMPDEST PUSH0 DUP2 MLOAD SWAP1 POP SWAP2 SWAP1 POP JUMP JUMPDEST PUSH0 DUP3 DUP3 MSTORE PUSH1 0x20 DUP3 ADD SWAP1 POP SWAP3 SWAP2 POP POP JUMP JUMPDEST DUP3 DUP2 DUP4 MCOPY PUSH0 DUP4 DUP4 ADD MSTORE POP POP POP JUMP JUMPDEST PUSH0 PUSH1 0x1F NOT PUSH1 0x1F DUP4 ADD AND SWAP1 POP SWAP2 SWAP1 POP JUMP JUMPDEST PUSH0 PUSH2 0x8D7 DUP3 PUSH2 0x895 JUMP JUMPDEST PUSH2 0x8E1 DUP2 DUP6 PUSH2 0x89F JUMP JUMPDEST SWAP4 POP PUSH2 0x8F1 DUP2 DUP6 PUSH1 0x20 DUP7 ADD PUSH2 0x8AF JUMP JUMPDEST PUSH2 0x8FA DUP2 PUSH2 0x8BD JUMP JUMPDEST DUP5 ADD SWAP2 POP POP SWAP3 SWAP2 POP POP JUMP JUMPDEST PUSH2 0x90E DUP2 PUSH2 0x815 JUMP JUMPDEST DUP3 MSTORE POP POP JUMP JUMPDEST PUSH0 PUSH1 0x80 DUP3 ADD SWAP1 POP PUSH2 0x927 PUSH0 DUP4 ADD DUP8 PUSH2 0x886 JUMP JUMPDEST DUP2 DUP2 SUB PUSH1 0x20 DUP4 ADD MSTORE PUSH2 0x939 DUP2 DUP7 PUSH2 0x8CD JUMP JUMPDEST SWAP1 POP PUSH2 0x948 PUSH1 0x40 DUP4 ADD DUP6 PUSH2 0x905 JUMP JUMPDEST PUSH2 0x955 PUSH1 0x60 DUP4 ADD DUP5 PUSH2 0x905 JUMP JUMPDEST SWAP6 SWAP5 POP POP POP POP POP JUMP JUMPDEST PUSH0 PUSH2 0xFFFF DUP3 AND SWAP1 POP SWAP2 SWAP1 POP JUMP JUMPDEST PUSH2 0x974 DUP2 PUSH2 0x95E JUMP JUMPDEST DUP2 EQ PUSH2 0x97E JUMPI PUSH0 DUP1 REVERT JUMPDEST POP JUMP JUMPDEST PUSH0 DUP2 CALLDATALOAD SWAP1 POP PUSH2 0x98F DUP2 PUSH2 0x96B JUMP JUMPDEST SWAP3 SWAP2 POP POP JUMP JUMPDEST PUSH0 PUSH1 0x20 DUP3 DUP5 SUB SLT ISZERO PUSH2 0x9AA JUMPI PUSH2 0x9A9 PUSH2 0x7B3 JUMP JUMPDEST JUMPDEST PUSH0 PUSH2 0x9B7 DUP5 DUP3 DUP6 ADD PUSH2 0x981 JUMP JUMPDEST SWAP2 POP POP SWAP3 SWAP2 POP POP JUMP JUMPDEST PUSH0 PUSH1 0x20 DUP3 DUP5 SUB SLT ISZERO PUSH2 0x9D5 JUMPI PUSH2 0x9D4 PUSH2 0x7B3 JUMP JUMPDEST JUMPDEST PUSH0 PUSH2 0x9E2 DUP5 DUP3 DUP6 ADD PUSH2 0x801 JUMP JUMPDEST SWAP2 POP POP SWAP3 SWAP2 POP POP JUMP JUMPDEST PUSH0 DUP2 MLOAD SWAP1 POP SWAP2 SWAP1 POP JUMP JUMPDEST PUSH0 DUP3 DUP3 MSTORE PUSH1 0x20 DUP3 ADD SWAP1 POP SWAP3 SWAP2 POP POP JUMP JUMPDEST PUSH0 DUP2 SWAP1 POP PUSH1 0x20 DUP3 ADD SWAP1 POP SWAP2 SWAP1 POP JUMP JUMPDEST PUSH2 0xA1D DUP2 PUSH2 0x7DA JUMP JUMPDEST DUP3 MSTORE POP POP JUMP JUMPDEST PUSH0 DUP3 DUP3 MSTORE PUSH1 0x20 DUP3 ADD SWAP1 POP SWAP3 SWAP2 POP POP JUMP JUMPDEST PUSH0 PUSH2 0xA3D DUP3 PUSH2 0x895 JUMP JUMPDEST PUSH2 0xA47 DUP2 DUP6 PUSH2 0xA23 JUMP JUMPDEST SWAP4 POP PUSH2 0xA57 DUP2 DUP6 PUSH1 0x20 DUP7 ADD PUSH2 0x8AF JUMP JUMPDEST PUSH2 0xA60 DUP2 PUSH2 0x8BD JUMP JUMPDEST DUP5 ADD SWAP2 POP POP SWAP3 SWAP2 POP POP JUMP JUMPDEST PUSH2 0xA74 DUP2 PUSH2 0x815 JUMP JUMPDEST DUP3 MSTORE POP POP JUMP JUMPDEST PUSH0 PUSH1 0x80 DUP4 ADD PUSH0 DUP4 ADD MLOAD PUSH2 0xA8F PUSH0 DUP7 ADD DUP3 PUSH2 0xA14 JUMP JUMPDEST POP PUSH1 0x20 DUP4 ADD MLOAD DUP5 DUP3 SUB PUSH1 0x20 DUP7 ADD MSTORE PUSH2 0xAA7 DUP3 DUP3 PUSH2 0xA33 JUMP JUMPDEST SWAP2 POP POP PUSH1 0x40 DUP4 ADD MLOAD PUSH2 0xABC PUSH1 0x40 DUP7 ADD DUP3 PUSH2 0xA6B JUMP JUMPDEST POP PUSH1 0x60 DUP4 ADD MLOAD PUSH2 0xACF PUSH1 0x60 DUP7 ADD DUP3 PUSH2 0xA6B JUMP JUMPDEST POP DUP1 SWAP2 POP POP SWAP3 SWAP2 POP POP JUMP JUMPDEST PUSH0 PUSH2 0xAE5 DUP4 DUP4 PUSH2 0xA7A JUMP JUMPDEST SWAP1 POP SWAP3 SWAP2 POP POP JUMP JUMPDEST PUSH0 PUSH1 0x20 DUP3 ADD SWAP1 POP SWAP2 SWAP1 POP JUMP JUMPDEST PUSH0 PUSH2 0xB03 DUP3 PUSH2 0x9EB JUMP JUMPDEST PUSH2 0xB0D DUP2 DUP6 PUSH2 0x9F5 JUMP JUMPDEST SWAP4 POP DUP4 PUSH1 0x20 DUP3 MUL DUP6 ADD PUSH2 0xB1F DUP6 PUSH2 0xA05 JUMP JUMPDEST DUP1 PUSH0 JUMPDEST DUP6 DUP2 LT ISZERO PUSH2 0xB5A JUMPI DUP5 DUP5 SUB DUP10 MSTORE DUP2 MLOAD PUSH2 0xB3B DUP6 DUP3 PUSH2 0xADA JUMP JUMPDEST SWAP5 POP PUSH2 0xB46 DUP4 PUSH2 0xAED JUMP JUMPDEST SWAP3 POP PUSH1 0x20 DUP11 ADD SWAP10 POP POP PUSH1 0x1 DUP2 ADD SWAP1 POP PUSH2 0xB22 JUMP JUMPDEST POP DUP3 SWAP8 POP DUP8 SWAP6 POP POP POP POP POP POP SWAP3 SWAP2 POP POP JUMP JUMPDEST PUSH0 PUSH1 0x20 DUP3 ADD SWAP1 POP DUP2 DUP2 SUB PUSH0 DUP4 ADD MSTORE PUSH2 0xB84 DUP2 DUP5 PUSH2 0xAF9 JUMP JUMPDEST SWAP1 POP SWAP3 SWAP2 POP POP JUMP JUMPDEST PUSH0 DUP1 REVERT JUMPDEST PUSH0 DUP1 REVERT JUMPDEST PUSH32 0x4E487B7100000000000000000000000000000000000000000000000000000000 PUSH0 MSTORE PUSH1 0x41 PUSH1 0x4 MSTORE PUSH1 0x24 PUSH0 REVERT JUMPDEST PUSH2 0xBCA DUP3 PUSH2 0x8BD JUMP JUMPDEST DUP2 ADD DUP2 DUP2 LT PUSH8 0xFFFFFFFFFFFFFFFF DUP3 GT OR ISZERO PUSH2 0xBE9 JUMPI PUSH2 0xBE8 PUSH2 0xB94 JUMP JUMPDEST JUMPDEST DUP1 PUSH1 0x40 MSTORE POP POP POP JUMP JUMPDEST PUSH0 PUSH2 0xBFB PUSH2 0x7AA JUMP JUMPDEST SWAP1 POP PUSH2 0xC07 DUP3 DUP3 PUSH2 0xBC1 JUMP JUMPDEST SWAP2 SWAP1 POP JUMP JUMPDEST PUSH0 PUSH8 0xFFFFFFFFFFFFFFFF DUP3 GT ISZERO PUSH2 0xC26 JUMPI PUSH2 0xC25 PUSH2 0xB94 JUMP JUMPDEST JUMPDEST PUSH2 0xC2F DUP3 PUSH2 0x8BD JUMP JUMPDEST SWAP1 POP PUSH1 0x20 DUP2 ADD SWAP1 POP SWAP2 SWAP1 POP JUMP JUMPDEST DUP3 DUP2 DUP4 CALLDATACOPY PUSH0 DUP4 DUP4 ADD MSTORE POP POP POP JUMP JUMPDEST PUSH0 PUSH2 0xC5C PUSH2 0xC57 DUP5 PUSH2 0xC0C JUMP JUMPDEST PUSH2 0xBF2 JUMP JUMPDEST SWAP1 POP DUP3 DUP2 MSTORE PUSH1 0x20 DUP2 ADD DUP5 DUP5 DUP5 ADD GT ISZERO PUSH2 0xC78 JUMPI PUSH2 0xC77 PUSH2 0xB90 JUMP JUMPDEST JUMPDEST PUSH2 0xC83 DUP5 DUP3 DUP6 PUSH2 0xC3C JUMP JUMPDEST POP SWAP4 SWAP3 POP POP POP JUMP JUMPDEST PUSH0 DUP3 PUSH1 0x1F DUP4 ADD SLT PUSH2 0xC9F JUMPI PUSH2 0xC9E PUSH2 0xB8C JUMP JUMPDEST JUMPDEST DUP2 CALLDATALOAD PUSH2 0xCAF DUP5 DUP3 PUSH1 0x20 DUP7 ADD PUSH2 0xC4A JUMP JUMPDEST SWAP2 POP POP SWAP3 SWAP2 POP POP JUMP JUMPDEST PUSH0 PUSH1 0x20 DUP3 DUP5 SUB SLT ISZERO PUSH2 0xCCD JUMPI PUSH2 0xCCC PUSH2 0x7B3 JUMP JUMPDEST JUMPDEST PUSH0 DUP3 ADD CALLDATALOAD PUSH8 0xFFFFFFFFFFFFFFFF DUP2 GT ISZERO PUSH2 0xCEA JUMPI PUSH2 0xCE9 PUSH2 0x7B7 JUMP JUMPDEST JUMPDEST PUSH2 0xCF6 DUP5 DUP3 DUP6 ADD PUSH2 0xC8B JUMP JUMPDEST SWAP2 POP POP SWAP3 SWAP2 POP POP JUMP JUMPDEST PUSH0 PUSH1 0x20 DUP3 ADD SWAP1 POP PUSH2 0xD12 PUSH0 DUP4 ADD DUP5 PUSH2 0x886 JUMP JUMPDEST SWAP3 SWAP2 POP POP JUMP JUMPDEST PUSH0 PUSH1 0x20 DUP3 DUP5 SUB SLT ISZERO PUSH2 0xD2D JUMPI PUSH2 0xD2C PUSH2 0x7B3 JUMP JUMPDEST JUMPDEST PUSH0 PUSH2 0xD3A DUP5 DUP3 DUP6 ADD PUSH2 0x834 JUMP JUMPDEST SWAP2 POP POP SWAP3 SWAP2 POP POP JUMP JUMPDEST PUSH0 PUSH1 0x80 DUP4 ADD PUSH0 DUP4 ADD MLOAD PUSH2 0xD58 PUSH0 DUP7 ADD DUP3 PUSH2 0xA14 JUMP JUMPDEST POP PUSH1 0x20 DUP4 ADD MLOAD DUP5 DUP3 SUB PUSH1 0x20 DUP7 ADD MSTORE PUSH2 0xD70 DUP3 DUP3 PUSH2 0xA33 JUMP JUMPDEST SWAP2 POP POP PUSH1 0x40 DUP4 ADD MLOAD PUSH2 0xD85 PUSH1 0x40 DUP7 ADD DUP3 PUSH2 0xA6B JUMP JUMPDEST POP PUSH1 0x60 DUP4 ADD MLOAD PUSH2 0xD98 PUSH1 0x60 DUP7 ADD DUP3 PUSH2 0xA6B JUMP JUMPDEST POP DUP1 SWAP2 POP POP SWAP3 SWAP2 POP POP JUMP JUMPDEST PUSH0 PUSH1 0x20 DUP3 ADD SWAP1 POP DUP2 DUP2 SUB PUSH0 DUP4 ADD MSTORE PUSH2 0xDBB DUP2 DUP5 PUSH2 0xD43 JUMP JUMPDEST SWAP1 POP SWAP3 SWAP2 POP POP JUMP JUMPDEST PUSH32 0x4E487B7100000000000000000000000000000000000000000000000000000000 PUSH0 MSTORE PUSH1 0x22 PUSH1 0x4 MSTORE PUSH1 0x24 PUSH0 REVERT JUMPDEST PUSH0 PUSH1 0x2 DUP3 DIV SWAP1 POP PUSH1 0x1 DUP3 AND DUP1 PUSH2 0xE07 JUMPI PUSH1 0x7F DUP3 AND SWAP2 POP JUMPDEST PUSH1 0x20 DUP3 LT DUP2 SUB PUSH2 0xE1A JUMPI PUSH2 0xE19 PUSH2 0xDC3 JUMP JUMPDEST JUMPDEST POP SWAP2 SWAP1 POP JUMP JUMPDEST PUSH32 0x596F757220617265206E6F7420746865206F776E657200000000000000000000 PUSH0 DUP3 ADD MSTORE POP JUMP JUMPDEST PUSH0 PUSH2 0xE54 PUSH1 0x16 DUP4 PUSH2 0x89F JUMP JUMPDEST SWAP2 POP PUSH2 0xE5F DUP3 PUSH2 0xE20 JUMP JUMPDEST PUSH1 0x20 DUP3 ADD SWAP1 POP SWAP2 SWAP1 POP JUMP JUMPDEST PUSH0 PUSH1 0x20 DUP3 ADD SWAP1 POP DUP2 DUP2 SUB PUSH0 DUP4 ADD MSTORE PUSH2 0xE81 DUP2 PUSH2 0xE48 JUMP JUMPDEST SWAP1 POP SWAP2 SWAP1 POP JUMP JUMPDEST PUSH32 0x547765657420697320746F6F206C6F6E672062726F2100000000000000000000 PUSH0 DUP3 ADD MSTORE POP JUMP JUMPDEST PUSH0 PUSH2 0xEBC PUSH1 0x16 DUP4 PUSH2 0x89F JUMP JUMPDEST SWAP2 POP PUSH2 0xEC7 DUP3 PUSH2 0xE88 JUMP JUMPDEST PUSH1 0x20 DUP3 ADD SWAP1 POP SWAP2 SWAP1 POP JUMP JUMPDEST PUSH0 PUSH1 0x20 DUP3 ADD SWAP1 POP DUP2 DUP2 SUB PUSH0 DUP4 ADD MSTORE PUSH2 0xEE9 DUP2 PUSH2 0xEB0 JUMP JUMPDEST SWAP1 POP SWAP2 SWAP1 POP JUMP JUMPDEST PUSH0 DUP2 SWAP1 POP DUP2 PUSH0 MSTORE PUSH1 0x20 PUSH0 KECCAK256 SWAP1 POP SWAP2 SWAP1 POP JUMP JUMPDEST PUSH0 PUSH1 0x20 PUSH1 0x1F DUP4 ADD DIV SWAP1 POP SWAP2 SWAP1 POP JUMP JUMPDEST PUSH0 DUP3 DUP3 SHL SWAP1 POP SWAP3 SWAP2 POP POP JUMP JUMPDEST PUSH0 PUSH1 0x8 DUP4 MUL PUSH2 0xF4C PUSH32 0xFFFFFFFFFFFFFFFFFFFFFFFFFFFFFFFFFFFFFFFFFFFFFFFFFFFFFFFFFFFFFFFF DUP3 PUSH2 0xF11 JUMP JUMPDEST PUSH2 0xF56 DUP7 DUP4 PUSH2 0xF11 JUMP JUMPDEST SWAP6 POP DUP1 NOT DUP5 AND SWAP4 POP DUP1 DUP7 AND DUP5 OR SWAP3 POP POP POP SWAP4 SWAP3 POP POP POP JUMP JUMPDEST PUSH0 DUP2 SWAP1 POP SWAP2 SWAP1 POP JUMP JUMPDEST PUSH0 PUSH2 0xF91 PUSH2 0xF8C PUSH2 0xF87 DUP5 PUSH2 0x815 JUMP JUMPDEST PUSH2 0xF6E JUMP JUMPDEST PUSH2 0x815 JUMP JUMPDEST SWAP1 POP SWAP2 SWAP1 POP JUMP JUMPDEST PUSH0 DUP2 SWAP1 POP SWAP2 SWAP1 POP JUMP JUMPDEST PUSH2 0xFAA DUP4 PUSH2 0xF77 JUMP JUMPDEST PUSH2 0xFBE PUSH2 0xFB6 DUP3 PUSH2 0xF98 JUMP JUMPDEST DUP5 DUP5 SLOAD PUSH2 0xF1D JUMP JUMPDEST DUP3 SSTORE POP POP POP POP JUMP JUMPDEST PUSH0 SWAP1 JUMP JUMPDEST PUSH2 0xFD2 PUSH2 0xFC6 JUMP JUMPDEST PUSH2 0xFDD DUP2 DUP5 DUP5 PUSH2 0xFA1 JUMP JUMPDEST POP POP POP JUMP JUMPDEST JUMPDEST DUP2 DUP2 LT ISZERO PUSH2 0x1000 JUMPI PUSH2 0xFF5 PUSH0 DUP3 PUSH2 0xFCA JUMP JUMPDEST PUSH1 0x1 DUP2 ADD SWAP1 POP PUSH2 0xFE3 JUMP JUMPDEST POP POP JUMP JUMPDEST PUSH1 0x1F DUP3 GT ISZERO PUSH2 0x1045 JUMPI PUSH2 0x1016 DUP2 PUSH2 0xEF0 JUMP JUMPDEST PUSH2 0x101F DUP5 PUSH2 0xF02 JUMP JUMPDEST DUP2 ADD PUSH1 0x20 DUP6 LT ISZERO PUSH2 0x102E JUMPI DUP2 SWAP1 POP JUMPDEST PUSH2 0x1042 PUSH2 0x103A DUP6 PUSH2 0xF02 JUMP JUMPDEST DUP4 ADD DUP3 PUSH2 0xFE2 JUMP JUMPDEST POP POP JUMPDEST POP POP POP JUMP JUMPDEST PUSH0 DUP3 DUP3 SHR SWAP1 POP SWAP3 SWAP2 POP POP JUMP JUMPDEST PUSH0 PUSH2 0x1065 PUSH0 NOT DUP5 PUSH1 0x8 MUL PUSH2 0x104A JUMP JUMPDEST NOT DUP1 DUP4 AND SWAP2 POP POP SWAP3 SWAP2 POP POP JUMP JUMPDEST PUSH0 PUSH2 0x107D DUP4 DUP4 PUSH2 0x1056 JUMP JUMPDEST SWAP2 POP DUP3 PUSH1 0x2 MUL DUP3 OR SWAP1 POP SWAP3 SWAP2 POP POP JUMP JUMPDEST PUSH2 0x1096 DUP3 PUSH2 0x895 JUMP JUMPDEST PUSH8 0xFFFFFFFFFFFFFFFF DUP2 GT ISZERO PUSH2 0x10AF JUMPI PUSH2 0x10AE PUSH2 0xB94 JUMP JUMPDEST JUMPDEST PUSH2 0x10B9 DUP3 SLOAD PUSH2 0xDF0 JUMP JUMPDEST PUSH2 0x10C4 DUP3 DUP3 DUP6 PUSH2 0x1004 JUMP JUMPDEST PUSH0 PUSH1 0x20 SWAP1 POP PUSH1 0x1F DUP4 GT PUSH1 0x1 DUP2 EQ PUSH2 0x10F5 JUMPI PUSH0 DUP5 ISZERO PUSH2 0x10E3 JUMPI DUP3 DUP8 ADD MLOAD SWAP1 POP JUMPDEST PUSH2 0x10ED DUP6 DUP3 PUSH2 0x1072 JUMP JUMPDEST DUP7 SSTORE POP PUSH2 0x1154 JUMP JUMPDEST PUSH1 0x1F NOT DUP5 AND PUSH2 0x1103 DUP7 PUSH2 0xEF0 JUMP JUMPDEST PUSH0 JUMPDEST DUP3 DUP2 LT ISZERO PUSH2 0x112A JUMPI DUP5 DUP10 ADD MLOAD DUP3 SSTORE PUSH1 0x1 DUP3 ADD SWAP2 POP PUSH1 0x20 DUP6 ADD SWAP5 POP PUSH1 0x20 DUP2 ADD SWAP1 POP PUSH2 0x1105 JUMP JUMPDEST DUP7 DUP4 LT ISZERO PUSH2 0x1147 JUMPI DUP5 DUP10 ADD MLOAD PUSH2 0x1143 PUSH1 0x1F DUP10 AND DUP3 PUSH2 0x1056 JUMP JUMPDEST DUP4 SSTORE POP JUMPDEST PUSH1 0x1 PUSH1 0x2 DUP9 MUL ADD DUP9 SSTORE POP POP POP JUMPDEST POP POP POP POP POP POP JUMP JUMPDEST PUSH32 0x4E487B7100000000000000000000000000000000000000000000000000000000 PUSH0 MSTORE PUSH1 0x32 PUSH1 0x4 MSTORE PUSH1 0x24 PUSH0 REVERT INVALID LOG2 PUSH5 0x6970667358 0x22 SLT KECCAK256 PUSH25 0xE33DFF86A6F6C3B9B60F44A6F389C764CD245726BB4E388E84 PUSH4 0xE439A93C 0xEB PUSH5 0x736F6C6343 STOP ADDMOD BYTE STOP CALLER "
				},
				"gasEstimates": {
					"creation": {
						"codeDepositCost": "908600",
						"executionCost": "49471",
						"totalCost": "958071"
					},
					"external": {
						"createTweet(string)": "infinite",
						"createTweetLength(uint16)": "26842",
						"getAllTweets(address)": "infinite",
						"getTweet(uint256)": "infinite",
						"owner()": "2574",
						"tweets(address,uint256)": "infinite"
					}
				},
				"methodIdentifiers": {
					"createTweet(string)": "7c9cd2bc",
					"createTweetLength(uint16)": "086756ee",
					"getAllTweets(address)": "12e7ee1c",
					"getTweet(uint256)": "c3ad5ecb",
					"owner()": "8da5cb5b",
					"tweets(address,uint256)": "05a1b4a9"
				}
			},
			"storageLayout": {
				"storage": [
					{
						"astId": 4,
						"contract": "contracts/Tweet with Modifier.sol:Twitter",
						"label": "MAX_TWEET_LENGTH",
						"offset": 0,
						"slot": "0",
						"type": "t_uint16"
					},
					{
						"astId": 19,
						"contract": "contracts/Tweet with Modifier.sol:Twitter",
						"label": "tweets",
						"offset": 0,
						"slot": "1",
						"type": "t_mapping(t_address,t_array(t_struct(Tweet)13_storage)dyn_storage)"
					},
					{
						"astId": 21,
						"contract": "contracts/Tweet with Modifier.sol:Twitter",
						"label": "owner",
						"offset": 0,
						"slot": "2",
						"type": "t_address"
					}
				],
				"types": {
					"t_address": {
						"encoding": "inplace",
						"label": "address",
						"numberOfBytes": "20"
					},
					"t_array(t_struct(Tweet)13_storage)dyn_storage": {
						"base": "t_struct(Tweet)13_storage",
						"encoding": "dynamic_array",
						"label": "struct Twitter.Tweet[]",
						"numberOfBytes": "32"
					},
					"t_mapping(t_address,t_array(t_struct(Tweet)13_storage)dyn_storage)": {
						"encoding": "mapping",
						"key": "t_address",
						"label": "mapping(address => struct Twitter.Tweet[])",
						"numberOfBytes": "32",
						"value": "t_array(t_struct(Tweet)13_storage)dyn_storage"
					},
					"t_string_storage": {
						"encoding": "bytes",
						"label": "string",
						"numberOfBytes": "32"
					},
					"t_struct(Tweet)13_storage": {
						"encoding": "inplace",
						"label": "struct Twitter.Tweet",
						"members": [
							{
								"astId": 6,
								"contract": "contracts/Tweet with Modifier.sol:Twitter",
								"label": "author",
								"offset": 0,
								"slot": "0",
								"type": "t_address"
							},
							{
								"astId": 8,
								"contract": "contracts/Tweet with Modifier.sol:Twitter",
								"label": "content",
								"offset": 0,
								"slot": "1",
								"type": "t_string_storage"
							},
							{
								"astId": 10,
								"contract": "contracts/Tweet with Modifier.sol:Twitter",
								"label": "timestamp",
								"offset": 0,
								"slot": "2",
								"type": "t_uint256"
							},
							{
								"astId": 12,
								"contract": "contracts/Tweet with Modifier.sol:Twitter",
								"label": "likes",
								"offset": 0,
								"slot": "3",
								"type": "t_uint256"
							}
						],
						"numberOfBytes": "128"
					},
					"t_uint16": {
						"encoding": "inplace",
						"label": "uint16",
						"numberOfBytes": "2"
					},
					"t_uint256": {
						"encoding": "inplace",
						"label": "uint256",
						"numberOfBytes": "32"
					}
				}
			},
			"userdoc": {
				"kind": "user",
				"methods": {},
				"version": 1
			}
		}
	}
}